:100000000C9452050C941D2A0C94F5290C947A0535
:100010000C947A050C947A050C947A050C947A0564
:100020000C947A050C947A050C947A050C947A0554
:100030000C947A050C947A050C947A050C947A0544
:100040000C947F280C947A050C947A050C947A050C
:100050000C947A050C947A050C947A050C947A0524
:100060000C94D6280C947A05000103070F1F3F7FDC
:100070000080C0E0F0F8FCFE00000000003E5B4F96
:100080005B3E3E6B4F6B3E1C3E7C3E1C183C7E3CF8
:10009000181C577D571C1C5E7F5E1C00183C180006
:1000A000FFE7C3E7FF0018241800FFE7DBE7FF3096
:1000B000483A060E2629792926407F050507407F04
:1000C00005253F5A3CE73C5A7F3E1C1C08081C1C77
:1000D0003E7F14227F22145F5F005F5F06097F016D
:1000E0007F006689956A606060606094A2FFA29458
:1000F00008047E040810207E201008082A1C080826
:100100001C2A08081E101010100C1E0C1E0C303873
:100110003E3830060E3E0E06000000000000005F74
:1001200000000007000700147F147F14242A7F2A90
:100130001223130864623649562050000807030052
:10014000001C2241000041221C002A1C7F1C2A089E
:10015000083E080800807030000808080808000001
:1001600060600020100804023E5149453E00427F75
:10017000400072494949462141494D331814127FC4
:100180001027454545393C4A494931412111090764
:100190003649494936464949291E000014000000E5
:1001A00040340000000814224114141414140041B7
:1001B00022140802015909063E415D594E7C121174
:1001C000127C7F494949363E414141227F414141AC
:1001D0003E7F494949417F090909013E4141517327
:1001E0007F0808087F00417F41002040413F017F98
:1001F000081422417F404040407F021C027F7F0460
:1002000008107F3E4141413E7F090909063E4151A8
:10021000215E7F09192946264949493203017F0198
:10022000033F4040403F1F2040201F3F4038403F99
:10023000631408146303047804036159494D4300AF
:100240007F4141410204081020004141417F0402E6
:10025000010204404040404000030708002054547D
:1002600078407F284444383844444428384444285B
:100270007F385454541800087E090218A4A49C78AE
:100280007F0804047800447D40002040403D007F0A
:100290001028440000417F40007C047804787C08EA
:1002A0000404783844444438FC18242418182424BE
:1002B00018FC7C08040408485454542404043F44A3
:1002C000243C4040207C1C2040201C3C4030403CD2
:1002D00044281028444C9090907C4464544C440032
:1002E0000836410000007700000041360800020196
:1002F0000204023C2623263C1EA1A161123A404082
:10030000207A3854545559215555794122545478FE
:1003100042215554784020545579400C1E52721297
:100320003955555559395454545939555454580020
:1003300000457C410002457D420001457C407D1224
:1003400011127DF0282528F07C5455450020545486
:100350007C547C0A097F4932494949323A44444431
:100360003A324A4848303A4141217A3A424020786C
:10037000009DA0A07D3D4242423D3D4040403D3C6D
:1003800024FF2424487E4943662B2FFC2F2BFF0992
:1003900029F620C0887E0903205454794100004486
:1003A0007D413048484A32384040227A007A0A0A71
:1003B000727D0D19317D2629292F282629292926E4
:1003C00030484D4020380808080808080808382F29
:1003D00010C8ACBA2F102834FA00007B00000814B3
:1003E0002A142222142A14085500550055AA55AA89
:1003F00055AAFF55FF55FF000000FF00101010FF29
:1004000000141414FF001010FF00FF1010F010F083
:10041000141414FC001414F700FF0000FF00FF1474
:1004200014F404FC141417101F10101F101F1414C0
:10043000141F00101010F0000000001F101010100A
:100440001F10101010F010000000FF1010101010FE
:1004500010101010FF10000000FF140000FF00FF3C
:1004600000001F10170000FC04F4141417101714D8
:1004700014F404F40000FF00F714141414141414FA
:10048000F700F7141414171410101F101F1414146D
:10049000F4141010F010F000001F101F0000001FD7
:1004A00014000000FC140000F010F01010FF10FF0A
:1004B000141414FF141010101F00000000F010FF9F
:1004C000FFFFFFFFF0F0F0F0F0FFFFFF0000000083
:1004D00000FFFF0F0F0F0F0F3844443844FC4A4A07
:1004E0004A347E02020606027E027E0263554941BC
:1004F000633844443C04407E201E2006027E0202F3
:1005000099A5E7A5991C2A492A1C4C7201724C3006
:100510004A4D4D303048784830BC625A463D3E49DD
:100520004949007E0101017E2A2A2A2A2A44445F81
:10053000444440514A444040444A51400000FF0175
:1005400003E080FF000008086B6B08361236243683
:10055000060F090F060000181800000010100030E8
:1005600040FF0101001F01011E00191D1712003C70
:100570003C3C3C0000000000005EBCE2613FDD83CB
:10058000C29C7E20A3FD1F41009D23BE46DB65F873
:100590008C11AF32CA57E974000000002400270014
:1005A0002A00DB40A4A62EAFDA0281DA1281DA0239
:1005B000818F2000A1C8D300408DAED580A8000057
:1005C0000000250028002B00000060000000000053
:1005D000000000000000000000E00000000000003B
:1005E0000000000000000001E0000000000000002A
:1005F00000000000000001F000000000000000000A
:10060000000000000003F0000000000000000000F7
:100610000000000007F000000000000000000000E3
:1006200000000007F80000000000000000000000CB
:1006300000000FF800000003C0007E000001E00091
:100640007F0FF800000003C000FE000001E000FF83
:10065000EFF800000003C000FE000001E000FFFF13
:10066000F800000003C000F00000000F007FFE7FD4
:10067000C0000003C000F00000000F003FFE7FF844
:100680003FF1FBCFFCFEF3BC3DEFE01FFE7FFF7FA1
:10069000FBFFDFFEFEFFBC3DEFE01FC6FFFF7FFB61
:1006A000FFDFFEFEFFBC3DEFE00FE3C7FE787BC33C
:1006B000DE1EF0FFBC3DEF0007FF87FC787BC3DE4A
:1006C0001EF0F83C3DEF0001FFFFF0007BC3C01EB1
:1006D000F0F03C3DEF0001F37FE03FFBC3CFFEF0C5
:1006E000F03C3DEF0003E33F807FFBC3DFFEF0F013
:1006F0003C3DEF0007E73C00787BC3DE1EF0F03C9A
:100700003DEF0007FFBE00787BC3DE1EF0F03C3DEE
:10071000EF0007FFFE00787BC3DE1EF0F03C3DEFEC
:10072000000FFFFE007FFBFFDFFEF0F03FFDEFE07C
:100730000FFFFF007FFBFFDFFEF0F03FFDEFE00F5C
:10074000F9FF003E79F9CF9EF0F01F3DE7E01FF181
:10075000FF0000000000000000000000001F80FFFC
:10076000007FFFFFFFFFFFFFFFFFFFE01C007F0098
:100770007FFFFFFFFEB46D888D18E000001F007F33
:10078000FFFFFFFE95AD7DB577E000000F007FFF16
:10079000FFFFFEA5AD9D8D19E0000006007FFFFF65
:1007A000FFFEB5ADEDB57EE0000000000001800069
:1007B00000000000000000000380000000000000B6
:1007C00000000007C000000000000000000007C09B
:1007D0000000000000000000000FC000000000004A
:1007E000000000001FE00000000000000000001FEB
:1007F000E00000000000000000003FE000000000FA
:1008000000000000003FF0000000000000000000B9
:100810007FF0000000000000001FF87FF0000000E3
:10082000000000003FFE7FF0000000000000003FDD
:10083000FF7FF0000000000000001FFFFBE0000051
:1008400000000000000FFFF9FFC0000000000000E2
:100850000FFFF9FFF800000000000007FFF1FFFFA5
:1008600000000000000003FC73FFFF800000000098
:100870000001FE3FFFFF80000000000000FF1E0F90
:10088000FF000000000000007FFE1FFC00000000D1
:100890000000003FFFFFF8000000000000000FDF35
:1008A000FFE0000000000000001F19FFC000000072
:1008B000000000003F3CFF00000000000000007E40
:1008C0007CF800000000000000007FFE7C000000BB
:1008D0000000000000FFFFFC00000000000000001E
:1008E000FFFFFE0000000000000000FFFFFE000010
:1008F000000000000001FFEFFE000000000000000B
:1009000001FFCFFE0000000000000003FF07FE0013
:1009100000000000000003FC07FE000000000000D3
:100920000003F003FE00000000000000018000FE54
:10093000000000000000000000007E000000000039
:1009400000000000003E0000000000000000000069
:100950000C000000000000078000FC000003C00045
:100960000000078001FC000003C0000000078001B8
:10097000FC000003C0000000078001E00000001E32
:10098000000000078001E00000001E007FE3F79FE9
:10099000F9FDE7787BDFC0FFF7FFBFFDFDFF787B48
:1009A000DFC0FFF7FFBFFDFDFF787BDFC0F0F787FB
:1009B000BC3DE1FF787BDE00F0F787BC3DE1F078DD
:1009C0007BDE0000F787803DE1E0787BDE007FF78B
:1009D000879FFDE1E0787BDE00FFF787BFFDE1E068
:1009E000787BDE00F0F787BC3DE1E0787BDE00F04D
:1009F000F787BC3DE1E0787BDE00F0F787BC3DE1A6
:100A0000E0787BDE00FFF7FFBFFDE1E07FFBDFC0AA
:100A1000FFF7FFBFFDE1E07FFBDFC07CF3F39F3D0D
:100A2000E1E03E7BCFC000000000000000000000BD
:100A300000FFFFFFFFFFFFFFFFFFFFC0FFFFFFFF04
:100A4000FD68DB111A31C0FFFFFFFFFD2B5AFB6A67
:100A5000EFC0FFFFFFFFFD4B5B3B1A33C0FFFFFF03
:100A6000FFFD6B5BDB6AFDC02200FF210001020479
:100A70000810204080010204081020010204081020
:100A800020000000002300260029000404040404C0
:100A9000040404020202020202030303030303002C
:100AA000452A973111241FBECFEFD8E0DEBFCDBF5E
:100AB00012E0A0E0B1E0E4E7FBE602C005900D9291
:100AC000A63BB107D9F724E0A6EBB2E001C01D9226
:100AD000A135B207E1F715E0C1E5D5E004C02197E3
:100AE000FE010E946D34C035D107C9F70E94C02BAA
:100AF0000C94AD350C94000091E09093B103809379
:100B0000B0031092AF031092AE0308959091A50325
:100B10009111FCCF91E09093A5039093A4032FEF44
:100B20002093A3031092A203260F2093A103909376
:100B3000A0039091A003880F892B8093A00380913C
:100B40009F038130F9F410929F038091A00380935A
:100B5000BB008091BC0083FDF8CF85EC8093BC0086
:100B60008091A5038130E1F38091A203861710F4F0
:100B70006091A203AFE7B3E0EFE5F3E080E0861316
:100B800003C0089585EEEACF9D9191938F5FF7CFD3
:100B90008F929F92AF92BF92CF92DF92EF92FF928D
:100BA000CF93611571058105910521F461E070E035
:100BB00080E090E023E0660F771F881F991F2A9539
:100BC000D1F76115710521E08207910508F44EC047
:100BD0006115710528E08207910508F44BC0611585
:100BE000710520E48207910508F048C020E430E058
:100BF000C3E06901F12CE12CA7010E94D031490129
:100C00005A0180918000807F80938000C861C093EA
:100C10008100C9010197909387008093860080919D
:100C20008100877080935E0360E072E18AE790E064
:100C3000A70196010E94A631AA24BB24CA01B901CA
:100C4000A50194010E94A63160E472E48FE090E077
:100C50000E94D031CA01B901CF91FF90EF90DF908F
:100C6000CF90BF90AF909F908F90089521E030E09B
:100C7000C1E0BFCF28E030E0C2E0BBCF20E031E0F0
:100C8000C4E0B7CF80915C0390915D03891B990B01
:100C9000089508950895482FE62F282F30E08630D4
:100CA00009F459C000F58330E1F1853009F44FC0F3
:100CB0004830E0F14E3010F1443108F063C02E505E
:100CC000310981E090E0A0E0B0E004C0880F991FF6
:100CD000AA1FBB1F2A95D2F728B1EE2309F44FC0F3
:100CE000822B88B908958A30C9F18B30D9F18930C7
:100CF000F9F6809180008F77809380002850310929
:100D000081E090E0A0E0B0E004C0880F991FAA1F26
:100D1000BB1F2A95D2F7E1112EC025B18095822301
:100D20002CC09091B0009F7D9093B00081E090E046
:100D3000A0E0B0E004C0880F991FAA1FBB1F4A950E
:100D4000D2F72BB1EE23A1F0822B8BB9089594B585
:100D50009F7D94BDEBCF94B59F77FBCF80918000B2
:100D60008F7DCACF8091B0008F778093B000C6CFBF
:100D700080958223EACF25B1822B85B9089580958D
:100D80008223AFCF089510925D0310925C031092FE
:100D9000AF031092AE031092A50381E08093A403E9
:100DA00010929F03449A459AE9EBF0E080818E7F90
:100DB000808380818D7F808380E28093B80085E48A
:100DC0008093BC0089E496E090935B0380935A0380
:100DD0008AE496E090935903809358030895089508
:100DE000CF92DF92EF92FF920F931F93613009F43D
:100DF00060C0623009F499C08830B8F42AB141E08B
:100E000050E060E070E06A017B0104C0CC0CDD1CA6
:100E1000EE1CFF1C8A95D2F7C6018095922F98236D
:100E20009AB99BB189238BB93DC08E30B8F424B1F7
:100E3000082F0850110B81E090E0A0E0B0E004C062
:100E4000880F991FAA1FBB1F0A95D2F78095922F72
:100E5000982394B995B1892385B924C0843110F5BC
:100E6000E7B190E09C012E50310941E050E060E094
:100E700070E06A017B0104C0CC0CDD1CEE1CFF1C81
:100E80002A95D2F7860100950E2307B928B1089755
:100E900004C0440F551F661F771F8A95D2F74095EF
:100EA000422348B91F910F91FF90EF90DF90CF90B0
:100EB0000895883090F42AB141E050E060E070E09D
:100EC0007A018B0104C0EE0CFF1C001F111F8A95D4
:100ED000D2F7C701822B8AB9E5CF8E3090F424B1C6
:100EE000082F0850110B81E090E0A0E0B0E004C0B2
:100EF000880F991FAA1FBB1F0A95D2F7822B84B9AE
:100F0000D1CF843178F627B1682F6E50770B81E00E
:100F100090E0A0E0B0E004C0880F991FAA1FBB1F9B
:100F20006A95D2F7822B87B9BDCF8830B0F43AB139
:100F300041E050E060E070E06A017B0104C0CC0C4D
:100F4000DD1CEE1CFF1C8A95D2F7C6012C2D2095C6
:100F500023232AB92BB1822B66CF8E30B0F434B163
:100F6000082F0850110B81E090E0A0E0B0E004C031
:100F7000880F991FAA1FBB1F0A95D2F7282F20950B
:100F8000232324B925B1822B67CF843108F08ACF7F
:100F900037B1682F6E50770B81E090E0A0E0B0E0B1
:100FA00004C0880F991FAA1FBB1F6A95D2F7282F6C
:100FB0002095232327B928B1822B88B973CFAF920C
:100FC000BF92CF92DF92EF92FF920F931F93CF9336
:100FD000DF936C017B018B01040F151FEB015E0198
:100FE000AE18BF08C017D10759F06991D601ED912D
:100FF000FC910190F081E02DC6010995892B79F7CC
:10100000C501DF91CF911F910F91FF90EF90DF907D
:10101000CF90BF90AF900895880F991F04970197C4
:10102000F1F708953FB7F89480913303909134031A
:10103000A0913503B091360326B5A89B05C02F3F7C
:1010400019F00196A11DB11D3FBFBA2FA92F982FEE
:101050008827BC01CD01620F711D811D911D43E0E8
:10106000660F771F881F991F4A95D1F708958F92B1
:101070009F92AF92BF92CF92DF92EF92FF926B015D
:101080007C010E9412084B015C01C114D104E104EF
:10109000F104B9F00E941208681979098A099B09BC
:1010A000683E73408105910580F381E0C81AD1083C
:1010B000E108F10828EE820E23E0921EA11CB11C6B
:1010C000E4CFFF90EF90DF90CF90BF90AF909F90D4
:1010D0008F9008952FB7F89460912F03709130038B
:1010E00080913103909132032FBF0895DC0180E09D
:1010F000615090F09D919827E92FEF70F0E0E8584B
:10110000FA4F2491E92FE295EF70F0E0E857FA4F9B
:10111000E491822F8E27ECCF08950F931F93CF93E6
:10112000DF93FC011081C181D281F8948981812BE8
:1011300089838A81012F009580238A8383E090E050
:101140000E940C088981802389838AE090E00E94B4
:101150000C08C881789485E390E00E940C08C123B4
:1011600081E009F480E0DF91CF911F910F91089504
:101170001F93CF93DF93FC011081C181D281912F06
:10118000909560FF16C0F8948A8189238A838981AB
:10119000812B89838AE090E00E940C088A81182BB9
:1011A0001A83789487E390E0DF91CF911F910C949C
:1011B0000C08F8948A8189238A838981812B898309
:1011C00081E490E00E940C088A81182B1A8378949D
:1011D00085E090E0E9CFDF92EF92FF920F931F93AB
:1011E000CF93DF93EC01D62EE42E08E010E0FF242D
:1011F000F39461E08D2D8F2109F460E0CE010E940F
:10120000B808FF0C01501109A1F7E11010C0F894C3
:10121000E981FA8191818881809589238183E9819F
:10122000FA81928188818095892382837894DF91E5
:10123000CF911F910F91FF90EF90DF900895EF9263
:10124000FF920F931F93CF93DF938C017B0140E0BC
:1012500065E50E94EB08E70188E0E80EF11C699162
:1012600040E0C8010E94EB08CE15DF05C1F7DF9111
:10127000CF911F910F91FF90EF9008950895FC0179
:101280006370668B8481958126813781613039F066
:10129000633029F0918780873387228708953187CB
:1012A00020879387828708952F923F924F925F9273
:1012B0006F927F928F929F92AF92BF92CF92DF9266
:1012C000EF92FF920F931F93CF93DF93CDB7DEB7CB
:1012D0006A970FB6F894DEBF0FBECDBF9A8F898F85
:1012E0007A8369834A01D22E18870F833701BC2C79
:1012F000DC0159962D913C915A972115310509F041
:1013000015C118968D919C911997681779070CF063
:10131000D7C11A968D919C91481759070CF0D0C1EE
:101320004C2C512CB6E0CB9E600D711D11247C8796
:101330006B87161617060CF0C3C1EA2DF0E0FA878A
:10134000E98793E0EE0FFF1F9A95E1F7F88BEF879F
:10135000CF01840F951F181619060CF0B1C1A98D85
:10136000BA8D58968C91811104C0BFEABD1508F45E
:10137000D394A98DBA8DED91FC9111970284F385D8
:10138000E02DCD010995B5E0DB9EC0011124E98176
:10139000FA81FC83EB83312C212C9C0128583F4F90
:1013A000388F2F8B4A2D50E05E8B4D8BEF89F88D57
:1013B000E20DF31D44919E828D82D12CC12C698156
:1013C0007A81620D731D7A8B698B842F90E09C8BE0
:1013D0008B8BE98DFA8DA081B18140FF82C0F1E055
:1013E000BF126FC0AF126DC01C96ED91FC912F81A2
:1013F0003885A4014C0D5D1D69897A89898D9A8D86
:101400000995EB89FC89F595E7954E2F5FEFC51A95
:10141000D50A6D817E818D899E89680F791F7E83B3
:101420006D8398E0C916D10481F6AFEF2A1A3A0A03
:10143000EB81FC81E40DF51DFC83EB83F5E02F16B9
:10144000310409F0B3CF2F81388526153705B9F05F
:10145000A98DBA8DED91FC91B1E0BB1257C0AB12D2
:1014600055C069817A816B5F7F4F0088F189E02DDB
:10147000830128E030E0A401898D9A8D0995A98D1A
:10148000BA8DED91FC9111970688F789E02DCD0179
:101490006A960FB6F894DEBF0FBECDBFDF91CF9135
:1014A0001F910F91FF90EF90DF90CF90BF90AF9082
:1014B0009F908F907F906F905F904F903F902F9074
:1014C00009941E96ED91FC91EF80F88409851A85A8
:1014D00092014D815E816B817C81898D9A8D099508
:1014E00090CF2F8138852615370509F48ACF31E052
:1014F000B31207C0A31205C01C96ED91FC91930195
:1015000078CF1E96ED91FC917301E0CF6B857C85C1
:10151000641975090684F785E02D73010F85188914
:101520009201A401898D9A8D0995A9CFF90134966C
:101530009491329745915491D91AB7E0DB9E400DB2
:10154000511D1124F901259134913C8B2B8BFA010B
:1015500025903490FA013296749031963491398BFB
:10156000329664903196449041E04C1518F04A153B
:1015700008F07FC0662D062C000C770B7C836B83F4
:10158000842D042C000C990B9E838D83A98DBA8D1C
:10159000ED91FC9111970284F385E02DCD01099521
:1015A000512CD12CC12CEA2DF0E0FA87E9872B2DA4
:1015B00030E03C872B87A401440D511D47FC5A9510
:1015C000588F4F8B69817A81660D711D67FC7A9502
:1015D0007E876D877989C71608F051CF2C2D30E0B2
:1015E0004D815E81420F531FA985BA854A9FC00174
:1015F0004B9F900D5A9F900D1124FC01E80DF91D91
:10160000F88BEF87852D612C4F89588D420F531F22
:101610005E8B4D8B671408F050C044244394480EF1
:10162000877041F4C1010196EB89FC89E20DF31D3D
:10163000D4901C01D7FE19C0A98DBA8DED91FC91F3
:10164000662D70E0B1E0BB1219C0AB1217C02D853A
:101650003E85620F731F0484F585E02D2F81388548
:101660004D895E89898D9A8D0995DD0C6394842D51
:10167000D1CF1E821D821C821B8288CF4B815C8150
:10168000640F751FAB85BC856A9FC0016B9F900D71
:101690007A9F900D112469817A81680F791F0684E1
:1016A000F785E02DEF80F88409851A859D014F8527
:1016B0005889898D9A8D0995D8CF570CC3948ACFB4
:1016C0006A960FB6F894DEBF0FBECDBFDF91CF9103
:1016D0001F910F91FF90EF90DF90CF90BF90AF9050
:1016E0009F908F907F906F905F904F903F902F9042
:1016F00008958F929F92AF92CF92EF92FF920F93A5
:101700001F93CF93DF93EC01262F898D9A8D00973D
:1017100009F051C06A30D1F41D861C868D8948E0DD
:10172000849F900111248E859F85820F931F9F8730
:101730008E8781E090E0DF91CF911F910F91FF9014
:10174000EF90CF90AF909F908F9008956D3089F378
:10175000CC88AD888F898823C1F08C859D8536E043
:10176000C39E800D911D112448855985481759073E
:1017700064F44E855F851D861C8638E0A39EC001FB
:101780001124840F951F9F878E87EA88FB8808891C
:1017900019894E855F856C857D85CE010E9454092F
:1017A0002C898C859D8546E0249F800D911D1124F8
:1017B0009D878C87BECF6A3069F41D861C86FC012C
:1017C0003896E4912D898E859F85E29F800D911D2D
:1017D0001124ADCF6D3009F4ACCFFC0134963491B7
:1017E000631708F4A6CF3296E491E61708F4A1CF68
:1017F000FC01329685909490462F431B342F47E08E
:10180000349F800C911C1124F4013296349131964E
:10181000E4913323A9F1EE2399F1CC88F4013596B4
:10182000E491AD884F89442301F10E2E000CFF0B8B
:10183000E30FF11DCE9EA001CF9E500D11246C85AB
:101840007D85460F571F68857985641775076CF489
:101850004E855F851D861C86FC013896E491AE9E00
:10186000400D511D11245F874E87EA88FB88088947
:1018700019894E855F856C857D85CE010E9454094E
:10188000F4013496E4912C898C859D85E29F800D2E
:10189000911D11248DCF682F84EE93E00C94790B69
:1018A0006F927F928F929F92AF92BF92CF92DF9270
:1018B000EF92FF920F931F93CF93DF93EC016B0195
:1018C0005A0139014801E881F9810284F385E02D4C
:1018D0000995E881F9810288F389E02D8701930158
:1018E000A501B601CE010995A501480D591D41502C
:1018F0005109E881F9810288F389E02D9301B6014D
:10190000CE010995E881F9810088F189E02D9401E3
:10191000A501B601CE010995C60CD71CB6016150D0
:101920007109E881F9810088F189E02D9401A50110
:10193000CE010995E881F9810688F789E02DCE016D
:10194000DF91CF911F910F91FF90EF90DF90CF909B
:10195000BF90AF909F908F907F906F9009946F92FF
:101960007F928F929F92AF92BF92CF92DF92EF922F
:10197000FF920F931F93CF93DF935C01EB016A01FA
:10198000490138018701DC01ED91FC916217730771
:1019900019F5641675062CF0962D872D3A01C92E7F
:1019A000D82E9601261937092F5F3F4F048CF58DED
:1019B000E02DA301BE01C5010995DF91CF911F91D3
:1019C0000F91FF90EF90DF90CF90BF90AF909F90DE
:1019D0008F907F906F9008954615570591F42617C4
:1019E000370724F0892D4B01C22FD82F9E012819CB
:1019F00039092F5F3F4F068CF78DE02DA601B4010A
:101A0000DACF0284F385E02D0995D501ED91FC91A3
:101A10000488F589E02D83019401A601BE01C5016A
:101A20000995D501ED91FC910688F789E02DC50156
:101A3000DF91CF911F910F91FF90EF90DF90CF90AA
:101A4000BF90AF909F908F907F906F900994EF928E
:101A5000FF920F931F93DC011A960D911C911B9717
:101A600018962D913C911997ED91FC9100A0F1A150
:101A7000E02D7B0150E040E070E060E009951F91AF
:101A80000F91FF90EF9008954F925F926F927F9227
:101A90008F929F92AF92BF92CF92DF92EF92FF927E
:101AA0000F931F93CF93DF936C012B015A013901E0
:101AB0004801DC01ED91FC910284F385E02D09954C
:101AC000E201640C751CD601ED91FC91C615D70599
:101AD0005CF40088F189E02D87019401A501BE0125
:101AE000C60109952196EFCF0688F789E02DC6013A
:101AF000DF91CF911F910F91FF90EF90DF90CF90EA
:101B0000BF90AF909F908F907F906F905F904F901D
:101B100009948F929F92AF92BF92CF92DF92EF92F1
:101B2000FF920F931F93CF93DF93EC015B014A0168
:101B30006901E881F9810284F385E02D0995950119
:101B40002C0D3D1D21503109E881F9810488F5896A
:101B5000E02D78018401A401B501CE010995E88149
:101B6000F9810688F789E02DCE01DF91CF911F9191
:101B70000F91FF90EF90DF90CF90BF90AF909F902C
:101B80008F9009948F929F92AF92BF92CF92DF92E3
:101B9000EF92FF920F931F93CF93DF93EC015B01C2
:101BA0004A0169017801E881F9810284F385E02D19
:101BB0000995C80CD91C860101501109E881F981E9
:101BC0000488F589E02D9501A401B501CE010995A0
:101BD000E881F9810688F789E02DCE01DF91CF9168
:101BE0001F910F91FF90EF90DF90CF90BF90AF903B
:101BF0009F908F900994EF92FF920F931F93DC01B7
:101C0000ED91FC9100A0F1A1E02D09951F910F919C
:101C1000FF90EF9008950F931F93DC01ED91FC91DD
:101C2000068CF78DE02D09951F910F9108950F9364
:101C30001F93DC01ED91FC91048CF58DE02D09954D
:101C40001F910F910895DC01ED91FC910084F185C5
:101C5000E02D09943F924F925F926F927F928F9204
:101C60009F92AF92BF92CF92DF92EF92FF920F932B
:101C70001F93CF93DF935C017B014A016901390116
:101C800087E0680E711C93E0759467949A95E1F76C
:101C90002B01400E511E10E000E0312CD0E0C0E0DE
:101CA000CE0187709927330C892B59F4FE0183E00C
:101CB000F595E7958A95E1F7E00FF11FE80DF91D1D
:101CC000349037FE0AC021E030E0A701B5016C0F67
:101CD0007D1F84EE93E00E94230E2196CC16DD0634
:101CE000F9F68FEFE81AF80A060D171DE414F5044B
:101CF000A9F6DF91CF911F910F91FF90EF90DF90A8
:101D0000CF90BF90AF909F908F907F906F905F909B
:101D10004F903F9008952F923F924F925F926F9213
:101D20007F928F929F92AF92BF92CF92DF92EF926B
:101D3000FF920F931F93CF93DF9300D000D000D07A
:101D4000CDB7DEB73C016A013E832D83FC82EB8276
:101D50005801A41AB50AB7FE03C0B194A194B10802
:101D60008D809E80861A970A97FE03C09194819475
:101D700091088A149B045CF0902F812F0D811E81A5
:101D80009D838E839C2D8D2D6B01692F782F0C15D3
:101D90001D055CF09D818E817E836D83692F782F78
:101DA000902F812F8601C92ED82E1601201A310AB4
:101DB0002B012D813E81421A530A57FE03C05194D4
:101DC00041945108710137FE03C03FEFE31AF30A53
:101DD000F594E7948D819E81861797075CF5A1E0C5
:101DE000B0E0BA83A983C016D1064CF1D301ED91BE
:101DF000FC910484F585E02D2B813C81A8016D8147
:101E00007E818A149B041CF04D815E81B801C30160
:101E10000995E418F508F7FE0AC02D813E818981F5
:101E20009A81280F391F3E832D83E20CF31C0F5F2C
:101E30001F4FD9CF2FEF3FEF3A832983D4CF269678
:101E40000FB6F894DEBF0FBECDBFDF91CF911F91CB
:101E50000F91FF90EF90DF90CF90BF90AF909F9049
:101E60008F907F906F905F904F903F902F9008954C
:101E700085ED8093BC008091BC0084FDFCCF109266
:101E8000A503089520910B03260F3327331F21321A
:101E90003105ECF42091A503FC0190E080E02430B2
:101EA00069F082E00895A0910B032191AC014551A6
:101EB0005D4FA40FB52FB11D2C930196861798F393
:101EC00080910B03680F60930B0380E0089581E01D
:101ED0000895E0915D0380915C03E81730F4F0E031
:101EE000E15AFC4F808190E008958FEF9FEF0895B5
:101EF00090915D0380915C032FEF3FEF981748F4BA
:101F0000E92FF0E0E15AFC4F208130E09F5F909391
:101F10005D03C9010895CF92DF92EF92FF920F9374
:101F20001F93CF93DF937C01CB018A012091B103F2
:101F3000222389F0EB016B01C40ED51ECC15DD0503
:101F400069F06991D701ED91FC910190F081E02D4C
:101F5000C7010995F3CF642F0E94420FC801DF919A
:101F6000CF911F910F91FF90EF90DF90CF90089548
:101F7000CF93DF931F92CDB7DEB769832091B10372
:101F80002223F9F02091AE03203258F021E030E016
:101F9000FC013383228390E080E00F90DF91CF91AA
:101FA00008958091AF03E82FF0E0E553FD4F99814C
:101FB00090838F5F8093AF038093AE0381E090E0C6
:101FC000ECCF61E0CE0101960E94420FF7CF682F5F
:101FD00088ED93E00C94B80F2091AE0381E021329C
:101FE00008F044C08091A5038111FCCF8091B0031B
:101FF00092E09093A50391E09093A4039FEF9093B8
:10200000A3031092A2032093A103ABECB2E0EFE78D
:10201000F3E090E0291331C01092A0039091A00347
:10202000880F892B8093A00380919F03813049F50D
:1020300010929F038091A0038093BB008091BC000D
:1020400083FDF8CF85EC8093BC008091A50382309E
:10205000E1F38091A3038F3FB1F08091A30380321D
:10206000A1F08091A303803391F084E01092AF033C
:102070001092AE031092B10308953D9131939F5F8A
:10208000C9CF85EEE0CF80E0F1CF82E0EFCF83E0F3
:10209000EDCFCF9388E60E947C0560E088ED93E069
:1020A0000E94B80F60E888ED93E00E94B80F80911D
:1020B000A703CAE06C2F0E94AF338295807F682F00
:1020C000690F88ED93E00E94B80F8091A8036C2FF0
:1020D0000E94AF338295807F682F690F88ED93E06F
:1020E0000E94B80F8091A9036C2F0E94AF33829594
:1020F000807F682F690F88ED93E00E94B80F809170
:10210000AA036C2F0E94AF338295807F682F690FDE
:1021100088ED93E00E94B80F8091AB036C2F0E9472
:10212000AF338295807F682F690F88ED93E00E941E
:10213000B80F8091AC038E516C2F0E94AF33829503
:10214000807F682F690F88ED93E00E94B80F88EDBB
:1021500093E00E94EC0F882329F01092AD0380E0F9
:10216000CF91089581E08093AD0388E60E947C05BD
:1021700060E088ED93E00E94B80F8091A6036C2F79
:102180000E94AF338295807F682F690F88ED93E0BE
:102190000E94B80F88ED93E00E94EC0F8111DDCF13
:1021A00081E0DECFAF92BF92DF92EF92FF920F936A
:1021B0001F93CF93DF938B01040F151FEB015C017D
:1021C000A61AB70A7501EC0EFD1ED99080914C0439
:1021D0000E947C058F2D90E00E94E70FC701992790
:1021E0000E94E70F6D2D88ED93E00E94B80F88EDF7
:1021F00093E00E94EC0F6AE070E080E090E00E94C3
:102200003708C017D107F1F6DF91CF911F910F91D9
:10221000FF90EF90DF90BF90AF900895EF92FF9204
:102220000F931F93CF93DF93EC01EC80FD806E152D
:102230007F050CF070C057FF04C0240F351F50E01D
:1022400040E08E819F81FA01E20FF31F8E179F07F6
:102250001CF49C01241B350B121613060CF05BC0FA
:10226000922F842F8695869586958E9DD0018F9D81
:10227000B00D11246A0F7B1FAF8DB8A1A60FB71F39
:10228000477049F188E0841B482F682F70E0FB01FC
:10229000E059FF4FE491281708F063C0621B7109F1
:1022A0002FEF30E002C0359527956A95E2F7E223DB
:1022B0000130110539F0B0F10230110561F58C9152
:1022C000E82702C08C91E82BEC93941720F12C8125
:1022D0003D81A20FB31FE92FE41BE83078F00230F4
:1022E000110521F58E2F9C9190959C932C813D8119
:1022F000A20FB31F88508830B0F7E770EE2359F073
:10230000F0E0E859FF4FE49101301105F9F010F1C8
:102310000230110519F1DF91CF911F910F91FF90BC
:10232000EF900895E0958C91E823CECF81E00115E0
:10233000110509F480E081959E2F8C932C813D81BD
:10234000A20FB31F98509830C0F7D7CF8C91E82BCD
:10235000EC93E1CFE0958C91E823FACF8C91E827BC
:10236000F7CF0130110509F4ADCFE0F202301105CD
:1023700009F4A5CFAE0DBF1DAECF0F931F93CF9322
:10238000DF9377FF04C0260F371F70E060E0DC01A9
:102390001496CD91DC91FB01E20FF31FCE17DF07FE
:1023A0001CF49E01261B370B121613064CF5FA017E
:1023B00057FD3796A3E0F595E795AA95E1F7EC9FD1
:1023C000D001ED9FB00DFC9FB00D11246A0F7B1F53
:1023D000DC015F96ED91FC91E60FF71F47705527E2
:1023E00081E090E001C0880F4A95EAF7482F01305C
:1023F000110559F0A8F02E0F3F1F02301105E1F032
:10240000DF91CF911F910F9108952E0F3F1FE2177B
:10241000F307B1F38191DF011197842B8C93F7CFF0
:1024200080952E0F3F1FE217F30751F39191DF01C3
:10243000119798239C93F7CFE217F30709F3819143
:10244000DF01119784278C93F7CF0F931F93FA0125
:10245000DC0156964C9156974230E9F04330A1F199
:10246000413061F514964D915C91DA01AE1BBF0BC2
:10247000FD01E21BF30B77FD0BC0DC0116964D91BD
:102480005C916417750724F4AB01BF010E94BD1174
:102490001F910F91089514964D915C91DA01A61B3E
:1024A000B70BBD0161507109DC0116964D915C912D
:1024B000DA01AE1BBF0BFD01E21BF30B77FDE8CF8A
:1024C000AF010E940E11E4CF16964D915C91DA0196
:1024D000A61BB70BBD0161507109CDCF0F931F93A0
:1024E000FA01DC0156964C9156974230A9F04330E0
:1024F00091F1413019F514964D915C91DA01AE1BC2
:10250000BF0BFD013197F7FD04C0AB01BF010E9475
:102510000E111F910F91089514964D915C91DA015F
:10252000A61BB70BBD01DC0116964D915C91DA013B
:10253000AE1BBF0BFD013197621B730BF7FDE9CF9B
:10254000DC0116964D915C91E417F50714F7AF0185
:102550000E94BD11DECF16964D915C91DA01A61B4B
:10256000B70BBD01621B730BCECFFC0177FD64C0BE
:1025700080859185681779070CF05EC057FD5CC0B7
:1025800082859385481759070CF056C0868982309A
:10259000B1F0833029F1813041F484819581841B2D
:1025A000950BAB01BC01615071092130310509F176
:1025B00008F443C02230310509F463C008958481D2
:1025C0009581DC01A61BB70BBD01615071098681A5
:1025D0009781DC01A41BB50BAD0141505109E5CF3A
:1025E00086819781861B970BBA01AC014150510936
:1025F000DCCFCA0157FD0796A3E095958795AA956C
:10260000E1F7A481B5818A9F90018B9F300D9A9F3D
:10261000300D1124620F731F078CF0A1E02DE60F1F
:10262000F71F4770552721E030E001C0220F4A957F
:10263000EAF78081822B80830895CA0157FD0796AF
:1026400033E0959587953A95E1F7A481B5818A9F06
:1026500090018B9F300D9A9F300D1124620F731FD4
:10266000078CF0A1E02DE60FF71F4770552781E09A
:1026700090E001C0880F4A95EAF780959081892300
:10268000DACFCA0157FD079623E0959587952A95DD
:10269000E1F7A481B5818A9F90018B9F300D9A9FAD
:1026A000300D1124620F731F078CF0A1E02DE60F8F
:1026B000F71F4770552721E030E001C0220F4A95EF
:1026C000EAF780818227B7CF08958EBD00000DB450
:1026D00007FEFDCF8EB50895FF920F931F93CF9302
:1026E000DF93F82ED92FC62F809101049091020418
:1026F000892B09F447C0809105040E947C058091D4
:10270000010490910204DC01ED91FC910190F081B3
:10271000E02D60E009950F2D1D2FD1E0C150809173
:10272000010490910204CF3F31F1D03298F00E9421
:10273000EC0F809105040E947C058091010490912A
:102740000204DC01ED91FC910190F081E02D60E04C
:102750000995D1E08091010490910204F8016491FF
:10276000DC01ED91FC910190F081E02D0995DF5F96
:102770000F5F1F4FD3CFDF91CF911F910F91FF902C
:102780000C94EC0FE0911104F0911204908180916F
:1027900017048095892380830F2D1D2FC15008F4C5
:1027A00038C0F80184912091FF0330910004232B5D
:1027B00029F00E9465130F5F1F4FF0CF28E030E033
:1027C00040E8E0910D04F0910E0490911504582F0B
:1027D0005423D9F05081952B9083E0910F04F09110
:1027E0001004908150911604952B9083E0910F0472
:1027F000F091100450819091160490959523908348
:10280000469521503109E9F6D6CF50819095952310
:10281000E3CFDF91CF911F910F91FF9008951F9308
:10282000CF93DF93EC018D8D9E8D892BF9F0162FC0
:1028300089A10E947C058D8D9E8DDC01ED91FC911E
:102840000190F081E02D60E009958D8D9E8DDC0179
:10285000ED91FC910190F081E02D612F09958D8D16
:102860009E8DDF91CF911F910C94EC0FADA5BEA56D
:102870009C918BA9809589238C938B8D9C8D892B22
:1028800031F0862FDF91CF911F910C94651328E0D2
:1028900030E080E8A9A5BAA599A9462F4823C1F040
:1028A0004C91942B9C93ABA5BCA59C914AA9942BCD
:1028B0009C93ABA5BCA54C919AA9909594239C930D
:1028C00086952150310931F7DF91CF911F910895FD
:1028D0004C9190959423E6CF8CBD9DBD0895FF92B9
:1028E0000F931F93CF93DF93809101049091020483
:1028F000892B09F472C082E08093B80065E088E615
:102900009AE00E946C136091E803615084EE93E0BA
:102910000E940F142091EA033091EB03C90107963E
:1029200097FD079623E0959587952A95E1F72091E5
:10293000E8033091E903829F8001839F100D929FED
:10294000100D1124C0910304D0910404809101045E
:10295000909102040C0F1D1F892B09F47CC08091FB
:1029600005040E947C058091010490910204DC0121
:10297000ED91FC910190F081E02D60E40995FF2438
:10298000F39480910104909102040C171D07E1F16A
:10299000BFE1BF15A0F40E94EC0F809105040E94D6
:1029A0007C058091010490910204DC01ED91FC9181
:1029B0000190F081E02D60E40995FF24F39480916B
:1029C0000104909102046991DC01ED91FC91019068
:1029D000F081E02D0995F394D4CF8091FF0390917D
:1029E0000004892B31F08091190490911A040E94FF
:1029F0006C14E0911304F0911404908180911804F8
:102A00008095892380837ACF0E94EC0F8091010406
:102A100090910204892B09F45FC020911B0430912E
:102A20001C0440911D0450911E0460E072E18AE78D
:102A300090E00E94D0312051310941095109569549
:102A40004795379527952093B800DF91CF911F9137
:102A50000F91FF900895E0911104F091120480818C
:102A600090911704892B80830C171D0779F28991A7
:102A70002091FF0330910004232B19F00E9465136D
:102A8000F3CF28E030E040E8E0910D04F0910E042F
:102A900090911504582F5423D9F05081952B908391
:102AA000E0910F04F0911004908150911604952B41
:102AB0009083E0910F04F0911004508190911604DE
:102AC000909595239083469521503109E9F6CCCF16
:102AD000508190959523E3CFE0911304F091140475
:102AE000808190911804892B8083AFCF1F93CF935F
:102AF000DF93EC01162F8D8D9E8D892B29F182E0BD
:102B00008093B80066EA111167EACE010E940F14A3
:102B10008D8D9E8D892B41F12FA938AD49AD5AADD0
:102B200060E072E18AE790E00E94D03120513109E3
:102B30004109510956954795379527952093B80037
:102B4000DF91CF911F9108958B8D9C8D892B21F062
:102B50008DA99EA90E946C14EFA5F8A990818CA95B
:102B6000809589238083CECFEFA5F8A980819CA989
:102B7000892B8083E5CF089590E080E008958093CD
:102B8000BB0084E88093BC008091BC0087FFFCCF31
:102B90009091B900987F81E0983231F0983129F016
:102BA000903419F080E008950895089584EA8093A0
:102BB000BC008091BC0087FFFCCF8091B900887F6A
:102BC00019F080EC0C94BF1580E008955F926F922D
:102BD0007F928F929F92AF92BF92CF92DF92EF92AD
:102BE000FF920F931F93CF93DF93CDB7DEB7582E8D
:102BF000742E652EB62E922E0E94D615852D0E941B
:102C0000BF158D2D0E94BF158C2D0E94BF158B2DD9
:102C10008370A82A80E081108CE08A290E94BF1569
:102C2000862D0E94BF15872D0E94BF158CE0F6945B
:102C3000E794D794C7948A95D1F78C2D807FC82EBE
:102C4000892D8F708C290E94BF15812F0E94BF157E
:102C5000802F0E94BF1584E98093BC008091BC0046
:102C600084FDFCCFDF91CF911F910F91FF90EF90EA
:102C7000DF90CF90BF90AF909F908F907F906F909C
:102C80005F9008954F925F926F927F928F929F9282
:102C9000AF92BF92CF92DF92EF92FF920F931F936A
:102CA000CF93C82FC0904304D0904404E0904504D3
:102CB000F0904604CB01BA01A70196010E94D031E1
:102CC00049015A0125E0F694E794D794C7942A95D0
:102CD000D1F735E096958795779567953A95D1F731
:102CE00047E0660F771F881F991F4A95D1F7A70104
:102CF00096010E94D03129013A018B019C01B50156
:102D0000A401552766277727E7E0440F551F661F64
:102D1000771FEA95D1F7525061097109440D551D8D
:102D2000661D771D812CA12C8C2F0E94E615CF915A
:102D30001F910F91FF90EF90DF90CF90BF90AF90D9
:102D40009F908F907F906F905F904F9008958F929B
:102D5000AF92CF92DF92EF92FF920F931F9388244E
:102D60008394443051056105710509F0812C44506C
:102D7000510961097E4F97E0440F551F661F771F69
:102D80009A95D1F7A22EC12CD12C7601C39400E0E4
:102D900010E098010E94E6151F910F91FF90EF90AF
:102DA000DF90CF90AF908F900895CF93DF93D82F7F
:102DB000C62F0E94D6158D2F0E94BF158C2F0E9402
:102DC000BF1584E98093BC008091BC0084FDFCCFDA
:102DD000DF91CF910895CF93C82F60E880E18C0FE9
:102DE0000E94D516EC2FF0E0EE0FFF1FE55DFB4FC4
:102DF00011821082CF9108952F923F924F925F924D
:102E00006F927F928F929F92AF92BF92CF92DF92FA
:102E1000EF92FF920F931F93CF93DF9300D000D0D8
:102E20001F92CDB7DEB7898380913B0490913C041B
:102E3000A0913D04B0913E04892B8A2B8B2B19F471
:102E400081E00E94EB1680913F0490914004A09194
:102E50004104B0914204892B8A2B8B2B19F482E018
:102E60000E94EB1640903B0450903C0460903D045F
:102E700070903E04411451046104710409F47FC14F
:102E80002981222309F4A5C0C0902D04D0902E04DE
:102E9000F12CE12C409132044983A3019201C70136
:102EA000B6010E949F339B01AC018981E82FF0E0BD
:102EB000EC5BFE4FA081B0E00E94C5314B015C018C
:102EC000DC01CB0180589447A24DBA418130934A2E
:102ED000A14EB14108F446C06091230170912401D4
:102EE0008091250190912601A30192010E94D03189
:102EF00069017A0181E044E0C416D104E104F104DF
:102F000008F489C086E0C816D104E104F10408F48D
:102F10009BC019829DE2C91691E0D906E104F10433
:102F200040F029812F5F2983F694E794D794C794C2
:102F3000F1CF4981411103C0E894C0F81982A3017F
:102F40009201C701B6010E949F339B01AC018981A8
:102F5000E82FF0E0EC5BFE4FA081B0E00E94C531AD
:102F60004B015C01B501A40182E20E9442168091EE
:102F70002D0490912E04B0E0A0E08C159D05AE05C7
:102F8000BF0529F48091320499818917D1F02981F4
:102F90002295207FB701A60182E30E94A7166091C7
:102FA00035046C6681E10E94D516D0922E04C09241
:102FB0002D0429812093320480914B0480688093F2
:102FC0004B048092470490924804A0924904B09226
:102FD0004A04C0903F04D0904004E0904104F09037
:102FE0004204C114D104E104F10409F4B0C080909A
:102FF000470490904804A0904904B0904A04C50149
:10300000B401A70196010E94D03128303105410555
:10301000510500F582E00F900F900F900F900F90E8
:10302000DF91CF911F910F91FF90EF90DF90CF90A4
:10303000BF90AF909F908F907F906F905F904F90D8
:103040003F902F900C94EB1604E0C02ED12CE12C75
:10305000F12C72CF1D82213431054105510560F0FC
:103060008D818F5F8D83CC0CDD1CEE1CFF1C569573
:10307000479537952795EFCFC501B401A701960174
:103080000E94D03129833A834B835C832FEF3FEF3B
:103090004FE050E00E94CF3356016701E12CF12C44
:1030A00000E010E00E94FC3329013A019D819295D5
:1030B000907F9D83C12CD12C7601C394411451047F
:1030C0006104710431F0CC24CA94DC2CFFE0EF2EB3
:1030D000F12CC301B20127E0660F771F881F991FEB
:1030E0002A95D1F7A70196010E94D03149015A01D2
:1030F0008B019C0149815A816B817C815527662710
:103100007727E7E0440F551F661F771FEA95D1F731
:10311000525061097109480D591D6A1D7B1D812C92
:10312000AD808AE30E94E6158CE4452846284728AE
:1031300009F08CE0609136046062682B82E10E94A5
:10314000D51681E090E09093300480932F040F9087
:103150000F900F900F900F90DF91CF911F910F91D3
:10316000FF90EF90DF90CF90BF90AF909F908F90A7
:103170007F906F905F904F903F902F900895809038
:103180003F0490904004A0904104B0904204811408
:103190009104A104B104D9F2C0902F04D09030045E
:1031A000F12CE12C209133042983A5019401C7015E
:1031B000B6010E949F339B01AC018981E82FF0E0AA
:1031C000EC5BFE4FA081B0E00E94C5318B019C01F9
:1031D00000581447224D3A410130134A214E3141E3
:1031E00008F443C06091230170912401809125016E
:1031F00090912601A50194010E94D03169017A01C4
:1032000084E0C816D104E104F10408F403CF96E089
:10321000C916D104E104F10408F458C019822DE262
:10322000C21621E0D206E104F10440F049814F5F6B
:103230004983F694E794D794C794F1CF898181119B
:1032400003C0E894C0F81982A5019401C701B60132
:103250000E949F339B01AC019981E92FF0E0EC5B68
:10326000FE4FA081B0E00E94C531AB01BC0182E2FB
:103270000E94421680912F0490913004B0E0A0E0AB
:103280008C159D05AE05BF0531F48091330429816D
:10329000821709F45CCF29812295207FB701A6010E
:1032A0008AE30E94A716609136046C6682E10E9450
:1032B000D516D0923004C0922F0449814093330434
:1032C00080914B04806880934B0441CF84E0C82EEA
:1032D000D12CE12CF12CB5CF4F925F926F927F925F
:1032E000AF92BF92CF92DF92EF92FF920F931F9314
:1032F000CF93DF93D82F082F10E0F801EE0FFF1FB8
:10330000EE0FFF1FE95CFB4F4080518062807380AD
:10331000411451046104710489F48D2FDF91CF9120
:103320001F910F91FF90EF90DF90CF90BF90AF90E3
:103330007F906F905F904F900C94EB165801AA0C01
:10334000BB1CF501E55DFB4FC080D180F12CE12C69
:10335000055D1B4FF801C681A3019201C701B601AB
:103360000E949F339B01AC01EC2FF0E0EC5BFE4F21
:10337000A081B0E00E94C5319B01AC0120583447C8
:10338000424D5A412130334A414E514108F43FC029
:103390006091230170912401809125019091260173
:1033A000A30192010E94D03169017A0184E0C8161C
:1033B000D104E104F10408F4B0CFE6E0CE16D10464
:1033C000E104F10408F470C0C0E0FDE2CF16F1E0C2
:1033D000DF06E104F10430F0CF5FF694E794D79470
:1033E000C794F3CFC11103C0E894C0F8C0E0A301B3
:1033F0009201C701B6010E949F339B01AC01EC2FE3
:10340000F0E0EC5BFE4FA081B0E00E94C5312AE104
:10341000D11122E2AB01BC01822F0E944216F501BC
:10342000E55DFB4F80819181B0E0A0E08C159D05AA
:10343000AE05BF0521F4F80186818C1731F12C2FE0
:103440002295207FB701A6018D2F880F880F880F46
:10345000865D0E94A716F801618580E0D11180E2A7
:103460006C64682B80E18D0F0E94D516F501E55D37
:10347000FB4FD182C082F801C68380914B0490E259
:10348000D11190E8892B80934B04DF91CF911F914C
:103490000F91FF90EF90DF90CF90BF90AF907F9013
:1034A0006F905F904F90089584E0C82ED12CE12C4E
:1034B000F12C9ACFFF920F931F93CF93DF9300D0FD
:1034C000CDB7DEB7E3E1F1E010E000E08191080F55
:1034D000111D81E0E332F807C9F740E150E063E1F4
:1034E00071E082E090E00E94D210095F1F4F1A83C2
:1034F000098342E050E0BE016F5F7F4F90E080E0C3
:103500000E94D210E0E0F1E087E091E010E000E0FE
:103510002191020F111D8E179F07D1F78091140181
:1035200099E0F92E8F9DC001112447E050E060E042
:1035300071E044960E94D210095F1F4F1A830983DD
:10354000809114018F9DC001112442E050E0BE0122
:103550006F5F7F4F42960E94D2100F900F90DF91C5
:10356000CF911F910F91FF90089580911A01909132
:103570001B01092E000CAA0BBB0B80549340A446E0
:10358000BE4F8093430490934404A0934504B093AA
:10359000460480E00E946C1982E00C946C19CF9272
:1035A000DF92EF92FF920F931F93CF9380910101CF
:1035B00090910201A0910301B091040100911701C3
:1035C00010911801012E000C220B330BC0903B040C
:1035D000D0903C04E0903D04F0903E04C1E0C11462
:1035E000D104E104F10409F4C0E0409137045091A2
:1035F00038046091390470913A04E0910001EE239F
:10360000D9F0805E9E45A84FBF4F800F911FA21F2B
:10361000B31F10924B04481759076A077B07D9F06C
:103620008093370490933804A0933904B0933A04FC
:1036300080E00E946C190FC08052914AA740B109E6
:10364000800F911FA21FB31F10924B048417950780
:10365000A607B70729F7CD28CE28CF2861F4809197
:103660003F0490914004A0914104B0914204892B01
:103670008A2B8B2B99F010923B0410923C041092F1
:103680003D0410923E0410923F04109240041092A8
:103690004104109242048C2F0E94FC1660914B044E
:1036A000662351F081EBCF911F910F91FF90EF9026
:1036B000DF90CF900C94D516CF911F910F91FF9072
:1036C000EF90DF90CF9008958091C4029091C50251
:1036D00027E0289FD001299FB00D11248091070178
:1036E00020E4829FC0011124876080937C00809138
:1036F0007A00806480937A0080917A0086FDFCCF06
:103700008091780090917900A80FB91FAA0FBB1F74
:1037100094E0B695A7959A95E1F7B093C502A0936A
:10372000C40220911C0130E00E94F2312FEF33E0FF
:1037300040E050E00E94A6312093C70208952091F6
:10374000C8023091C902C901880F991F820F931FC7
:103750002091070140E4249F9001112421602093CF
:103760007C0020917A00206420937A0020917A00D6
:1037700026FDFCCF2091780030917900820F931FB5
:10378000880F991F880F991F34E0969587953A9571
:10379000E1F79093C9028093C8020895DC01ED918E
:1037A000FD918081ED91FD919081ED91FD916C9164
:1037B00063708E2309F064609F2309F06860EBEE6C
:1037C000FBE1E60FF11D659565956D936D917D911A
:1037D0008D919D91099423C01AC012C016C010C0CB
:1037E0001EC009C014C013C006C019C009C00DC056
:1037F00007C00DC014C062507040804090400BC0A4
:10380000615070408040904006C06E5F01C06F5FA5
:103810007F4F8F4F9F4F9E938E937E936E9308950D
:103820000F931F93CF93DF938091BF02882359F0AA
:103830001092A6030E9449101092BF02DF91CF910F
:103840001F910F9108950E946A080091B60210918D
:10385000B7022091B8023091B902601B710B820B44
:10386000930B693E73408105910520F4012B022BD7
:10387000032B21F70E946A086093B6027093B70287
:103880008093B8029093B90288E60E947C0560E0BC
:1038900088ED93E00E94B80F88ED93E00E94EC0F52
:1038A000882391F01092AD038091AD03882331F20B
:1038B0001092A8031092A7031092A603DF91CF9154
:1038C0001F910F910C94491081E08093AD0367E044
:1038D00088E60E94860510925D0380935C03873022
:1038E00018F388ED93E00E94780FD82F982F9295C7
:1038F0009770CAE08D2F8F709C9F800D112480934C
:10390000A60388ED93E00E94780F982F92959F7000
:103910008F709C9F800D11248093A70388ED93E006
:103920000E94780F982F929593708F709C9F800DB6
:1039300011248093A80388ED93E00E94780F982FBC
:1039400092959F708F709C9F800D11248093A90386
:1039500088ED93E00E94780F982F92959F708F705A
:103960009C9F800D11248093AA0388ED93E00E9410
:10397000780F982F92959F708F709C9F800D1124C7
:103980008093AB0388ED93E00E94780F982F9F708F
:10399000925E82958F708C9F900D11249093AC0352
:1039A000D7FF4CCF81CFCF93DF93EC0180914C04B4
:1039B0000E947C058D2F90E00E94E70FCE01992791
:1039C0000E94E70F88ED93E00E94EC0F61E0809188
:1039D0004C040E94860510925D0380935C0388234B
:1039E00039F088ED93E00E94780FDF91CF91089530
:1039F00080E0FBCFEF92FF920F931F93CF93DF9363
:103A00008B01040F151FEB017C01E61AF70AC701B1
:103A10008C0F9D1F0E94D31C8993C017D107B9F743
:103A2000DF91CF911F910F91FF90EF900895DF925A
:103A3000EF92FF920F931F93CF93DF9300D0CDB7F8
:103A4000DEB71A8219828091140129E0829FC00199
:103A5000112442E050E0BE016F5F7F4F42960E940A
:103A6000FA1CF12CE12C10E000E089E0D82E8091C6
:103A7000140197018D9D200D311D1124C90144961B
:103A80000E94D31C080F111D3FEFE31AF30A87E0D1
:103A9000E816F10461F7095F1F4F89819A810817C1
:103AA0001907B1F4809114018D9DC001112447E0E4
:103AB00050E060E071E044960E94FA1C0F900F9075
:103AC000DF91CF911F910F91FF90EF90DF900895BC
:103AD0000E945A1AF3CF0F931F93CF93DF93FC01E9
:103AE0001081C181D281F8948981012F00958023B2
:103AF000898378949DE7915039F188818123D9F3A6
:103B0000F8948A8180238A838981812B89837894A0
:103B100080EE91E00E940C08F894898180238983CB
:103B200086E490E00E940C0888811823C1E009F027
:103B3000C0E078948AE991E00E940C088C2FDF9114
:103B4000CF911F910F910895C0E0F8CFAF92BF922F
:103B5000CF92DF92EF92FF920F931F93CF93DF9359
:103B60008B01BC018091BC039091BD030E941F0991
:103B700040E06EEB8091BC039091BD030E94EB0886
:103B8000E801680189E0C80ED11CA090BC03B09088
:103B9000BD0388E0E82EF12C10E001E0C5010E9491
:103BA0008D088111102B000F81E0E81AF108B1F7A0
:103BB0001993CC16DD0649F78091BC039091BD03A3
:103BC0000E946B1D91E0813009F090E0892FDF9118
:103BD000CF911F910F91FF90EF90DF90CF90BF900A
:103BE000AF900895BF92CF92DF92EF92FF920F9322
:103BF0001F93CF93DF93EC01B62EC72E8D858111D5
:103C000005C0CE010E946B1D81110EC01B861D8652
:103C10001C8680E0DF91CF911F910F91FF90EF9074
:103C2000DF90CF90BF90089540E060EFCE010E94FA
:103C3000EB0801E0E12CD12C11E0CE010E948D08AF
:103C4000F82ECE010E948D0891E0F91218C0813043
:103C500099F51134D8F2DB86D11002C081E08D874E
:103C60008B81882399F22396EB2DFC2DCF010896AA
:103C700029912193E817F907D9F781E0CBCFEE2DF1
:103C8000F0E0F8120FC08B851817A0F4DE01AE0F1C
:103C9000BF1F13968C91802379F4F12C193008F40E
:103CA0001C87D12EEC0FFD1F8381902F90958923C7
:103CB00083830AC08113F1CFFE01EE0DF11D8381D4
:103CC000802B8383FF24F3946F2DCE010E94B808CC
:103CD0001F5F000F11F4E39401E087E08E1508F0F8
:103CE000ACCFB7CF0F931F93CF93DF93CDB7DEB792
:103CF00029970FB6F894DEBF0FBECDBF8C0180911F
:103D0000BC039091BD030E946B1D811102C080E035
:103D10001FC0BE016F5F7F4FC8010E94A61D882390
:103D2000B1F368E0CE0101960E9476089985891367
:103D3000EECF8D818F33B9F020F48F3141F789E0D8
:103D400007C08F3521F08F3711F78CE001C08BE071
:103D500029960FB6F894DEBF0FBECDBFDF91CF918D
:103D60001F910F9108958AE0F3CF4F925F926F9267
:103D70007F928F929F92AF92BF92CF92DF92EF92FB
:103D8000FF920F931F93CF93DF93CDB7DEB7619769
:103D90000FB6F894DEBF0FBECDBF0E946A08C09078
:103DA000BB02D090BC02E090BD02F090BE026C1944
:103DB0007D098E099F09693873418105910508F4D1
:103DC00058C08091BA02811154C01092B8038091FA
:103DD000BC039091BD030E946B1D40E06CEC809190
:103DE000BC039091BD030E94EB084091B60364E4CC
:103DF0008091BC039091BD030E94EB088091B803B1
:103E0000882391F1E091B703E9500EEE12E0E33020
:103E100038F4F0E0EE0FFF1FE05DFE4F00811181EE
:103E20008091B903882309F481C08091B603811180
:103E30007DC00E946A084B015C012801110F6608D1
:103E400077088091BC039091BD030E948D0881305A
:103E500059F00E946A08641975098609970968155E
:103E600079058A059B0568F381E08093B803809308
:103E7000BA020E946A086C197D098E099F09613493
:103E80007F4181059105D8F18091BA028823B9F16B
:103E9000E091BC03F091BD0313861586148612864B
:103EA0001186108617821682158214821382BE0133
:103EB000665F7F4F8091BC039091BD030E94F21D0D
:103EC00081113BC060E070E08EEF92EC20E030E0CA
:103ED00040E05FE30E9402320E946E3280911F0137
:103EE000680F6093C6020E946A086093BB027093D9
:103EF000BC028093BD029093BE021092BA026196FA
:103F00000FB6F894DEBF0FBECDBFDF91CF911F91EA
:103F10000F91FF90EF90DF90CF90BF90AF909F9068
:103F20008F907F906F905F904F900895B801110F20
:103F3000880B990B0E94370897CF67E0CE010A964D
:103F40000E94760899898913BDCF8091BC03909116
:103F5000BD030E946B1D882309F4B4CFBE016F5FBF
:103F60007F4FCE010A960E94A61D882309F4AACF8E
:103F700068E0CE0101960E94760899858913A2CF48
:103F80006A8170E0762F6627770F770F770F298188
:103F900058E0259F90011124262B372B8A858031EC
:103FA000D1F4688570E08F81AB01481B5109CA01CB
:103FB0009695982F8827979587950E94BB33CB01BC
:103FC0004097B90153E0660F771F5A95E1F7607883
:103FD0009C01260F371F213854EE35070CF472CFA1
:103FE000B901330F880B990B0E94A63220E030E014
:103FF00040E05CE30E94323369CF80914403882320
:1040000049F180914303882329F18091CA028111EB
:1040100021C08091570381111DC02091210184E1AD
:10402000289F90011124032E000C440B550B60E4D3
:1040300072E48FE090E00E94D031CA01B9010E9481
:10404000C805809180008F7C80618093800081E032
:104050008093CA028091430381110BC08091CA02F0
:10406000882339F0809180008F7C809380001092AB
:10407000CA020895FC0101900020E9F73197AF01D1
:10408000481B590BBC0184EE93E00C94DF078F9220
:104090009F92AF92BF920F931F93CF93DF93CDB7B1
:1040A000DEB7A1970FB6F894DEBF0FBECDBF19A241
:1040B000423008F44AE08E010F5D1F4F842E912C90
:1040C000B12CA12CA50194010E94D031E62FB90199
:1040D000CA01EA30F4F4E05DD801EE938D01232BA0
:1040E000242B252B79F790E080E0109719F0CD0173
:1040F0000E943A20A1960FB6F894DEBF0FBECDBF46
:10410000DF91CF911F910F91BF90AF909F908F90B3
:104110000895E95CE1CF682F70E090E080E04AE02C
:104120000C944720CF92DF92EF92FF92CF93DF93D0
:104130006C01990FEE08FF08F7FE17C08DE20E9490
:104140004B0CEC0166277727CB016C197D098E0992
:104150009F094AE00E9447208C0F9D1FDF91CF915D
:10416000FF90EF90DF90CF9008954AE0C701B6012D
:10417000DF91CF91FF90EF90DF90CF900C9447208C
:10418000CF93DF930E943A20EC018AE891E00E94ED
:104190003A208C0F9D1FDF91CF9108950C943A2007
:1041A000CF93DF930E949220EC018AE891E00E9475
:1041B0003A208C0F9D1FDF91CF910895CF93DF930D
:1041C0000E948B20EC018AE891E00E943A208C0F3B
:1041D0009D1FDF91CF9108952091EA033091EB0369
:1041E000C901079697FD079623E0959587952A952F
:1041F000E1F72091E8033091E903829FA001839FBA
:10420000500D929F500D112470E060E080910304E6
:10421000909104040C94A6358F929F92AF92BF9216
:10422000CF92DF92EF92FF920F931F93CF93DF9382
:10423000E090C802F090C9020E94EC201092F103B5
:104240001092F0031092F3031092F20381E090E0D9
:104250009093F7038093F6039093F5038093F40310
:1042600083E08093F8038093F903C0915703C93129
:1042700009F4C7C208F03FC0C43109F46BC2C8F4E6
:10428000C13009F419C208F479C0C23009F427C258
:10429000C33009F446C2DF91CF911F910F91FF9077
:1042A000EF90DF90CF90BF90AF909F908F900C9445
:1042B0006F14C63109F47DC208F467C2C73109F42E
:1042C00088C2C83141F78091A7038A3020F48DE875
:1042D00091E00E94CE208091A7030E94DE2081E021
:1042E0008093F8038093F903809157030E948B20F9
:1042F00087E092E013C2C53609F4D5C2F8F4CB3199
:1043000009F4A7C208F491C2CC3109F4B2C2C43690
:1043100011F680911601882309F4C2C289E392E064
:104320000E94C02081E08093F8038093F90380917C
:1043300057030E948B208EE492E006C2C73609F430
:1043400001C308F4E2C2C83609F415C3C93609F03E
:10435000A2CF80911901882309F41FC38BE892E052
:104360000E94C02081E08093F8038093F90380913C
:1043700057030E948B2085E992E0E6C180910101FC
:1043800090910201A0910301B091040180389649F7
:10439000A849B10520F480E792E00E94CE20609108
:1043A0000101709102018091030190910401E0E408
:1043B0008E2EE2E49E2EEFE0AE2EB12CA5019401EC
:1043C0000E94D031CA01B9014AE00E944720809181
:1043D000F0039091F10305969093F1038093F0031D
:1043E000609101017091020180910301909104019B
:1043F000A50194010E94D031603A76488140910530
:1044000020F48DE891E00E94CE206091010170912E
:104410000201809103019091040120E432E44FE015
:1044200050E00E94D031603177428105910520F43F
:104430008DE891E00E94CE2060910101709102010F
:10444000809103019091040120E432E44FE050E0B8
:104450000E94D03158EE852E53E0952EA12CB12C20
:10446000A50194010E94D031CA01B9014AE00E941D
:10447000472082E08093F8038093F9038091F00352
:104480009091F10305969093F1038093F00387E0F8
:1044900090E09093F3038093F20360910101709197
:1044A00002018091030190910401A50194010E94F1
:1044B000D031643671058105910520F48DE891E0D5
:1044C0000E94CE2060910101709102018091030150
:1044D0009091040128EE33E040E050E00E94D0319A
:1044E0002AE030E040E050E00E94D031CA01B9013A
:1044F0004AE00E9447208AE891E00E943A2081E049
:104500008093F8038093F9038091C702843620F4E6
:104510008DE891E00E94CE208091C702CAE06C2F06
:104520000E94AF3390E00E9492208FE891E00E94B9
:10453000CE208091C7026C2F0E94AF33892F90E06C
:104540000E94922081E991E00E94CE208091560342
:10455000882309F44DC09701A7E3B2E00E94F2312D
:10456000CC24CA9443E0D42EE12CF12CA70196016F
:104570000E94A631E9012091C8023091C902A3E648
:10458000B0E00E94F231A70196010E94A631CA0153
:10459000B9014AE00E944720CE0169E070E00E9424
:1045A000BB336B01CA30D10574F0EE24E394F12CD7
:1045B00009E010E09B0147E150E060E470E084EE28
:1045C00093E00E94440DCE0169E070E00E94BB338D
:1045D000B601605C7F4FEE24E394F12C8C0121E066
:1045E00030E047E150E084EE93E00E94440D53CE6A
:1045F0008091C60292E3980F953608F051C087FD6E
:1046000004C080E792E00E94CE208091C602082E6E
:10461000000C990B0E94922087EF0E944B0C84E9BA
:1046200091E00E94CE2080914D038823E1F180E744
:1046300092E00E94CE208091A8038A3020F480E787
:1046400092E00E94CE208091A8030E948B2080914E
:10465000A60380FF2BC08CE991E00E94CE208091C0
:10466000A7038A3020F48DE891E00E94CE2080914B
:10467000A7030E948B20809100018823D1F08EE94E
:1046800091E00E94CE20809114018A3020F480E7CE
:1046900092E00E94CE20809114010E948B20FBCDDD
:1046A00086E991E0BECF8FE891E0C3CF80E792E04A
:1046B000D4CF81EA91E0E5CF809114010E94DE2001
:1046C000C093F803C093F903809157030E948B2095
:1046D00084EA91E00E94CE2080911501DECFE09126
:1046E0001301F0E0EE0FFF1FEA5CFE4F20813181E5
:1046F000AAE0B0E00E94F2314AE00E9447208AE836
:1047000091E00E943A2081E08093F8038093F903BE
:10471000809157030E948B2084EB91E00E94CE2071
:10472000BACD80910001882391F08EEB91E00E9438
:10473000C02081E08093F8038093F90380915703B0
:104740000E948B2086EC91E00E94C020A4CD82ECD8
:1047500091E0EDCF8091050124E6829FC0011124F4
:104760000E94D02081E08093F8038093F903809128
:1047700057030E948B2087ED91E00E94CE2080EFAE
:104780000E944B0C83EE91E0C9CF8091060124E694
:10479000829FC00111240E94D02081E08093F80301
:1047A0008093F903809157030E948B2087EE91E05C
:1047B000E4CF809115010E94DE2081E08093F80310
:1047C0008093F903809157030E948B2083EF91E03F
:1047D000A5CF8091A8038A3020F48DE891E00E9453
:1047E000CE208091A8030E94DE2081E08093F80310
:1047F0008093F903809157030E948B2080E092E020
:104800008DCF809120012AE0829FC00111240E9457
:10481000D02081E08093F8038093F90380915703BF
:104820000E948B208DE092E079CF809121012AE0D7
:10483000829FC00111240E94D02081E08093F80360
:104840008093F903809157030E948B208DE192E0C1
:1048500065CF80911E010E94DE2081E08093F803E5
:104860008093F903809157030E948B208AE292E0A3
:1048700055CF80911D01882381F089E392E00E9449
:10488000C02081E08093F8038093F903809157035F
:104890000E948B2080E492E057CF8DE392E0EFCF2F
:1048A0008DE392E03DCD80911C010E94DE2081E0ED
:1048B0008093F8038093F903809157030E948B2023
:1048C0008DE592E00E94CE208091C702843620F4CC
:1048D0008DE891E00E94CE208091C702CAE06C2F43
:1048E0000E94AF3390E00E9492208FE891E00E94F6
:1048F000CE208091C7026C2F0E94AF33892F90E0A9
:104900000E94922085E692E009CF80911F01082E37
:10491000000C990B0E94D02081E08093F8038093D3
:10492000F903809157030E948B2087E692E00E9452
:10493000CE2080EF0E944B0C87EF0E944B0C84E945
:1049400091E0ECCE80911A0190911B010E94D02041
:1049500081E08093F8038093F903809157030E94CC
:104960008B2082E792E00E94CE2080EF0E944B0CC9
:1049700087E292E0D3CE80911701909118010E94B6
:10498000D02081E08093F8038093F903809157034E
:104990000E948B208EE792E0E6CF80E992E0E0CCA7
:1049A0004F925F926F927F928F929F92AF92BF923F
:1049B000CF92DF92EF92FF92CF93DF93CDB7DEB726
:1049C00028970FB6F894DEBF0FBECDBF80912A04A2
:1049D000823008F07BC0F8948FE194E00E94CE1BF7
:1049E00060912604709127048091280490912904F5
:1049F000789420910F0130E050E040E00E94A63111
:104A000069017A0190911D01992341F0F094E0949D
:104A1000D094C094C11CD11CE11CF11C8090C00238
:104A20009090C102A090C202B090C3028C149D0469
:104A3000AE04BF04B1F14C9B34C0809157032FEFFB
:104A4000280F243018F421E020934803893109F419
:104A500021C208F05DC0843109F483C1C8F58130FA
:104A600009F439C108F47CC0823009F455C183309F
:104A700009F470C10E946A0860934E0370934F035B
:104A8000809350039093510381E080934D030E94E3
:104A90000C21C092C002D092C102E092C202F092F8
:104AA000C30228960FB6F894DEBF0FBECDBFDF91CC
:104AB000CF91FF90EF90DF90CF90BF90AF909F90FD
:104AC0008F907F906F905F904F900895F89488CF6B
:104AD000863109F48EC108F468C1873109F4AFC189
:104AE000883141F68091A7038C149D04AE04BF0465
:104AF0000CF0C5C18C3318F48F5F8093A7038091AD
:104B0000A7038C3308F4AEC18BE38093A703AAC13B
:104B1000853609F427C290F48B3109F4F5C108F405
:104B2000D6C18C3109F40DC2843609F0A3CF80912F
:104B3000160191E08927809316019CCF873609F4EE
:104B400056C208F434C2883609F499C2893609F08D
:104B500091CF8091190191E08927809319018ACF23
:104B60004090010150900201609003017090040197
:104B7000A0910601B0E020EA36E841E050E00E9452
:104B8000C5316D837E838F839887A0910501B0E046
:104B90000E94C53169837A838B839C838C149D0426
:104BA000AE04BF040CF068C02D813E814F81588552
:104BB000241535054605570550F1E0911301F0E045
:104BC000EE0FFF1FEA5CFE4F20813181AAE0B0E0CA
:104BD0000E94F2314B015C01C301B201A5019401B5
:104BE0000E94D031480C591C6A1C7B1C6115710550
:104BF0008105910521F0461A570A680A790A409200
:104C000001015092020160920301709204018091AF
:104C1000010190910201A0910301B0910401298149
:104C20003A814B815C8182179307A407B50740F452
:104C3000209301013093020140930301509304013A
:104C40008091010190910201A0910301B0910401B2
:104C50002D813E814F815885281739074A075B0708
:104C600040F42093010130930201409303015093DB
:104C700004010E94CF1AFECEC814D904EA04FB0432
:104C800034F689819A81AB81BC81481659066A063F
:104C90007B0608F4BCCFE0911301F0E0EE0FFF1F9C
:104CA000EA5CFE4F20813181AAE0B0E00E94F2313F
:104CB0004B015C01C301B201A50194010E94D031F6
:104CC000611571058105910509F095CF48185908BE
:104CD0006A087B0894CF90911501809114018C147F
:104CE0009D04AE04BF047CF4891718F48F5F809391
:104CF000140180911401981708F4892F80931401EE
:104D00000E94171DB6CFC814D904EA04FB048CF71F
:104D1000882379F38150EBCF809113018C149D048B
:104D2000AE04BF0474F4863018F48F5F80931301CF
:104D300080911301873008F49DCE86E080931301A3
:104D400099CEC814D904EA04FB0494F7882381F3AC
:104D50008150ECCF8091000191E089278093000180
:104D600088CF809105018C149D04AE04BF0494F497
:104D7000843618F48F5F80930501809105018A3095
:104D800090F090910601891710F08FEF890F8093B2
:104D9000050170CEC814D904EA04FB0474F78A3004
:104DA00060F38150E8CF8AE0F2CF809106018C1445
:104DB0009D04AE04BF0484F4843618F48F5F80939E
:104DC00006019091050180910601981770F081E02D
:104DD000890F809306014ECEC814D904EA04FB045F
:104DE00084F78A3070F38150EACF843690F383E6FB
:104DF000F0CF809115018C149D04AE04BF04B4F46F
:104E00008E3118F48F5F80931501809115018F31D9
:104E100018F08EE180931501809115019091140195
:104E2000891708F027CE8093140124CEC814D90422
:104E3000EA04FB0454F7882341F38150E4CF8091C6
:104E4000A8038C149D04AE04BF0484F4883118F4C4
:104E50008F5F8093A8038091A803883118F087E1C1
:104E60008093A80381E08093BF0204CEC814D904C4
:104E7000EA04FB0484F7882371F38150EACFC81455
:104E8000D904EA04FB040CF03ACE882309F437CEA7
:104E9000815033CE809120018C149D04AE04BF0458
:104EA0006CF48F3F19F08F5F809320018091200177
:104EB0008A3008F48AE080932001DCCDC814D9043C
:104EC000EA04FB049CF7823088F38150EDCF809197
:104ED00021018C149D04AE04BF046CF48F3F19F0C3
:104EE0008F5F80932101809121018A3008F48AE04C
:104EF00080932101BFCDC814D904EA04FB049CF7B8
:104F0000823088F38150EDCF80911E018C149D0476
:104F1000AE04BF046CF48F3F19F08F5F80931E01C5
:104F200080911E01811101C081E080931E01A2CDFC
:104F3000C814D904EA04FB049CF7823088F381503A
:104F4000EDCF992359F010921D01F094E094D09484
:104F5000C094C11CD11CE11CF11C8CCD81E080935C
:104F60001D01F3CF80911C018C149D04AE04BF047D
:104F7000ACF48F3F19F08F5F80931C0180911C016E
:104F80008F3F19F48EEF80931C0180911C018436B1
:104F900008F070CD84E680931C016CCDC814D90450
:104FA000EA04FB045CF7843648F38150E5CF809136
:104FB0001F018C149D04AE04BF0484F48F311CF4D3
:104FC0008F5F80931F0180911F018F310CF08EE164
:104FD000823E0CF482EE80931F014CCDC814D9049C
:104FE000EA04FB0484F7823E74F38150EACF809197
:104FF0001A0190911B018C149D04AE04BF0454F55A
:10500000813335E793077CF4E0911301F0E0EE0F74
:10501000FF1FEA5CFE4F20813181820F931F909326
:105020001B0180931A0180911A0190911B01813319
:1050300055E7950714F080E395E7803DAAE89A07C5
:1050400014F480ED9AE890931B0180931A010E945A
:10505000B51A0FCEC814D904EA04FB0424F7803D26
:105060004AE8940704F3E0911301F0E0EE0FFF1F0C
:10507000EA5CFE4F20813181821B930BD0CF80915F
:105080001701909118018C149D04AE04BF0424F5FF
:10509000E0911301F0E0EE0FFF1FEA5CFE4F20816C
:1050A0003181820F931F9093180180931701809193
:1050B000170190911801893EB3E09B0714F088EE28
:1050C00093E088312CEF920714F488E19CEF9093E1
:1050D000180180931701CDCDC814D904EA04FB044C
:1050E00034F7E0911301F0E0EE0FFF1FEA5CFE4F92
:1050F00020813181821B930BD6CF0E94A1351F9254
:105100000F920FB60F9211248F939F93AF93BF937B
:1051100080912F0390913003A0913103B09132031D
:105120000296A11DB11D80932F0390933003A0938D
:105130003103B093320380912E0396E0980F9D3790
:10514000F0F490932E038091330390913403A09157
:105150003503B09136030196A11DB11D8093330331
:1051600090933403A0933503B0933603BF91AF916E
:105170009F918F910F900FBE0F901F90189587579A
:1051800080932E0380912F0390913003A0913103DF
:10519000B09132030196A11DB11D80932F0390930E
:1051A0003003A0933103B0933203CDCF1F920F92FF
:1051B0000FB60F9211242F933F934F935F936F93EA
:1051C0007F938F939F93AF93BF93EF93FF938091C0
:1051D000B900887F803609F44AC0F0F5883209F4B6
:1051E000A7C018F5803109F49BC0B8F4882309F4EE
:1051F000F9C0883009F494C0FF91EF91BF91AF914D
:105200009F918F917F916F915F914F913F912F91DE
:105210000F900FBE0F901F901895883109F488C029
:10522000803251F78093A30314C0803409F49DC0E9
:1052300040F48033B9F38833F9F68093A30385EC07
:10524000B0C0803509F485C0883509F496C088342B
:1052500099F60E94380FD0CF883909F48CC038F500
:10526000883729F050F4883611F0803729F683E02A
:105270008093A50310922D0357C0883809F47BC092
:10528000803919F0803809F0B7CF80912D03803232
:1052900008F071C0E0912D0381E08E0F80932D0303
:1052A0008091BB00F0E0E35FFC4F80833DC0803B1A
:1052B00039F0E0F4803A09F479C0883A09F09CCFDB
:1052C00084E08093A50310920C0310920B03E091ED
:1052D0005A03F0915B03099580910B0381110FC074
:1052E00081E080930B031092EB0209C0803C09F42B
:1052F000A6CF883C09F4A3CF883B09F07DCFE0918D
:105300000C0381E08E0F80930C03F0E0E551FD4F1C
:1053100080818093BB0090910C0380910B0329C086
:105320008091A0038093BB0085EC8093BC0064CF88
:105330009091A2038091A103981758F5E091A203E0
:1053400081E08E0F8093A203F0E0E158FC4F808152
:10535000E9CFE091A20381E08E0F8093A2038091B8
:10536000BB00F0E0E158FC4F80839091A203809154
:10537000A1039817C8F285E8D8CFE091A20381E095
:105380008E0F8093A2038091BB00F0E0E158FC4FA8
:1053900080838091A40381115CCF81E080939F037F
:1053A00084EA8093BC001092A50326CF85EC8093FD
:1053B000BC001092A50380912D03803230F4E0915F
:1053C0002D03F0E0E35FFC4F108260912D0370E04D
:1053D000E0915803F09159038DE093E00995109204
:1053E0002D030ACF1092A30334CF1F920F920FB652
:1053F0000F9211242F933F934F935F936F937F935B
:105400008F939F93AF93BF93EF93FF938091B403D8
:105410009091B5030E94CE1BFF91EF91BF91AF9188
:105420009F918F917F916F915F914F913F912F91BC
:105430000F900FBE0F901F9018951F920F920FB6EE
:105440000F9211242F933F934F935F936F937F930A
:105450008F939F93AF93BF93EF93FF938091B2038A
:105460009091B3030E94CE1BFF91EF91BF91AF913A
:105470009F918F917F916F915F914F913F912F916C
:105480000F900FBE0F901F901895CF930E94C306E8
:105490001092DB031092DA0388EE93E0A0E0B0E014
:1054A0008093DC039093DD03A093DE03B093DF03CE
:1054B00080E591E09093D9038093D80380E58093B1
:1054C0004C0410922C0410922B0410922E04109273
:1054D0002D041092300410922F0410923104109277
:1054E00032041092330480912D0190912E01A091ED
:1054F0002F018093340490933504A09336041092C6
:105500003704109238041092390410923A04109221
:105510003B0410923C0410923D0410923E04109201
:105520003F0410924004109241041092420480E81B
:105530009FEDA7E1B0E18093430490934404A093CE
:105540004504B093460462E082E00E94F00662E007
:1055500083E00E94F006EDE8FAE0E491F0E0EE0F5F
:10556000FF1FEF57F54F85919491909320048093FE
:105570001F04EFE6FAE0E491E0932304EEE8FAE09A
:10558000E491F0E0EE0FFF1FEF57F54F85919491F6
:105590009093220480932104E0E7FAE0E491E09301
:1055A00024041092260410922704109228041092CA
:1055B000290480ED97E00E940C08E0911F04F0910F
:1055C0002004908180912304982381E009F480E0F5
:1055D000E0912104F09122049081209124049223EF
:1055E00009F082602FE134E0809325043093B30307
:1055F0002093B203809169008C7F81608093690061
:10560000E89AC1E0C0932A043093B5032093B40311
:1056100080916900837F846080936900E99A82E0C9
:1056200080932A041092E7031092E60320E830E00A
:105630003093E9032093E80380E290E09093EB033A
:105640008093EA033093ED032093EC039093EF03F0
:105650008093EE031092FA031092F1031092F0037C
:105660001092F3031092F203C093F903C093F8036E
:105670008FEF9FEF9093F7038093F6039093F503DA
:105680008093F403C093FB031092FC031092FE037B
:105690001092FD0382E691E09093E5038093E4038A
:1056A00088ED93E090930204809301041092040427
:1056B000109203048FEF8093080480930904809371
:1056C0000A0480930B0480930C0480E580931904F2
:1056D000C0931A0480EA96E8A1E0B0E080931B042E
:1056E00090931C04A0931D04B0931E041092000418
:1056F0001092FF0360E08EE00E94F006EBE7FAE014
:10570000E491E093CA03E9E9FAE0E491F0E0EE0FF6
:10571000FF1FEF57F54F859194919093CC038093A1
:10572000CB031092D5031092D7031092D603109298
:10573000D4031092D3031092D2031092D10310928B
:10574000D0031092CF031092CE031092CD038AECB7
:1057500093E09093BD038093BC031092BA03109220
:10576000BB031092B60389E08093B703C093B803DC
:10577000C093B9031092C9031092C803CF91089542
:10578000CF93DF93CDB7DEB728970FB6F894DEBF7F
:105790000FBECDBFF89482E880937A0013E014BD69
:1057A00015BD80916E00816080936E0081E08093D2
:1057B00080009BE0909381008093B00084E0809310
:1057C000B1001092C100789460E086E00E94F0067B
:1057D000219A209A60E086E00E944B0660E089E012
:1057E0000E944B06289860E085E00E94F00660E089
:1057F00087E00E94F00660E085E00E944B065F981B
:10580000229A60E084E00E94F00660E08FE00E944F
:10581000F0065C9A109307018091030490910404B0
:10582000892B11F10E94EC202091EA033091EB03C7
:105830008091E8039091E903213231050CF0B4C066
:10584000B9016052710977FF02C06F5F7F4F759594
:1058500067958357910997FD019600E210E023E7D1
:1058600030E048EC55E0B3C02091EA033091EB03FF
:10587000C901079697FD0796B3E095958795BA9568
:10588000E1F72091E8033091E9031C01229EC00159
:10589000239E900D329E900D11240E947C34909393
:1058A000040480930304892B09F0BCCF0E94EC20F0
:1058B0000E946F14E091BC03F091BD03138615861E
:1058C000148612861186108617821682158214821B
:1058D00013821092BA031092BB0301E0BE016F5F06
:1058E0007F4F8091BC039091BD030E94F21D8823DD
:1058F00009F427C267E0CE0101960E9476089885D8
:105900008913ECCF8091B603811128C08091BC032C
:105910009091BD030E946B1DBE016F5F7F4F809110
:10592000BC039091BD030E941F0940E064EB80918D
:10593000BC039091BD030E94EB088091BC03909141
:10594000BD030E948D08182F8091BC039091BD0368
:105950000E946B1D111102C00093B6031091B70392
:105960008981803109F4DFC4CE0101960E94721E44
:10597000811708F0D5C18091B7038093B703809158
:10598000BA038F5F8093BA038981883239F008F0B7
:10599000D1C1803119F0823209F0A0CF8091BB03D0
:1059A0008F5F8093BB039ACFB9016054710977FF71
:1059B00002C06F5F7F4F759567958255910997FD7E
:1059C000019600E410E022E530E048EA57E09595C2
:1059D00087950E942A0E82E080930604809101043C
:1059E00090910204892B09F49AC08CE380930504FA
:1059F0000E94C30680910C0487FD1EC061E00E94D6
:105A0000F00661E080910C040E944B0661E070E0BA
:105A100080E090E00E94370860E080910C040E94D2
:105A20004B066AE070E080E090E00E94370861E099
:105A300080910C040E944B06809101049091020415
:105A4000892B09F421C182E08093B80064E08AEBDD
:105A500095E00E946C136091EA03615084EE93E03C
:105A60000E940F1464E086EB95E00E946C13809115
:105A7000060460E1813009F064E184EE93E00E9465
:105A80000F1464E082EB95E00E946C138091E803B0
:105A90009091E9038038910509F021C18091EA03D2
:105AA0009091EB038032910509F005C164E08EEA24
:105AB00095E00E946C1369ED84EE93E00E940F1450
:105AC0008091060462E2813009F061EF84EE93E098
:105AD0000E940F1466E082EA95E00E946C138091A8
