:100000000C9452050C94F7280C94CF280C947A0584
:100010000C947A050C947A050C947A050C947A0564
:100020000C947A050C947A050C947A050C947A0554
:100030000C947A050C947A050C947A050C947A0544
:100040000C945B270C947A050C947A050C947A0531
:100050000C947A050C947A050C947A050C947A0524
:100060000C94B0270C947A05000103070F1F3F7F03
:100070000080C0E0F0F8FCFE00000000003E5B4F96
:100080005B3E3E6B4F6B3E1C3E7C3E1C183C7E3CF8
:10009000181C577D571C1C5E7F5E1C00183C180006
:1000A000FFE7C3E7FF0018241800FFE7DBE7FF3096
:1000B000483A060E2629792926407F050507407F04
:1000C00005253F5A3CE73C5A7F3E1C1C08081C1C77
:1000D0003E7F14227F22145F5F005F5F06097F016D
:1000E0007F006689956A606060606094A2FFA29458
:1000F00008047E040810207E201008082A1C080826
:100100001C2A08081E101010100C1E0C1E0C303873
:100110003E3830060E3E0E06000000000000005F74
:1001200000000007000700147F147F14242A7F2A90
:100130001223130864623649562050000807030052
:10014000001C2241000041221C002A1C7F1C2A089E
:10015000083E080800807030000808080808000001
:1001600060600020100804023E5149453E00427F75
:10017000400072494949462141494D331814127FC4
:100180001027454545393C4A494931412111090764
:100190003649494936464949291E000014000000E5
:1001A00040340000000814224114141414140041B7
:1001B00022140802015909063E415D594E7C121174
:1001C000127C7F494949363E414141227F414141AC
:1001D0003E7F494949417F090909013E4141517327
:1001E0007F0808087F00417F41002040413F017F98
:1001F000081422417F404040407F021C027F7F0460
:1002000008107F3E4141413E7F090909063E4151A8
:10021000215E7F09192946264949493203017F0198
:10022000033F4040403F1F2040201F3F4038403F99
:10023000631408146303047804036159494D4300AF
:100240007F4141410204081020004141417F0402E6
:10025000010204404040404000030708002054547D
:1002600078407F284444383844444428384444285B
:100270007F385454541800087E090218A4A49C78AE
:100280007F0804047800447D40002040403D007F0A
:100290001028440000417F40007C047804787C08EA
:1002A0000404783844444438FC18242418182424BE
:1002B00018FC7C08040408485454542404043F44A3
:1002C000243C4040207C1C2040201C3C4030403CD2
:1002D00044281028444C9090907C4464544C440032
:1002E0000836410000007700000041360800020196
:1002F0000204023C2623263C1EA1A161123A404082
:10030000207A3854545559215555794122545478FE
:1003100042215554784020545579400C1E52721297
:100320003955555559395454545939555454580020
:1003300000457C410002457D420001457C407D1224
:1003400011127DF0282528F07C5455450020545486
:100350007C547C0A097F4932494949323A44444431
:100360003A324A4848303A4141217A3A424020786C
:10037000009DA0A07D3D4242423D3D4040403D3C6D
:1003800024FF2424487E4943662B2FFC2F2BFF0992
:1003900029F620C0887E0903205454794100004486
:1003A0007D413048484A32384040227A007A0A0A71
:1003B000727D0D19317D2629292F282629292926E4
:1003C00030484D4020380808080808080808382F29
:1003D00010C8ACBA2F102834FA00007B00000814B3
:1003E0002A142222142A14085500550055AA55AA89
:1003F00055AAFF55FF55FF000000FF00101010FF29
:1004000000141414FF001010FF00FF1010F010F083
:10041000141414FC001414F700FF0000FF00FF1474
:1004200014F404FC141417101F10101F101F1414C0
:10043000141F00101010F0000000001F101010100A
:100440001F10101010F010000000FF1010101010FE
:1004500010101010FF10000000FF140000FF00FF3C
:1004600000001F10170000FC04F4141417101714D8
:1004700014F404F40000FF00F714141414141414FA
:10048000F700F7141414171410101F101F1414146D
:10049000F4141010F010F000001F101F0000001FD7
:1004A00014000000FC140000F010F01010FF10FF0A
:1004B000141414FF141010101F00000000F010FF9F
:1004C000FFFFFFFFF0F0F0F0F0FFFFFF0000000083
:1004D00000FFFF0F0F0F0F0F3844443844FC4A4A07
:1004E0004A347E02020606027E027E0263554941BC
:1004F000633844443C04407E201E2006027E0202F3
:1005000099A5E7A5991C2A492A1C4C7201724C3006
:100510004A4D4D303048784830BC625A463D3E49DD
:100520004949007E0101017E2A2A2A2A2A44445F81
:10053000444440514A444040444A51400000FF0175
:1005400003E080FF000008086B6B08361236243683
:10055000060F090F060000181800000010100030E8
:1005600040FF0101001F01011E00191D1712003C70
:100570003C3C3C0000000000005EBCE2613FDD83CB
:10058000C29C7E20A3FD1F41009D23BE46DB65F873
:100590008C11AF32CA57E974000000002400270014
:1005A0002A00DB40A4A62EAFDA0281DA1281DA0239
:1005B000818F2000A1C8D300408DAED580A8000057
:1005C0000000250028002B00000060000000000053
:1005D000000000000000000000E00000000000003B
:1005E0000000000000000001E0000000000000002A
:1005F00000000000000001F000000000000000000A
:10060000000000000003F0000000000000000000F7
:100610000000000007F000000000000000000000E3
:1006200000000007F80000000000000000000000CB
:1006300000000FF800000003C0007E000001E00091
:100640007F0FF800000003C000FE000001E000FF83
:10065000EFF800000003C000FE000001E000FFFF13
:10066000F800000003C000F00000000F007FFE7FD4
:10067000C0000003C000F00000000F003FFE7FF844
:100680003FF1FBCFFCFEF3BC3DEFE01FFE7FFF7FA1
:10069000FBFFDFFEFEFFBC3DEFE01FC6FFFF7FFB61
:1006A000FFDFFEFEFFBC3DEFE00FE3C7FE787BC33C
:1006B000DE1EF0FFBC3DEF0007FF87FC787BC3DE4A
:1006C0001EF0F83C3DEF0001FFFFF0007BC3C01EB1
:1006D000F0F03C3DEF0001F37FE03FFBC3CFFEF0C5
:1006E000F03C3DEF0003E33F807FFBC3DFFEF0F013
:1006F0003C3DEF0007E73C00787BC3DE1EF0F03C9A
:100700003DEF0007FFBE00787BC3DE1EF0F03C3DEE
:10071000EF0007FFFE00787BC3DE1EF0F03C3DEFEC
:10072000000FFFFE007FFBFFDFFEF0F03FFDEFE07C
:100730000FFFFF007FFBFFDFFEF0F03FFDEFE00F5C
:10074000F9FF003E79F9CF9EF0F01F3DE7E01FF181
:10075000FF0000000000000000000000001F80FFFC
:10076000007FFFFFFFFFFFFFFFFFFFE01C007F0098
:100770007FFFFFFFFEB46D888D18E000001F007F33
:10078000FFFFFFFE95AD7DB577E000000F007FFF16
:10079000FFFFFEA5AD9D8D19E0000006007FFFFF65
:1007A000FFFEB5ADEDB57EE0000000000001800069
:1007B00000000000000000000380000000000000B6
:1007C00000000007C000000000000000000007C09B
:1007D0000000000000000000000FC000000000004A
:1007E000000000001FE00000000000000000001FEB
:1007F000E00000000000000000003FE000000000FA
:1008000000000000003FF0000000000000000000B9
:100810007FF0000000000000001FF87FF0000000E3
:10082000000000003FFE7FF0000000000000003FDD
:10083000FF7FF0000000000000001FFFFBE0000051
:1008400000000000000FFFF9FFC0000000000000E2
:100850000FFFF9FFF800000000000007FFF1FFFFA5
:1008600000000000000003FC73FFFF800000000098
:100870000001FE3FFFFF80000000000000FF1E0F90
:10088000FF000000000000007FFE1FFC00000000D1
:100890000000003FFFFFF8000000000000000FDF35
:1008A000FFE0000000000000001F19FFC000000072
:1008B000000000003F3CFF00000000000000007E40
:1008C0007CF800000000000000007FFE7C000000BB
:1008D0000000000000FFFFFC00000000000000001E
:1008E000FFFFFE0000000000000000FFFFFE000010
:1008F000000000000001FFEFFE000000000000000B
:1009000001FFCFFE0000000000000003FF07FE0013
:1009100000000000000003FC07FE000000000000D3
:100920000003F003FE00000000000000018000FE54
:10093000000000000000000000007E000000000039
:1009400000000000003E0000000000000000000069
:100950000C000000000000078000FC000003C00045
:100960000000078001FC000003C0000000078001B8
:10097000FC000003C0000000078001E00000001E32
:10098000000000078001E00000001E007FE3F79FE9
:10099000F9FDE7787BDFC0FFF7FFBFFDFDFF787B48
:1009A000DFC0FFF7FFBFFDFDFF787BDFC0F0F787FB
:1009B000BC3DE1FF787BDE00F0F787BC3DE1F078DD
:1009C0007BDE0000F787803DE1E0787BDE007FF78B
:1009D000879FFDE1E0787BDE00FFF787BFFDE1E068
:1009E000787BDE00F0F787BC3DE1E0787BDE00F04D
:1009F000F787BC3DE1E0787BDE00F0F787BC3DE1A6
:100A0000E0787BDE00FFF7FFBFFDE1E07FFBDFC0AA
:100A1000FFF7FFBFFDE1E07FFBDFC07CF3F39F3D0D
:100A2000E1E03E7BCFC000000000000000000000BD
:100A300000FFFFFFFFFFFFFFFFFFFFC0FFFFFFFF04
:100A4000FD68DB111A31C0FFFFFFFFFD2B5AFB6A67
:100A5000EFC0FFFFFFFFFD4B5B3B1A33C0FFFFFF03
:100A6000FFFD6B5BDB6AFDC02200FF210001020479
:100A70000810204080010204081020010204081020
:100A800020000000002300260029000404040404C0
:100A9000040404020202020202030303030303002C
:100AA0001F29222F11241FBECFEFD8E0DEBFCDBFFC
:100AB00024E0A6E9B2E001C01D92AF31B207E1F730
:100AC00012E0A0E0B1E0ECE8F6E602C005900D927D
:100AD000A639B107D9F715E0C1E5D5E004C02197E3
:100AE000FE010E94FF2FC035D107C9F70E949A2A44
:100AF0000C9439330C94000091E090937F03809321
:100B00007E0310927D0310927C03089590917303ED
:100B10009111FCCF91E090937303909372032FEFA8
:100B20002093710310927003260F20936F0390930C
:100B30006E0390916E03880F892B80936E038091D2
:100B40006D03813011F510926D0380916E038093D7
:100B5000BB008091BC0083FDF8CF85EC8093BC0086
:100B6000809173038130E1F380917003861710F454
:100B7000609170032DE433E0ADE2B3E0F9018E2F14
:100B8000821B861720F0862F089585EEE7CF81918E
:100B90008D93F5CF80912B0390912C03891B990B9A
:100BA000089508950895482FE62F282F30E08630C5
:100BB00009F459C000F58330E1F1853009F44FC0E4
:100BC0004830E0F14E3010F1443108F063C02E504F
:100BD000310981E090E0A0E0B0E004C0880F991FE7
:100BE000AA1FBB1F2A95D2F728B1EE2309F44FC0E4
:100BF000822B88B908958A30C9F18B30D9F18930B8
:100C0000F9F6809180008F77809380002850310919
:100C100081E090E0A0E0B0E004C0880F991FAA1F17
:100C2000BB1F2A95D2F7E1112EC025B180958223F2
:100C30002CC09091B0009F7D9093B00081E090E037
:100C4000A0E0B0E004C0880F991FAA1FBB1F4A95FF
:100C5000D2F72BB1EE23A1F0822B8BB9089594B576
:100C60009F7D94BDEBCF94B59F77FBCF80918000A3
:100C70008F7DCACF8091B0008F778093B000C6CFB0
:100C800080958223EACF25B1822B85B9089580957E
:100C90008223AFCF089510922C0310922B03109251
:100CA0007D0310927C031092730381E080937203A2
:100CB00010926D03449A459AE9EBF0E080818E7FB3
:100CC000808380818D7F808388E48093B80085E471
:100CD0008093BC0081ED95E090932A0380932903D3
:100CE00082ED95E09093280380932703089508955B
:100CF000CF92DF92EF92FF920F931F93613009F42E
:100D00005BC0623009F490C08830C8F49AB141E009
:100D100050E060E070E004C0440F551F661F771F6D
:100D20008A95D2F7409594239AB98BB148234BB951
:100D30001F910F91FF90EF90DF90CF9008958E302C
:100D4000B0F424B1082F0850110B81E090E0A0E02E
:100D5000B0E004C0880F991FAA1FBB1F0A95D2F7E5
:100D60008095282324B995B1892385B9E1CF8431B1
:100D7000F8F6E7B190E09C012E50310941E050E0D7
:100D800060E070E06A017B0104C0CC0CDD1CEE1C4D
:100D9000FF1C2A95D2F7860100950E2307B928B1CA
:100DA000089704C0440F551F661F771F8A95D2F716
:100DB0004095422348B9BCCF883078F49AB141E0DD
:100DC00050E060E070E004C0440F551F661F771FBD
:100DD0008A95D2F7942B9AB9ABCF8E3088F424B190
:100DE0008850990B41E050E060E070E004C0440F8F
:100DF000551F661F771F8A95D2F7242B24B998CFE9
:100E0000843108F095CF27B18E50990B41E050E026
:100E100060E070E004C0440F551F661F771F8A957D
:100E2000D2F7242B27B984CF8830B8F43AB141E007
:100E300050E060E070E07A018B0104C0EE0CFF1C12
:100E4000001F111F8A95D2F7C7012E2D209523234D
:100E50002AB92BB1822B8BB96BCF8E30B0F434B161
:100E6000082F0850110B81E090E0A0E0B0E004C032
:100E7000880F991FAA1FBB1F0A95D2F7282F20950C
:100E8000232324B925B1822B70CF843108F050CFB1
:100E900037B1682F6E50770B81E090E0A0E0B0E0B2
:100EA00004C0880F991FAA1FBB1F6A95D2F7282F6D
:100EB0002095232327B928B1822B88B939CFCF9227
:100EC000DF92EF92FF920F931F93CF93DF937C01FA
:100ED0006A0110E000E00C151D0581F0EB01D7015F
:100EE000ED91FC910190F081E02D6991C701099588
:100EF000892B21F00F5F1F4FBE01EDCFC801DF919D
:100F0000CF911F910F91FF90EF90DF90CF900895B8
:100F1000880F991F880F991F05970197F1F708957A
:100F20003FB7F8948091120390911303A09114039A
:100F3000B091150326B5A89B05C02F3F19F0019667
:100F4000A11DB11D3FBFBA2FA92F982F8827BC0123
:100F5000CD01620F711D811D911D42E0660F771F4B
:100F6000881F991F4A95D1F708958F929F92AF924B
:100F7000BF92CF92DF92EF92FF926B017C010E94B1
:100F800090074B015C01C114D104E104F104B9F0F4
:100F90000E949007681979098A099B09683E734085
:100FA0008105910580F381E0C81AD108E108F108B4
:100FB00028EE820E23E0921EA11CB11CE4CFFF900C
:100FC000EF90DF90CF90BF90AF909F908F9008955B
:100FD0002FB7F89460910E0370910F038091100366
:100FE000909111032FBF0895E0E0615098F0DC016B
:100FF0008D918E27E82FEF70F0E0E858FA4F94912A
:10100000E82FE295EF70F0E0E857FA4FE491E92716
:10101000CD01EBCF8E2F08950F931F93CF93DF93C6
:10102000FC011081C181D281F8948981812B89834F
:101030008A81012F009580238A8383E090E00E94BB
:1010400088078981802389838AE090E00E9488074D
:10105000C881789485E390E00E948807C12381E0ED
:1010600009F480E0DF91CF911F910F9108951F93B4
:10107000CF93DF93FC011081C181D281912F909594
:1010800060FF16C0F8948A8189238A838981812B25
:1010900089838AE090E00E9488078A81182B1A834E
:1010A000789487E390E0DF91CF911F910C948807AB
:1010B000F8948A8189238A838981812B898381E4B9
:1010C00090E00E9488078A81182B1A83789485E023
:1010D00090E0E9CFDF92EF92FF920F931F93CF93AF
:1010E000DF93EC01D62EE42E08E010E0FF24F39409
:1010F00061E08D2D8F2109F460E0CE010E94370858
:10110000FF0C01501109A1F7E11010C0F894E9811A
:10111000FA8191818881809589238183E981FA818F
:10112000928188818095892382837894DF91CF9101
:101130001F910F91FF90EF90DF900895EF92FF9233
:101140000F931F93CF93DF938C017B0140E065E504
:101150000E946A08E70188E0E80EF11C699140E00E
:10116000C8010E946A08CE15DF05C1F7DF91CF9153
:101170001F910F91FF90EF900895FF920F931F938F
:10118000CF93DF93FC010081C181D281F8948981E2
:10119000F02EF0948F21898378941DE7115029F166
:1011A00082E090E00E94880788818023B9F3F89458
:1011B0008A818F218A838981802B8983789480EE2C
:1011C00091E00E948807F89489818F21898386E4C1
:1011D00090E00E9488078881082311E009F010E060
:1011E00078948AE991E00E948807812FDF91CF915E
:1011F0001F910F91FF900895AF92BF92CF92DF920F
:10120000EF92FF920F931F93CF93DF938B01BC015B
:1012100080918A0390918B030E949E0840E06EEBC0
:1012200080918A0390918B030E946A08E80168010B
:1012300089E0C80ED11CA0908A03B0908B0388E08F
:10124000E82EF12C10E001E0C5010E940C0881118C
:10125000102B000F81E0E81AF108B1F71993CC16B2
:10126000DD0649F780918A0390918B030E94BD08A7
:1012700091E0813009F090E0892FDF91CF911F91AB
:101280000F91FF90EF90DF90CF90BF90AF900895B7
:101290000F931F93CF93DF93CDB7DEB729970FB688
:1012A000F894DEBF0FBECDBF8C01FC018081803180
:1012B00081F180918A0390918B030E94BD08811176
:1012C0000CC080E029960FB6F894DEBF0FBECDBFEC
:1012D000DF91CF911F910F910895BE016F5F7F4FF6
:1012E000C8010E94FC08882361F368E0CE010196E2
:1012F0000E94F40799858913E4CF8D818F3359F0CB
:1013000020F48F31F1F689E0DDCF8F3531F08F3762
:10131000C1F68CE0D7CF8AE0D5CF8BE0D3CF08954C
:10132000FC016370668B84819581268137816230F0
:1013300021F0633039F0613029F09187808733875D
:1013400022870895318720879387828708952F9277
:101350003F924F925F926F927F928F929F92AF9245
:10136000BF92CF92DF92EF92FF920F931F93CF9392
:10137000DF93CDB7DEB76A970FB6F894DEBF0FBE26
:10138000CDBF9A8F898F7A8369834A01D22E1887BD
:101390000F833701BC2CDC0159962D913C915A9753
:1013A0002115310509F015C118968D919C91199759
:1013B000681779070CF0D7C11A968D919C91481740
:1013C00059070CF0D0C14C2C512CB6E0CB9E600DCF
:1013D000711D11247C876B87161617060CF0C3C18C
:1013E000EA2DF0E0FA87E98793E0EE0FFF1F9A9568
:1013F000E1F7F88BEF87CF01840F951F18161906B8
:101400000CF0B1C1A98DBA8D58968C91811104C090
:10141000BFEABD1508F4D394A98DBA8DED91FC9166
:1014200011970284F385E02DCD010995B5E0DB9E8F
:10143000C0011124E981FA81FC83EB83312C212C3A
:101440009C0128583F4F388F2F8B4A2D50E05E8BE0
:101450004D8BEF89F88DE20DF31D44919E828D82B4
:10146000D12CC12C69817A81620D731D7A8B698BB5
:10147000842F90E09C8B8B8BE98DFA8DA081B181BC
:1014800040FF82C0F1E0BF126FC0AF126DC01C966A
:10149000ED91FC912F813885A4014C0D5D1D69896A
:1014A0007A89898D9A8D0995EB89FC89F595E7955F
:1014B0004E2F5FEFC51AD50A6D817E818D899E8979
:1014C000680F791F7E836D8398E0C916D10481F679
:1014D000AFEF2A1A3A0AEB81FC81E40DF51DFC837B
:1014E000EB83F5E02F16310409F0B3CF2F81388557
:1014F00026153705B9F0A98DBA8DED91FC91B1E0B3
:10150000BB1257C0AB1255C069817A816B5F7F4FA8
:101510000088F189E02D830128E030E0A401898D65
:101520009A8D0995A98DBA8DED91FC911197068838
:10153000F789E02DCD016A960FB6F894DEBF0FBE95
:10154000CDBFDF91CF911F910F91FF90EF90DF9072
:10155000CF90BF90AF909F908F907F906F905F9053
:101560004F903F902F9009941E96ED91FC91EF8043
:10157000F88409851A8592014D815E816B817C8199
:10158000898D9A8D099590CF2F813885261537053D
:1015900009F48ACF31E0B31207C0A31205C01C962C
:1015A000ED91FC91930178CF1E96ED91FC91730122
:1015B000E0CF6B857C85641975090684F785E02D7D
:1015C00073010F8518899201A401898D9A8D09955F
:1015D000A9CFF90134969491329745915491D91A33
:1015E000B7E0DB9E400D511D1124F9012591349186
:1015F0003C8B2B8BFA0125903490FA013296749033
:1016000031963491398B329664903196449041E012
:101610004C1518F04A1508F07FC0662D062C000CFA
:10162000770B7C836B83842D042C000C990B9E8399
:101630008D83A98DBA8DED91FC9111970284F3856C
:10164000E02DCD010995512CD12CC12CEA2DF0E0D3
:10165000FA87E9872B2D30E03C872B87A401440DC6
:10166000511D47FC5A95588F4F8B69817A81660DC1
:10167000711D67FC7A957E876D877989C71608F09A
:1016800051CF2C2D30E04D815E81420F531FA98533
:10169000BA854A9FC0014B9F900D5A9F900D11240F
:1016A000FC01E80DF91DF88BEF87852D612C4F8922
:1016B000588D420F531F5E8B4D8B671408F050C03E
:1016C00044244394480E877041F4C1010196EB898C
:1016D000FC89E20DF31DD4901C01D7FE19C0A98D21
:1016E000BA8DED91FC91662D70E0B1E0BB1219C08E
:1016F000AB1217C02D853E85620F731F0484F585DC
:10170000E02D2F8138854D895E89898D9A8D0995C7
:10171000DD0C6394842DD1CF1E821D821C821B821E
:1017200088CF4B815C81640F751FAB85BC856A9F38
:10173000C0016B9F900D7A9F900D112469817A8171
:10174000680F791F0684F785E02DEF80F8840985FE
:101750001A859D014F855889898D9A8D0995D8CF15
:10176000570CC3948ACF6A960FB6F894DEBF0FBEAB
:10177000CDBFDF91CF911F910F91FF90EF90DF9040
:10178000CF90BF90AF909F908F907F906F905F9021
:101790004F903F902F9008958F929F92AF92CF924B
:1017A000EF92FF920F931F93CF93DF93EC01262FBD
:1017B000898D9A8D009709F051C06A30D1F41D8649
:1017C0001C868D8948E0849F900111248E859F8519
:1017D000820F931F9F878E8781E090E0DF91CF91EA
:1017E0001F910F91FF90EF90CF90AF909F908F90AF
:1017F00008956D3089F3CC88AD888F898823C1F036
:101800008C859D8536E0C39E800D911D11244885F1
:1018100059854817590764F44E855F851D861C86D7
:1018200038E0A39EC0011124840F951F9F878E87E7
:10183000EA88FB88088919894E855F856C857D85D6
:10184000CE010E94A7092C898C859D8546E0249FA6
:10185000800D911D11249D878C87BECF6A3069F45D
:101860001D861C86FC013896E4912D898E859F8506
:10187000E29F800D911D1124ADCF6D3009F4ACCFE6
:10188000FC0134963491631708F4A6CF3296E491A4
:10189000E61708F4A1CFFC01329685909490462F6C
:1018A000431B342F47E0349F800C911C1124F4011A
:1018B000329634913196E4913323A9F1EE2399F1D4
:1018C000CC88F4013596E491AD884F89442301F129
:1018D0000E2E000CFF0BE30FF11DCE9EA001CF9E3C
:1018E000500D11246C857D85460F571F68857985BD
:1018F000641775076CF44E855F851D861C86FC0198
:101900003896E491AE9E400D511D11245F874E879D
:10191000EA88FB88088919894E855F856C857D85F5
:10192000CE010E94A709F4013496E4912C898C859C
:101930009D85E29F800D911D11248DCF682F82EB34
:1019400093E00C94CC0B6F927F928F929F92AF9208
:10195000BF92CF92DF92EF92FF920F931F93CF939C
:10196000DF93EC016B015A0139014801E881F981EB
:101970000284F385E02D0995E881F9810288F389D5
:10198000E02D87019301A501B601CE010995A501BE
:10199000480D591D41505109E881F9810288F389A8
:1019A000E02D9301B601CE010995E881F981008807
:1019B000F189E02D9401A501B601CE010995C60C6F
:1019C000D71CB60161507109E881F9810088F1895D
:1019D000E02D9401A501CE010995E881F9810688E1
:1019E000F789E02DCE01DF91CF911F910F91FF90EC
:1019F000EF90DF90CF90BF90AF909F908F907F90AF
:101A00006F9009948F929F92AF92BF92CF92DF9284
:101A1000EF92FF920F931F93CF93DF934C016B01D3
:101A20005A01E901DC01ED91FC916217730709F598
:101A30000417150724F48B2D5801042F182F0A19A9
:101A40001B0998012F5F3F4F048CF58DE02D870116
:101A5000A501B601C4010995DF91CF911F910F91A6
:101A6000FF90EF90DF90CF90BF90AF909F908F90BE
:101A700008954017510781F42617370724F48D2D58
:101A80006901C62FD82F9E012C193D092F5F3F4FAA
:101A9000068CF78DE02DDBCF0284F385E02D0995D0
:101AA000D401ED91FC910488F589E02D9E01A501FA
:101AB000B601C4010995D401ED91FC910688F7891E
:101AC000E02DC401DF91CF911F910F91FF90EF9016
:101AD000DF90CF90BF90AF909F908F900994EF923E
:101AE000FF920F931F93DC011A960D911C911B9787
:101AF00018962D913C911997ED91FC9100A0F1A1C0
:101B0000E02D7B0150E040E070E060E009951F911E
:101B10000F91FF90EF9008954F925F926F927F9296
:101B20008F929F92AF92BF92CF92DF92EF92FF92ED
:101B30000F931F93CF93DF936C012B015A0139014F
:101B40004801DC01ED91FC910284F385E02D0995BB
:101B5000E201640C751CD601ED91FC91C615D70508
:101B60005CF40088F189E02D87019401A501BE0194
:101B7000C60109952196EFCF0688F789E02DC601A9
:101B8000DF91CF911F910F91FF90EF90DF90CF9059
:101B9000BF90AF909F908F907F906F905F904F908D
:101BA00009948F929F92AF92BF92CF92DF92EF9261
:101BB000FF920F931F93CF93DF93EC015B014A01D8
:101BC0006901E881F9810284F385E02D0995950189
:101BD0002C0D3D1D21503109E881F9810488F589DA
:101BE000E02D78018401A401B501CE010995E881B9
:101BF000F9810688F789E02DCE01DF91CF911F9101
:101C00000F91FF90EF90DF90CF90BF90AF909F909B
:101C10008F9009948F929F92AF92BF92CF92DF9252
:101C2000EF92FF920F931F93CF93DF93EC015B0131
:101C30004A0169017801E881F9810284F385E02D88
:101C40000995C80CD91C860101501109E881F98158
:101C50000488F589E02D9501A401B501CE0109950F
:101C6000E881F9810688F789E02DCE01DF91CF91D7
:101C70001F910F91FF90EF90DF90CF90BF90AF90AA
:101C80009F908F900994EF92FF920F931F93DC0126
:101C9000ED91FC9100A0F1A1E02D09951F910F910C
:101CA000FF90EF9008950F931F93DC01ED91FC914D
:101CB000068CF78DE02D09951F910F9108950F93D4
:101CC0001F93DC01ED91FC91048CF58DE02D0995BD
:101CD0001F910F910895DC01ED91FC910084F18535
:101CE000E02D09943F924F925F926F927F928F9274
:101CF0009F92AF92BF92CF92DF92EF92FF920F939B
:101D00001F93CF93DF935C017B014A016901390185
:101D100087E0680E711C93E0759467949A95E1F7DB
:101D20002B01400E511E10E000E0312CD0E0C0E04D
:101D3000CE0187709927330C892B59F4FE0183E07B
:101D4000F595E7958A95E1F7E00FF11FE80DF91D8C
:101D5000349037FE0AC021E030E0A701B5016C0FD6
:101D60007D1F82EB93E00E946B0E2196CC16DD0660
:101D7000F9F68FEFE81AF80A060D171DE414F504BA
:101D8000A9F6DF91CF911F910F91FF90EF90DF9017
:101D9000CF90BF90AF909F908F907F906F905F900B
:101DA0004F903F9008952F923F924F925F926F9283
:101DB0007F928F929F92AF92BF92CF92DF92EF92DB
:101DC000FF920F931F93CF93DF9300D000D000D0EA
:101DD000CDB7DEB72C017E836D836A015901C8013E
:101DE000FC82EB824801841A950A97FE03C0919405
:101DF0008194910835012D813E81621A730A77FE24
:101E000003C0719461947108681479045CF43A2DEC
:101E10002B2D5C01832F922F3D812E81DE82CD827E
:101E2000C32ED22EAD81BE81AA16BB065CF43C2D1A
:101E30002D2D6C01832F922F3D812E81BE82AD828C
:101E4000A32EB22E85012D813E81021B130B1C0196
:101E50002C183D0837FE03C03194219431087801D5
:101E600017FF03C03FEFE31AF30AF594E794C8168F
:101E7000D90664F18FEF9FEF9A8389832D813E818C
:101E8000A216B30644F1D201ED91FC910484F585CC
:101E9000E02D2B813C814D815E81B601681479046F
:101EA0001CF0A6016D817E81C2010995E218F3083C
:101EB000F7FE06C029813A81C20ED31EE00EF11E44
:101EC0008D819E8101969E838D83D8CFA1E0B0E065
:101ED000BA83A983D3CF26960FB6F894DEBF0FBE80
:101EE000CDBFDF91CF911F910F91FF90EF90DF90C9
:101EF000CF90BF90AF909F908F907F906F905F90AA
:101F00004F903F902F90089585ED8093BC00809175
:101F1000BC0084FDFCCF1092730308952091EA0267
:101F2000260F3327331F21323105ECF42091730340
:101F3000FC0190E080E0243069F082E00895A091F7
:101F4000EA022191AC0146535D4FA40FB52FB11D9C
:101F50002C930196861798F38091EA02680F60939C
:101F6000EA0280E0089581E00895E0912C038091D9
:101F70002B03E81730F4F0E0E35DFC4F808190E044
:101F800008958FEF9FEF089590912C0380912B037C
:101F90002FEF3FEF981748F4E92FF0E0E35DFC4F97
:101FA000208130E09F5F90932C03C9010895CF9268
:101FB000DF92EF92FF920F931F93CF93DF937C01F9
:101FC000CB018A0120917F03222389F0EB016B0171
:101FD000C40ED51ECC15DD0569F06991D701ED91D0
:101FE000FC910190F081E02DC7010995F3CF642F9A
:101FF0000E948E0FC801DF91CF911F910F91FF902A
:10200000EF90DF90CF900895CF93DF930F92CDB7ED
:10201000DEB7698320917F032223F9F020917C03AE
:10202000203258F021E030E0FC013383228390E03D
:1020300080E00F90DF91CF91089580917D03E82F8C
:10204000F0E0E655FD4F998190838F5F80937D038B
:1020500080937C0381E090E0ECCF61E0CE010196BB
:102060000E948E0FF7CF682F86EA93E00C9404103D
:1020700020917C0381E0213208F046C080917303F7
:102080008111FCCF90917E0332E03093730331E0F5
:10209000309372033FEF30937103109270032093DB
:1020A0006F034AEA52E0ADE4B3E0FA013E2F341B7D
:1020B000321788F110926E0320916E03990F922BC4
:1020C00090936E0390916D03913041F510926D03E2
:1020D00090916E039093BB009091BC0093FDF8CF5C
:1020E00095EC9093BC00909173039230E1F3909142
:1020F00071039F3F49F080917103803289F0809194
:102100007103803379F084E010927D0310927C0398
:1021100010927F03089531913D93C8CF95EEE1CFA2
:1021200082E0F2CF83E0F0CFCF9388E60E947C0577
:1021300060E086EA93E00E94041060E886EA93E09B
:102140000E94041080917503CAE06C2F0E94412FF9
:102150008295807F682F690F86EA93E00E940410C1
:10216000809176036C2F0E94412F8295807F682F8B
:10217000690F86EA93E00E940410809177036C2F28
:102180000E94412F8295807F682F690F86EA93E035
:102190000E940410809178036C2F0E94412F829539
:1021A000807F682F690F86EA93E00E940410809177
:1021B00079036C2F0E94412F8295807F682F690FD1
:1021C00086EA93E00E94041080917A038E516C2F6E
:1021D0000E94412F8295807F682F690F86EA93E0E5
:1021E0000E94041086EA93E00E943810882329F0A8
:1021F00010927B0380E0CF91089581E080937B0370
:1022000088E60E947C0560E086EA93E00E94041064
:10221000809174036C2F0E94412F8295807F682FDC
:10222000690F86EA93E00E94041086EA93E00E9418
:1022300038108111DDCF81E0DECFBF92CF92DF92E7
:10224000EF92FF920F931F93CF93DF938C017B014B
:10225000E40EF51EEB01B99068018FEFC81AD80A99
:1022600080911A040E947C05812F90E00E94331017
:10227000C80199270E9433106B2D86EA93E00E94D3
:10228000041086EA93E00E9438106AE070E080E073
:1022900090E00E94B507BE018601CE15DF05D1F69C
:1022A000DF91CF911F910F91FF90EF90DF90CF9032
:1022B000BF9008950F931F93CF93DF93EC01EC81B0
:1022C000FD816E177F070CF073C0DA01A20FB31FF8
:1022D00057FF03C09D0150E040E08E819F818A1727
:1022E0009B071CF49C01241B350B121613060CF0E3
:1022F0005FC0922F842F8695869586958E9FD001FC
:102300008F9FB00D1124A60FB71F6F8D78A1A60F58
:10231000B71F477059F188E0841B482F682F70E081
:10232000FB01E059FF4FE491281708F065C0621BDC
:1023300071092FEF30E002C0359527956A95E2F7D5
:10234000E2230130110549F001151105B1F1023008
:10235000110571F58C91E82702C08C91E82BEC9364
:10236000941730F12C813D81A20FB31FE92FE41B9C
:10237000E83078F00230110521F58E2F9C91909570
:102380009C932C813D81A20FB31F88508830B0F7F9
:10239000E770EE2369F0F0E0E859FF4FE491013077
:1023A0001105F9F00115110501F10230110509F1CE
:1023B000DF91CF911F910F910895E0958C91E823C3
:1023C000CECF81E00115110509F480E081959E2FA3
:1023D0008C932C813D81A20FB31F98509830C0F789
:1023E000D7CF8C91E82BEC93E3CFE0958C91E82349
:1023F000FACF8C91E827F7CF0130110509F4ADCF62
:1024000001151105D1F20230110509F4A3CFAACFAD
:102410000F931F93CF93DF93FB01E20FF31F77FF1F
:1024200003C09F0170E060E0DC011496CD91DC9167
:10243000CE17DF071CF49E01261B370B121613065E
:102440005CF5FA0157FD3796A3E0F595E795AA9557
:10245000E1F7EC9FD001ED9FB00DFC9FB00D112472
:102460006A0F7B1FDC015F96ED91FC91E60FF71F71
:102470004770552781E090E001C0880F4A95EAF740
:10248000482F0130110569F001151105A9F02E0F33
:102490003F1F02301105E1F0DF91CF911F910F91A5
:1024A00008952E0F3F1FE217F307B1F3DF018D915F
:1024B000842B8083FD01F7CF80952E0F3F1F2E17B1
:1024C0003F0751F3DF019D9198239083FD01F7CFE2
:1024D000E217F30709F3DF018D9184278083FD0163
:1024E000F7CF0F931F93FA01DC0156964C91569744
:1024F0004230E9F04330A1F1413061F514964D913D
:102500005C91DA01AE1BBF0BFD01E21BF30B77FD03
:102510000BC0DC0116964D915C916417750724F48D
:10252000AB01BF010E9408121F910F9108951496EC
:102530004D915C91DA01A61BB70BBD016150710989
:10254000DC0116964D915C91DA01AE1BBF0BFD01CB
:10255000E21BF30B77FDE8CFAF010E945A11E4CFE5
:1025600016964D915C91DA01A61BB70BBD01615027
:102570007109CDCF0F931F93FA01DC0156964C9150
:1025800056974230A9F0433091F1413019F5149635
:102590004D915C91DA01AE1BBF0BFD013197F7FD48
:1025A00004C0AB01BF010E945A111F910F91089501
:1025B00014964D915C91DA01A61BB70BBD01DC01AD
:1025C00016964D915C91DA01AE1BBF0BFD01319760
:1025D000621B730BF7FDE9CFDC0116964D915C9100
:1025E000E417F50714F7AF010E940812DECF169624
:1025F0004D915C91DA01A61BB70BBD01621B730BF9
:10260000CECFFC0177FD66C080859185681779077C
:102610000CF060C057FD5EC082859385481759074E
:102620000CF058C086898230C1F0833039F1813096
:1026300041F484819581841B950BAB01BC016150F1
:1026400071092130310519F12115310509F443C013
:102650002230310509F463C0089584819581DC013D
:10266000A61BB70BBD016150710986819781DC0102
:10267000A41BB50BAD0141505109E3CF8681978171
:10268000861B970BBA01AC0141505109DACFCA0140
:1026900057FD0796A3E095958795AA95E1F7A48144
:1026A000B5818A9F90018B9F300D9A9F300D112428
:1026B000620F731F078CF0A1E02DE60FF71F477024
:1026C000552721E030E001C0220F4A95EAF78081CA
:1026D000822B80830895CA0157FD079633E09595B4
:1026E00087953A95E1F7A481B5818A9F90018B9FE8
:1026F000300D9A9F300D1124620F731F078CF0A1CB
:10270000E02DE60FF71F4770552781E090E001C0EC
:10271000880F4A95EAF7809590818923DACFCA011C
:1027200057FD079623E0959587952A95E1F7A481B3
:10273000B5818A9F90018B9F300D9A9F300D112497
:10274000620F731F078CF0A1E02DE60FF71F477093
:10275000552721E030E001C0220F4A95EAF7808139
:102760008227B7CF08958EBD00000DB407FEFDCFC0
:102770008EB50895FF920F931F93CF93DF93F82E9A
:10278000D92FC62F8091CF039091D003892B09F4C4
:1027900047C08091D3030E947C058091CF03909124
:1027A000D003DC01ED91FC910190F081E02D60E01F
:1027B00009950F2D1D2FD1E0C1508091CF0390912D
:1027C000D003CF3F31F1D03298F00E943810809181
:1027D000D3030E947C058091CF039091D003DC014C
:1027E000ED91FC910190F081E02D60E00995D1E040
:1027F0008091CF039091D003F8016491DC01ED91B9
:10280000FC910190F081E02D0995DF5F0F5F1F4F74
:10281000D3CFDF91CF911F910F91FF900C9438107F
:10282000E091DF03F091E00390818091E5038095D2
:10283000892380830F2D1D2FC15008F438C0F80163
:1028400084912091CD033091CE03232B29F00E9457
:10285000B3130F5F1F4FF0CF28E030E040E8E09166
:10286000DB03F091DC039091E303582F5423D9F05C
:102870005081952B9083E091DD03F091DE039081F0
:102880005091E403952B9083E091DD03F091DE03FA
:1028900050819091E4039095952390834695215023
:1028A0003109E9F6D6CF508190959523E3CFDF919A
:1028B000CF911F910F91FF9008951F93CF93DF93B6
:1028C000EC01162F8D8D9E8D892BF1F089A10E9430
:1028D0007C058D8D9E8DDC01ED91FC910190F08148
:1028E000E02D60E009958D8D9E8DDC01ED91FC91D0
:1028F0000190F081E02D612F09958D8D9E8DDF91E6
:10290000CF911F910C943810EDA5FEA590818BA955
:102910008095892380838B8D9C8D892B31F0862F28
:10292000DF91CF911F910C94B31328E030E090E831
:10293000E9A5FAA589A9412F4923C1F04081842B3B
:102940008083EBA5FCA580814AA9842B8083EBA51D
:10295000FCA540818AA98095842380839695215087
:10296000310931F7DF91CF911F9108954081809512
:102970008423E6CF8CBD9DBD0895FF920F931F93D6
:10298000CF93DF938091CF039091D003892B09F4EB
:1029900072C08CE08093B80065E088E69AE00E94FF
:1029A000BA136091B603615082EB93E00E945D140C
:1029B0002091B8033091B903C901079697FD079696
:1029C00023E0959587952A95E1F72091B6033091FC
:1029D000B703829F8001839F100D929F100D1124D9
:1029E000C091D103D091D2038091CF039091D003B5
:1029F0000C0F1D1F892B09F47CC08091D3030E940A
:102A00007C058091CF039091D003DC01ED91FC9186
:102A10000190F081E02D60E40995FF24F39480910A
:102A2000CF039091D003C017D107E1F1BFE1BF15EB
:102A3000A0F40E9438108091D3030E947C058091FD
:102A4000CF039091D003DC01ED91FC910190F081D6
:102A5000E02D60E40995FF24F3948091CF039091D9
:102A6000D003DC01ED91FC910190F081E02D6991A2
:102A70000995F394D4CF8091CD039091CE03892B07
:102A800031F08091E7039091E8030E94BA14E0913D
:102A9000E103F091E20390818091E6038095892320
:102AA00080837ACF0E9438108091CF039091D00319
:102AB000892B09F45FC02091E9033091EA0340912A
:102AC000EB035091EC0360E074E284EF90E00E942D
:102AD0006A31205131094109510956954795379579
:102AE00027952093B800DF91CF911F910F91FF9010
:102AF0000895E091DF03F091E00380819091E50378
:102B0000892B80830C171D0779F289912091CD03C1
:102B10003091CE03232B19F00E94B313F3CF28E09A
:102B200030E040E8E091DB03F091DC039091E303B7
:102B3000582F5423D9F05081952B9083E091DD03D9
:102B4000F091DE0390815091E403952B9083E09106
:102B5000DD03F091DE0350819091E403909595237D
:102B60009083469521503109E9F6CCCF508190955C
:102B70009523E3CFE091E103F091E203808190910E
:102B8000E603892B8083AFCF1F93CF93DF93EC01B4
:102B9000162F8D8D9E8D892B29F18CE08093B800A6
:102BA00066EA111167EACE010E945D148D8D9E8D3B
:102BB000892B41F12FA938AD49AD5AAD60E074E2DF
:102BC00084EF90E00E946A31205131094109510996
:102BD00056954795379527952093B800DF91CF916B
:102BE0001F9108958B8D9C8D892B21F08DA99EA915
:102BF0000E94BA14EFA5F8A990818CA98095892329
:102C00008083CECFEFA5F8A980819CA9892B8083F2
:102C1000E5CF089590E080E008958093BB0084E8BC
:102C20008093BC008091BC0087FFFCCF9091B900DD
:102C3000987F81E0983231F0983129F0903419F082
:102C400080E008950895089584EA8093BC008091FF
:102C5000BC0087FFFCCF8091B900887F19F080EC21
:102C60000C940D1680E008955F926F927F928F9280
:102C70009F92AF92BF92CF92DF92EF92FF920F930B
:102C80001F93CF93DF93CDB7DEB7582E742E652EEA
:102C9000B62E922E0E942416852D0E940D168D2D83
:102CA0000E940D168C2D0E940D168B2D83708A2983
:102CB00090E081109CE0892B0E940D16862D0E94C9
:102CC0000D16872D0E940D168CE0F694E794D7948C
:102CD000C7948A95D1F78C2D807FC82E892D8F704F
:102CE0008C290E940D16812F0E940D16802F0E94A4
:102CF0000D1684E98093BC008091BC0084FDFCCF5C
:102D0000DF91CF911F910F91FF90EF90DF90CF90C7
:102D1000BF90AF909F908F907F906F905F9008953D
:102D20004F925F926F927F928F929F92AF92BF92DB
:102D3000CF92DF92EF92FF920F931F93CF93C82F02
:102D4000C0901104D0901204E0901304F090140489
:102D5000CB01BA01A70196010E946A3149015A01CB
:102D600025E0F694E794D794C7942A95D1F735E0F7
:102D700096958795779567953A95D1F747E0660FD1
:102D8000771F881F991F4A95D1F7A70196010E94C6
:102D90006A3129013A018B019C01B501A401552733
:102DA00066277727E7E0440F551F661F771FEA95D0
:102DB000D1F7525061097109440D551D661D771DEB
:102DC000812CA12C8C2F0E943416CF911F910F9132
:102DD000FF90EF90DF90CF90BF90AF909F908F903B
:102DE0007F906F905F904F9008958F92AF92CF92A7
:102DF000DF92EF92FF920F931F93882483944430C5
:102E000051056105710509F0812C44505109610992
:102E10007E4F97E0440F551F661F771F9A95D1F795
:102E2000A22EC12CD12C7601C39400E010E09801B1
:102E30000E9434161F910F91FF90EF90DF90CF907A
:102E4000AF908F900895CF93DF93D82FC62F0E9415
:102E500024168D2F0E940D168C2F0E940D1684E9CA
:102E60008093BC008091BC0084FDFCCFDF91CF91AA
:102E70000895CF93C82F60E880E18C0F0E9423173C
:102E8000EC2FF0E0EE0FFF1FE750FC4F1182108295
:102E9000CF9108952F923F924F925F926F927F92BF
:102EA0008F929F92AF92BF92CF92DF92EF92FF925A
:102EB0000F931F93CF93DF9300D000D00F92CDB725
:102EC000DEB789838091090490910A04A0910B04D4
:102ED000B0910C04892B8A2B8B2B19F481E00E9472
:102EE000391780910D0490910E04A0910F04B091B8
:102EF0001004892B8A2B8B2B19F482E00E9439173E
:102F00004090090450900A0460900B0470900C04E7
:102F1000411451046104710409F47FC12981222301
:102F200009F4A5C0C090FB03D090FC03F12CE12C68
:102F3000409100044983A3019201C701B6010E9498
:102F4000312F9B01AC018981E82FF0E0EF5BFE4F50
:102F5000A081B0E00E945F314B015C01DC01CB013C
:102F600080589447A24DBA418130934AA14EB14155
:102F700008F446C0609120017091210180912201E6
:102F800090912301A30192010E946A3169017A01A3
:102F900081E044E0C416D104E104F10408F489C0DE
:102FA00086E0C816D104E104F10408F49BC019823C
:102FB0009DE2C91691E0D906E104F10440F02981AF
:102FC0002F5F2983F694E794D794C794F1CF498172
:102FD000411103C0E894C0F81982A3019201C7010E
:102FE000B6010E94312F9B01AC018981E82FF0E0EE
:102FF000EF5BFE4FA081B0E00E945F314B015C01AE
:10300000B501A40182E20E9490168091FB03909189
:10301000FC03B0E0A0E08C159D05AE05BF0529F4CA
:103020008091000499818917D1F029812295207F10
:10303000B701A60182E30E94F516609103046C6655
:1030400081E10E942317D092FC03C092FB032981E7
:103050002093000480911904806880931904809261
:10306000150490921604A0921704B0921804C09010
:103070000D04D0900E04E0900F04F0901004C114E1
:10308000D104E104F10409F4B0C0809015049090DB
:103090001604A0901704B0901804C501B401A7014C
:1030A00096010E946A31283031054105510500F52D
:1030B00082E00F900F900F900F900F90DF91CF91C3
:1030C0001F910F91FF90EF90DF90CF90BF90AF9046
:1030D0009F908F907F906F905F904F903F902F9038
:1030E0000C94391704E0C02ED12CE12CF12C72CFB6
:1030F0001D82213431054105510560F08D818F5FBE
:103100008D83CC0CDD1CEE1CFF1C56954795379526
:103110002795EFCFC501B401A70196010E946A313E
:1031200029833A834B835C832FEF3FEF4FE050E0DE
:103130000E94612F56016701E12CF12C00E010E0A4
:103140000E948E2F29013A019D819295907F9D8347
:10315000C12CD12C7601C394411451046104710433
:1031600031F0CC24CA94DC2CFFE0EF2EF12CC3010B
:10317000B20127E0660F771F881F991F2A95D1F7A4
:10318000A70196010E946A3149015A018B019C01F5
:1031900049815A816B817C81552766277727E7E033
:1031A000440F551F661F771FEA95D1F752506109EA
:1031B0007109480D591D6A1D7B1D812CAD808AE364
:1031C0000E9434166CE445284628472809F06CE034
:1031D00080910404682B606282E10E94231781E0E1
:1031E00090E09093FE038093FD030F900F900F905B
:1031F0000F900F90DF91CF911F910F91FF90EF9063
:10320000DF90CF90BF90AF909F908F907F906F9006
:103210005F904F903F902F90089580900D04909074
:103220000E04A0900F04B090100481149104A10426
:10323000B104D9F2C090FD03D090FE03F12CE12C33
:10324000209101042983A5019401C701B6010E94C0
:10325000312F9B01AC018981E82FF0E0EF5BFE4F3D
:10326000A081B0E00E945F318B019C01005814479F
:10327000224D3A410130134A214E314108F443C0F6
:103280006091200170912101809122019091230190
:10329000A50194010E946A3169017A0184E0C8168F
:1032A000D104E104F10408F403CF96E0C916D10477
:1032B000E104F10408F458C019822DE2C21621E09D
:1032C000D206E104F10440F049814F5F4983F6944E
:1032D000E794D794C794F1CF8981811103C0E89412
:1032E000C0F81982A5019401C701B6010E94312FCF
:1032F0009B01AC019981E92FF0E0EF5BFE4FA081CB
:10330000B0E00E945F31AB01BC0182E20E949016E6
:103310008091FD039091FE03B0E0A0E08C159D0527
:10332000AE05BF0531F4809101042981821709F4AB
:103330005CCF29812295207FB701A6018AE30E94F4
:10334000F516609104046C6682E10E942317D09206
:10335000FE03C092FD03498140930104809119044A
:1033600080688093190441CF84E0C82ED12CE12CD1
:10337000F12CB5CF4F925F926F927F92AF92BF9236
:10338000CF92DF92EF92FF920F931F93CF93DF9331
:10339000D82F082F10E0F801EE0FFF1FEE0FFF1FD0
:1033A000EB5FFB4F40805180628073804114510479
:1033B0006104710489F48D2FDF91CF911F910F91DA
:1033C000FF90EF90DF90CF90BF90AF907F906F9085
:1033D0005F904F900C9439175801AA0CBB1CF50153
:1033E000E750FC4FC080D180F12CE12C07501C4FDE
:1033F000F801C681A3019201C701B6010E94312FD5
:103400009B01AC01EC2FF0E0EF5BFE4FA081B0E040
:103410000E945F319B01AC0120583447424D5A4114
:103420002130334A414E514108F43FC060912001A0
:10343000709121018091220190912301A3019201B9
:103440000E946A3169017A0184E0C816D104E1045E
:10345000F10408F4B0CFE6E0CE16D104E104F104A3
:1034600008F470C0C0E0FDE2CF16F1E0DF06E10431
:10347000F10430F0CF5FF694E794D794C794F3CF7C
:10348000C11103C0E894C0F8C0E0A3019201C701D4
:10349000B6010E94312F9B01AC01EC2FF0E0EF5BF5
:1034A000FE4FA081B0E00E945F312AE1D11122E2FB
:1034B000AB01BC01822F0E949016F501E750FC4F32
:1034C00080819181B0E0A0E08C159D05AE05BF051F
:1034D00021F4F80186818C1731F12C2F2295207F61
:1034E000B701A6018D2F880F880F880F865D0E9477
:1034F000F516F801618580E0D11180E2682B6C64DB
:1035000080E18D0F0E942317F501E750FC4FD18217
:10351000C082F801C6838091190490E2D11190E82D
:10352000892B80931904DF91CF911F910F91FF9008
:10353000EF90DF90CF90BF90AF907F906F905F90B3
:103540004F90089584E0C82ED12CE12CF12C9ACF15
:10355000FF920F931F93CF93DF9300D0CDB7DEB7C9
:10356000E3E1F1E010E000E08191080F111D81E03E
:10357000E032F807C9F74DE050E063E171E082E026
:1035800090E00E941D11095F1F4F1A83098342E0DA
:1035900050E0BE016F5F7F4F90E080E00E941D1100
:1035A000E0E0F1E087E091E010E000E02191020F1F
:1035B000111D8E179F07D1F78091140199E0F92E04
:1035C0008F9DC001112447E050E060E071E041961A
:1035D0000E941D11095F1F4F1A83098380911401F6
:1035E0008F9DC001112442E050E0BE016F5F7F4F0C
:1035F0000F960E941D110F900F90DF91CF911F9198
:103600000F91FF90089580911A0190911B01092E4E
:10361000000CAA0BBB0B80549340A446BE4F809372
:10362000110490931204A0931304B093140480E047
:103630000E94BA1982E00C94BA19CF92DF92EF92ED
:10364000FF920F931F93CF938091010190910201FC
:10365000A0910301B091040100911701109118018C
:10366000012E000C220B330BC0900904D0900A04E9
:10367000E0900B04F0900C04C1E0C114D104E1040B
:10368000F10409F4C0E040910504509106046091F2
:10369000070470910804E0910001EE2309F44BC087
:1036A000805E9E45A84FBF4F800F911FA21FB31F82
:1036B0001092190484179507A607B70759F080934D
:1036C000050490930604A0930704B093080480E0D7
:1036D0000E94BA1980910D0490910E04A0910F04DC
:1036E000B09110048C299D29AE29BF29892B8A2BE2
:1036F0008B2B99F01092090410920A0410920B047B
:1037000010920C0410920D0410920E0410920F04EB
:10371000109210048C2F0E944A176091190466239E
:1037200079F081EBCF911F910F91FF90EF90DF9097
:10373000CF900C9423178052914AA740B109B4CF7F
:10374000CF911F910F91FF90EF90DF90CF90089550
:103750008091A4029091A50227E0289FD001299F83
:10376000B00D11248091070120E4829FC001112433
:10377000876080937C0080917A00806480937A00D7
:1037800080917A0086FDFCCF80917800909179003D
:10379000A80FB91FAA0FBB1F94E0B695A7959A95DD
:1037A000E1F7B093A502A093A40220911C0130E0A0
:1037B0000E948C312FEF33E040E050E00E94403116
:1037C0002093A70208952091A8023091A902C9016F
:1037D000880F991F820F931F2091070140E4249FB7
:1037E00090011124216020937C0020917A002064B4
:1037F00020937A0020917A0026FDFCCF209178005A
:1038000030917900820F931F880F991F880F991F9D
:1038100034E0969587953A95E1F79093A9028093C5
:10382000A8020895DC01ED91FD918081ED91FD915B
:103830009081ED91FD916C9163708E2309F064602D
:103840009F2309F06860EFE2FCE1E60FF11D65954A
:1038500065956D936D917D918D919D91099423C096
:103860001AC012C016C010C01EC009C014C013C0B8
:1038700006C019C009C00DC007C00DC014C06250F9
:103880007040804090400BC061507040804090403C
:1038900006C06E5F01C06F5F7F4F8F4F9F4F9E933B
:1038A0008E937E936E930895BF92CF92DF92EF92A4
:1038B000FF920F931F93CF93DF93EC01B62EC72E89
:1038C0008D85811105C0CE010E94BD0881110EC0F9
:1038D0001B861D861C8680E0DF91CF911F910F9182
:1038E000FF90EF90DF90CF90BF90089540E060EFA1
:1038F000CE010E946A0801E0E12CD12C11E0CE013A
:103900000E940C08F82ECE010E940C0891E0F912DA
:1039100018C0813099F51134D8F2DB86D11002C07D
:1039200081E08D878B81882399F22396EB2DFC2DE6
:10393000CF01089629912193E817F907D9F781E07B
:10394000CBCF2E2D30E0F8120EC08B851817A0F4C7
:10395000FE01E20FF31F8381802381F4F12C1930E3
:1039600008F41C87D12EFE01E20FF31F8381902FF4
:103970009095892383830AC08113F0CFFE01EE0D59
:10398000F11D8381802B8383FF24F3946F2DCE015F
:103990000E9437081F5F000F11F4E39401E087E0F5
:1039A0008E1508F0ACCFB7CF4F925F926F927F9297
:1039B0008F929F92AF92BF92CF92DF92EF92FF923F
:1039C0000F931F93CF93DF93CDB7DEB761970FB6F9
:1039D000F894DEBF0FBECDBF0E94E807C0909B02E7
:1039E000D0909C02E0909D02F0909E026C197D099F
:1039F0008E099F09693873418105910508F458C003
:103A000080919A02811154C01092860380918A039A
:103A100090918B030E94BD0840E06CEC80918A037A
:103A200090918B030E946A084091840364E4809122
:103A30008A0390918B030E946A08809186038823F1
:103A400091F1E0918503E9500EEE12E0E33038F495
:103A5000F0E0EE0FFF1FE35DFE4F008111818091CA
:103A60008703882309F481C08091840381117DC07C
:103A70000E94E8074B015C012801110F66087708D6
:103A800080918A0390918B030E940C08813059F039
:103A90000E94E80764197509860997096815790570
:103AA0008A059B0568F381E08093860380939A02E0
:103AB0000E94E8076C197D098E099F0961347F41D6
:103AC00081059105D8F180919A028823B9F1E0919E
:103AD0008A03F0918B03138615861486128611864D
:103AE000108617821682158214821382BE01665FC9
:103AF0007F4F80918A0390918B030E94541C811107
:103B00003BC060E070E08EEF92EC20E030E040E0FF
:103B10005FE30E949C310E94083280911F01680F70
:103B20006093A6020E94E80760939B0270939C0238
:103B300080939D0290939E0210929A0261960FB616
:103B4000F894DEBF0FBECDBFDF91CF911F910F91D3
:103B5000FF90EF90DF90CF90BF90AF909F908F90AD
:103B60007F906F905F904F900895B801110F880B70
:103B7000990B0E94B50797CF67E0CE010A960E9485
:103B8000F40799898913BDCF80918A0390918B03A3
:103B90000E94BD08882309F4B4CFBE016F5F7F4F38
:103BA000CE010A960E94FC08882309F4AACF68E097
:103BB000CE0101960E94F40799858913A2CF6A81EC
:103BC00070E0762F6627770F770F770F298158E0FF
:103BD000259F90011124262B372B8A858031D1F423
:103BE000688570E08F81AB01481B5109CA01969529
:103BF000982F8827979587950E944D2FCB01409746
:103C0000B90153E0660F771F5A95E1F760789C0180
:103C1000260F371F213854EE35070CF472CFB90147
:103C2000330F880B990B0E94403220E030E040E0D7
:103C30005CE30E94CC3269CF0F931F93CF93DF9345
:103C400080919F02882359F0109274030E9494106F
:103C500010929F02DF91CF911F910F9108950E94C2
:103C6000E8070091960210919702209198023091F6
:103C70009902601B710B820B930B693E73408105A7
:103C8000910520F4012B022B032B21F70E94E8075A
:103C90006093960270939702809398029093990292
:103CA00088E60E947C0560E086EA93E00E940410AA
:103CB00086EA93E00E943810882319F010927B0363
:103CC000C9CF81E080937B0367E088E60E94860588
:103CD00010922C0380932B03873008F461C086EA8E
:103CE00093E00E94C40FD82F982F92959770CAE046
:103CF0008D2F8F709C9F800D11248093740386EA12
:103D000093E00E94C40F982F92959F708F709C9F94
:103D1000800D11248093750386EA93E00E94C40FFE
:103D2000982F929593708F709C9F800D1124809393
:103D3000760386EA93E00E94C40F982F92959F70B5
:103D40008F709C9F800D11248093770386EA93E007
:103D50000E94C40F982F92959F708F709C9F800D2A
:103D600011248093780386EA93E00E94C40F982F71
:103D700092959F708F709C9F800D11248093790382
:103D800086EA93E00E94C40F982F9F70925E8295FE
:103D90008F708C9F900D112490937A03D7FF5ACF88
:103DA000109276031092750310927403DF91CF91F5
:103DB0001F910F910C949410CF93DF93EC0180919D
:103DC0001A040E947C058D2F90E00E943310CE01D2
:103DD00099270E94331086EA93E00E94381061E030
:103DE00080911A040E94860510922C0380932B0365
:103DF000882321F086EA93E00E94C40FDF91CF91DF
:103E00000895EF92FF920F931F93CF93DF938B014F
:103E1000040F151F7C012FEFE21AF20AEB010E943A
:103E2000DC1E8993C701BE010C171D0799F7DF91AE
:103E3000CF911F910F91FF90EF900895DF92EF9235
:103E4000FF920F931F93CF93DF9300D0CDB7DEB7D0
:103E50001A8219828091140129E0829FC0011124E5
:103E600042E050E0BE016F5F7F4F0F960E94011F3E
:103E7000F12CE12C10E000E089E0D82E80911401B3
:103E800097018D9D200D311D1124C90141960E947D
:103E9000DC1E080F111D3FEFE31AF30A87E0E81656
:103EA000F10461F7095F1F4F89819A81081719078B
:103EB000B1F4809114018D9DC001112447E050E0C0
:103EC00060E071E041960E94011F0F900F90DF911A
:103ED000CF911F910F91FF90EF90DF9008950E9476
:103EE000A81AF3CF009769F0FC0101900020E9F7D0
:103EF0003197AF01481B590BBC0182EB93E00C9446
:103F00005F0790E080E00895CF93DF930E94721FD7
:103F1000EC0187E891E00E94721F8C0F9D1FDF91DA
:103F2000CF9108958F929F92AF92BF92CF92DF92DE
:103F3000EF92FF920F931F93CF93DF93CDB7DEB72E
:103F4000A1970FB6F894DEBF0FBECDBF6B017C0109
:103F500019A2423008F44AE08E010F5D1F4F842EF3
:103F6000912CB12CA12CC701B601A50194010E948E
:103F70006A316A3014F5605DF80162938F01C814EC
:103F8000D904EA04FB04B0F4CF010E94721FA19689
:103F90000FB6F894DEBF0FBECDBFDF91CF911F915A
:103FA0000F91FF90EF90DF90CF90BF90AF909F90D8
:103FB0008F90089569017A01D6CF695CDDCF682FB3
:103FC00070E090E080E04AE00C94921FCF92DF9284
:103FD000EF92FF92CF93DF936C01990FEE08FF08E9
:103FE000F7FE17C08DE20E949E0CEC016627772732
:103FF000CB016C197D098E099F094AE00E94921F2E
:104000008C0F9D1FDF91CF91FF90EF90DF90CF90AD
:1040100008954AE0C701B601DF91CF91FF90EF907C
:10402000DF90CF900C94921F0C94721FCF93DF936C
:104030000E94E61FEC0187E891E00E94721F8C0F3E
:104040009D1FDF91CF910895CF93DF930E94DF1FD3
:10405000EC0187E891E00E94721F8C0F9D1FDF9199
:10406000CF9108952091B8033091B903C901079603
:1040700097FD079623E0959587952A95E1F720917E
:10408000B6033091B703829FA001839F500D929F8A
:10409000500D112470E060E08091D1039091D20323
:1040A0000C9439318F929F92AF92BF92CF92DF9250
:1040B000EF92FF920F931F93CF93DF93E090A802AC
:1040C000F090A9020E9432201092BF031092BE030A
:1040D0001092C1031092C00381E090E09093C50359
:1040E0008093C4039093C3038093C20383E08093BF
:1040F000C6038093C703C0912603C83109F4A8C240
:1041000008F05DC0C33009F44BC238F5C13009F482
:1041100034C208F494C0E0911301F0E0EE0FFF1FE9
:10412000ED5CFE4F20813181AAE0B0E00E948C312D
:104130004AE00E94921F87E891E00E94721F81E08E
:104140008093C6038093C703809126030E94DF1FDC
:1041500081EB91E00E94142007C0C53109F454C2DC
:1041600088F4C43109F435C2DF91CF911F910F91CA
:10417000FF90EF90DF90CF90BF90AF909F908F9087
:104180000C94BD14C63109F453C2C73169F780914C
:1041900076038A3020F48AE891E00E94142080910E
:1041A00076030E94242081E08093C6038093C70396
:1041B000809126030E94DF1F8DEF91E0CBCFC536A3
:1041C00009F488C2E0F4CA3109F46AC208F458C29A
:1041D000C43651F680911601882309F478C289E12A
:1041E00092E00E94841F81E08093C6038093C703FE
:1041F000809126030E94DF1F8EE292E0E4C1C73661
:1042000009F4B7C208F498C2C83609F4CBC2C9365B
:1042100009F0AACF80911901882309F4D5C28BE651
:1042200092E00E94841F81E08093C6038093C703BD
:10423000809126030E94DF1F85E792E0C4C1809130
:10424000010190910201A0910301B0910401803815
:104250009649A849B10520F480E592E00E94142017
:10426000609101017091020180910301909104011C
:10427000E0E48E2EE2E49E2EEFE0AE2EB12CA501FE
:1042800094010E946A31CA01B9014AE00E94921F5A
:104290008091BE039091BF0305969093BF038093D6
:1042A000BE03609101017091020180910301909120
:1042B0000401A50194010E946A31603A7648814068
:1042C000910520F48AE891E00E9414206091010198
:1042D00070910201809103019091040120E432E485
:1042E0004FE050E00E946A316031774281059105CC
:1042F00020F48AE891E00E941420609101017091FD
:104300000201809103019091040120E432E44FE026
:1043100050E00E946A3158EE852E53E0952EA12C74
:10432000B12CA50194010E946A31CA01B9014AE089
:104330000E94921F82E08093C6038093C7038091FE
:10434000BE039091BF0305969093BF038093BE0375
:1043500087E090E09093C1038093C00360910101D6
:10436000709102018091030190910401A5019401D3
:104370000E946A31643671058105910520F48AE84E
:1043800091E00E94142060910101709102018091DE
:1043900003019091040128EE33E040E050E00E94D8
:1043A0006A312AE030E040E050E00E946A31CA0100
:1043B000B9014AE00E94921F87E891E00E94721FB3
:1043C00081E08093C6038093C7038091A70284365F
:1043D00020F48AE891E00E9414208091A702CAE0AC
:1043E0006C2F0E94412F90E00E94E61F8CE891E024
:1043F0000E9414208091A7026C2F0E94412F892FC8
:1044000090E00E94E61F8EE891E00E9414208091C7
:104410002503882309F44DC09701A7E3B2E00E9469
:104420008C31CC24CA9443E0D42EE12CF12CA7018A
:1044300096010E944031E9012091A8023091A90221
:10444000A3E6B0E00E948C31A70196010E944031A2
:10445000CA01B9014AE00E94921FCE0169E070E0F2
:104460000E944D2F6B01CA30D10574F0EE24E39405
:10447000F12C09E010E09B0147E150E060E470E0BE
:1044800082EB93E00E948C0DCE0169E070E00E9407
:104490004D2FB601605C7F4FEE24E394F12C8C012C
:1044A00021E030E047E150E082EB93E00E948C0D88
:1044B0005BCE8091A60292E3980F953608F051C02A
:1044C00087FD04C080E592E00E9414208091A6023E
:1044D000082E000C990B0E94E61F87EF0E949E0C8D
:1044E00081E991E00E94142080911C038823E1F16E
:1044F00080E592E00E941420809176038A3020F4B7
:1045000080E592E00E941420809176030E94DF1FD4
:104510008091740380FF2BC089E991E00E941420F0
:10452000809175038A3020F48AE891E00E9414207B
:10453000809175030E94DF1F809100018823D1F0D4
:104540008BE991E00E941420809114018A3020F4BC
:1045500080E592E00E941420809114010E94DF1FE8
:1045600003CE83E991E0BECF8CE891E0C3CF80E534
:1045700092E0D4CF8EE991E0E5CF809114010E94C2
:104580002420C093C603C093C703809126030E94D2
:10459000DF1F81EA91E00E94142080911501DECF97
:1045A00080910001882391F08BEB91E00E94841FA1
:1045B00081E08093C6038093C703809126030E9405
:1045C000DF1F83EC91E00E94841FCECD8FEB91E042
:1045D000EDCF8091050124E6829FC00111240E9445
:1045E000162081E08093C6038093C7038091260341
:1045F0000E94DF1F84ED91E00E94142080EF0E9452
:104600009E0C80EE91E0A6CD8091060124E6829F6B
:10461000C00111240E94162081E08093C60380937C
:10462000C703809126030E94DF1F84EE91E0E4CF50
:10463000809115010E94242081E08093C60380931D
:10464000C703809126030E94DF1F80EF91E082CD97
:10465000809175038A3020F48AE891E00E9414204A
:10466000809175030E94242081E08093C60380938B
:10467000C703809126030E94DF1F84E092E06ACD89
:1046800080911E010E94242081E08093C6038093C4
:10469000C703809126030E94DF1F8AE092E05ACD73
:1046A00080911D01882381F089E192E00E94841F9E
:1046B00081E08093C6038093C703809126030E9404
:1046C000DF1F80E292E07FCF8DE192E0EFCF8DE1BE
:1046D00092E087CD80911C010E94242081E080938C
:1046E000C6038093C703809126030E94DF1F8DE3DA
:1046F00092E00E9414208091A702843620F48AE878
:1047000091E00E9414208091A702CAE06C2F0E94C1
:10471000412F90E00E94E61F8CE891E00E94142057
:104720008091A7026C2F0E94412F892F90E00E9458
:10473000E61F85E492E00ECD80911F01082E000C4B
:10474000990B0E94162081E08093C6038093C703D3
:10475000809126030E94DF1F87E492E00E941420CC
:1047600080EF0E949E0C87EF0E949E0C81E991E0F1
:10477000F1CC80911A0190911B010E94162081E0DA
:104780008093C6038093C703809126030E94DF1F96
:1047900082E592E00E94142080EF0E949E0C88EB3C
:1047A00091E0D8CC80911701909118010E941620B9
:1047B00081E08093C6038093C703809126030E9403
:1047C000DF1F8EE592E0E6CF80E792E02ACD4F92A0
:1047D0005F926F927F928F929F92AF92BF92CF9291
:1047E000DF92EF92FF92CF93DF93CDB7DEB728979A
:1047F0000FB6F894DEBF0FBECDBF8091F8038230B4
:1048000008F059C0F8948DEE93E00E94121C60915C
:10481000F4037091F5038091F6039091F703789477
:1048200020910F0130E050E040E00E9440316901EA
:104830007A0190911D01992341F0F094E094D09475
:10484000C094C11CD11CE11CF11C8090A00290906E
:10485000A102A090A202B090A3028C149D04AE0409
:10486000BF0409F448C04C9B46C0809126032FEF3B
:10487000280F243018F421E020931703883109F41D
:1048800002C208F06AC0833009F47DC1B0F48130FF
:1048900009F446C108F486C0809113018C149D046C
:1048A000AE04BF040CF05DC1863008F065C18F5FB7
:1048B0008093130109C0F894AACF853109F48EC101
:1048C00078F5843109F466C10E94E80760931D03FE
:1048D00070931E0380931F039093200381E08093C5
:1048E0001C030E945220C092A002D092A102E0922A
:1048F000A202F092A30228960FB6F894DEBF0FBE74
:10490000CDBFDF91CF91FF90EF90DF90CF90BF9020
:10491000AF909F908F907F906F905F904F90089591
:10492000863109F47FC1873179F6809176038C1442
:104930009D04AE04BF040CF09BC1883138F48F5F36
:104940008093760380917603883118F087E1809315
:10495000760381E080939F02B7CF853609F4E0C1EA
:1049600078F48A3109F4CBC108F4ACC1843609F07B
:10497000ABCF8091160191E0892780931601A4CFD7
:10498000873609F412C208F4F0C1883609F455C21A
:10499000893609F099CF8091190191E08927809398
:1049A000190192CF409001015090020160900301E3
:1049B00070900401A0910601B0E020EA36E841E0E1
:1049C00050E00E945F316D837E838F839887A09132
:1049D0000501B0E00E945F3169837A838B839C83F9
:1049E0008C149D04AE04BF040CF06CC02D813E817C
:1049F0004F815885241535054605570550F1E0913E
:104A00001301F0E0EE0FFF1FED5CFE4F20813181BE
:104A1000AAE0B0E00E948C314B015C01C301B201FD
:104A2000A50194010E946A31480C591C6A1C7B1C28
:104A3000611571058105910521F0461A570A680A2A
:104A4000790A409201015092020160920301709232
:104A500004018091010190910201A0910301B091A4
:104A6000040129813A814B815C8182179307A40755
:104A7000B50760F489819A81AB81BC818093010183
:104A800090930201A0930301B0930401809101016E
:104A900090910201A0910301B09104012D813E810A
:104AA0004F815885281739074A075B0740F4209340
:104AB00001013093020140930301509304010E94CD
:104AC0001D1B02CFC814D904EA04FB0414F6898123
:104AD0009A81AB81BC81481659066A067B0650F262
:104AE000E0911301F0E0EE0FFF1FED5CFE4F20811F
:104AF0003181AAE0B0E00E948C314B015C01C3011E
:104B0000B201A50194010E946A3161157105810508
:104B1000910509F092CF481859086A087B0891CF8F
:104B200090911501809114018C149D04AE04BF0472
:104B30007CF4891718F48F5F80931401809114011D
:104B4000981708F4892F809314010E941E1FB7CF75
:104B5000C814D904EA04FB048CF7882379F3815044
:104B6000EBCFC814D904EA04FB0434F4882309F415
:104B7000ABCE81508093130180911301873008F4EC
:104B8000A3CE86E095CE8091000191E089278093A5
:104B9000000195CF809105018C149D04AE04BF04E3
:104BA00094F4843618F48F5F809305018091050199
:104BB0008A3090F090910601891710F08FEF890FDD
:104BC0008093050181CEC814D904EA04FB0474F76C
:104BD0008A3060F38150E8CF8AE0F2CF80910601FD
:104BE0008C149D04AE04BF0484F4843618F48F5FE3
:104BF000809306019091050180910601981770F04D
:104C000081E0890F809306015FCEC814D904EA04BD
:104C1000FB0484F78A3070F38150EACF843690F336
:104C200083E6F0CF809115018C149D04AE04BF047F
:104C30007CF48E31B8F48F5F80931501809115015B
:104C400090911401891708F03FCE809314013CCE57
:104C5000C814D904EA04FB042CF4882379F38150A6
:104C600080931501809115018F3140F38EE1E4CFDF
:104C7000C814D904EA04FB040CF064CE882309F4B8
:104C800068CE81505DCE809175038C149D04AE0476
:104C9000BF0474F48C3340F48F5F8093750380916C
:104CA00075038C3308F455CE8BE38093750351CE96
:104CB000C814D904EA04FB0494F7882309F449CE04
:104CC0008150EBCF80911E018C149D04AE04BF0473
:104CD0006CF48F3F19F08F5F80931E0180911E014D
:104CE000811101C081E080931E01EECDC814D9046A
:104CF000EA04FB049CF7823088F38150EDCF9923BE
:104D000059F010921D01F094E094D094C094C11C0D
:104D1000D11CE11CF11CD8CD81E080931D01F3CFA3
:104D200080911C018C149D04AE04BF046CF48F3F71
:104D300039F08F5F80931C0180911C018F3F71F4CB
:104D40008EEF80931C01C0CDC814D904EA04FB0483
:104D50009CF7843688F3815080931C0180911C015C
:104D6000843608F0B1CD84E6ECCF80911F018C141D
:104D70009D04AE04BF0484F48F311CF48F5F8093D4
:104D80001F0180911F018F310CF08EE1823E0CF4E7
:104D900082EE80931F0198CDC814D904EA04FB0465
:104DA00084F7823E74F38150EACF80911A0190918A
:104DB0001B018C149D04AE04BF0454F5813335E708
:104DC00093077CF4E0911301F0E0EE0FFF1FED5C20
:104DD000FE4F20813181820F931F90931B0180939E
:104DE0001A0180911A0190911B01813355E79507B3
:104DF00014F080E395E7803DAAE89A0714F480ED6B
:104E00009AE890931B0180931A010E94031B57CECE
:104E1000C814D904EA04FB0424F7803D4AE8940747
:104E200004F3E0911301F0E0EE0FFF1FED5CFE4F85
:104E300020813181821B930BD0CF809117019091FB
:104E400018018C149D04AE04BF0424F5E0911301F5
:104E5000F0E0EE0FFF1FED5CFE4F20813181820FED
:104E6000931F9093180180931701809117019091DF
:104E70001801893EB3E09B0714F088EE93E0883177
:104E80002CEF920714F488E19CEF90931801809323
:104E9000170115CEC814D904EA04FB0434F7E091D5
:104EA0001301F0E0EE0FFF1FED5CFE4F208131811A
:104EB000821B930BD6CF1F921FB61F9211248F9384
:104EC0009F93AF93BF9380910E0390910F03A09196
:104ED0001003B09111030196A11DB11D80930E0323
:104EE00090930F03A0931003B093110380910D03CF
:104EF00093E0980F9D37E8F490930D03809112038F
:104F000090911303A0911403B09115030196A11D74
:104F1000B11D8093120390931303A0931403B093D5
:104F20001503BF91AF919F918F911F901FBE1F904E
:104F300018958A5780930D0380910E0390910F036B
:104F4000A0911003B09111030196A11DB11D809392
:104F50000E0390930F03A0931003B0931103CECFD1
:104F60001F920F920FB60F9211242F933F934F93DE
:104F70005F936F937F938F939F93AF93BF93EF93C1
:104F8000FF938091B900887F803609F44AC0F0F51C
:104F9000883209F4A7C018F5803109F49BC0B8F431
:104FA000882309F4F9C0883009F494C0FF91EF9187
:104FB000BF91AF919F918F917F916F915F914F9131
:104FC0003F912F910F900FBE0F901F901895883131
:104FD00009F488C0803251F78093710314C0803483
:104FE00009F49DC040F48033B9F38833F9F6809317
:104FF000710385ECB0C0803509F485C0883509F4AB
:1050000096C0883499F60E94840FD0CF883909F46D
:105010008CC038F5883729F050F4883611F0803785
:1050200029F683E08093730310920C0357C08838ED
:1050300009F47BC0803919F0803809F0B7CF80912E
:105040000C03803208F071C0E0910C0381E08E0FF8
:1050500080930C038091BB00F0E0E451FD4F80830E
:105060003DC0803B39F0E0F4803A09F479C0883AD9
:1050700009F09CCF84E0809373031092EB021092AE
:10508000EA02E0912903F0912A0309958091EA024E
:1050900081110FC081E08093EA021092CA0209C018
:1050A000803C09F4A6CF883C09F4A3CF883B09F0E3
:1050B0007DCFE091EB0281E08E0F8093EB02F0E078
:1050C000E653FD4F80818093BB009091EB0280916D
:1050D000EA0229C080916E038093BB0085EC809327
:1050E000BC0064CF9091700380916F03981758F5BE
:1050F000E091700381E08E0F80937003F0E0E35B3A
:10510000FC4F8081E9CFE091700381E08E0F8093A6
:1051100070038091BB00F0E0E35BFC4F80839091D3
:10512000700380916F039817C8F285E8D8CFE0919B
:10513000700381E08E0F809370038091BB00F0E0DC
:10514000E35BFC4F80838091720381115CCF81E02F
:1051500080936D0384EA8093BC001092730326CF82
:1051600085EC8093BC001092730380910C03803215
:1051700030F4E0910C03F0E0E451FD4F10826091B7
:105180000C0370E0E0912703F09128038CEE92E08D
:10519000099510920C030ACF1092710334CF1F921D
:1051A0000F920FB60F9211242F933F934F935F935B
:1051B0006F937F938F939F93AF93BF93EF93FF93DF
:1051C00080918203909183030E94121CFF91EF91C2
:1051D000BF91AF919F918F917F916F915F914F910F
:1051E0003F912F910F900FBE0F901F9018951F9217
:1051F0000F920FB60F9211242F933F934F935F930B
:105200006F937F938F939F93AF93BF93EF93FF938E
:1052100080918003909181030E94121CFF91EF9175
:10522000BF91AF919F918F917F916F915F914F91BE
:105230003F912F910F900FBE0F901F901895CF9315
:105240000E944B061092A9031092A80388EE93E0E7
:10525000A0E0B0E08093AA039093AB03A093AC03CB
:10526000B093AD038DE491E09093A7038093A603E0
:1052700080E580931A041092FA031092F9031092B9
:10528000FC031092FB031092FE031092FD03109298
:10529000FF03109200041092010480912A01909162
:1052A0002B01A0912C018093020490930304A093FE
:1052B0000404109205041092060410920704109240
:1052C00008041092090410920A0410920B04109220
:1052D0000C0410920D0410920E0410920F04109200
:1052E000100480E89FEDA7E1B0E180931104909352
:1052F0001204A0931304B093140462E082E00E94AD
:10530000780662E083E00E947806EDE8FAE0E49136
:10531000F0E0EE0FFF1FEF57F54F859194919093BA
:10532000EE038093ED03EFE6FAE0E491E093F103FE
:10533000EEE8FAE0E491F0E0EE0FFF1FEF57F54FD3
:10534000859194919093F0038093EF03E0E7FAE066
:10535000E491E093F2031092F4031092F50310929B
:10536000F6031092F70380ED97E00E948807E09122
:10537000ED03F091EE0390818091F103982381E099
:1053800009F480E0E091EF03F091F0039081209127
:10539000F203922309F082602DEE33E08093F30351
:1053A0003093810320938003809169008C7F81601A
:1053B00080936900E89AC1E0C093F80330938303B7
:1053C0002093820380916900837F846080936900C9
:1053D000E99A82E08093F8031092B5031092B40327
:1053E00020E830E03093B7032093B60380E290E0EA
:1053F0009093B9038093B8033093BB032093BA030F
:105400009093BD038093BC031092C8031092BF0316
:105410001092BE031092C1031092C003C093C70341
:10542000C093C6038FEF9FEF9093C5038093C4038F
:105430009093C3038093C203C093C9031092CA031D
:105440001092CC031092CB038FE591E09093B303BD
:105450008093B20386EA93E09093D0038093CF03C6
:105460001092D2031092D1038FEF8093D6038093D2
:10547000D7038093D8038093D9038093DA0380E520
:105480008093E7031092E80380EA96E8A1E0B0E099
:105490008093E9039093EA03A093EB03B093EC03AA
:1054A0001092CE031092CD0360E08EE00E94780649
:1054B000EBE7FAE0E491E0939803E9E9FAE0E4919C
:1054C000F0E0EE0FFF1FEF57F54F85919491909309
:1054D0009A03809399031092A3031092A50310924C
:1054E000A4031092A2031092A1031092A0031092A1
:1054F0009F0310929E0310929D0310929C031092A2
:105500009B0388E993E090938B0380938A03109226
:105510008803109289031092840389E080938503A5
:10552000C0938603C093870310929703109296034B
:10553000CF910895CDB7DEB728970FB6F894DEBFA8
:105540000FBECDBFF89482E880937A0013E014BDBB
:1055500015BD80916E00816080936E0081E0809324
:1055600080009BE0909381008093B00084E0809362
:10557000B1001092C100789460E00E94780660E06B
:105580008FE00E9478065C9A109307018091D10306
:105590009091D203892B11F10E9432202091B803FF
:1055A0003091B9038091B6039091B7032132310550
:1055B0000CF0B0C0B9016052710977FF02C06F5F93
:1055C0007F4F759567958357910997FD019600E286
:1055D00010E023E730E048EC55E0AFC02091B8037D
:1055E0003091B903C901079697FD0796B3E09595E9
:1055F0008795BA95E1F72091B6033091B703AC01D6
:10560000429FC001439F900D529F900D11240E9414
:105610000E309093D2038093D103892B09F0BCCF35
:105620000E9432200E94BD14E0918A03F0918B0306
:1056300013861586148612861186108617821682A6
:10564000158214821382109288031092890311E04C
:10565000BE016F5F7F4F80918A0390918B030E9400
:10566000541C882309F41EC267E0CE0101960E94F3
:10567000F40798858913ECCF80918403811128C0A9
:1056800080918A0390918B030E94BD08BE016F5FD9
:105690007F4F80918A0390918B030E949E0840E087
:1056A00064EB80918A0390918B030E946A08809139
:1056B0008A0390918B030E940C08082F80918A0323
:1056C00090918B030E94BD08011102C010938403C6
:1056D00000918503CE0101960E944809801708F0C9
:1056E000D5C18091850380938503809188038F5F66
:1056F000809388038981883239F008F0CCC18031E9
:1057000019F0823209F0A4CF809189038F5F8093D2
:1057100089039ECFB9016054710977FF02C06F5FA2
:105720007F4F759567958255910997FD019600E425
:1057300010E022E530E048EA57E0959587950E9411
:10574000720E82E08093D4038091CF039091D003B6
:10575000892B09F49AC08CE38093D3030E944B06F3
:105760008091DA0387FD1EC061E00E94780661E047
:105770008091DA030E94D30561E070E080E090E060
:105780000E94B50760E08091DA030E94D3056AE0C9
:1057900070E080E090E00E94B50761E08091DA035C
:1057A0000E94D3058091CF039091D003892B09F4F7
:1057B00021C18CE08093B80064E08AEB95E00E9400
:1057C000BA136091B803615082EB93E00E945D14BC
:1057D00064E086EB95E00E94BA138091D40364E103
:1057E000813009F460E182EB93E00E945D1464E093
:1057F00082EB95E00E94BA138091B6039091B703B3
:105800008038910509F021C18091B8039091B903C6
:105810008032910509F005C164E08EEA95E00E94AE
:10582000BA1369ED82EB93E00E945D148091D4037A
:1058300061EF813009F462E282EB93E00E945D1433
:1058400066E082EA95E00E94BA138091CF039091BE
:10585000D003892B09F410C12091E9033091EA03A8
:105860004091EB035091EC0360E074E284EF90E030
:105870000E946A31205131094109510956954795D5
:10588000379527952093B800CBCE61E08091D8035F
:105890000E94780661E08091D9030E947806809189
:1058A000D803082E000C990BFC01E557F54FE49145
:1058B000F0E0EE0FFF1FE254FA4F25913491309340
:1058C000E0032093DF03FC01E359F54FE491E093FB
:1058D000E5038091D903082E000C990BFC01E557D4
:1058E000F54FE491F0E0EE0FFF1FE254FA4FA5915F
:1058F000B491B093E203A093E103FC01E359F54FA7
:10590000E491E093E6038C91E82BEC938091CD0336
:105910009091CE03892B59F11FB7F894809116030B
:1059200081111EC0E5E9FAE08491E7E7FAE094917D
:10593000E82FF0E0EE0FFF1FE856FA4FA591B49163
:10594000EC91E92321F461E08AE00E94D305229AD8
:105950008CB580618CBD8CB580648CBD259A239AF2
:10596000809116038F5F809316031FBFF9CE61E00D
:105970008091D6030E94780661E08091D7030E944F
:1059800078068091D603082E000C990BFC01E55790
:10599000F54FE491F0E0EE0FFF1FE254FA4F25912E
:1059A00034913093DC032093DB03FC01E359F54F82
:1059B000E491E093E3038091D703082E000C990B48
:1059C000FC01E557F54FE491F0E0EE0FFF1FE254C4
:1059D000FA4FA591B491B093DE03A093DD03FC01CF
:1059E000E359F54FE491E093E4038C91E095E823CB
:1059F000EC93B6CE8091CD039091CE03892B31F0FC
:105A00008091E7039091E8030E94BA14E091E103CA
:105A1000F091E20390818091E60380958923808351
:105A2000CBCE8034910509F0FCCE63E08BEA95E0A3
:105A30000E94BA138091D4036FEC813009F46FE9AE
:105A400082EB93E00E945D14ECCE8036910509F064
:105A5000E8CE8091B8039091B903409709F0E1CE68
:105A600063E088EA95E00E94BA138091D4036FEA5C
:105A7000813031F760E1E4CFE091E103F091E2039E
:105A800080819091E603892B8083CACDCE01019657
:105A90000E94480928CE8B3309F436CE823409F0AF
:105AA000D7CD32CE1A82198242E050E0BE016F5F3C
:105AB0007F4F90E080E00E94011F52E0E52EF12C24
:105AC00010E000E0C7010E94DC1E080F111D5FEF0F
:105AD000E51AF50A8FE0E816F104A1F7095F1F4FF8
