:100000000C945C050C9477250C944F250C94840576
:100010000C9484050C9484050C9484050C9484053C
:100020000C9484050C9484050C9484050C9484052C
:100030000C9484050C9484050C9484050C9484051C
:100040000C94E6230C9484050C9484050C9484058C
:100050000C9484050C9484050C9484050C948405FC
:100060000C9430240C948405000103070F1F3F7F7C
:100070000080C0E0F0F8FCFE00000000003E5B4F96
:100080005B3E3E6B4F6B3E1C3E7C3E1C183C7E3CF8
:10009000181C577D571C1C5E7F5E1C00183C180006
:1000A000FFE7C3E7FF0018241800FFE7DBE7FF3096
:1000B000483A060E2629792926407F050507407F04
:1000C00005253F5A3CE73C5A7F3E1C1C08081C1C77
:1000D0003E7F14227F22145F5F005F5F06097F016D
:1000E0007F006689956A606060606094A2FFA29458
:1000F00008047E040810207E201008082A1C080826
:100100001C2A08081E101010100C1E0C1E0C303873
:100110003E3830060E3E0E06000000000000005F74
:1001200000000007000700147F147F14242A7F2A90
:100130001223130864623649562050000807030052
:10014000001C2241000041221C002A1C7F1C2A089E
:10015000083E080800807030000808080808000001
:1001600060600020100804023E5149453E00427F75
:10017000400072494949462141494D331814127FC4
:100180001027454545393C4A494931412111090764
:100190003649494936464949291E000014000000E5
:1001A00040340000000814224114141414140041B7
:1001B00022140802015909063E415D594E7C121174
:1001C000127C7F494949363E414141227F414141AC
:1001D0003E7F494949417F090909013E4141517327
:1001E0007F0808087F00417F41002040413F017F98
:1001F000081422417F404040407F021C027F7F0460
:1002000008107F3E4141413E7F090909063E4151A8
:10021000215E7F09192946264949493203017F0198
:10022000033F4040403F1F2040201F3F4038403F99
:10023000631408146303047804036159494D4300AF
:100240007F4141410204081020004141417F0402E6
:10025000010204404040404000030708002054547D
:1002600078407F284444383844444428384444285B
:100270007F385454541800087E090218A4A49C78AE
:100280007F0804047800447D40002040403D007F0A
:100290001028440000417F40007C047804787C08EA
:1002A0000404783844444438FC18242418182424BE
:1002B00018FC7C08040408485454542404043F44A3
:1002C000243C4040207C1C2040201C3C4030403CD2
:1002D00044281028444C9090907C4464544C440032
:1002E0000836410000007700000041360800020196
:1002F0000204023C2623263C1EA1A161123A404082
:10030000207A3854545559215555794122545478FE
:1003100042215554784020545579400C1E52721297
:100320003955555559395454545939555454580020
:1003300000457C410002457D420001457C407D1224
:1003400011127DF0282528F07C5455450020545486
:100350007C547C0A097F4932494949323A44444431
:100360003A324A4848303A4141217A3A424020786C
:10037000009DA0A07D3D4242423D3D4040403D3C6D
:1003800024FF2424487E4943662B2FFC2F2BFF0992
:1003900029F620C0887E0903205454794100004486
:1003A0007D413048484A32384040227A007A0A0A71
:1003B000727D0D19317D2629292F282629292926E4
:1003C00030484D4020380808080808080808382F29
:1003D00010C8ACBA2F102834FA00007B00000814B3
:1003E0002A142222142A14085500550055AA55AA89
:1003F00055AAFF55FF55FF000000FF00101010FF29
:1004000000141414FF001010FF00FF1010F010F083
:10041000141414FC001414F700FF0000FF00FF1474
:1004200014F404FC141417101F10101F101F1414C0
:10043000141F00101010F0000000001F101010100A
:100440001F10101010F010000000FF1010101010FE
:1004500010101010FF10000000FF140000FF00FF3C
:1004600000001F10170000FC04F4141417101714D8
:1004700014F404F40000FF00F714141414141414FA
:10048000F700F7141414171410101F101F1414146D
:10049000F4141010F010F000001F101F0000001FD7
:1004A00014000000FC140000F010F01010FF10FF0A
:1004B000141414FF141010101F00000000F010FF9F
:1004C000FFFFFFFFF0F0F0F0F0FFFFFF0000000083
:1004D00000FFFF0F0F0F0F0F3844443844FC4A4A07
:1004E0004A347E02020606027E027E0263554941BC
:1004F000633844443C04407E201E2006027E0202F3
:1005000099A5E7A5991C2A492A1C4C7201724C3006
:100510004A4D4D303048784830BC625A463D3E49DD
:100520004949007E0101017E2A2A2A2A2A44445F81
:10053000444440514A444040444A51400000FF0175
:1005400003E080FF000008086B6B08361236243683
:10055000060F090F060000181800000010100030E8
:1005600040FF0101001F01011E00191D1712003C70
:100570003C3C3C0000000000005EBCE2613FDD83CB
:10058000C29C7E20A3FD1F41009D23BE46DB65F873
:100590008C11AF32CA57E974000000080002010054
:1005A000000304070000000000000000000000003D
:1005B000240027002A00DB40A4A62EAFDA0281DA4D
:1005C0001281DA02818F2000A1C8D300408DAED500
:1005D00080A800000000250028002B00000060001B
:1005E00000000000000000000000000000E000002B
:1005F000000000000000000000000001E00000001A
:100600000000000000000000000001F000000000F9
:1006100000000000000000000003F00000000000E7
:10062000000000000000000007F0000000000000D3
:100630000000000000000007F800000000000000BB
:100640000000000000000FF800000003C0007E0062
:100650000001E0007F0FF800000003C000FE000072
:1006600001E000FFEFF800000003C000FE00000101
:10067000E000FFFFF800000003C000F00000000FE2
:10068000007FFE7FC0000003C000F00000000F00EC
:100690003FFE7FF83FF1FBCFFCFEF3BC3DEFE01FD8
:1006A000FE7FFF7FFBFFDFFEFEFFBC3DEFE01FC6CE
:1006B000FFFF7FFBFFDFFEFEFFBC3DEFE00FE3C768
:1006C000FE787BC3DE1EF0FFBC3DEF0007FF87FC1A
:1006D000787BC3DE1EF0F83C3DEF0001FFFFF00029
:1006E0007BC3C01EF0F03C3DEF0001F37FE03FFB19
:1006F000C3CFFEF0F03C3DEF0003E33F807FFBC340
:10070000DFFEF0F03C3DEF0007E73C00787BC3DE06
:100710001EF0F03C3DEF0007FFBE00787BC3DE1EFD
:10072000F0F03C3DEF0007FFFE00787BC3DE1EF0DB
:10073000F03C3DEF000FFFFE007FFBFFDFFEF0F01F
:100740003FFDEFE00FFFFF007FFBFFDFFEF0F03F1C
:10075000FDEFE00FF9FF003E79F9CF9EF0F01F3D6D
:10076000E7E01FF1FF0000000000000000000000B3
:10077000001F80FF007FFFFFFFFFFFFFFFFFFFE085
:100780001C007F007FFFFFFFFEB46D888D18E00026
:10079000001F007FFFFFFFFE95AD7DB577E00000F5
:1007A0000F007FFFFFFFFEA5AD9D8D19E000000645
:1007B000007FFFFFFFFEB5ADEDB57EE0000000005D
:1007C0000001800000000000000000000380000025
:1007D0000000000000000007C00000000000000052
:1007E000000007C00000000000000000000FC00073
:1007F00000000000000000001FE0000000000000FA
:100800000000001FE00000000000000000003FE0CA
:100810000000000000000000003FF00000000000A9
:10082000000000007FF0000000000000001FF87FC3
:10083000F0000000000000003FFE7FF0000000001C
:100840000000003FFF7FF0000000000000001FFFDD
:10085000FBE0000000000000000FFFF9FFC00000F7
:10086000000000000FFFF9FFF80000000000000783
:10087000FFF1FFFF00000000000003FC73FFFF809A
:10088000000000000001FE3FFFFF800000000000AC
:1008900000FF1E0FFF000000000000007FFE1FFC95
:1008A000000000000000003FFFFFF8000000000013
:1008B00000000FDFFFE0000000000000001F19FF34
:1008C000C0000000000000003F3CFF0000000000EE
:1008D0000000007E7CF800000000000000007FFEA9
:1008E0007C0000000000000000FFFFFC0000000092
:1008F00000000000FFFFFE0000000000000000FFFD
:10090000FFFE0000000000000001FFEFFE000000FD
:100910000000000001FFCFFE000000000000000307
:10092000FF07FE0000000000000003FC07FE0000BF
:10093000000000000003F003FE00000000000000C3
:10094000018000FE000000000000000000007E00AA
:100950000000000000000000003E00000000000059
:10096000000000000C000000000000078000FC00F8
:100970000003C0000000078001FC000003C000006D
:1009800000078001FC000003C0000000078001E0B8
:100990000000001E000000078001E00000001E00B3
:1009A0007FE3F79FF9FDE7787BDFC0FFF7FFBFFD2F
:1009B000FDFF787BDFC0FFF7FFBFFDFDFF787BDF2A
:1009C000C0F0F787BC3DE1FF787BDE00F0F787BC25
:1009D0003DE1F0787BDE0000F787803DE1E0787B49
:1009E000DE007FF7879FFDE1E0787BDE00FFF78781
:1009F000BFFDE1E0787BDE00F0F787BC3DE1E07809
:100A00007BDE00F0F787BC3DE1E0787BDE00F0F7AD
:100A100087BC3DE1E0787BDE00FFF7FFBFFDE1E052
:100A20007FFBDFC0FFF7FFBFFDE1E07FFBDFC07CA6
:100A3000F3F39F3DE1E03E7BCFC0000000000000EB
:100A40000000000000FFFFFFFFFFFFFFFFFFFFC0F0
:100A5000FFFFFFFFFD68DB111A31C0FFFFFFFFFD45
:100A60002B5AFB6AEFC0FFFFFFFFFD4B5B3B1A33C6
:100A7000C0FFFFFFFFFD6B5BDB6AFDC02200FF21B3
:100A80000001020408102040800102040810200127
:100A900002040810200000000023002600290004A2
:100AA0000404040404040402020202020203030315
:100AB000030303009F25D92E11241FBECFEFD8E0DA
:100AC000DEBFCDBF12E0A0E0B1E0E6E0F6E602C096
:100AD00005900D92A834B107D9F723E0A8E4B2E05D
:100AE00001C01D92A33EB207E1F715E0CBE5D5E0CA
:100AF00004C02197FE010E941131CA35D107C9F700
:100B00000E9444270C94F6320C9400000895089536
:100B100091E090932F0380932E031092350310924F
:100B2000340308958091360390913703891B990B04
:100B300008950895AF92BF92CF92DF92EF92FF9205
:100B40000F931F93CF93DF936C017B018B01040FF5
:100B5000151FEB015E01AE18BF08C017D10759F091
:100B60006991D601ED91FC910190F081E02DC601D3
:100B70000995892B79F7C501DF91CF911F910F91CD
:100B8000FF90EF90DF90CF90BF90AF9008958330AB
:100B900081F028F4813099F08230A9F008958730EF
:100BA000A9F08830C9F08430B1F4809180008F7D45
:100BB00003C0809180008F7780938000089584B572
:100BC0008F7784BD089584B58F7DFBCF8091B00071
:100BD0008F778093B00008958091B0008F7DF9CF1A
:100BE000CF93DF93282F30E0F901E856FA4F849134
:100BF000F901EF57F54FD491F901E156F54FC49142
:100C0000CC23A1F081110E94C705EC2FF0E0EE0F7C
:100C1000FF1FEB56F54FA591B491EC91ED2381E0C8
:100C200090E009F480E0DF91CF91089580E090E0BA
:100C3000FACF1F93CF93DF93282F30E0F901E856C6
:100C4000FA4F8491F901EF57F54FD491F901E1562C
:100C5000F54FC491CC23A9F0162F81110E94C7052E
:100C6000EC2FF0E0EE0FFF1FEE52FA4FA591B4917A
:100C70008FB7F894EC91111108C0D095DE23DC9366
:100C80008FBFDF91CF911F910895DE2BF8CFCF93C7
:100C9000DF9390E0FC01EF57F54F24918156954F7B
:100CA000FC0184918823C9F090E0880F991FFC0112
:100CB000E455FA4FA591B491FC01EE52FA4FC5915B
:100CC000D49161110DC09FB7F8948C912095822327
:100CD0008C938881282328839FBFDF91CF9108952B
:100CE000623051F49FB7F8943C91822F8095832312
:100CF0008C93E8812E2BEFCF8FB7F894EC912E2BAD
:100D00002C938FBFEACF2091000190E4299F90019E
:100D100011248E50822B80937C0080917A00806415
:100D200080937A0080917A0086FDFCCF80917800D4
:100D30009091790008953FB7F8948091C002909106
:100D4000C102A091C202B091C30226B5A89B05C002
:100D50002F3F19F00196A11DB11D3FBFBA2FA92F3A
:100D6000982F8827BC01CD01620F711D811D911D37
:100D700042E0660F771F881F991F4A95D1F70895A3
:100D80008F929F92AF92BF92CF92DF92EF92FF929B
:100D90006B017C010E949B064B015C01C114D104D4
:100DA000E104F104B9F00E949B06681979098A09E7
:100DB0009B09683E73408105910580F321E0C21ACA
:100DC000D108E108F10888EE880E83E0981EA11C86
:100DD000B11CE4CFFF90EF90DF90CF90BF90AF9029
:100DE0009F908F9008952FB7F8946091BC027091F6
:100DF000BD028091BE029091BF022FBF0895DC0119
:100E000080E0615090F09D919827E92FEF70F0E01D
:100E1000E858FA4F2491E92FE295EF70F0E0E85797
:100E2000FA4FE491822F8E27ECCF0895DC012C91AC
:100E30001196ED91FC91F8948181822B81839281AE
:100E4000322F30959323928387E090E00197F1F75A
:100E500081818323818383E290E00197F1F7908180
:100E60007894EFECF0E03197F1F7922381E009F408
:100E700080E00895FC0190810180F281E02D292F0E
:100E8000209560FF14C0F89482818223828381813F
:100E9000892B8183A3E2B0E01197F1F78281982B2F
:100EA0009283789487ED90E00197F1F70895F89494
:100EB0008281822382838181892B8183AFEFB0E09D
:100EC0001197F1F78281982B928378948FE090E0CC
:100ED000EBCFDF92EF92FF920F931F93CF93DF93AD
:100EE000EC01D62EE42E08E010E0FF24F39461E03C
:100EF0008D2D8F2109F460E0CE010E943A07FF0C8E
:100F000001501109A1F7E11010C0F894E981FA81AC
:100F100091818881809589238183E981FA819281F9
:100F200088818095892382837894DF91CF911F9166
:100F30000F91FF90EF90DF900895EF92FF920F9343
:100F40001F93CF93DF938C017B0140E065E50E9406
:100F50006907E70188E0E80EF11C699140E0C801EB
:100F60000E946907CE15DF05C1F7DF91CF911F9170
:100F70000F91FF90EF900895FC0190810180F28124
:100F8000E02DF8948181292F209582238183789404
:100F90003DE743E050E0315029F1DA011197F1F7D4
:100FA00080818923C1F3F8948281822382838181A5
:100FB000892B81837894ABE7B7E01197F1F7F89428
:100FC000818182238183A3E1B1E01197F1F78081D0
:100FD000982381E009F080E07894E3E6F6E0319729
:100FE000F1F7089580E00895AF92BF92CF92DF921B
:100FF000EF92FF920F931F93CF93DF938B01BC016E
:1010000080914203909143030E949D0740E06EEB64
:1010100080914203909143030E946907E8016801AF
:1010200089E0C80ED11CA0904203B090430388E031
:10103000E82EF12C10E001E0C5010E941607811195
:10104000102B000F81E0E81AF108B1F71993CC16C4
:10105000DD0649F780914203909143030E94BC074B
:1010600091E0813009F090E0892FDF91CF911F91BD
:101070000F91FF90EF90DF90CF90BF90AF900895C9
:101080000F931F93CF93DF93CDB7DEB729970FB69A
:10109000F894DEBF0FBECDBF8C01809142039091CA
:1010A00043030E94BC07811102C080E01FC0BE0143
:1010B0006F5F7F4FC8010E94F4078823B1F368E097
:1010C000CE0101960E94FF0699858913EECF8D818E
:1010D0008F33B9F020F48F3141F789E007C08F35A5
:1010E00021F08F3711F78CE001C08BE029960FB605
:1010F000F894DEBF0FBECDBFDF91CF911F910F914E
:1011000008958AE0F3CF0895FC016370668B8481B3
:10111000958126813781613039F0633029F09187DC
:101120008087338722870895318720879387828736
:1011300008952F923F924F925F926F927F928F927B
:101140009F92AF92BF92CF92DF92EF92FF920F9356
:101150001F93CF93DF93CDB7DEB76A970FB6F8949E
:10116000DEBF0FBECDBF9A8F898F7A8369834A0114
:10117000D22E18870F833701BC2CDC0159962D9194
:101180003C915A972115310509F015C118968D919A
:101190009C911997681779070CF0D7C11A968D9111
:1011A0009C91481759070CF0D0C14C2C512CB6E03B
:1011B000CB9E600D711D11247C876B871616170658
:1011C0000CF0C3C1EA2DF0E0FA87E98793E0EE0F57
:1011D000FF1F9A95E1F7F88BEF87CF01840F951FDA
:1011E000181619060CF0B1C1A98DBA8D58968C91BC
:1011F000811104C0BFEABD1508F4D394A98DBA8D3E
:10120000ED91FC9111970284F385E02DCD010995B4
:10121000B5E0DB9EC0011124E981FA81FC83EB83F8
:10122000312C212C9C0128583F4F388F2F8B4A2D71
:1012300050E05E8B4D8BEF89F88DE20DF31D4491EC
:101240009E828D82D12CC12C69817A81620D731DA1
:101250007A8B698B842F90E09C8B8B8BE98DFA8D38
:10126000A081B18140FF82C0F1E0BF126FC0AF1218
:101270006DC01C96ED91FC912F813885A4014C0D19
:101280005D1D69897A89898D9A8D0995EB89FC891B
:10129000F595E7954E2F5FEFC51AD50A6D817E81D2
:1012A0008D899E89680F791F7E836D8398E0C916AA
:1012B000D10481F6AFEF2A1A3A0AEB81FC81E40DE2
:1012C000F51DFC83EB83F5E02F16310409F0B3CF55
:1012D0002F81388526153705B9F0A98DBA8DED9186
:1012E000FC91B1E0BB1257C0AB1255C069817A8145
:1012F0006B5F7F4F0088F189E02D830128E030E0AB
:10130000A401898D9A8D0995A98DBA8DED91FC91D5
:1013100011970688F789E02DCD016A960FB6F894EB
:10132000DEBF0FBECDBFDF91CF911F910F91FF9018
:10133000EF90DF90CF90BF90AF909F908F907F9075
:101340006F905F904F903F902F9009941E96ED9173
:10135000FC91EF80F88409851A8592014D815E81A8
:101360006B817C81898D9A8D099590CF2F813885ED
:101370002615370509F48ACF31E0B31207C0A3124E
:1013800005C01C96ED91FC91930178CF1E96ED91CE
:10139000FC917301E0CF6B857C8564197509068427
:1013A000F785E02D73010F8518899201A401898DBD
:1013B0009A8D0995A9CFF901349694913297459168
:1013C0005491D91AB7E0DB9E400D511D1124F9014B
:1013D000259134913C8B2B8BFA0125903490FA01A6
:1013E0003296749031963491398B3296649031965E
:1013F000449041E04C1518F04A1508F07FC0662D66
:10140000062C000C770B7C836B83842D042C000C42
:10141000990B9E838D83A98DBA8DED91FC911197C7
:101420000284F385E02DCD010995512CD12CC12CDE
:10143000EA2DF0E0FA87E9872B2D30E03C872B87F7
:10144000A401440D511D47FC5A95588F4F8B69815B
:101450007A81660D711D67FC7A957E876D87798923
:10146000C71608F051CF2C2D30E04D815E81420F20
:10147000531FA985BA854A9FC0014B9F900D5A9F63
:10148000900D1124FC01E80DF91DF88BEF87852DD7
:10149000612C4F89588D420F531F5E8B4D8B671403
:1014A00008F050C044244394480E877041F4C101B1
:1014B0000196EB89FC89E20DF31DD4901C01D7FE47
:1014C00019C0A98DBA8DED91FC91662D70E0B1E047
:1014D000BB1219C0AB1217C02D853E85620F731F5A
:1014E0000484F585E02D2F8138854D895E89898DAD
:1014F0009A8D0995DD0C6394842DD1CF1E821D82B7
:101500001C821B8288CF4B815C81640F751FAB8569
:10151000BC856A9FC0016B9F900D7A9F900D11242E
:1015200069817A81680F791F0684F785E02DEF8045
:10153000F88409851A859D014F855889898D9A8D72
:101540000995D8CF570CC3948ACF6A960FB6F894F2
:10155000DEBF0FBECDBFDF91CF911F910F91FF90E6
:10156000EF90DF90CF90BF90AF909F908F907F9043
:101570006F905F904F903F902F9008958F929F9221
:10158000AF92CF92EF92FF920F931F93CF93DF937F
:10159000EC01262F898D9A8D009709F051C06A3091
:1015A000D1F41D861C868D8948E0849F900111240A
:1015B0008E859F85820F931F9F878E8781E090E0A5
:1015C000DF91CF911F910F91FF90EF90CF90AF904F
:1015D0009F908F9008956D3089F3CC88AD888F8966
:1015E0008823C1F08C859D8536E0C39E800D911DBA
:1015F0001124488559854817590764F44E855F853D
:101600001D861C8638E0A39EC0011124840F951FFF
:101610009F878E87EA88FB88088919894E855F85B0
:101620006C857D85CE010E9499082C898C859D85CD
:1016300046E0249F800D911D11249D878C87BECF8D
:101640006A3069F41D861C86FC013896E4912D8968
:101650008E859F85E29F800D911D1124ADCF6D3049
:1016600009F4ACCFFC0134963491631708F4A6CF8B
:101670003296E491E61708F4A1CFFC0132968590EA
:101680009490462F431B342F47E0349F800C911CCD
:101690001124F401329634913196E4913323A9F167
:1016A000EE2399F1CC88F4013596E491AD884F8909
:1016B000442301F10E2E000CFF0BE30FF11DCE9E13
:1016C000A001CF9E500D11246C857D85460F571FBC
:1016D00068857985641775076CF44E855F851D866E
:1016E0001C86FC013896E491AE9E400D511D1124DC
:1016F0005F874E87EA88FB88088919894E855F8550
:101700006C857D85CE010E949908F4013496E491A0
:101710002C898C859D85E29F800D911D11248DCF94
:10172000682F8AE693E00C94BE0A6F927F928F92A4
:101730009F92AF92BF92CF92DF92EF92FF920F9360
:101740001F93CF93DF93EC016B015A0139014801DC
:10175000E881F9810284F385E02D0995E881F9811A
:101760000288F389E02D87019301A501B601CE011E
:101770000995A501480D591D41505109E881F9818C
:101780000288F389E02D9301B601CE010995E88125
:10179000F9810088F189E02D9401A501B601CE01FF
:1017A0000995C60CD71CB60161507109E881F98111
:1017B0000088F189E02D9401A501CE010995E88109
:1017C000F9810688F789E02DCE01DF91CF911F9135
:1017D0000F91FF90EF90DF90CF90BF90AF909F90D0
:1017E0008F907F906F9009946F927F928F929F92CB
:1017F000AF92BF92CF92DF92EF92FF920F931F931F
:10180000CF93DF935C01EB016A0149013801870145
:10181000DC01ED91FC916217730719F564167506EA
:101820002CF0962D872D3A01C92ED82E9601261917
:1018300037092F5F3F4F048CF58DE02DA301BE01CA
:10184000C5010995DF91CF911F910F91FF90EF9006
:10185000DF90CF90BF90AF909F908F907F906F90D0
:1018600008954615570591F42617370724F0892D5A
:101870004B01C22FD82F9E01281939092F5F3F4FE6
:10188000068CF78DE02DA601B401DACF0284F38532
:10189000E02D0995D501ED91FC910488F589E02DA5
:1018A00083019401A601BE01C5010995D501ED9101
:1018B000FC910688F789E02DC501DF91CF911F913A
:1018C0000F91FF90EF90DF90CF90BF90AF909F90DF
:1018D0008F907F906F900994EF92FF920F931F93D8
:1018E000DC011A960D911C911B9718962D913C9135
:1018F0001997ED91FC9100A0F1A1E02D7B0150E042
:1019000040E070E060E009951F910F91FF90EF902B
:1019100008954F925F926F927F928F929F92AF92B3
:10192000BF92CF92DF92EF92FF920F931F93CF93CC
:10193000DF936C012B015A0139014801DC01ED9163
:10194000FC910284F385E02D0995E201640C751C7D
:10195000D601ED91FC91C615D7055CF40088F1899C
:10196000E02D87019401A501BE01C60109952196CC
:10197000EFCF0688F789E02DC601DF91CF911F9147
:101980000F91FF90EF90DF90CF90BF90AF909F901E
:101990008F907F906F905F904F9009948F929F925D
:1019A000AF92BF92CF92DF92EF92FF920F931F936D
:1019B000CF93DF93EC015B014A016901E881F98172
:1019C0000284F385E02D099595012C0D3D1D2150D4
:1019D0003109E881F9810488F589E02D78018401D5
:1019E000A401B501CE010995E881F9810688F7893E
:1019F000E02DCE01DF91CF911F910F91FF90EF90DD
:101A0000DF90CF90BF90AF909F908F9009948F926E
:101A10009F92AF92BF92CF92DF92EF92FF920F937D
:101A20001F93CF93DF93EC015B014A0169017801B9
:101A3000E881F9810284F385E02D0995C80CD91C51
:101A4000860101501109E881F9810488F589E02DAA
:101A50009501A401B501CE010995E881F9810688B7
:101A6000F789E02DCE01DF91CF911F910F91FF906B
:101A7000EF90DF90CF90BF90AF909F908F900994A0
:101A8000EF92FF920F931F93DC01ED91FC9100A068
:101A9000F1A1E02D09951F910F91FF90EF9008950E
:101AA0000F931F93DC01ED91FC91068CF78DE02DD7
:101AB00009951F910F9108950F931F93DC01ED91EC
:101AC000FC91048CF58DE02D09951F910F910895DF
:101AD000DC01ED91FC910084F185E02D09943F92A9
:101AE0004F925F926F927F928F929F92AF92BF922E
:101AF000CF92DF92EF92FF920F931F93CF93DF93DA
:101B00005C017B014A016901390187E0680E711CA3
:101B100093E0759467949A95E1F72B01400E511E5E
:101B200010E000E0312CD0E0C0E0CE0187709927B2
:101B3000330C892B59F4FE0183E0F595E7958A95DE
:101B4000E1F7E00FF11FE80DF91D349037FE0AC0F0
:101B500021E030E0A701B5016C0F7D1F8AE693E01C
:101B60000E94680D2196CC16DD06F9F68FEFE81A73
:101B7000F80A060D171DE414F504A9F6DF91CF91BC
:101B80001F910F91FF90EF90DF90CF90BF90AF909B
:101B90009F908F907F906F905F904F903F900895AF
:101BA0002F923F924F925F926F927F928F929F926D
:101BB000AF92BF92CF92DF92EF92FF920F931F935B
:101BC000CF93DF9300D000D000D0CDB7DEB73C017B
:101BD0006A013E832D83FC82EB825801A41AB50A68
:101BE000B7FE03C0B194A194B1088D809E80861A7F
:101BF000970A97FE03C09194819491088A149B04DC
:101C00005CF0902F812F0D811E819D838E839C2DF2
:101C10008D2D6B01692F782F0C151D055CF09D81B2
:101C20008E817E836D83692F782F902F812F86017F
:101C3000C92ED82E1601201A310A2B012D813E8182
:101C4000421A530A57FE03C051944194510871013E
:101C500037FE03C03FEFE31AF30AF594E7948D8152
:101C60009E81861797075CF5A1E0B0E0BA83A9834F
:101C7000C016D1064CF1D301ED91FC910484F58599
:101C8000E02D2B813C81A8016D817E818A149B040B
:101C90001CF04D815E81B801C3010995E418F50877
:101CA000F7FE0AC02D813E8189819A81280F391F54
:101CB0003E832D83E20CF31C0F5F1F4FD9CF2FEF14
:101CC0003FEF3A832983D4CF26960FB6F894DEBF30
:101CD0000FBECDBFDF91CF911F910F91FF90EF907D
:101CE000DF90CF90BF90AF909F908F907F906F903C
:101CF0005F904F903F902F90089520919802260F6B
:101D00003327331F21323105ECF420912003FC01ED
:101D100090E080E0243069F082E00895A09198027C
:101D20002191AC0148585D4FA40FB52FB11D2C93E4
:101D30000196861798F380919802680F6093980235
:101D400080E0089581E008951092200381E080935F
:101D5000FF021092FA0261E082E10E94190661E03E
:101D600083E10E941906E9EBF0E080818E7F808399
:101D700080818D7F808388E48093B80085E48093A0
:101D8000BC000895CF93DF9391E09093770288236E
:101D9000B9F0C091B800D091BA008091BC008A7BA4
:101DA0008093BC0060E082E10E94190660E083E15C
:101DB0000E9419060E94A40ED093BA00C093B800E6
:101DC000DF91CF910895CF92DF92EF92FF920F9320
:101DD0001F93CF93DF93D82FC62F613208F098C09E
:101DE0000E949B066B017C018091200381116BC0D6
:101DF00081E0809320038093FF029FEF9093FE0287
:101E00001092FD029C0F9093FC028093FB02809144
:101E1000FB02DD0FD82BD093FB028091FA028130B8
:101E200009F078C01092FA020E949B066B017C01B7
:101E30008091FB028093BB00809122039091230349
:101E4000A0912403B0912503892B8A2B8B2BA1F021
:101E50000E949B06009122031091230320912403EA
:101E6000309125036C197D098E099F090617170704
:101E70002807390708F448C08091BC0083FDD8CFFB
:101E800085EC8093BC000E949B066B017C018091D5
:101E90002003813009F440C08091FD028C1710F4BA
:101EA000C091FD02EAEDF2E0A0E0B3E080E08C1327
:101EB00055C08C2FDF91CF911F910F91FF90EF9024
:101EC000DF90CF9008958091220390912303A091F9
:101ED0002403B0912503892B8A2B8B2B09F484CF03
:101EE0000E949B060091220310912303209124035A
:101EF000309125036C197D098E099F090617170774
:101F00002807390708F070CF809121030E94C20E84
:101F1000C0E0CFCF85EEB5CF80912203909123030F
:101F2000A0912403B0912503892B8A2B8B2B09F4D4
:101F3000AECF0E949B0600912203109123032091B3
:101F40002403309125036C197D098E099F0906171A
:101F500017072807390708F09ACFD6CF91919D939C
:101F60008F5FA5CFE091370380913603E81730F4F7
:101F7000F0E0E050FD4F808190E008958FEF9FEFFB
:101F8000089590913703809136032FEF3FEF981714
:101F900048F4E92FF0E0E050FD4F208130E09F5FF2
:101FA00090933703C9010895CF92DF92EF92FF9289
:101FB0000F931F93CF93DF937C01CB018A01209174
:101FC0002F03222389F0EB016B01C40ED51ECC1523
:101FD000DD0569F06991D701ED91FC910190F081E7
:101FE000E02DC7010995F3CF642F0E947D0EC80133
:101FF000DF91CF911F910F91FF90EF90DF90CF90E5
:102000000895CF93DF931F92CDB7DEB769832091F8
:102010002F032223F9F020913403203258F021E0DD
:1020200030E0FC013383228390E080E00F90DF9169
:10203000CF91089580913503E82FF0E0E95AFD4FE4
:10204000998190838F5F809335038093340381E07F
:1020500090E0ECCF61E0CE0101960E947D0EF7CFBB
:10206000682F8EE593E00C940110CF92DF92EF92EF
:10207000FF920F931F93CF93DF93D091340381E0AE
:10208000D13208F09CC0C0912E030E949B066B01C8
:102090007C018091200381116CC082E08093200339
:1020A00081E08093FF028FEF8093FE021092FD0289
:1020B000D093FC02A7E5B2E0EAEDF2E080E0D813AD
:1020C0008DC01092FB028091FB02CC0FC82BC093F5
:1020D000FB028091FA02813009F084C01092FA026A
:1020E0000E949B066B017C018091FB028093BB00E8
:1020F0008091220390912303A0912403B0912503A2
:10210000892B8A2B8B2BA1F00E949B060091220326
:102110001091230320912403309125036C197D092C
:102120008E099F09061717072807390708F442C0C8
:102130008091BC0083FDD8CF85EC8093BC000E94C9
:102140009B066B017C0180912003823009F44CC016
:102150008091FE028F3F09F469C08091FE028032B7
:1021600009F466C08091FE02803309F463C084E004
:1021700026C08091220390912303A0912403B09163
:102180002503892B8A2B8B2B09F483CF0E949B0676
:102190000091220310912303209124033091250301
:1021A0006C197D098E099F0906171707280739073B
:1021B00008F06FCF809121030E94C20E85E010923B
:1021C00035031092340310922F03DF91CF911F91AA
:1021D0000F91FF90EF90DF90CF9008959D91919394
:1021E0008F5F6DCF85EEA9CF80912203909123035D
:1021F000A0912403B0912503892B8A2B8B2B09F402
:10220000A2CF0E949B0600912203109123032091EC
:102210002403309125036C197D098E099F09061747
:1022200017072807390708F08ECFC4CF80E0C7CF43
:1022300082E0C5CF83E0C3CFCF9388E60E948805B4
:1022400060E08EE593E00E94011060E88EE593E087
:102250000E94011080912703CAE06C2F0E94F13088
:102260008295807F682F690F8EE593E00E940110B0
:10227000809128036C2F0E94F1308295807F682F17
:10228000690F8EE593E00E940110809129036C2F65
:102290000E94F1308295807F682F690F8EE593E070
:1022A0000E94011080912A036C2F0E94F1308295C8
:1022B000807F682F690F8EE593E00E940110809166
:1022C0002B036C2F0E94F1308295807F682F690F5D
:1022D0008EE593E00E94011080912C038E516C2FAB
:1022E0000E94F1308295807F682F690F8EE593E020
:1022F0000E9401108EE593E00E943510882329F09A
:1023000010922D0380E0CF91089581E080932D03FA
:1023100088E60E94880560E08EE593E00E94011047
:10232000809126036C2F0E94F1308295807F682F68
:10233000690F8EE593E00E9401108EE593E00E9404
:1023400035108111DDCF81E0DECFAF92BF92DF92F9
:10235000EF92FF920F931F93CF93DF938B01040FA4
:10236000151FEB015C01A61AB70A7501EC0EFD1EE4
:10237000D9908091D2030E9488058F2D90E00E9411
:102380003010C70199270E9430106D2D8EE593E023
:102390000E9401108EE593E00E9435106AE070E023
:1023A00080E090E00E94C006C017D107F1F6DF91EF
:1023B000CF911F910F91FF90EF90DF90BF90AF9062
:1023C0000895EF92FF920F931F93CF93DF93EC0149
:1023D000EC80FD806E157F050CF070C057FF04C0C7
:1023E000240F351F50E040E08E819F81FA01E20FFB
:1023F000F31F8E179F071CF49C01241B350B12162C
:1024000013060CF05BC0922F842F869586958695D7
:102410008E9DD0018F9DB00D11246A0F7B1FAF8D53
:10242000B8A1A60FB71F477049F188E0841B482F59
:10243000682F70E0FB01E059FF4FE491281708F086
:1024400063C0621B71092FEF30E002C035952795FC
:102450006A95E2F7E2230130110539F0B0F102305C
:10246000110561F58C91E82702C08C91E82BEC9363
:10247000941720F12C813D81A20FB31FE92FE41B9B
:10248000E83078F00230110521F58E2F9C9190955F
:102490009C932C813D81A20FB31F88508830B0F7E8
:1024A000E770EE2359F0F0E0E859FF4FE491013076
:1024B0001105F9F010F10230110519F1DF91CF91FA
:1024C0001F910F91FF90EF900895E0958C91E82374
:1024D000CECF81E00115110509F480E081959E2F92
:1024E0008C932C813D81A20FB31F98509830C0F778
:1024F000D7CF8C91E82BEC93E1CFE0958C91E8233A
:10250000FACF8C91E827F7CF0130110509F4ADCF50
:10251000E0F20230110509F4A5CFAE0DBF1DAECF1C
:102520000F931F93CF93DF9377FF04C0260F371FBE
:1025300070E060E0DC011496CD91DC91FB01E20FCC
:10254000F31FCE17DF071CF49E01261B370B121654
:1025500013064CF5FA0157FD3796A3E0F595E7957C
:10256000AA95E1F7EC9FD001ED9FB00DFC9FB00D57
:1025700011246A0F7B1FDC015F96ED91FC91E60F41
:10258000F71F4770552781E090E001C0880F4A95FA
:10259000EAF7482F0130110559F0A8F02E0F3F1F20
:1025A00002301105E1F0DF91CF911F910F91089555
:1025B0002E0F3F1FE217F307B1F38191DF0111974F
:1025C000842B8C93F7CF80952E0F3F1FE217F307D4
:1025D00051F39191DF01119798239C93F7CFE21764
:1025E000F30709F38191DF01119784278C93F7CFCB
:1025F0000F931F93FA01DC0156964C915697423087
:10260000E9F04330A1F1413061F514964D915C91B0
:10261000DA01AE1BBF0BFD01E21BF30B77FD0BC014
:10262000DC0116964D915C916417750724F4AB019B
:10263000BF010E9490121F910F91089514964D9121
:102640005C91DA01A61BB70BBD0161507109DC0179
:1026500016964D915C91DA01AE1BBF0BFD01E21B9A
:10266000F30B77FDE8CFAF010E94E111E4CF16969E
:102670004D915C91DA01A61BB70BBD016150710948
:10268000CDCF0F931F93FA01DC0156964C915697CC
:102690004230A9F0433091F1413019F514964D9133
:1026A0005C91DA01AE1BBF0BFD013197F7FD04C051
:1026B000AB01BF010E94E1111F910F910895149683
:1026C0004D915C91DA01A61BB70BBD01DC0116969A
:1026D0004D915C91DA01AE1BBF0BFD013197621B7E
:1026E000730BF7FDE9CFDC0116964D915C91E41771
:1026F000F50714F7AF010E949012DECF16964D91A8
:102700005C91DA01A61BB70BBD01621B730BCECF28
:10271000FC0177FD64C080859185681779070CF00E
:102720005EC057FD5CC082859385481759070CF041
:1027300056C086898230B1F0833029F1813041F46E
:1027400084819581841B950BAB01BC01615071099B
:102750002130310509F108F443C02230310509F474
:1027600063C0089584819581DC01A61BB70BBD0170
:102770006150710986819781DC01A41BB50BAD0105
:1027800041505109E5CF86819781861B970BBA018D
:10279000AC0141505109DCCFCA0157FD0796A3E0B7
:1027A00095958795AA95E1F7A481B5818A9F9001B7
:1027B0008B9F300D9A9F300D1124620F731F078C71
:1027C000F0A1E02DE60FF71F4770552721E030E01C
:1027D00001C0220F4A95EAF78081822B80830895F9
:1027E000CA0157FD079633E0959587953A95E1F72D
:1027F000A481B5818A9F90018B9F300D9A9F300DE7
:102800001124620F731F078CF0A1E02DE60FF71F54
:102810004770552781E090E001C0880F4A95EAF79C
:10282000809590818923DACFCA0157FD079623E06E
:10283000959587952A95E1F7A481B5818A9F9001A6
:102840008B9F300D9A9F300D1124620F731F078CE0
:10285000F0A1E02DE60FF71F4770552721E030E08B
:1028600001C0220F4A95EAF780818227B7CF0895E9
:102870008EBD00000DB407FEFDCF8EB50895FF920A
:102880000F931F93CF93DF93F82ED92FC62F8091EC
:10289000870390918803892B09F447C080918B03AB
:1028A0000E9488058091870390918803DC01ED9157
:1028B000FC910190F081E02D60E009950F2D1D2F16
:1028C000D1E0C1508091870390918803CF3F31F1CF
:1028D000D03298F00E94351080918B030E948805B9
:1028E0008091870390918803DC01ED91FC91019028
:1028F000F081E02D60E00995D1E08091870390910F
:102900008803F8016491DC01ED91FC910190F08164
:10291000E02D0995DF5F0F5F1F4FD3CFDF91CF9180
:102920001F910F91FF900C943510E0919703F09157
:102930009803908180919D038095892380830F2D3A
:102940001D2FC15008F438C0F801849120918503EF
:1029500030918603232B29F00E9438140F5F1F4FFC
:10296000F0CF28E030E040E8E0919303F091940349
:1029700090919B03582F5423D9F05081952B90832D
:10298000E0919503F0919603908150919C03952BD3
:102990009083E0919503F0919603508190919C0370
:1029A000909595239083469521503109E9F6D6CF2D
:1029B000508190959523E3CFDF91CF911F910F9197
:1029C000FF9008951F93CF93DF93EC018D8D9E8D23
:1029D000892BF9F0162F89A10E9488058D8D9E8D77
:1029E000DC01ED91FC910190F081E02D60E0099512
:1029F0008D8D9E8DDC01ED91FC910190F081E02D9B
:102A0000612F09958D8D9E8DDF91CF911F910C9433
:102A10003510ADA5BEA59C918BA9809589238C937B
:102A20008B8D9C8D892B31F0862FDF91CF911F915B
:102A30000C94381428E030E080E8A9A5BAA599A93B
:102A4000462F4823C1F04C91942B9C93ABA5BCA579
:102A50009C914AA9942B9C93ABA5BCA54C919AA997
:102A6000909594239C9386952150310931F7DF91FD
:102A7000CF911F9108954C9190959423E6CF8CBDF2
:102A80009DBD0895FF920F931F93CF93DF93809185
:102A9000870390918803892B09F472C08CE080939E
:102AA000B80065E08CE79AE00E943F1460916E03E5
:102AB00061508AE693E00E94E21420917003309105
:102AC0007103C901079697FD079623E095958795B1
:102AD0002A95E1F720916E0330916F03829F800168
:102AE000839F100D929F100D1124C0918903D091E6
:102AF0008A0380918703909188030C0F1D1F892BF7
:102B000009F47CC080918B030E9488058091870323
:102B100090918803DC01ED91FC910190F081E02D12
:102B200060E40995FF24F3948091870390918803D2
:102B30000C171D07E1F1BFE1BF15A0F40E9435108D
:102B400080918B030E948805809187039091880370
:102B5000DC01ED91FC910190F081E02D60E409959C
:102B6000FF24F39480918703909188036991DC019D
:102B7000ED91FC910190F081E02D0995F394D4CF73
:102B80008091850390918603892B31F080919F037A
:102B90009091A0030E943F15E0919903F0919A0350
:102BA000908180919E038095892380837ACF0E94B3
:102BB00035108091870390918803892B09F45FC0B9
:102BC0002091A1033091A2034091A3035091A4034B
:102BD00060E074E284EF90E00E94122F20513109EE
:102BE0004109510956954795379527952093B80087
:102BF000DF91CF911F910F91FF900895E09197037E
:102C0000F0919803808190919D03892B80830C170C
:102C10001D0779F289912091850330918603232B3A
:102C200019F00E943814F3CF28E030E040E8E0913A
:102C30009303F091940390919B03582F5423D9F060
:102C40005081952B9083E0919503F09196039081AC
:102C500050919C03952B9083E0919503F0919603FE
:102C6000508190919C039095952390834695215097
:102C70003109E9F6CCCF508190959523E3CFE091CF
:102C80009903F0919A03808190919E03892B808310
:102C9000AFCF1F93CF93DF93EC01162F8D8D9E8DB9
:102CA000892B29F18CE08093B80066EA111167EA5C
:102CB000CE010E94E2148D8D9E8D892B41F12FA9AA
:102CC00038AD49AD5AAD60E074E284EF90E00E9407
:102CD000122F2051310941095109569547953795D1
:102CE00027952093B800DF91CF911F9108958B8D88
:102CF0009C8D892B21F08DA99EA90E943F15EFA5DF
:102D0000F8A990818CA9809589238083CECFEFA5E7
:102D1000F8A980819CA9892B8083E5CF089590E054
:102D200080E008958093BB0084E88093BC0080918C
:102D3000BC0087FFFCCF9091B900987F81E098326A
:102D400031F0983129F0903419F080E00895089519
:102D5000089584EA8093BC008091BC0087FFFCCF7B
:102D60008091B900887F19F080EC0C94921680E075
:102D700008955F926F927F928F929F92AF92BF92CF
:102D8000CF92DF92EF92FF920F931F93CF93DF9337
:102D9000CDB7DEB7582E742E652EB62E922E0E9419
:102DA000A916852D0E9492168D2D0E9492168C2DAB
:102DB0000E9492168B2D8370A82A80E081108CE0EF
:102DC0008A290E949216862D0E949216872D0E94B3
:102DD00092168CE0F694E794D794C7948A95D1F72D
:102DE0008C2D807FC82E892D8F708C290E94921681
:102DF000812F0E949216802F0E94921684E9809360
:102E0000BC008091BC0084FDFCCFDF91CF911F916D
:102E10000F91FF90EF90DF90CF90BF90AF909F9079
:102E20008F907F906F905F9008954F925F926F9216
:102E30007F928F929F92AF92BF92CF92DF92EF924A
:102E4000FF920F931F93CF93C82FC090C903D090C8
:102E5000CA03E090CB03F090CC03CB01BA01A701E9
:102E600096010E94122F49015A0125E0F694E79439
:102E7000D794C7942A95D1F735E09695879577959D
:102E800067953A95D1F747E0660F771F881F991F1E
:102E90004A95D1F7A70196010E94122F29013A0104
:102EA0008B019C01B501A401552766277727E7E030
:102EB000440F551F661F771FEA95D1F752506109DD
:102EC0007109440D551D661D771D812CA12C8C2F79
:102ED0000E94B916CF911F910F91FF90EF90DF9054
:102EE000CF90BF90AF909F908F907F906F905F90AA
:102EF0004F9008958F92AF92CF92DF92EF92FF9210
:102F00000F931F9388248394443051056105710504
:102F100009F0812C4450510961097E4F97E0440F1C
:102F2000551F661F771F9A95D1F7A22EC12CD12C61
:102F30007601C39400E010E098010E94B9161F9139
:102F40000F91FF90EF90DF90CF90AF908F9008950A
:102F5000CF93DF93D82FC62F0E94A9168D2F0E94E2
:102F600092168C2F0E94921684E98093BC00809167
:102F7000BC0084FDFCCFDF91CF9108952F923F924A
:102F80004F925F926F927F928F929F92AF92BF9279
:102F9000CF92DF92EF92FF920F931F93CF93DF9325
:102FA00000D000D01F92CDB7DEB789838091C103D6
:102FB0009091C203A091C303B091C403892B8A2BC3
:102FC0008B2B41F460E881E10E94A8171092B403B2
:102FD0001092B3038091C5039091C603A091C703DB
:102FE000B091C803892B8A2B8B2B41F460E882E1D6
:102FF0000E94A8171092B6031092B5034090C10327
:103000005090C2036090C3037090C40341145104F4
:103010006104710409F475C12981222309F4C3C034
:10302000C090B303D090B403F12CE12C4091B803CD
:103030004983A3019201C701B6010E94E1309B01BF
:10304000AC018981E82FF0E0E35DFE4FA081B0E0A4
:103050000E94072F4B015C01DC01CB018058954594
:10306000A84CB0428130924CAB4EBB4008F464C0D7
:1030700060911001709111018091120190911301E2
:10308000A30192010E94122F69017A0144E0C41643
:10309000D104E104F10400F560E881E10E94A81781
:1030A0001092B4031092B3030F900F900F900F90F3
:1030B0000F90DF91CF911F910F91FF90EF90DF90D4
:1030C000CF90BF90AF909F908F907F906F905F90C8
:1030D0004F903F902F90089586E0C816D104E104E8
:1030E000F10408F48AC019829DE2C91691E0D9065C
:1030F000E104F10440F029812F5F2983F694E794DD
:10310000D794C794F1CF4981411103C0E894C0F826
:103110001982A3019201C701B6010E94E1309B010F
:10312000AC018981E82FF0E0E35DFE4FA081B0E0C3
:103130000E94072F4B015C01B501A40182E20E94AD
:1031400015178091B3039091B403B0E0A0E08C1503
:103150009D05AE05BF0529F48091B80399818917B3
:10316000D1F029812295207FB701A60182E30E9438
:103170007A176091BB036C6681E10E94A817D09218
:10318000B403C092B30329812093B8038091D10383
:1031900080688093D1038092CD039092CE03A09259
:1031A000CF03B092D003C090C503D090C603E09087
:1031B000C703F090C803C114D104E104F10409F479
:1031C00073CF8090CD039090CE03A090CF03B090AA
:1031D000D003C501B401A70196010E94122F283027
:1031E00031054105510578F460E882E10E94A81795
:1031F0001092B6031092B50357CF04E0C02ED12C25
:10320000E12CF12C83CF1D8221343105410551057C
:1032100060F08D818F5F8D83CC0CDD1CEE1CFF1C5C
:103220005695479537952795EFCFC501B401A7016E
:1032300096010E94122F29833A834B835C832FEFE0
:103240003FEF4FE050E00E941E3156016701E12C34
:10325000F12C00E010E00E944B3129013A019D81E0
:103260009295907F9D83C12CD12C7601C3944114FB
:1032700051046104710431F0CC24CA94DC2CFFE0C9
:10328000EF2EF12CC301B20127E0660F771F881FD4
:10329000991F2A95D1F7A70196010E94122F490183
:1032A0005A018B019C0149815A816B817C81552790
:1032B00066277727E7E0440F551F661F771FEA95BB
:1032C000D1F7525061097109480D591D6A1D7B1DC6
:1032D000812CAD808AE30E94B9168CE445284628EB
:1032E000472809F08CE06091BC036062682B82E1A2
:1032F0000E94A81781E090E09093B6038093B503F5
:10330000D3CE8090C5039090C603A090C703B09021
:10331000C80381149104A104B10409F4C5CEC0907E
:10332000B503D090B603F12CE12C2091B903298389
:10333000A5019401C701B6010E94E1309B01AC01D7
:103340008981E82FF0E0E35DFE4FA081B0E00E94AC
:10335000072F8B019C0100581545284C3042013045
:10336000124C2B4E3B4008F443C060911001709109
:1033700011018091120190911301A50194010E9405
:10338000122F69017A0184E0C816D104E104F10426
:1033900008F42ACF96E0C916D104E104F10408F438
:1033A00058C019822DE2C21621E0D206E104F104D0
:1033B00040F049814F5F4983F694E794D794C794CE
:1033C000F1CF8981811103C0E894C0F81982A50169
:1033D0009401C701B6010E94E1309B01AC019981C3
:1033E000E92FF0E0E35DFE4FA081B0E00E94072FDF
:1033F000AB01BC0182E20E9415178091B503909148
:10340000B603B0E0A0E08C159D05AE05BF0531F414
:103410008091B9032981821709F446CE298122952A
:10342000207FB701A6018AE30E947A176091BC034E
:103430006C6682E10E94A817D092B603C092B503D1
:1034400049814093B9038091D10380688093D1036F
:103450002BCE84E0C82ED12CE12CF12CB5CF8F924D
:103460009F92AF92BF92CF92DF92EF92FF920F9313
:103470001F93CF938090BD039090BE03A090BF0395
:10348000B090C00381149104A104B104A1F460E8D8
:1034900080E10E94A8171092B2031092B103CF915D
:1034A0001F910F91FF90EF90DF90CF90BF90AF9062
:1034B0009F908F900895C090B103D090B203F12CEB
:1034C000E12CC091B703A5019401C701B6010E9488
:1034D000E1309B01AC01EC2FF0E0E35DFE4FA081F9
:1034E000B0E00E94072F8B019C0100581545284C25
:1034F00030420130124C2B4E3B4008F43FC06091EB
:103500001001709111018091120190911301A50198
:1035100094010E94122F69017A0184E0C816D10437
:10352000E104F10408F4B3CF46E0C416D104E10489
:10353000F10408F452C0C0E08DE2C81681E0D8065C
:10354000E104F10430F0CF5FF694E794D794C79488
:10355000F3CFC11103C0E894C0F8C0E0A501940105
:10356000C701B6010E94E1309B01AC01EC2FF0E0F5
:10357000E35DFE4FA081B0E00E94072FAB01BC01CC
:103580008AE10E9415178091B1039091B203B0E0D7
:10359000A0E08C159D05AE05BF0529F48091B70309
:1035A0008C1709F47CCF2C2F2295207FB701A60120
:1035B0008AE20E947A176091BA036C6480E10E94EB
:1035C000A817D092B203C092B103C093B703809101
:1035D000D10380628093D10362CF84E0C82ED12CC6
:1035E000E12CF12CB8CFFF920F931F93CF93DF9371
:1035F00000D0CDB7DEB7E3EDF3E010E000E081915D
:10360000080F111D83E0EF3DF807C9F74CE050E0CB
:1036100063ED73E082E090E00E94A5110B5F1F4F05
:103620001A83098342E050E0BE016F5F7F4F90E054
:1036300080E00E94A511E9E0F1E080E191E010E076
:1036400000E02191020F111D8E179F07D1F7809185
:10365000D40399E0F92E8F9DC001112447E050E07A
:1036600069E071E040960E94A5110B5F1F4F1A831D
:1036700009838091D4038F9DC001112442E050E062
:10368000BE016F5F7F4F0E960E94A5110F900F90A5
:10369000DF91CF911F910F91FF9008958091DA03F0
:1036A0009091DB03092E000CAA0BBB0B80549340B6
:1036B000A446BE4F8093C9039093CA03A093CB0343
:1036C000B093CC030C942F1ACF92DF92EF92FF921B
:1036D0000F931F93CF9380910A0190910B01A091BA
:1036E0000C01B0910D010091D6031091D7032091E8
:1036F000D8033091D903C090C103D090C203E090A9
:10370000C303F090C403C1E0C114D104E104F10487
:1037100009F4C0E04091BD035091BE036091BF0326
:103720007091C003E0910901EE2309F446C0800FB7
:10373000911FA21FB31F1092D10384179507A607EC
:10374000B70751F08093BD039093BE03A093BF03CE
:10375000B093C0030E942F1ACD28CE28CF2861F441
:103760008091C5039091C603A091C703B091C8038F
:10377000892B8A2B8B2B99F01092C1031092C203D4
:103780001092C3031092C4031092C5031092C60393
:103790001092C7031092C8038C2F0E94BE1760912D
:1037A000D103662379F081EBCF911F910F91FF90A8
:1037B000EF90DF90CF900C94A817801B910BA20B79
:1037C000B30BB9CFCF911F910F91FF90EF90DF9086
:1037D000CF90089585E10E9483062091DC0330E0BC
:1037E000DC010E9417312FEF33E040E050E00E94EF
:1037F000E82E2093560208958091CF02882399F0F5
:103800008FE00E94830627E332E0DC010E9417313B
:103810002FEF33E040E050E00E94E82E3093550255
:1038200020935402089580E10E94830627E830E047
:10383000DC010E9417312FEF33E040E050E00E949E
:10384000E82E30935202209351020895DC01ED914D
:10385000FD918081ED91FD919081ED91FD916C91B3
:1038600063708E2309F064609F2309F06860E3E4CD
:10387000FCE1E60FF11D659565956D936D917D9168
:103880008D919D91099423C01AC012C016C010C01A
:103890001EC009C014C013C006C019C009C00DC0A5
:1038A00007C00DC014C062507040804090400BC0F3
:1038B000615070408040904006C06E5F01C06F5FF5
:1038C0007F4F8F4F9F4F9E938E937E936E9308955D
:1038D000BF92CF92DF92EF92FF920F931F93CF93FD
:1038E000DF93EC01B62EC72E8D85811105C0CE0168
:1038F0000E94BC0781110EC01B861D861C8680E0BD
:10390000DF91CF911F910F91FF90EF90DF90CF90BB
:10391000BF90089540E060EFCE010E94690701E08A
:10392000E12CD12C11E0CE010E941607F82ECE0119
:103930000E94160791E0F91218C0813099F51134F0
:10394000D8F2DB86D11002C081E08D878B8188237D
:1039500099F22396EB2DFC2DCF0108962991219306
:10396000E817F907D9F781E0CBCFEE2DF0E0F81298
:103970000FC08B851817A0F4DE01AE0FBF1F139682
:103980008C91802379F4F12C193008F41C87D12E06
:10399000EC0FFD1F8381902F9095892383830AC0AC
:1039A0008113F1CFFE01EE0DF11D8381802B838306
:1039B000FF24F3946F2DCE010E943A071F5F000F82
:1039C00011F4E39401E087E08E1508F0ACCFB7CF97
:1039D0004F925F926F927F928F929F92AF92BF921F
:1039E000CF92DF92EF92FF920F931F93CF93DF93CB
:1039F000CDB7DEB761970FB6F894DEBF0FBECDBF6F
:103A00000E94F306C0904D02D0904E02E0904F020B
:103A1000F09050026C197D098E099F096938734135
:103A20008105910508F458C080914C02811154C061
:103A300010923E0380914203909143030E94BC0781
:103A400040E06CEC80914203909143030E9469072F
:103A500040913C0364E480914203909143030E94AF
:103A6000690780913E03882391F1E0913D03E9507D
:103A70000EEE12E0E33038F4F0E0EE0FFF1FE35EED
:103A8000FE4F0081118180913F03882309F481C09A
:103A900080913C0381117DC00E94F3064B015C01C3
:103AA0002801110F66087708809142039091430323
:103AB0000E941607813059F00E94F30664197509B7
:103AC00086099709681579058A059B0568F381E0E1
:103AD00080933E0380934C020E94F3066C197D098B
:103AE0008E099F0961347F4181059105D8F180914C
:103AF0004C028823B9F1E0914203F091430313860D
:103B000015861486128611861086178216821582F3
:103B100014821382BE01665F7F4F809142039091B1
:103B200043030E94681C81113BC060E070E08EEF8F
:103B300092EC20E030E040E05FE30E94442F0E94DE
:103B4000B02F8091DE03680F609353020E94F3064A
:103B500060934D0270934E0280934F0290935002F7
:103B600010924C0261960FB6F894DEBF0FBECDBF27
:103B7000DF91CF911F910F91FF90EF90DF90CF9049
:103B8000BF90AF909F908F907F906F905F904F907D
:103B90000895B801110F880B990B0E94C00697CFAA
:103BA00067E0CE010A960E94FF0699898913BDCF6E
:103BB00080914203909143030E94BC07882309F43B
:103BC000B4CFBE016F5F7F4FCE010A960E94F4070B
:103BD000882309F4AACF68E0CE0101960E94FF066F
:103BE00099858913A2CF6A8170E0762F6627770FB7
:103BF000770F770F298158E0259F90011124262BFC
:103C0000372B8A858031D1F4688570E08F81AB01D4
:103C1000481B5109CA019695982F88279795879533
:103C20000E94FD30CB014097B90153E0660F771F2A
:103C30005A95E1F760789C01260F371F213854EE22
:103C400035070CF472CFB901330F880B990B0E9422
:103C5000E82F20E030E040E05CE30E94743069CF60
:103C60000F931F93CF93DF938091C902882359F05C
:103C7000109226030E941C111092C902DF91CF916D
:103C80001F910F9108950E94F30600914802109130
:103C9000490220914A0230914B02601B710B820B4A
:103CA000930B693E73408105910520F4012B022B93
:103CB000032B21F70E94F306609348027093490298
:103CC00080934A0290934B0288E60E94880560E048
:103CD0008EE593E00E9401108EE593E00E9435107E
:103CE000882391F010922D0380912D03882331F2C7
:103CF000109228031092270310922603DF91CF9190
:103D00001F910F910C941C1181E080932D0367E0AB
:103D100088E60E94E30E10923703809336038730C3
:103D200018F38EE593E00E94C10FD82F982F92953B
:103D30009770CAE08D2F8F709C9F800D1124809307
:103D400026038EE593E00E94C10F982F92959F70F5
:103D50008F709C9F800D1124809327038EE593E044
:103D60000E94C10F982F929593708F709C9F800D29
:103D70001124809328038EE593E00E94C10F982FB1
:103D800092959F708F709C9F800D112480932903C2
:103D90008EE593E00E94C10F982F92959F708F70CF
:103DA0009C9F800D112480932A038EE593E00E944E
:103DB000C10F982F92959F708F709C9F800D11243A
:103DC00080932B038EE593E00E94C10F982F9F7084
:103DD000925E82958F708C9F900D112490932C038E
:103DE000D7FF4CCF81CFCF93DF93EC018091D203EB
:103DF0000E9488058D2F90E00E943010CE019927F7
:103E00000E9430108EE593E00E94351061E08091B1
:103E1000D2030E94E30E1092370380933603882367
:103E200039F08EE593E00E94C10FDF91CF910895A4
:103E300080E0FBCFEF92FF920F931F93CF93DF931E
:103E40008B01040F151FEB017C01E61AF70AC7016D
:103E50008C0F9D1F0E94F31E8993C017D107B9F7DD
:103E6000DF91CF911F910F91FF90EF900895DF9216
:103E7000EF92FF920F931F93CF93DF9300D0CDB7B4
:103E8000DEB71A8219828091D40329E0829FC00193
:103E9000112442E050E0BE016F5F7F4F0E960E94FA
:103EA0001A1FF12CE12C10E000E089E0D82E80915F
:103EB000D40397018D9D200D311D1124C901409619
:103EC0000E94F31E080F111D3FEFE31AF30A87E06B
:103ED000E816F10461F70B5F1F4F89819A8108177B
:103EE0001907B1F48091D4038D9DC001112447E0DE
:103EF00050E069E071E040960E941A1F0F900F9009
:103F0000DF91CF911F910F91FF90EF90DF90089577
:103F10000E94F31AF3CFFC0101900020E9F73197DA
:103F2000AF01481B590BBC018AE693E00C949A053B
:103F30008F929F92AF92BF920F931F93CF93DF9375
:103F4000CDB7DEB7A1970FB6F894DEBF0FBECDBFD9
:103F500019A2423008F44AE08E010F5D1F4F842EF3
:103F6000912CB12CA12CA50194010E94122FE62FB7
:103F7000B901CA01EA30F4F4E05DD801EE938D0195
:103F8000232B242B252B79F790E080E0109719F054
:103F9000CD010E948B1FA1960FB6F894DEBF0FBE15
:103FA000CDBFDF91CF911F910F91BF90AF909F90A8
:103FB0008F900895E95CE1CF682F70E090E080E099
:103FC0004AE00C94981FCF92DF92EF92FF92CF932A
:103FD000DF936C01990FEE08FF08F7FE17C08DE222
:103FE0000E94900BEC0166277727CB016C197D09A5
:103FF0008E099F094AE00E94981F8C0F9D1FDF9138
:10400000CF91FF90EF90DF90CF9008954AE0C701E5
:10401000B601DF91CF91FF90EF90DF90CF900C949D
:10402000981FCF93DF930E948B1FEC0183E791E0F1
:104030000E948B1F8C0F9D1FDF91CF9108950C94D0
:104040008B1FCF92DF92EF92FF92CF93DF936C01A1
:10405000990FEE08FF08F7FE1DC08DE20E94900B3D
:10406000EC0166277727CB016C197D098E099F0922
:104070004AE00E94981FC80FD91F83E791E00E9471
:104080008B1F8C0F9D1FDF91CF91FF90EF90DF90E2
:10409000CF9008954AE0C701B6010E94981FEC0135
:1040A000ECCFCF93DF930E94DC1FEC0183E791E01C
:1040B0000E948B1F8C0F9D1FDF91CF91089520913F
:1040C000700330917103C901079697FD079623E0AD
:1040D000959587952A95E1F720916E0330916F03AE
:1040E000829FA001839F500D929F500D112470E07C
:1040F00060E08091890390918A030C94EF32CF9213
:10410000DF92EF92FF920F931F93CF930E945F2055
:10411000109277031092760310927903109278032D
:1041200081E090E090937D0380937C0390937B03E8
:1041300080937A0383E080937E0380937F03E091F2
:10414000D902EE3008F032C1F0E0E755FF4D0C9493
:104150001131B72070228622AC22C522E022F4223F
:104160001623282338234823602378238F23809124
:104170000A0190910B01A0910C01B0910D018038C2
:104180009649A849B10520F486E492E00E941F20D8
:1041900060910A0170910B0180910C0190910D01C9
:1041A000F0E4CF2EF2E4DF2EFFE0EF2EF12CA7019A
:1041B00096010E94122FCA01B9014AE00E94981F7D
:1041C000809176039091770305969093770380937F
:1041D000760360910A0170910B0180910C0190911E
:1041E0000D01A70196010E94122F603A7648814086
:1041F000910520F486E791E00E941F2060910A015A
:1042000070910B0180910C0190910D0120E432E43A
:104210004FE050E00E94122F6031774281059105F6
:1042200020F486E791E00E941F2060910A017091BE
:104230000B0180910C0190910D0120E432E44FE0DC
:1042400050E00E94122FE8EECE2EE3E0DE2EE12CAD
:10425000F12CA70196010E94122FCA01B9014AE070
:104260000E94981F82E080937E0380937F03809159
:104270007603909177030596909377038093760366
:1042800087E090E0909379038093780360910A012E
:1042900070910B0180910C0190910D01A701960185
:1042A0000E94122F643671058105910520F486E77E
:1042B00091E00E941F2060910A0170910B01809192
:1042C0000C0190910D0128EE33E040E050E00E9497
:1042D000122F2AE030E040E050E00E94122FCA0185
:1042E000B9014AE00E94981F83E791E00E948B1F6A
:1042F00081E080937E0380937F0380915602843611
:1043000020F486E791E00E941F2080915602CAE0C7
:104310006C2F0E94F13090E00E94E31F88E791E04B
:104320000E941F20809156026C2F0E94F130892F2D
:1043300090E00E94E31F8AE791E00E941F20809195
:10434000CF028823E1F18CE791E00E941F20809149
:104350005402909155028A30910594F069E070E022
:104360000E94FD309B01EE24E394F12C09E010E063
:1043700047E150E060E470E08AE693E00E94890C37
:10438000809154029091550269E070E00E94FD30E6
:10439000605C7F4FEE24E394F12C8C0121E030E04F
:1043A00047E150E08AE693E00E94890CCF911F918B
:1043B0000F91FF90EF90DF90CF900C944215809179
:1043C000530292E3980F953608F07EC087FD04C033
:1043D00086E492E00E941F2080915302082E000C78
:1043E000990B0E94E31F87EF0E94900B81E891E0F8
:1043F0000E941F208091D002882309F468C086E4BF
:1044000092E00E941F20809128038A3020F486E4E5
:1044100092E00E941F20809128030E94DC1F80915F
:10442000260380FF57C089E891E00E941F208091F9
:1044300027038A3020F486E791E00E941F208091B4
:1044400027030E94DC1F80910901882309F445C0DD
:104450008BE891E00E941F208091D4038A3020F4E1
:1044600086E492E00E941F208091D4030E94DC1F0A
:1044700080915102909152028630910594F065E04E
:1044800070E00E94FD309B01EE24E394F12C05E0E6
:1044900010E050E040E064E670E08AE693E00E94BD
:1044A000890C809151029091520265E070E00E9467
:1044B000FD306C597F4FEE24E394F12C8C0121E008
:1044C00030E050E040E06ECF83E891E091CF88E7A4
:1044D00091E097CF86E492E0A8CF8EE891E0BACF42
:1044E0008091D4030E94512081E080937E038093C9
:1044F0007F038091D9020E94DC1F81E991E00E9434
:104500001F208091D5030E94DC1F50CFE091D30380
:10451000F0E0EE0FFF1FED5DFE4F808191812AE0FC
:10452000289FB001299F700D112490E080E04AE09F
:104530000E94981F83E791E00E948B1F81E0809387
:104540007E0380937F038091D9020E94DC1F83EA5F
:1045500091E00E941F202ACF80910901882391F0C9
:104560008DEA91E00E94112081E080937E03809388
:104570007F038091D9020E94DC1F85EB91E00E94AD
:10458000112014CF81EB91E0EDCF80910E0124E654
:10459000829FC00111240E94212081E080937E032C
:1045A00080937F038091D9020E94DC1F86EC91E00A
:1045B0000E941F2080EF0E94900B82ED91E0C9CFF6
:1045C00080910F0124E6829FC00111240E942120C6
:1045D00081E080937E0380937F038091D9020E94C3
:1045E000DC1F86ED91E0E4CF6091D6037091D70394
:1045F0008091D8039091D9034AE00E94981F83E7E5
:1046000091E00E948B1F81E080937E0380937F0363
:104610008091D9020E94DC1F82EE91E00E941F204F
:1046200080EF0E94900B8AEA91E093CF8091DA03A9
:104630009091DB030E94212081E080937E03809390
:104640007F038091D9020E94DC1F8DEE91E0E6CFBE
:104650008091DC030E94512081E080937E0380934F
:104660007F038091D9020E94DC1F89EF91E071CF16
:104670008091D5030E94512081E080937E03809336
:104680007F038091D9020E94DC1F84E092E061CF19
:10469000809128038A3020F486E791E00E941F2051
:1046A000809128030E94512081E080937E038093B3
:1046B0007F038091D9020E94DC1F84E192E049CF00
:1046C000809127038A3020F486E791E00E941F2022
:1046D000809127030E94512081E080937E03809384
:1046E0007F038091D9020E94DC1F8BE192E031CFE1
:1046F0008091DD03882381F084E292E00E94112002
:1047000081E080937E0380937F038091D9020E9491
:10471000DC1F8BE292E033CF88E292E0EFCF809112
:10472000DE03082E000C990B0E94212081E080936B
:104730007E0380937F038091D9020E94DC1F8DE36A
:1047400092E00E941F2080EF0E94900B87EF0E9452
:10475000900B81E891E0FDCE0E94EA3285ED8093D6
:10476000BC008091220390912303A0912403B09177
:1047700025030796A11DB11D23E0B695A795979532
:1047800087952A95D1F72091BC0024FD03C0109293
:104790002003089540912203509123036091240344
:1047A00070912503452B462B472B69F30097A105F4
:1047B000B10541F025E32A95F1F700000197A10921
:1047C000B109E1CF809121030C94C20E1F920F9288
:1047D0000FB60F9211242F933F938F939F93AF9314
:1047E000BF938091BC029091BD02A091BE02B09196
:1047F000BF023091BB0223E0230F2D3758F50196FD
:10480000A11DB11D2093BB028093BC029093BD02F9
:10481000A093BE02B093BF028091C0029091C102EA
:10482000A091C202B091C3020196A11DB11D809357
:10483000C0029093C102A093C202B093C302BF9181
:10484000AF919F918F913F912F910F900FBE0F903D
:104850001F90189526E8230F0296A11DB11DD2CFF7
:104860001F920F920FB60F9211242F933F934F93E5
:104870005F936F937F938F939F93AF93BF93EF93C8
:10488000FF938091B900887F803609F44AC0F0F523
:10489000883209F4A7C018F5803109F49BC0B8F438
:1048A000882309F4F9C0883009F494C0FF91EF918E
:1048B000BF91AF919F918F917F916F915F914F9138
:1048C0003F912F910F900FBE0F901F901895883138
:1048D00009F488C0803251F78093FE0214C08034FE
:1048E00009F49DC040F48033B9F38833F9F680931E
:1048F000FE0285ECB0C0803509F485C0883509F426
:1049000096C0883499F60E94AE23D0CF883909F436
:104910008CC038F5883729F050F4883611F080378C
:1049200029F683E0809320031092BA0257C088389A
:1049300009F47BC0803919F0803809F0B7CF809135
:10494000BA02803208F071C0E091BA0281E08E0FA5
:104950008093BA028091BB00F0E0E656FD4F808361
:104960003DC0803B39F0E0F4803A09F479C0883AE0
:1049700009F09CCF84E0809320031092990210925A
:104980009802E0913003F0913103099580919802EB
:1049900081110FC081E0809398021092780209C0C3
:1049A000803C09F4A6CF883C09F4A3CF883B09F0EA
:1049B0007DCFE091990281E08E0F80939902F0E023
:1049C000E858FD4F80818093BB00909199028091BF
:1049D000980229C08091FB028093BB0085EC8093F4
:1049E000BC0064CF9091FD028091FC02981758F5AD
:1049F000E091FD0281E08E0F8093FD02F0E0E6522F
:104A0000FD4F8081E9CFE091FD0281E08E0F809320
:104A1000FD028091BB00F0E0E652FD4F8083909153
:104A2000FD028091FC029817C8F285E8D8CFE0918A
:104A3000FD0281E08E0F8093FD028091BB00F0E0CB
:104A4000E652FD4F80838091FF0281115CCF81E0AF
:104A50008093FA0284EA8093BC001092200326CF50
:104A600085EC8093BC00109220038091BA028032C2
:104A700030F4E091BA02F0E0E656FD4F108260910A
:104A8000BA0270E0E0913203F09133038AE992E0D8
:104A900009951092BA020ACF1092FE0234CF1F92EB
:104AA0000F920FB60F9211242F933F934F935F9362
:104AB0006F937F938F939F93AF93BF93EF93FF93E6
:104AC00080913A0390913B030E94261CFF91EF9145
:104AD000BF91AF919F918F917F916F915F914F9116
:104AE0003F912F910F900FBE0F901F9018951F921E
:104AF0000F920FB60F9211242F933F934F935F9312
:104B00006F937F938F939F93AF93BF93EF93FF9395
:104B100080913803909139030E94261CFF91EF91F8
:104B2000BF91AF919F918F917F916F915F914F91C5
:104B30003F912F910F900FBE0F901F901895CF931C
:104B4000DF931092370310923603109235031092C0
:104B500034030E94A40E86E895E09093310380937D
:104B6000300387E895E090933303809332031092EB
:104B700061031092600388EE93E0A0E0B0E08093C0
:104B8000620390936303A0936403B093650389E386
:104B900091E090935F0380935E0383E08093D3035F
:104BA0001092D4031092D50380E291EAA7E0B0E01E
:104BB0008093D6039093D703A093D803B093D903DF
:104BC00088EA96E19093DB038093DA0380ED80938B
:104BD000DC031092DD0380E58093D2031092B203D0
:104BE0001092B1031092B4031092B3031092B60363
:104BF0001092B5031092B7031092B8031092B90344
:104C000080911A0190911B01A0911C018093BA031D
:104C10009093BB03A093BC031092BD031092BE03FC
:104C20001092BF031092C0031092C1031092C203EE
:104C30001092C3031092C4031092C5031092C603CE
:104C40001092C7031092C80380E892EBA6EEBEE074
:104C50008093C9039093CA03A093CB03B093CC0372
:104C600062E082E00E94470662E083E00E9447061D
:104C7000E1EAFAE0E491F0E0EE0FFF1FEB56F54FAA
:104C8000A591B491B093A603A093A503E3E8FAE03D
:104C900044914093A903E2EAFAE0E491F0E0EE0FD8
:104CA000FF1FEB56F54FC591D491D093A803C09345
:104CB000A703E4E8FAE0E491E093AA031092AC03BE
:104CC0001092AD031092AE031092AF032BE33FE1BD
:104CD000C9010197F1F79C91842F892391E009F490
:104CE00090E08881E82309F0926025EA33E0909310
:104CF000AB033093390320933803809169008C7F94
:104D0000816080936900E89AC1E0C093B00330935A
:104D10003B0320933A0380916900837F84608093F2
:104D20006900E99A82E08093B00310926D031092BB
:104D30006C0320E830E030936F0320936E0380E231
:104D400090E09093710380937003309373032093EA
:104D500072039093750380937403109280031092F2
:104D60007703109276031092790310927803C09320
:104D70007F03C0937E038FEF9FEF90937D0380931B
:104D80007C0390937B0380937A03C09381031092FA
:104D9000820310928403109283038BE491E090933A
:104DA0006B0380936A038EE593E09093880380936E
:104DB000870310928A03109289038FEF80938E03EA
:104DC00080938F0380939003809391038093920349
:104DD00080E580939F031092A00380EA96E8A1E00B
:104DE000B0E08093A1039093A203A093A303B09398
:104DF000A403109286031092850360E08EE00E9467
:104E00004706EFE8FAE0E491E0935003EDEAFAE0B8
:104E1000E491F0E0EE0FFF1FEB56F54F8591949172
:104E2000909352038093510310925B0310925D03A1
:104E300010925C0310925A03109259031092580377
:104E40001092570310925603109255031092540378
:104E50001092530380E593E09093430380934203C1
:104E6000109240031092410310923C0389E080931A
:104E70003D03C0933E03C0933F0310924F03109233
:104E80004E03DF91CF910895CF93DF93CDB7DEB777
:104E900060970FB6F894DEBF0FBECDBF789484B58F
:104EA000826084BD84B5816084BD85B5826085BD26
:104EB00085B5816085BD80916E00816080936E00B4
:104EC00010928100809181008260809381008091A6
:104ED0008100816080938100809180008160809357
:104EE00080008091B10084608093B1008091B00017
:104EF00081608093B00080917A00846080937A0012
:104F000080917A00826080937A0080917A0081603B
:104F100080937A0080917A00806880937A00109262
:104F2000C10060E084E00E94470660E08FE00E94DC
:104F3000470660E080E10E94470661E08CE00E9445
:104F4000470661E084E00E94190683E08093000137
:104F50008091890390918A03892B11F10E945F202F
:104F6000209170033091710380916E0390916F03D3
:104F7000213231050CF0B4C0B9016052710977FFDC
:104F800002C06F5F7F4F759567958357910997FDB5
:104F9000019600E210E023E730E04CED55E0B3C0AD
:104FA0002091700330917103C901079697FD079610
:104FB000B3E095958795BA95E1F720916E0330910E
:104FC0006F03AC01429FC001439F900D529F900D13
:104FD00011240E94C53190938A0380938903892B01
:104FE00009F0BCCF0E945F200E944215E09142036D
:104FF000F091430313861586148612861186108657
:105000001782168215821482138210924003109226
:10501000410301E0BE016F5F7F4F80914203909199
:1050200043030E94681C882309F445C267E0CE014F
:1050300001960E94FF0698858913ECCF80913C036E
:10504000811128C080914203909143030E94BC07C4
:10505000BE016F5F7F4F80914203909143030E9496
:105060009D0740E064EB80914203909143030E94CE
:10507000690780914203909143030E941607182FFD
:1050800080914203909143030E94BC07111102C01A
:1050900000933C0310913D038981803109F485C65A
:1050A000CE0101960E944008811708F0F3C180915B
:1050B0003D0380933D03809140038F5F80934003C5
:1050C0008981883239F008F0EFC1803119F08232DD
:1050D00009F0A0CF809141038F5F809341039ACF65
:1050E000B9016054710977FF02C06F5F7F4F7595FA
:1050F00067958255910997FD019600E410E022E53D
:1051000030E04CEB57E0959587950E946F0D82E05B
:1051100080938C038091870390918803892B09F4F5
:10512000AEC08CE380938B0310923703109236034A
:1051300010923503109234030E94A40E86E895E085
:10514000909331038093300387E895E09093330385
:10515000809332038091920387FD1EC061E00E941C
:10516000470661E0809192030E94190661E070E0B9
:1051700080E090E00E94C00660E0809192030E946F
:1051800019066AE070E080E090E00E94C00661E0ED
:10519000809192030E941906809187039091880361
:1051A000892B09F42BC18CE08093B80064E08EEC6D
:1051B00095E00E943F146091700361508AE693E08D
:1051C0000E94E21464E08AEC95E00E943F14809112
:1051D0008C0360E1813009F064E18AE693E00E948B
:1051E000E21464E086EC95E00E943F1480916E0327
:1051F00090916F038038910509F02BC18091700365
:10520000909171038032910509F00FC164E082EC46
:1052100095E00E943F1469ED8AE693E00E94E21453
:1052200080918C0362E2813009F061EF8AE693E0BD
:105230000E94E21466E086EB95E00E943F148091A4
:10524000870390918803892B09F41AC12091A10347
:105250003091A2034091A3035091A40360E074E253
:1052600084EF90E00E94122F205131094109510929
:1052700056954795379527952093B800B3CE61E0B2
:10528000809190030E94470661E0809191030E9403
:10529000470680919003082E000C990BFC01E15603
:1052A000F54FE491F0E0EE0FFF1FEE52FA4F25911B
:1052B00034913093980320939703FC01EF57F54FF7
:1052C000E491E0939D0380919103082E000C990BCB
:1052D000FC01E156F54FE491F0E0EE0FFF1FEE52B6
:1052E000FA4FA591B491B0939A03A0939903FC014E
:1052F000EF57F54FE491E0939E038C91E82BEC93EC
:105300008091850390918603892B09F434C01FB7DF
:10531000F8948091C402811127C0E9EAFAE08491EF
:10532000EBE8FAE09491E82FF0E0EE0FFF1FE45570
:10533000FA4FA591B491EC91E92321F461E08AE060
:105340000E94190661E08AE00E9447068CB58061E0
:105350008CBD8CB580648CBD61E08DE00E944706F9
:1053600061E08BE00E9447068091C4028F5F8093CA
:10537000C4021FBFEFCE61E080918E030E944706FA
:1053800061E080918F030E94470680918E03082E72
:10539000000C990BFC01E156F54FE491F0E0EE0FA3
:1053A000FF1FEE52FA4F25913491309394032093CE
:1053B0009303FC01EF57F54FE491E0939B03809139
:1053C0008F03082E000C990BFC01E156F54FE49178
:1053D000F0E0EE0FFF1FEE52FA4FA591B491B0939B
:1053E0009603A0939503FC01EF57F54FE491E093EA
:1053F0009C038C91E095E823EC93ACCE80918503DF
:1054000090918603892B31F080919F039091A003A6
:105410000E943F15E0919903F0919A039081809149
:105420009E03809589238083C1CE8034910509F045
:10543000F2CE63E08FEB95E00E943F1480918C03E5
:105440006FE9813009F06FEC8AE693E00E94E21484
:10545000E2CE8036910509F0DECE80917003909106
:105460007103409709F0D7CE63E08CEB95E00E9482
:105470003F1480918C0360E1813031F36FEAE4CF17
:10548000E0919903F0919A03808190919E03892B7A
:105490008083A8CD8981803111F48CE00ACECE01C1
:1054A00001960E94400805CE8B3309F413CE823456
:1054B00009F0B0CD0FCE1A82198242E050E0BE0151
:1054C0006F5F7F4F90E080E00E941A1FF2E0EF2EA6
:1054D000F12C10E000E0C7010E94F31E080F111D1F
:1054E0005FEFE51AF50A8EE0E816F104A1F70B5F0D
:1054F0001F4F89819A810817190709F0CEC04CE027
:1055000050E063ED73E082E090E00E941A1F0E9479
:10551000371F1092BA031092BB031092BC0360E8CD
:1055200080E10E94A81760E881E10E94A81760E866
:1055300082E10E94A81780E896E3AEEBB6E2809382
:10554000100190931101A0931201B093130162E92D
:1055500087EB0E94A8170E944E1B0E94641B0E94AA
:10556000EA1B0E94FC1B0E94E81C0E94301E0E9445
:105570005F201092770310927603109279031092B5
:10558000780381E090E090937D0380937C03909377
:105590007B0380937A0383E080937E0380937F0371
:1055A00081E091E00E9411200E94421568EE73E0B4
:1055B00080E090E00E94C0060E947F20E0E02E2E56
:1055C000E0E03E2E11E002E084E00E94F005209130
:1055D0000801892B09F09EC3222361F01092080173
:1055E0000E94F3066093C5027093C6028093C702BF
:1055F0009093C8028091B003823008F065C0F8949F
:1056000085EA93E00E94261C6091AC037091AD0383
:105610008091AE039091AF03789424E030E040E0B5
:1056200050E00E94E82E69017A018091DD03882311
:1056300041F0F094E094D094C094C11CD11CE11CC2
:10564000F11C8090CB029090CC02A090CD02B09043
:10565000CE028C149D04AE04BF0409F4DAC0E091BC
:10566000D9029FEF9E0F933010F41093CA02EE30D0
:1056700008F0B9C0F0E0E15CF44D0C941131662BF8
:10568000A02CC02CDE2CE52C092D2D2D982DE02DE5
:10569000012E1F2E3E2E5A2E6A2E0E94F31A37CF4D
:1056A0001092D90256C38F5F843059F08093D9028B
:1056B0008091D9028E3008F465C384E08093D902CA
:1056C00061C31092D902F4CFF8949ECF40900A01A2
:1056D00050900B0160900C0170900D01A0910F0192
:1056E000B0E020EA36E841E050E00E94072F6987E9
:1056F0007A878B879C87A0910E01B0E00E94072FCC
:105700006D877E878F87988B8C149D04AE04BF04B1
:105710000CF0E4C029853A854B855C852415350558
:105720004605570560F1E091D303F0E0EE0FFF1F4F
:10573000ED5DFE4F808191812AE0289F4001299FE5
:10574000900C1124B12CA12CC301B201A50194012C
:105750000E94122F480C591C6A1C7B1C6115710594
:105760008105910521F0461A570A680A790A409284
:105770000A0150920B0160920C0170920D01809110
:105780000A0190910B01A0910C01B0910D012D85A2
:105790003E854F85588982179307A407B50740F4C3
:1057A00020930A0130930B0140930C0150930D019B
:1057B00080910A0190910B01A0910C01B0910D0113
:1057C00029853A854B855C85281739074A075B0789
:1057D00040F420930A0130930B0140930C01509345
:1057E0000D010E94641B0E94F3066093D102709326
:1057F000D2028093D3029093D4021093D0020E94DD
:105800007F20C092CB02D092CC02E092CD02F092E7
:10581000CE0281E10E94F0052091CF02892B09F48C
:10582000BEC2211104C01093CF020E947F2080913C
:10583000D90281114CC00E94F306C090D502D090CD
:10584000D602E090D702F090D8026C197D098E093B
:105850009F096536710581059105C8F10E94F3061F
:10586000C090D102D090D202E090D302F090D40246
:105870006C197D098E099F09613177428105910577
:1058800090F08091D002882371F00E94F30660931B
:10589000D1027093D2028093D3029093D4021092DB
:1058A000D0020E94F31A0E94EA1B0E94FC1B0E9475
:1058B000E81C0E94301E0E947F200E94F306609325
:1058C000D5027093D6028093D7029093D802211408
:1058D000310409F479CE0E94000076CEC814D904B0
:1058E000EA04FB040CF04BCF8D859E85AF85B8890B
:1058F000481659066A067B0608F441CFE091D303A7
:10590000F0E0EE0FFF1FED5DFE4F808191812AE0F8
:10591000289F4001299F900C1124B12CA12CC30178
:10592000B201A50194010E94122F61157105810534
:10593000910509F018CF481859086A087B0817CF55
:105940008091D4039091D5038C149D04AE04BF04C0
:1059500074F4891718F48F5F8093D4038091D40373
:10596000981710F49093D4030E94371F3ACFC814AD
:10597000D904EA04FB0494F7882381F38150ECCF27
:105980008091D3038C149D04AE04BF0474F484305E
:1059900018F48F5F8093D3038091D303853008F48C
:1059A00022CF84E08093D3031ECFC814D904EA0425
:1059B000FB0494F7882381F38150ECCF8091090197
:1059C00031E08327809309010CCF80910E018C1464
:1059D0009D04AE04BF0494F4843618F48F5F809362
:1059E0000E0180910E018A3090F090910F0189177D
:1059F00010F08FEF890F80930E01F5CEC814D904F3
:105A0000EA04FB0474F78A3060F38150E8CF8AE03F
:105A1000F2CF80910F018C149D04AE04BF0484F476
:105A2000843618F48F5F80930F0190910E0180915E
:105A30000F01981770F081E0890F80930F01D3CE8A
:105A4000C814D904EA04FB0484F78A3070F3815047
:105A5000EACF843690F383E6F0CF8091D60390911D
:105A6000D703A091D803B091D9038C149D04AE0440
:105A7000BF040CF043C0813744E6940748E0A40714
:105A8000B105A8F4E091D303F0E0EE0FFF1FED5D48
:105A9000FE4F20813181820F931FA11DB11D809384
:105AA000D6039093D703A093D803B093D9038091E2
:105AB000D6039091D703A091D803B091D903813731
:105AC00024E6920728E0A207B10520F080E794E6DB
:105AD000A8E0B0E0803D3DED930736E0A307B105B7
