:1000000009C066C065C064C063C062C061C060C032
:100010005FC05EC011241FBECFE9CDBF10E0A0E6D7
:10002000B0E0E2E6F3E002C005900D92A236B1071F
:10003000D9F701D094C17894BB9887B1836087B910
:1000400086B1876886B97894DBD05C0146E0B694C7
:10005000A7944A95E1F7809160008A15A9F3E5011C
:10006000DD27CED036E0969587953A95E1F7C8170B
:10007000D90751F734D09E012858334F032E000C76
:10008000440B550BCC24CA94E12C10E1F12E00E076
:1000900010E06BE18AE1C9D090E1C92EE12CF12C8E
:1000A0008701E39420E030E0A90168E98AE2BDD04D
:1000B00062ED87EBABD06DE480E1A8D060EA81EB24
:1000C000A5D06EEF83E0A2D00FD0A0926000BCCF8D
:1000D00097CF2F9326E12A95F1F72F910895BA989B
:1000E000B998C298C1980895BA9A0895BA9AF1DF5A
:1000F00013D00895082EBA9AECDF802D0DD08823F6
:1001000011F002D0F8CF0895B99ABA9AE2DFB998FF
:10011000E0DFBA98DEDF08950894881F01C0880FD9
:1001200059F0B99A18F40000BA9802C0BA9A00C0FF
:10013000D0DFB998CEDFF3CFB99ABA98CADFB998B1
:10014000B19BFECF8827B29981E0C3DF992708953C
:100150002F923F924F925F926F927F920F9344241F
:10016000552466247718062E172E282E392E01E2E4
:1001700037942794179407940A9551F020F4420E6F
:10018000531E641E751E7794679457944794F0CF5E
:10019000972D862D752D642D532D422D312D202D1B
:1001A0000F917F906F905F904F903F902F90112410
:1001B00008952F923F920F93332422241124002478
:1001C00001E20894661F771F881F991F0A9549F45A
:1001D000532D422D312D202D0F913F902F90112422
:1001E0000895001C111C221C331C021A130A240A35
:1001F000350A38F7020E131E241E351E8894E2CFEE
:10020000369A3699FECF84B195B10895CF93DF9396
:10021000D82FC62F80EC6EDF8D2F7EDF8C2F7CDFFA
:1002200073DF80E0DF91CF9108952F923F924F923C
:100230005F926F927F928F929F92AF92BF92CF9276
:10024000DF92EF92FF920F931F93CF93DF93CDB77F
:10025000DD27C051CDBF282E362E270138011C2D99
:1002600049015A0127E0880C991CAA1CBB1C2A953D
:10027000D1F7A3019701C501B4019BDF6D837E8394
:100280008F839887CD80DE80EF80F884A701960168
:10029000C301B2015DDF29873A874B875C876D8791
:1002A0007E878F87988B89859A85AB85BC85881AD0
:1002B000990AAA0ABB0A92E0D91AE108F108832D2B
:1002C00090E09695982F882797958795092E000C92
:1002D000AA0BBB0BC80ED91EEA1EFB1E9927872D41
:1002E000762D652D822D92DF642D81E0820D8EDFCB
:1002F0006E2D637082E0820D1F3F09F0612B86DF57
:1003000099278F2D7E2D6D2D83E0820D7FDF6C2D43
:1003100084E0820D7BDF6A2D6F7085E0820D76DFD1
:1003200099278B2D7A2D692D86E0820D6FDF682D40
:1003300087E0820DC05FCDBFDF91CF911F910F91FC
:10034000FF90EF90DF90CF90BF90AF909F908F90F5
:100350007F906F905F904F903F902F9057CFF89481
:02036000FFCFCD
:020362000B008E
:00000001FF
