:1000000009C0A9C0A8C0A7C0A6C0A5C0A4C0A3C05D
:10001000A2C0A1C011241FBECFE9CDBF10E0A0E651
:10002000B0E0EAEFF3E002C005900D92A236B1070E
:10003000D9F720E0A2E6B0E001C01D92A336B207D6
:10004000E1F701D0D8C1CF93DF93CDB7DD27C850FA
:10005000CDBF7894BB9887B1836087B986B1876834
:1000600086B9789410D14C010ED18816990609F002
:100070006FC0809162008F5F809362003401E5E081
:1000800076946794EA95E1F78091600086151704ED
:1000900049F3809162008A3028F39694879496946D
:1000A0008794B12CA12C88E4880E8DED981E82E2F5
:1000B000A81EB11C57D0CC24CA94E12CF12C870186
:1000C000E39420E030E0A90164E18AE1F1D0A501E8
:1000D000940160E373EA82ED9DE1AED0762E298330
:1000E0003A834B835C8369817A818B819C812CE08C
:1000F000660F771F881F991F2A95D1F7A5019401D4
:100100009BD06D837E838F8398872D813E814F8125
:1001100058856CE0220F331F441F551F6A95D1F795
:10012000C12CEE24EA94FE2C0FEF10E0672D8AE23A
:10013000BFD06CE480E1ADD060EA81EBAAD06EEF75
:1001400083E0A7D014D060926000109262008ACF42
:100150001092620093CF54CF2F9326E12A95F1F7A6
:100160002F910895BA98B998C298C1980895BA9AEB
:100170000895BA9AF1DF13D00895082EBA9AECDFE9
:10018000802D0DD0882311F002D0F8CF0895B99AB0
:10019000BA9AE2DFB998E0DFBA98DEDF08950894F2
:1001A000881F01C0880F59F0B99A18F40000BA9856
:1001B00002C0BA9A00C0D0DFB998CEDFF3CFB99AA7
:1001C000BA98CADFB998B19BFECF8827B29981E06F
:1001D000C3DF992708952F923F924F925F926F92BB
:1001E0007F920F934424552466247718062E172EE9
:1001F000282E392E01E237942794179407940A95F4
:1002000051F020F4420E531E641E751E77946794BD
:1002100057944794F0CF972D862D752D642D532D2F
:10022000422D312D202D0F917F906F905F904F9038
:100230003F902F90112408952F923F920F933324D3
:1002400022241124002401E20894661F771F881FCE
:10025000991F0A9549F4532D422D312D202D0F91D0
:100260003F902F9011240895001C111C221C331C58
:10027000021A130A240A350A38F7020E131E241E26
:10028000351E8894E2CF369A3699FECF84B195B167
:100290000895CF93DF93D82FC62F80EC6EDF8D2F7C
:1002A0007EDF8C2F7CDF73DF80E0DF91CF910895BC
:1002B0002F923F924F925F926F927F928F929F9276
:1002C000AF92BF92CF92DF92EF92FF920F931F9364
:1002D000CF93DF93CDB7DD27C051CDBF282E362E6B
:1002E0006701780129013A0187E0440C551C661C1E
:1002F000771C8A95D1F7A8019601C301B2019CDF52
:100300006D837E838F8398878D809E80AF80B88435
:10031000A5019401C801B6015EDF29873A874B87A2
:100320005C876D877E878F87988B89859A85AB855B
:10033000BC85481A590A6A0A7B0AB501A4015250C1
:1003400061097109832D90E09695982F88279795DC
:100350008795092E000CAA0BBB0B4A015B01880E86
:10036000991EAA1EBB1E99278F2D7E2D6D2D822DC5
:1003700090DF6C2D81E0820D8CDF6A2D637082E04E
:10038000820D87DF99278B2D7A2D692D83E0820DD1
:1003900080DF682D84E0820D7CDF5CE0F694E794DA
:1003A000D794C7945A95D1F79C2D907F662D6F7086
:1003B000692B85E0820D6DDF9927872D762D652DC0
:1003C00086E0820D66DF642D87E0820DC05FCDBFC1
:1003D000DF91CF911F910F91FF90EF90DF90CF9021
:1003E000BF90AF909F908F907F906F905F904F9055
:0A03F0003F902F904ECFF894FFCFFE
:0203FA000B00F6
:00000001FF
