:100000000C945C050C94B8230C9490230C948405F8
:100010000C9484050C9484050C9484050C9484053C
:100020000C9484050C9484050C9484050C9484052C
:100030000C9484050C9484050C9484050C9484051C
:100040000C9427220C9484050C94F5210C94CF2158
:100050000C9484050C9484050C9484050C948405FC
:100060000C9471220C948405000103070F1F3F7F3D
:100070000080C0E0F0F8FCFE00000000003E5B4F96
:100080005B3E3E6B4F6B3E1C3E7C3E1C183C7E3CF8
:10009000181C577D571C1C5E7F5E1C00183C180006
:1000A000FFE7C3E7FF0018241800FFE7DBE7FF3096
:1000B000483A060E2629792926407F050507407F04
:1000C00005253F5A3CE73C5A7F3E1C1C08081C1C77
:1000D0003E7F14227F22145F5F005F5F06097F016D
:1000E0007F006689956A606060606094A2FFA29458
:1000F00008047E040810207E201008082A1C080826
:100100001C2A08081E101010100C1E0C1E0C303873
:100110003E3830060E3E0E06000000000000005F74
:1001200000000007000700147F147F14242A7F2A90
:100130001223130864623649562050000807030052
:10014000001C2241000041221C002A1C7F1C2A089E
:10015000083E080800807030000808080808000001
:1001600060600020100804023E5149453E00427F75
:10017000400072494949462141494D331814127FC4
:100180001027454545393C4A494931412111090764
:100190003649494936464949291E000014000000E5
:1001A00040340000000814224114141414140041B7
:1001B00022140802015909063E415D594E7C121174
:1001C000127C7F494949363E414141227F414141AC
:1001D0003E7F494949417F090909013E4141517327
:1001E0007F0808087F00417F41002040413F017F98
:1001F000081422417F404040407F021C027F7F0460
:1002000008107F3E4141413E7F090909063E4151A8
:10021000215E7F09192946264949493203017F0198
:10022000033F4040403F1F2040201F3F4038403F99
:10023000631408146303047804036159494D4300AF
:100240007F4141410204081020004141417F0402E6
:10025000010204404040404000030708002054547D
:1002600078407F284444383844444428384444285B
:100270007F385454541800087E090218A4A49C78AE
:100280007F0804047800447D40002040403D007F0A
:100290001028440000417F40007C047804787C08EA
:1002A0000404783844444438FC18242418182424BE
:1002B00018FC7C08040408485454542404043F44A3
:1002C000243C4040207C1C2040201C3C4030403CD2
:1002D00044281028444C9090907C4464544C440032
:1002E0000836410000007700000041360800020196
:1002F0000204023C2623263C1EA1A161123A404082
:10030000207A3854545559215555794122545478FE
:1003100042215554784020545579400C1E52721297
:100320003955555559395454545939555454580020
:1003300000457C410002457D420001457C407D1224
:1003400011127DF0282528F07C5455450020545486
:100350007C547C0A097F4932494949323A44444431
:100360003A324A4848303A4141217A3A424020786C
:10037000009DA0A07D3D4242423D3D4040403D3C6D
:1003800024FF2424487E4943662B2FFC2F2BFF0992
:1003900029F620C0887E0903205454794100004486
:1003A0007D413048484A32384040227A007A0A0A71
:1003B000727D0D19317D2629292F282629292926E4
:1003C00030484D4020380808080808080808382F29
:1003D00010C8ACBA2F102834FA00007B00000814B3
:1003E0002A142222142A14085500550055AA55AA89
:1003F00055AAFF55FF55FF000000FF00101010FF29
:1004000000141414FF001010FF00FF1010F010F083
:10041000141414FC001414F700FF0000FF00FF1474
:1004200014F404FC141417101F10101F101F1414C0
:10043000141F00101010F0000000001F101010100A
:100440001F10101010F010000000FF1010101010FE
:1004500010101010FF10000000FF140000FF00FF3C
:1004600000001F10170000FC04F4141417101714D8
:1004700014F404F40000FF00F714141414141414FA
:10048000F700F7141414171410101F101F1414146D
:10049000F4141010F010F000001F101F0000001FD7
:1004A00014000000FC140000F010F01010FF10FF0A
:1004B000141414FF141010101F00000000F010FF9F
:1004C000FFFFFFFFF0F0F0F0F0FFFFFF0000000083
:1004D00000FFFF0F0F0F0F0F3844443844FC4A4A07
:1004E0004A347E02020606027E027E0263554941BC
:1004F000633844443C04407E201E2006027E0202F3
:1005000099A5E7A5991C2A492A1C4C7201724C3006
:100510004A4D4D303048784830BC625A463D3E49DD
:100520004949007E0101017E2A2A2A2A2A44445F81
:10053000444440514A444040444A51400000FF0175
:1005400003E080FF000008086B6B08361236243683
:10055000060F090F060000181800000010100030E8
:1005600040FF0101001F01011E00191D1712003C70
:100570003C3C3C0000000000005EBCE2613FDD83CB
:10058000C29C7E20A3FD1F41009D23BE46DB65F873
:100590008C11AF32CA57E974000000080002010054
:1005A000000304070000000000000000000000003D
:1005B000240027002A00DB40A4A62EAFDA0281DA4D
:1005C0001281DA02818F2000A1C8D300408DAED500
:1005D00080A800000000250028002B00000060001B
:1005E00000000000000000000000000000E000002B
:1005F000000000000000000000000001E00000001A
:100600000000000000000000000001F000000000F9
:1006100000000000000000000003F00000000000E7
:10062000000000000000000007F0000000000000D3
:100630000000000000000007F800000000000000BB
:100640000000000000000FF800000003C0007E0062
:100650000001E0007F0FF800000003C000FE000072
:1006600001E000FFEFF800000003C000FE00000101
:10067000E000FFFFF800000003C000F00000000FE2
:10068000007FFE7FC0000003C000F00000000F00EC
:100690003FFE7FF83FF1FBCFFCFEF3BC3DEFE01FD8
:1006A000FE7FFF7FFBFFDFFEFEFFBC3DEFE01FC6CE
:1006B000FFFF7FFBFFDFFEFEFFBC3DEFE00FE3C768
:1006C000FE787BC3DE1EF0FFBC3DEF0007FF87FC1A
:1006D000787BC3DE1EF0F83C3DEF0001FFFFF00029
:1006E0007BC3C01EF0F03C3DEF0001F37FE03FFB19
:1006F000C3CFFEF0F03C3DEF0003E33F807FFBC340
:10070000DFFEF0F03C3DEF0007E73C00787BC3DE06
:100710001EF0F03C3DEF0007FFBE00787BC3DE1EFD
:10072000F0F03C3DEF0007FFFE00787BC3DE1EF0DB
:10073000F03C3DEF000FFFFE007FFBFFDFFEF0F01F
:100740003FFDEFE00FFFFF007FFBFFDFFEF0F03F1C
:10075000FDEFE00FF9FF003E79F9CF9EF0F01F3D6D
:10076000E7E01FF1FF0000000000000000000000B3
:10077000001F80FF007FFFFFFFFFFFFFFFFFFFE085
:100780001C007F007FFFFFFFFEB46D888D18E00026
:10079000001F007FFFFFFFFE95AD7DB577E00000F5
:1007A0000F007FFFFFFFFEA5AD9D8D19E000000645
:1007B000007FFFFFFFFEB5ADEDB57EE0000000005D
:1007C0000001800000000000000000000380000025
:1007D0000000000000000007C00000000000000052
:1007E000000007C00000000000000000000FC00073
:1007F00000000000000000001FE0000000000000FA
:100800000000001FE00000000000000000003FE0CA
:100810000000000000000000003FF00000000000A9
:10082000000000007FF0000000000000001FF87FC3
:10083000F0000000000000003FFE7FF0000000001C
:100840000000003FFF7FF0000000000000001FFFDD
:10085000FBE0000000000000000FFFF9FFC00000F7
:10086000000000000FFFF9FFF80000000000000783
:10087000FFF1FFFF00000000000003FC73FFFF809A
:10088000000000000001FE3FFFFF800000000000AC
:1008900000FF1E0FFF000000000000007FFE1FFC95
:1008A000000000000000003FFFFFF8000000000013
:1008B00000000FDFFFE0000000000000001F19FF34
:1008C000C0000000000000003F3CFF0000000000EE
:1008D0000000007E7CF800000000000000007FFEA9
:1008E0007C0000000000000000FFFFFC0000000092
:1008F00000000000FFFFFE0000000000000000FFFD
:10090000FFFE0000000000000001FFEFFE000000FD
:100910000000000001FFCFFE000000000000000307
:10092000FF07FE0000000000000003FC07FE0000BF
:10093000000000000003F003FE00000000000000C3
:10094000018000FE000000000000000000007E00AA
:100950000000000000000000003E00000000000059
:10096000000000000C000000000000078000FC00F8
:100970000003C0000000078001FC000003C000006D
:1009800000078001FC000003C0000000078001E0B8
:100990000000001E000000078001E00000001E00B3
:1009A0007FE3F79FF9FDE7787BDFC0FFF7FFBFFD2F
:1009B000FDFF787BDFC0FFF7FFBFFDFDFF787BDF2A
:1009C000C0F0F787BC3DE1FF787BDE00F0F787BC25
:1009D0003DE1F0787BDE0000F787803DE1E0787B49
:1009E000DE007FF7879FFDE1E0787BDE00FFF78781
:1009F000BFFDE1E0787BDE00F0F787BC3DE1E07809
:100A00007BDE00F0F787BC3DE1E0787BDE00F0F7AD
:100A100087BC3DE1E0787BDE00FFF7FFBFFDE1E052
:100A20007FFBDFC0FFF7FFBFFDE1E07FFBDFC07CA6
:100A3000F3F39F3DE1E03E7BCFC0000000000000EB
:100A40000000000000FFFFFFFFFFFFFFFFFFFFC0F0
:100A5000FFFFFFFFFD68DB111A31C0FFFFFFFFFD45
:100A60002B5AFB6AEFC0FFFFFFFFFD4B5B3B1A33C6
:100A7000C0FFFFFFFFFD6B5BDB6AFDC02200FF21B3
:100A80000001020408102040800102040810200127
:100A900002040810200000000023002600290004A2
:100AA0000404040404040402020202020203030315
:100AB00003030300E0234A2D11241FBECFEFD8E02B
:100AC000DEBFCDBF12E0A0E0B1E0E4E3F4E602C097
:100AD00005900D92A031B107D9F724E0A0E1B2E072
:100AE00001C01D92A433B207E1F715E0CBE5D5E0D4
:100AF00004C02197FE010E942030CA35D107C9F7F2
:100B00000E9490250C940D320C94000091E090937B
:100B1000F7028093F6021092F5021092F402089503
:100B20009091EB029111FCCF91E09093EB029093A6
:100B3000EA022FEF2093E9021092E802260F209399
:100B4000E7029093E6029091E602880F892B80934A
:100B5000E6028091E5028130F9F41092E50280917D
:100B6000E6028093BB008091BC0083FDF8CF85EC4A
:100B70008093BC008091EB028130E1F38091E80228
:100B8000861710F46091E802A5ECB2E0E5EAF2E025
:100B900080E0861303C0089585EEEACF9D9191937E
:100BA0008F5FF7CF8091A3029091A402891B990BCC
:100BB0000895089508950895AF92BF92CF92DF925D
:100BC000EF92FF920F931F93CF93DF936C017B0102
:100BD0008B01040F151FEB015E01AE18BF08C01793
:100BE000D10759F06991D601ED91FC910190F08106
:100BF000E02DC6010995892B79F7C501DF91CF91C9
:100C00001F910F91FF90EF90DF90CF90BF90AF902A
:100C10000895FC01538D448D252F30E0842F90E002
:100C2000821B930B541710F0CF96089501970895E7
:100C3000FC01918D828D981761F0A28DAE0FBF2FB0
:100C4000B11D5D968C91928D9F5F9F73928F90E006
:100C500008958FEF9FEF0895FC01918D828D981775
:100C600031F0828DE80FF11D858D90E008958FEFB2
:100C70009FEF0895FC01918D228D892F90E0805C7B
:100C80009F4F821B91098F739927089588EF92E0F7
:100C90000E943A0621E0892B09F420E0822F089572
:100CA00080E090E0892B29F00E94460681110C9487
:100CB00000000895FC01A48DA80FB92FB11DA35AFF
:100CC000BF4F2C91848D90E001968F739927848F6C
:100CD000A689B7892C93A089B1898C91837080648F
:100CE0008C93938D848D981306C00288F389E02D30
:100CF00080818F7D80830895EF92FF920F931F93E1
:100D0000CF93DF93EC0181E0888F9B8D8C8D9813BE
:100D10001AC0E889F989808185FF15C09FB7F894CA
:100D2000EE89FF896083E889F98980818370806416
:100D300080839FBF81E090E0DF91CF911F910F9161
:100D4000FF90EF900895F62E0B8D10E00F5F1F4F70
:100D50000F731127E02E8C8D8E110CC00FB607FC7F
:100D6000FACFE889F989808185FFF5CFCE010E940D
:100D70005A06F1CFEB8DEC0FFD2FF11DE35AFF4F1B
:100D8000F0829FB7F8940B8FEA89FB89808180629B
:100D9000CFCFCF93DF93EC01888D8823B9F0AA8958
:100DA000BB89E889F9898C9185FD03C0808186FD26
:100DB0000DC00FB607FCF7CF8C9185FFF2CF808175
:100DC00085FFEDCFCE010E945A06E9CFDF91CF918A
:100DD0000895833081F028F4813099F08230A9F0B1
:100DE00008958730A9F08830C9F08430B1F480913B
:100DF00080008F7D03C0809180008F77809380007A
:100E0000089584B58F7784BD089584B58F7DFBCF19
:100E10008091B0008F778093B00008958091B000EA
:100E20008F7DF9CFCF93DF93282F30E0F901E8567B
:100E3000FA4F8491F901EF57F54FD491F901E1563A
:100E4000F54FC491CC23A1F081110E94E906EC2F4B
:100E5000F0E0EE0FFF1FEB56F54FA591B491EC912A
:100E6000ED2381E090E009F480E0DF91CF910895D7
:100E700080E090E0FACF1F93CF93DF93282F30E0EC
:100E8000F901E856FA4F8491F901EF57F54FD491E3
:100E9000F901E156F54FC491CC23A9F0162F811129
:100EA0000E94E906EC2FF0E0EE0FFF1FEE52FA4F22
:100EB000A591B4918FB7F894EC91111108C0D09519
:100EC000DE23DC938FBFDF91CF911F910895DE2B3E
:100ED000F8CF1092A4021092A3021092F502109281
:100EE000F4021092EB0281E08093EA021092E50294
:100EF00061E082E10E943B0761E083E10E943B07E1
:100F0000E9EBF0E080818E7F808380818D7F80831C
:100F100088E48093B80085E48093BC0089ED95E077
:100F20009093A2028093A1028AED95E09093A00293
:100F300080939F020895CF93DF9390E0FC01EF57D9
:100F4000F54F24918156954FFC0184918823C9F077
:100F500090E0880F991FFC01E455FA4FA591B491D8
:100F6000FC01EE52FA4FC591D49161110DC09FB7AB
:100F7000F8948C91209582238C9388812823288350
:100F80009FBFDF91CF910895623051F49FB7F894DD
:100F90003C91822F809583238C93E8812E2BEFCF79
:100FA0008FB7F894EC912E2B2C938FBFEACF209122
:100FB000000190E4299F900111248E50822B809390
:100FC0007C0080917A00806480937A0080917A001E
:100FD00086FDFCCF809178009091790008953FB70D
:100FE000F8948091840290918502A0918602B0913C
:100FF000870226B5A89B05C02F3F19F00196A11DB9
:10100000B11D3FBFBA2FA92F982F8827BC01CD0152
:10101000620F711D811D911D42E0660F771F881FB1
:10102000991F4A95D1F708958F929F92AF92BF92E0
:10103000CF92DF92EF92FF926B017C010E94EF074B
:101040004B015C01C114D104E104F104B9F00E9428
:10105000EF07681979098A099B09683E7340810581
:10106000910580F321E0C21AD108E108F10888EE69
:10107000880E83E0981EA11CB11CE4CFFF90EF9076
:10108000DF90CF90BF90AF909F908F9008952FB733
:10109000F894609180027091810280918202909117
:1010A00083022FBF0895DC0180E0615090F09D9194
:1010B0009827E92FEF70F0E0E858FA4F2491E92FD4
:1010C000E295EF70F0E0E857FA4FE491822F8E2717
:1010D000ECCF0895DC012C911196ED91FC91F894E0
:1010E0008181822B81839281322F30959323928349
:1010F00087E090E00197F1F781818323818383E288
:1011000090E00197F1F790817894EFECF0E031975F
:10111000F1F7922381E009F480E00895FC019081C9
:101120000180F281E02D292F209560FF14C0F894F2
:101130008281822382838181892B8183A3E2B0E033
:101140001197F1F78281982B9283789487ED90E044
:101150000197F1F70895F894828182238283818137
:10116000892B8183AFEFB0E01197F1F78281982B43
:10117000928378948FE090E0EBCFDF92EF92FF9232
:101180000F931F93CF93DF93EC01D62EE42E08E04C
:1011900010E0FF24F39461E08D2D8F2109F460E0CD
:1011A000CE010E948E08FF0C01501109A1F7E11039
:1011B00010C0F894E981FA81918188818095892312
:1011C0008183E981FA819281888180958923828354
:1011D0007894DF91CF911F910F91FF90EF90DF9066
:1011E0000895EF92FF920F931F93CF93DF938C019B
:1011F0007B0140E065E50E94BD08E70188E0E80E5C
:10120000F11C699140E0C8010E94BD08CE15DF05C0
:10121000C1F7DF91CF911F910F91FF90EF9008954B
:10122000FC0190810180F281E02DF8948181292FC9
:1012300020958223818378943DE743E050E031504C
:1012400029F1DA011197F1F780818923C1F3F8942C
:101250008281822382838181892B81837894ABE789
:10126000B7E01197F1F7F894818182238183A3E19C
:10127000B1E01197F1F78081982381E009F080E0D7
:101280007894E3E6F6E03197F1F7089580E0089569
:10129000AF92BF92CF92DF92EF92FF920F931F9384
:1012A000CF93DF938B01BC018091AB039091AC0392
:1012B0000E94F10840E06EEB8091AB039091AC038B
:1012C0000E94BD08E801680189E0C80ED11CA09009
:1012D000AB03B090AC0388E0E82EF12C10E001E005
:1012E000C5010E946A088111102B000F81E0E81AE5
:1012F000F108B1F71993CC16DD0649F78091AB03DD
:101300009091AC030E94100991E0813009F090E0C7
:10131000892FDF91CF911F910F91FF90EF90DF9078
:10132000CF90BF90AF9008950F931F93CF93DF930B
:10133000CDB7DEB729970FB6F894DEBF0FBECDBF8D
:101340008C018091AB039091AC030E941009811134
:1013500002C080E01FC0BE016F5F7F4FC8010E94C6
:1013600048098823B1F368E0CE0101960E94530832
:1013700099858913EECF8D818F33B9F020F48F31A9
:1013800041F789E007C08F3521F08F3711F78CE0E6
:1013900001C08BE029960FB6F894DEBF0FBECDBF1B
:1013A000DF91CF911F910F9108958AE0F3CF0895B7
:1013B000FC016370668B8481958126813781613061
:1013C00039F0633029F09187808733872287089529
:1013D000318720879387828708952F923F924F927B
:1013E0005F926F927F928F929F92AF92BF92CF92B5
:1013F000DF92EF92FF920F931F93CF93DF93CDB7BE
:10140000DEB76A970FB6F894DEBF0FBECDBF9A8FD6
:10141000898F7A8369834A01D22E18870F83370117
:10142000BC2CDC0159962D913C915A972115310520
:1014300009F015C118968D919C9119976817790735
:101440000CF0D7C11A968D919C91481759070CF052
:10145000D0C14C2C512CB6E0CB9E600D711D1124D7
:101460007C876B87161617060CF0C3C1EA2DF0E0D7
:10147000FA87E98793E0EE0FFF1F9A95E1F7F88B63
:10148000EF87CF01840F951F181619060CF0B1C114
:10149000A98DBA8D58968C91811104C0BFEABD15F3
:1014A00008F4D394A98DBA8DED91FC911197028423
:1014B000F385E02DCD010995B5E0DB9EC001112437
:1014C000E981FA81FC83EB83312C212C9C01285883
:1014D0003F4F388F2F8B4A2D50E05E8B4D8BEF891D
:1014E000F88DE20DF31D44919E828D82D12CC12C8A
:1014F00069817A81620D731D7A8B698B842F90E0EC
:101500009C8B8B8BE98DFA8DA081B18140FF82C0CD
:10151000F1E0BF126FC0AF126DC01C96ED91FC914F
:101520002F813885A4014C0D5D1D69897A89898DCB
:101530009A8D0995EB89FC89F595E7954E2F5FEF1C
:10154000C51AD50A6D817E818D899E89680F791FA4
:101550007E836D8398E0C916D10481F6AFEF2A1A15
:101560003A0AEB81FC81E40DF51DFC83EB83F5E089
:101570002F16310409F0B3CF2F8138852615370592
:10158000B9F0A98DBA8DED91FC91B1E0BB1257C0B5
:10159000AB1255C069817A816B5F7F4F0088F189FA
:1015A000E02D830128E030E0A401898D9A8D099512
:1015B000A98DBA8DED91FC9111970688F789E02DE0
:1015C000CD016A960FB6F894DEBF0FBECDBFDF9196
:1015D000CF911F910F91FF90EF90DF90CF90BF9030
:1015E000AF909F908F907F906F905F904F903F90C3
:1015F0002F9009941E96ED91FC91EF80F884098557
:101600001A8592014D815E816B817C81898D9A8DD5
:10161000099590CF2F8138852615370509F48ACF93
:1016200031E0B31207C0A31205C01C96ED91FC91E6
:10163000930178CF1E96ED91FC917301E0CF6B85FD
:101640007C85641975090684F785E02D73010F8583
:1016500018899201A401898D9A8D0995A9CFF90164
:1016600034969491329745915491D91AB7E0DB9E04
:10167000400D511D1124F901259134913C8B2B8B88
:10168000FA0125903490FA01329674903196349193
:10169000398B329664903196449041E04C1518F0A5
:1016A0004A1508F07FC0662D062C000C770B7C8352
:1016B0006B83842D042C000C990B9E838D83A98D44
:1016C000BA8DED91FC9111970284F385E02DCD0147
:1016D0000995512CD12CC12CEA2DF0E0FA87E9872D
:1016E0002B2D30E03C872B87A401440D511D47FC76
:1016F0005A95588F4F8B69817A81660D711D67FCF1
:101700007A957E876D877989C71608F051CF2C2D81
:1017100030E04D815E81420F531FA985BA854A9FF3
:10172000C0014B9F900D5A9F900D1124FC01E80DB4
:10173000F91DF88BEF87852D612C4F89588D420F4D
:10174000531F5E8B4D8B671408F050C044244394A4
:10175000480E877041F4C1010196EB89FC89E20DC6
:10176000F31DD4901C01D7FE19C0A98DBA8DED913F
:10177000FC91662D70E0B1E0BB1219C0AB1217C02E
:101780002D853E85620F731F0484F585E02D2F8122
:1017900038854D895E89898D9A8D0995DD0C639414
:1017A000842DD1CF1E821D821C821B8288CF4B814B
:1017B0005C81640F751FAB85BC856A9FC0016B9F00
:1017C000900D7A9F900D112469817A81680F791F9D
:1017D0000684F785E02DEF80F88409851A859D0140
:1017E0004F855889898D9A8D0995D8CF570CC39408
:1017F0008ACF6A960FB6F894DEBF0FBECDBFDF91D9
:10180000CF911F910F91FF90EF90DF90CF90BF90FD
:10181000AF909F908F907F906F905F904F903F9090
:101820002F9008958F929F92AF92CF92EF92FF9256
:101830000F931F93CF93DF93EC01262F898D9A8D01
:10184000009709F051C06A30D1F41D861C868D893D
:1018500048E0849F900111248E859F85820F931FFD
:101860009F878E8781E090E0DF91CF911F910F914C
:10187000FF90EF90CF90AF909F908F9008956D3034
:1018800089F3CC88AD888F898823C1F08C859D85AC
:1018900036E0C39E800D911D112448855985481757
:1018A000590764F44E855F851D861C8638E0A39E2B
:1018B000C0011124840F951F9F878E87EA88FB88BB
:1018C000088919894E855F856C857D85CE010E94CA
:1018D000ED092C898C859D8546E0249F800D911D06
:1018E00011249D878C87BECF6A3069F41D861C86C3
:1018F000FC013696E4912D898E859F85E29F800DAF
:10190000911D1124ADCF6D3009F4ACCFFC0134969C
:101910003491631708F4A6CF3196E491E61708F4E2
:10192000A1CFFC01329685909490462F431B342F13
:1019300047E0349F800C911C1124F40132963491BD
:101940003196E4913323A9F1EE2399F1CC88F40187
:101950003596E491AD884F89442301F10E2E000C99
:10196000FF0BE30FF11DCE9EA001CF9E500D112461
:101970006C857D85460F571F6885798564177507C7
:101980006CF44E855F851D861C86FC013696E491BD
:10199000AE9E400D511D11245F874E87EA88FB885B
:1019A000088919894E855F856C857D85CE010E94E9
:1019B000ED09F4013496E4912C898C859D85E29F94
:1019C000800D911D11248DCF6F927F928F929F92E7
:1019D000AF92BF92CF92DF92EF92FF920F931F933D
:1019E000CF93DF93EC016B015A0139014801E88183
:1019F000F9810284F385E02D0995E881F981028857
:101A0000F389E02D87019301A501B601CE01099567
:101A1000A501480D591D41505109E881F9810288FD
:101A2000F389E02D9301B601CE010995E881F98192
:101A30000088F189E02D9401A501B601CE01099538
:101A4000C60CD71CB60161507109E881F981008884
:101A5000F189E02D9401A501CE010995E881F98174
:101A60000688F789E02DCE01DF91CF911F910F916C
:101A7000FF90EF90DF90CF90BF90AF909F908F90AE
:101A80007F906F9009946F927F928F929F92AF9206
:101A9000BF92CF92DF92EF92FF920F931F93CF935B
:101AA000DF935C01EB016A01490138018701DC0128
:101AB000ED91FC916217730719F5641675062CF009
:101AC000962D872D3A01C92ED82E96012619370951
:101AD0002F5F3F4F048CF58DE02DA301BE01C501A2
:101AE0000995DF91CF911F910F91FF90EF90DF90BB
:101AF000CF90BF90AF909F908F907F906F90089500
:101B00004615570591F42617370724F0892D4B0108
:101B1000C22FD82F9E01281939092F5F3F4F068CFD
:101B2000F78DE02DA601B401DACF0284F385E02D14
:101B30000995D501ED91FC910488F589E02D83018B
:101B40009401A601BE01C5010995D501ED91FC9155
:101B50000688F789E02DC501DF91CF911F910F9184
:101B6000FF90EF90DF90CF90BF90AF909F908F90BD
:101B70007F906F900994EF92FF920F931F93DC0177
:101B80001A960D911C911B9718962D913C911997BF
:101B9000ED91FC9100A0F1A1E02D7B0150E040E02F
:101BA00070E060E009951F910F91FF90EF9008950C
:101BB0004F925F926F927F928F929F92AF92BF925D
:101BC000CF92DF92EF92FF920F931F93CF93DF9309
:101BD0006C012B015A0139014801DC01ED91FC91A6
:101BE0000284F385E02D0995E201640C751CD60191
:101BF000ED91FC91C615D7055CF40088F189E02DC4
:101C000087019401A501BE01C60109952196EFCF78
:101C10000688F789E02DC601DF91CF911F910F91C2
:101C2000FF90EF90DF90CF90BF90AF909F908F90FC
:101C30007F906F905F904F9009948F929F92AF9298
:101C4000BF92CF92DF92EF92FF920F931F93CF93A9
:101C5000DF93EC015B014A016901E881F9810284AB
:101C6000F385E02D099595012C0D3D1D215031097D
:101C7000E881F9810488F589E02D78018401A401C7
:101C8000B501CE010995E881F9810688F789E02D33
:101C9000CE01DF91CF911F910F91FF90EF90DF90D8
:101CA000CF90BF90AF909F908F9009948F929F920A
:101CB000AF92BF92CF92DF92EF92FF920F931F935A
:101CC000CF93DF93EC015B014A0169017801E88160
:101CD000F9810284F385E02D0995C80CD91C860191
:101CE00001501109E881F9810488F589E02D9501F9
:101CF000A401B501CE010995E881F9810688F7892B
:101D0000E02DCE01DF91CF911F910F91FF90EF90C9
:101D1000DF90CF90BF90AF909F908F900994EF92FB
:101D2000FF920F931F93DC01ED91FC9100A0F1A1B4
:101D3000E02D09951F910F91FF90EF9008950F935B
:101D40001F93DC01ED91FC91068CF78DE02D099538
:101D50001F910F9108950F931F93DC01ED91FC915A
:101D6000048CF58DE02D09951F910F910895DC01EC
:101D7000ED91FC910084F185E02D09943F924F9202
:101D80005F926F927F928F929F92AF92BF92CF920B
:101D9000DF92EF92FF920F931F93CF93DF935C013B
:101DA0007B014A016901390187E0680E711C93E0EB
:101DB000759467949A95E1F72B01400E511E10E03F
:101DC00000E0312CD0E0C0E0CE0187709927330CC1
:101DD000892B59F4FE0183E0F595E7958A95E1F7A3
:101DE000E00FF11FE80DF91D349037FE0AC021E025
:101DF00030E0A701B5016C0F7D1F87EC93E00E94D6
:101E0000B70E2196CC16DD06F9F68FEFE81AF80A20
:101E1000060D171DE414F504A9F6DF91CF911F916B
:101E20000F91FF90EF90DF90CF90BF90AF909F9079
:101E30008F907F906F905F904F903F9008952F927A
:101E40003F924F925F926F927F928F929F92AF924A
:101E5000BF92CF92DF92EF92FF920F931F93CF9397
:101E6000DF9300D000D000D0CDB7DEB73C016A01CF
:101E70003E832D83FC82EB825801A41AB50AB7FE7B
:101E800003C0B194A194B1088D809E80861A970AF0
:101E900097FE03C09194819491088A149B045CF08E
:101EA000902F812F0D811E819D838E839C2D8D2DE2
:101EB0006B01692F782F0C151D055CF09D818E81BB
:101EC0007E836D83692F782F902F812F8601C92EF5
:101ED000D82E1601201A310A2B012D813E81421A7B
:101EE000530A57FE03C0519441945108710137FEC3
:101EF00003C03FEFE31AF30AF594E7948D819E81C6
:101F0000861797075CF5A1E0B0E0BA83A983C016F5
:101F1000D1064CF1D301ED91FC910484F585E02DBF
:101F20002B813C81A8016D817E818A149B041CF069
:101F30004D815E81B801C3010995E418F508F7FEEB
:101F40000AC02D813E8189819A81280F391F3E83E5
:101F50002D83E20CF31C0F5F1F4FD9CF2FEF3FEF04
:101F60003A832983D4CF26960FB6F894DEBF0FBEEE
:101F7000CDBFDF91CF911F910F91FF90EF90DF9038
:101F8000CF90BF90AF909F908F907F906F905F9019
:101F90004F903F902F90089585ED8093BC008091E5
:101FA000BC0084FDFCCF1092EB02089520915C02EE
:101FB000260F3327331F21323105ECF42091EB0239
:101FC000FC0190E080E0243069F082E00895A09167
:101FD0005C022191AC01445C5D4FA40FB52FB11D93
:101FE0002C930196861798F380915C02680F60939A
:101FF0005C0280E0089581E00895E091A402809160
:10200000A302E81730F4F0E0EB55FD4F808190E03B
:1020100008958FEF9FEF08959091A4028091A302FD
:102020002FEF3FEF981748F4E92FF0E0EB55FD4F05
:10203000208130E09F5F9093A402C9010895CF9260
:10204000DF92EF92FF920F931F93CF93DF937C0168
:10205000CB018A012091F702222389F0EB016B0169
:10206000C40ED51ECC15DD0569F06991D701ED913F
:10207000FC910190F081E02DC7010995F3CF642F09
:102080000E94D60FC801DF91CF911F910F91FF9051
:10209000EF90DF90CF900895CF93DF931F92CDB74D
:1020A000DEB769832091F7022223F9F02091F40230
:1020B000203258F021E030E0FC013383228390E0AD
:1020C00080E00F90DF91CF9108958091F502E82F85
:1020D000F0E0E45EFD4F998190838F5F8093F5027D
:1020E0008093F40281E090E0ECCF61E0CE010196B4
:1020F0000E94D60FF7CF682F85E993E00C944C101F
:102100002091F40281E0213208F044C08091EB027A
:102110008111FCCF8091F60292E09093EB0291E066
:102120009093EA029FEF9093E9021092E8022093C5
:10213000E702ACE1B2E0E5ECF2E090E0291331C057
:102140001092E6029091E602880F892B8093E602B6
:102150008091E502813049F51092E5028091E60216
:102160008093BB008091BC0083FDF8CF85EC809309
:10217000BC008091EB028230E1F38091E9028F3F55
:10218000B1F08091E9028032A1F08091E9028033C0
:1021900091F084E01092F5021092F4021092F7028E
:1021A00008953D9131939F5FC9CF85EEE0CF80E0E8
:1021B000F1CF82E0EFCF83E0EDCFCF9388E60E94AE
:1021C000860560E085E993E00E944C1060E885E9AF
:1021D00093E00E944C108091ED02CAE06C2F0E94A7
:1021E00000308295807F682F690F85E993E00E9417
:1021F0004C108091EE026C2F0E9400308295807FFF
:10220000682F690F85E993E00E944C108091EF02DE
:102210006C2F0E9400308295807F682F690F85E9BE
:1022200093E00E944C108091F0026C2F0E940030CD
:102230008295807F682F690F85E993E00E944C109A
:102240008091F1026C2F0E9400308295807F682F70
:10225000690F85E993E00E944C108091F2028E5143
:102260006C2F0E9400308295807F682F690F85E96E
:1022700093E00E944C1085E993E00E94801088232F
:1022800029F01092F30280E0CF91089581E08093CD
:10229000F30288E60E94860560E085E993E00E94EB
:1022A0004C108091EC026C2F0E9400308295807F50
:1022B000682F690F85E993E00E944C1085E993E04F
:1022C0000E9480108111DDCF81E0DECFAF92BF92FE
:1022D000DF92EF92FF920F931F93CF93DF938B01C7
:1022E000040F151FEB015C01A61AB70A7501EC0E6D
:1022F000FD1ED99080912F040E9486058F2D90E0BD
:102300000E947B10C70199270E947B106D2D85E9E3
:1023100093E00E944C1085E993E00E9480106AE0EF
:1023200070E080E090E00E941408C017D107F1F639
:10233000DF91CF911F910F91FF90EF90DF90BF90B1
:10234000AF900895EF92FF920F931F93CF93DF9377
:10235000EC01EC80FD806E157F050CF070C057FF1E
:1023600004C0240F351F50E040E08E819F81FA01A8
:10237000E20FF31F8E179F071CF49C01241B350BE3
:10238000121613060CF05BC0922F842F869586954B
:1023900086958E9DD0018F9DB00D11246A0F7B1FF5
:1023A000AF8DB8A1A60FB71F477049F188E0841B15
:1023B000482F682F70E0FB01E059FF4FE491281788
:1023C00008F063C0621B71092FEF30E002C0359541
:1023D00027956A95E2F7E2230130110539F0B0F153
:1023E0000230110561F58C91E82702C08C91E82B31
:1023F000EC93941720F12C813D81A20FB31FE92F9C
:10240000E41BE83078F00230110521F58E2F9C9105
:1024100090959C932C813D81A20FB31F88508830EA
:10242000B0F7E770EE2359F0F0E0E859FF4FE49180
:1024300001301105F9F010F10230110519F1DF91A9
:10244000CF911F910F91FF90EF900895E0958C919F
:10245000E823CECF81E00115110509F480E08195D4
:102460009E2F8C932C813D81A20FB31F98509830E2
:10247000C0F7D7CF8C91E82BEC93E1CFE0958C910E
:10248000E823FACF8C91E827F7CF0130110509F442
:10249000ADCFE0F20230110509F4A5CFAE0DBF1D9E
:1024A000AECF0F931F93CF93DF9377FF04C0260F18
:1024B000371F70E060E0DC011496CD91DC91FB01E8
:1024C000E20FF31FCE17DF071CF49E01261B370B0C
:1024D000121613064CF5FA0157FD3796A3E0F59551
:1024E000E795AA95E1F7EC9FD001ED9FB00DFC9F19
:1024F000B00D11246A0F7B1FDC015F96ED91FC91FA
:10250000E60FF71F4770552781E090E001C0880F64
:102510004A95EAF7482F0130110559F0A8F02E0F1F
:102520003F1F02301105E1F0DF91CF911F910F9114
:1025300008952E0F3F1FE217F307B1F38191DF01DA
:102540001197842B8C93F7CF80952E0F3F1FE217A6
:10255000F30751F39191DF01119798239C93F7CFE3
:10256000E217F30709F38191DF01119784278C9318
:10257000F7CF0F931F93FA01DC0156964C915697B3
:102580004230E9F04330A1F1413061F514964D91AC
:102590005C91DA01AE1BBF0BFD01E21BF30B77FD73
:1025A0000BC0DC0116964D915C916417750724F4FD
:1025B000AB01BF010E9451121F910F910895149613
:1025C0004D915C91DA01A61BB70BBD0161507109F9
:1025D000DC0116964D915C91DA01AE1BBF0BFD013B
:1025E000E21BF30B77FDE8CFAF010E94A211E4CF0D
:1025F00016964D915C91DA01A61BB70BBD01615097
:102600007109CDCF0F931F93FA01DC0156964C91BF
:1026100056974230A9F0433091F1413019F51496A4
:102620004D915C91DA01AE1BBF0BFD013197F7FDB7
:1026300004C0AB01BF010E94A2111F910F91089528
:1026400014964D915C91DA01A61BB70BBD01DC011C
:1026500016964D915C91DA01AE1BBF0BFD013197CF
:10266000621B730BF7FDE9CFDC0116964D915C916F
:10267000E417F50714F7AF010E945112DECF16964A
:102680004D915C91DA01A61BB70BBD01621B730B68
:10269000CECFFC0177FD64C08085918568177907EE
:1026A0000CF05EC057FD5CC08285938548175907C2
:1026B0000CF056C086898230B1F0833029F1813028
:1026C00041F484819581841B950BAB01BC01615061
:1026D00071092130310509F108F443C02230310578
:1026E00009F463C0089584819581DC01A61BB70BB2
:1026F000BD016150710986819781DC01A41BB50B76
:10270000AD0141505109E5CF86819781861B970B1A
:10271000BA01AC0141505109DCCFCA0157FD0796FF
:10272000A3E095958795AA95E1F7A481B5818A9F45
:1027300090018B9F300D9A9F300D1124620F731FF3
:10274000078CF0A1E02DE60FF71F4770552721E019
:1027500030E001C0220F4A95EAF78081822B808306
:102760000895CA0157FD079633E0959587953A95E8
:10277000E1F7A481B5818A9F90018B9F300D9A9FCC
:10278000300D1124620F731F078CF0A1E02DE60FAE
:10279000F71F4770552781E090E001C0880F4A95E8
:1027A000EAF7809590818923DACFCA0157FD079611
:1027B00023E0959587952A95E1F7A481B5818A9FB5
:1027C00090018B9F300D9A9F300D1124620F731F63
:1027D000078CF0A1E02DE60FF71F4770552721E089
:1027E00030E001C0220F4A95EAF780818227B7CFF7
:1027F00008958EBD00000DB407FEFDCF8EB508957F
:10280000FF920F931F93CF93DF93F82ED92FC62FEC
:102810008091E4039091E503892B09F447C08091EE
:10282000E8030E9486058091E4039091E503DC01B2
:10283000ED91FC910190F081E02D60E009950F2D64
:102840001D2FD1E0C1508091E4039091E503CF3F6B
:1028500031F1D03298F00E9480108091E8030E94FC
:1028600086058091E4039091E503DC01ED91FC91F4
:102870000190F081E02D60E00995D1E08091E403C2
:102880009091E503F8016491DC01ED91FC910190D8
:10289000F081E02D0995DF5F0F5F1F4FD3CFDF91F0
:1028A000CF911F910F91FF900C948010E091F40351
:1028B000F091F50390818091FA03809589238083BC
:1028C0000F2D1D2FC15008F438C0F80184912091BC
:1028D000E2033091E303232B29F00E94F9130F5FE9
:1028E0001F4FF0CF28E030E040E8E091F003F09196
:1028F000F1039091F803582F5423D9F05081952B70
:102900009083E091F203F091F30390815091F903E9
:10291000952B9083E091F203F091F3035081909115
:10292000F903909595239083469521503109E9F656
:10293000D6CF508190959523E3CFDF91CF911F9112
:102940000F91FF9008951F93CF93DF93EC018D8D2E
:102950009E8D892BF9F0162F89A10E9486058D8DF9
:102960009E8DDC01ED91FC910190F081E02D60E005
:1029700009958D8D9E8DDC01ED91FC910190F0818A
:10298000E02D612F09958D8D9E8DDF91CF911F9147
:102990000C948010ADA5BEA59C918BA98095892330
:1029A0008C938B8D9C8D892B31F0862FDF91CF916D
:1029B0001F910C94F91328E030E080E8A9A5BAA58E
:1029C00099A9462F4823C1F04C91942B9C93ABA519
:1029D000BCA59C914AA9942B9C93ABA5BCA54C91FA
:1029E0009AA9909594239C9386952150310931F7AB
:1029F000DF91CF911F9108954C9190959423E6CF4C
:102A00008CBD9DBD0895FF920F931F93CF93DF93CD
:102A10008091E4039091E503892B09F472C08CE066
:102A20008093B80065E08CE79AE00E940014609102
:102A3000CB03615087EC93E00E94A3142091CD0357
:102A40003091CE03C901079697FD079623E095952F
:102A500087952A95E1F72091CB033091CC03829F93
:102A60008001839F100D929F100D1124C091E603E9
:102A7000D091E7038091E4039091E5030C0F1D1FB3
:102A8000892B09F47CC08091E8030E94860580911F
:102A9000E4039091E503DC01ED91FC910190F0815C
:102AA000E02D60E40995FF24F3948091E403909174
:102AB000E5030C171D07E1F1BFE1BF15A0F40E946B
:102AC00080108091E8030E9486058091E403909134
:102AD000E503DC01ED91FC910190F081E02D60E4D3
:102AE0000995FF24F3948091E4039091E5036991A3
:102AF000DC01ED91FC910190F081E02D0995F394BA
:102B0000D4CF8091E2039091E303892B31F080913F
:102B1000FC039091FD030E940015E091F603F091F3
:102B2000F70390818091FB038095892380837ACF7E
:102B30000E9480108091E4039091E503892B09F4B1
:102B40005FC02091FE033091FF034091000450913B
:102B5000010460E074E284EF90E00E94832D205134
:102B60003109410951095695479537952795209385
:102B7000B800DF91CF911F910F91FF900895E091E0
:102B8000F403F091F50380819091FA03892B8083FF
:102B90000C171D0779F289912091E2033091E3032C
:102BA000232B19F00E94F913F3CF28E030E040E81E
:102BB000E091F003F091F1039091F803582F542322
:102BC000D9F05081952B9083E091F203F091F303BB
:102BD00090815091F903952B9083E091F203F0914D
:102BE000F30350819091F903909595239083469536
:102BF00021503109E9F6CCCF508190959523E3CF50
:102C0000E091F603F091F70380819091FB03892B0B
:102C10008083AFCF1F93CF93DF93EC01162F8D8D61
:102C20009E8D892B29F18CE08093B80066EA111102
:102C300067EACE010E94A3148D8D9E8D892B41F1F0
:102C40002FA938AD49AD5AAD60E074E284EF90E051
:102C50000E94832D2051310941095109569547950C
:102C6000379527952093B800DF91CF911F91089554
:102C70008B8D9C8D892B21F08DA99EA90E9400151A
:102C8000EFA5F8A990818CA9809589238083CECF68
:102C9000EFA5F8A980819CA9892B8083E5CF0895B1
:102CA00090E080E008958093BB0084E88093BC00AE
:102CB0008091BC0087FFFCCF9091B900987F81E0A4
:102CC000983231F0983129F0903419F080E008956D
:102CD0000895089584EA8093BC008091BC0087FF2A
:102CE000FCCF8091B900887F19F080EC0C945316CA
:102CF00080E008955F926F927F928F929F92AF9241
:102D0000BF92CF92DF92EF92FF920F931F93CF93D8
:102D1000DF93CDB7DEB7582E742E652EB62E922EC9
:102D20000E946A16852D0E9453168D2D0E945316FF
:102D30008C2D0E9453168B2D8370A82A80E0811061
:102D40008CE08A290E945316862D0E945316872DE7
:102D50000E9453168CE0F694E794D794C7948A9512
:102D6000D1F78C2D807FC82E892D8F708C290E94E1
:102D70005316812F0E945316802F0E94531684E908
:102D80008093BC008091BC0084FDFCCFDF91CF918B
:102D90001F910F91FF90EF90DF90CF90BF90AF9079
:102DA0009F908F907F906F905F9008954F925F9269
:102DB0006F927F928F929F92AF92BF92CF92DF924B
:102DC000EF92FF920F931F93CF93C82FC0902604CA
:102DD000D0902704E0902804F0902904CB01BA0198
:102DE000A70196010E94832D49015A0125E0F6941E
:102DF000E794D794C7942A95D1F735E096958795AF
:102E0000779567953A95D1F747E0660F771F881F4A
:102E1000991F4A95D1F7A70196010E94832D290198
:102E20003A018B019C01B501A4015527662777273C
:102E3000E7E0440F551F661F771FEA95D1F7525000
:102E400061097109440D551D661D771D812CA12C4A
:102E50008C2F0E947A16CF911F910F91FF90EF90C7
:102E6000DF90CF90BF90AF909F908F907F906F90AA
:102E70005F904F9008958F92AF92CF92DF92EF9232
:102E8000FF920F931F93882483944430510561056A
:102E9000710509F0812C4450510961097E4F97E07A
:102EA000440F551F661F771F9A95D1F7A22EC12C8C
:102EB000D12C7601C39400E010E098010E947A16AC
:102EC0001F910F91FF90EF90DF90CF90AF908F9078
:102ED0000895CF93DF93D82FC62F0E946A168D2FA7
:102EE0000E9453168C2F0E94531684E98093BC00D5
:102EF0008091BC0084FDFCCFDF91CF910895CF93EA
:102F0000C82F60E880E18C0F0E946917EC2FF0E079
:102F1000EE0FFF1FE25FFB4F11821082CF910895E9
:102F20004F925F926F927F92AF92BF92CF92DF9259
:102F3000EF92FF920F931F93CF93DF93D82F082F19
:102F400010E0F801EE0FFF1FEE0FFF1FE65EFB4FD4
:102F50004080518062807380411451046104710487
:102F600089F48D2FDF91CF911F910F91FF90EF90FA
:102F7000DF90CF90BF90AF907F906F905F904F9019
:102F80000C947F175801AA0CBB1CF501E25FFB4FA4
:102F9000C080D180F12CE12C025F1B4FF801C6816B
:102FA000A3019201C701B6010E94F02F9B01AC0161
:102FB000EC2FF0E0ED5CFE4FA081B0E00E94782D98
:102FC0009B01AC0120583545484C50422130324CD1
:102FD0004B4E5B4008F43FC060911C0170911D0195
:102FE00080911E0190911F01A30192010E94832DE7
:102FF00069017A0184E0C816D104E104F10408F4FF
:10300000B0CFE6E0CE16D104E104F10408F470C0BC
:10301000C0E0FDE2CF16F1E0DF06E104F10430F09C
:10302000CF5FF694E794D794C794F3CFC11103C050
:10303000E894C0F8C0E0A3019201C701B6010E9464
:10304000F02F9B01AC01EC2FF0E0ED5CFE4FA08176
:10305000B0E00E94782D2AE1D11122E2AB01BC013F
:10306000822F0E94D616F501E25FFB4F808191818D
:10307000B0E0A0E08C159D05AE05BF0521F4F80178
:1030800086818C1731F12C2F2295207FB701A60164
:103090008D2F880F880F880F865D0E943B17F801DF
:1030A000618580E0D11180E26C64682B80E18D0F36
:1030B0000E946917F501E25FFB4FD182C082F801DF
:1030C000C68380912E0490E2D11190E8892B8093E1
:1030D0002E04DF91CF911F910F91FF90EF90DF9021
:1030E000CF90BF90AF907F906F905F904F9008957A
:1030F00084E0C82ED12CE12CF12C9ACF0F931F9392
:10310000CF93DF9300D0CDB7DEB7E9E0F1E010E078
:1031100000E08191080F111D81E0EA31F807C9F73D
:1031200041E150E069E071E082E090E00E946611C8
:103130000F5F1F4F1A83098342E050E0BE016F5FAB
:103140007F4F90E080E00E9466110F900F90DF911A
:10315000CF911F910F9108958091140190911501C5
:10316000092E000CAA0BBB0B80549340A446BE4F03
:103170008093260490932704A0932804B0932904F5
:1031800080E00E94901782E00C9490172F923F925B
:103190004F925F926F927F928F929F92AF92BF9267
:1031A000CF92DF92EF92FF920F931F93CF93DF9313
:1031B00000D000D01F92CDB7DEB7409110015091E2
:1031C000110160911201709113010091920210910E
:1031D0009302012E000C220B330B6A017B01C00EFF
:1031E000D11EE21EF31E80910C0190910D01A09161
:1031F0000E01B0910F01840F951FA61FB71F800FFE
:10320000911FA21FB31F10922E0480901E04909055
:103210001F04A0902004B090210440911A04509102
:103220001B0460911C0470911D0484179507A60768
:10323000B70759F080931A0490931B04A0931C04C1
:10324000B0931D0480E00E94901781149104A104A2
:10325000B10471F48091220490912304A09124047C
:10326000B0912504C816D906EA06FB0609F4FDC08C
:1032700010921E0410921F04109220041092210438
:10328000C0922204D0922304E0922404F0922504F8
:1032900081E00E947F178091220490912304A091E5
:1032A0002404B0912504892B8A2B8B2B19F482E0FE
:1032B0000E947F1740901E0450901F0460902004CD
:1032C00070902104411451046104710409F470C127
:1032D00089288A288B2809F4A5C0C0901004D090B2
:1032E0001104F12CE12C209115042983A3019201F2
:1032F000C701B6010E94F02F9B01AC018981E82F24
:10330000F0E0ED5CFE4FA081B0E00E94782D4B0113
:103310005C01DC01CB0180589545A84CB04281305E
:10332000924CAB4EBB4008F446C060911C017091BA
:103330001D0180911E0190911F01A30192010E9425
:10334000832D69017A0181E044E0C416D104E104CF
:10335000F10408F488C086E0C816D104E104F10441
:1033600008F4A2C019829DE2C91691E0D906E104D1
:10337000F10440F029812F5F2983F694E794D794D4
:10338000C794F1CF4981411103C0E894C0F8198274
:10339000A3019201C701B6010E94F02F9B01AC016D
:1033A0008981E82FF0E0ED5CFE4FA081B0E00E9443
:1033B000782D4B015C01B501A40182E20E94D61672
:1033C0008091100490911104B0E0A0E08C159D054F
:1033D000AE05BF0529F48091150499818917D1F0B4
:1033E00029812295207FB701A60182E30E943B1725
:1033F000609118046C6681E10E946917D0921104F3
:10340000C092100429812093150480912E048068B5
:1034100080932E0480922A0490922B04A0922C0474
:10342000B0922D04C0902204D0902304E090240494
:10343000F0902504C114D104E104F104B1F08090AE
:103440002A0490902B04A0902C04B0902D04C50168
:10345000B401A70196010E94832D28303105410552
:10346000510540F582E00E947F1760912E0466238B
:1034700009F44CC181EB0F900F900F900F900F90BB
:10348000DF91CF911F910F91FF90EF90DF90CF9040
:10349000BF90AF909F908F907F906F905F904F9074
:1034A0003F902F900C94691704E0C02ED12CE12C92
:1034B000F12C6BCF1D82213431054105510560F09F
:1034C0008D818F5F8D83CC0CDD1CEE1CFF1C56950F
:1034D000479537952795EFCFC501B401A701960110
:1034E0000E94832D29833A834B835C832FEF3FEF28
:1034F0004FE050E00E94353056016701E12CF12C7D
:1035000000E010E00E94623029013A019D8192950D
:10351000907F9D83C12CD12C7601C394411451041A
:103520006104710431F0CC24CA94DC2CFFE0EF2E4E
:10353000F12CC301B20127E0660F771F881F991F86
:103540002A95D1F7A70196010E94832D49015A01BE
:103550008B019C0149815A816B817C8155276627AB
:103560007727E7E0440F551F661F771FEA95D1F7CD
:10357000525061097109480D591D6A1D7B1D812C2E
:10358000AD808AE30E947A168CE4452846284728B5
:1035900009F08CE0609119046062682B82E10E945E
:1035A000691781E090E090931304809312045DCF3B
:1035B0008090220490902304A0902404B0902504CD
:1035C00081149104A104B10409F44FCFC0901204F6
:1035D000D0901304F12CE12C209116042983A5012D
:1035E0009401C701B6010E94F02F9B01AC018981B3
:1035F000E82FF0E0ED5CFE4FA081B0E00E94782D56
:103600008B019C0100581545284C30420130124C6A
:103610002B4E3B4008F443C060911C0170911D018A
:1036200080911E0190911F01A50194010E94832D9C
:1036300069017A0184E0C816D104E104F10408F4B8
:1036400011CF96E0C916D104E104F10408F458C082
:1036500019822DE2C21621E0D206E104F10440F005
:1036600049814F5F4983F694E794D794C794F1CF8B
:103670008981811103C0E894C0F81982A5019401E1
:10368000C701B6010E94F02F9B01AC019981E92F7F
:10369000F0E0ED5CFE4FA081B0E00E94782DAB0120
:1036A000BC0182E20E94D61680911204909113040C
:1036B000B0E0A0E08C159D05AE05BF0531F480910A
:1036C00016042981821709F4D0CE29812295207F02
:1036D000B701A6018AE30E943B17609119046C664A
:1036E00082E10E946917D0921304C09212044981AA
:1036F0004093160480912E04806880932E04B5CEEA
:1037000084E0C82ED12CE12CF12CB5CF0F900F9076
:103710000F900F900F90DF91CF911F910F91FF901D
:10372000EF90DF90CF90BF90AF909F908F907F9061
:103730006F905F904F903F902F9008958FE00E9480
:10374000D707A0910A01B0910B019C010E9426307D
:103750002FEF33E040E050E00E94592D20931B02F0
:1037600008958EE00E94D70724E630E0DC010E9435
:103770002E302FEF33E040E050E00E94592D20938F
:103780001A020895DC01ED91FD918081ED91FD918A
:103790009081ED91FD916C9163708E2309F06460CE
:1037A0009F2309F06860EFEDFBE1E60FF11D6595E1
:1037B00065956D936D917D918D919D91099423C037
:1037C0001AC012C016C010C01EC009C014C013C059
:1037D00006C019C009C00DC007C00DC014C062509A
:1037E0007040804090400BC06150704080409040DD
:1037F00006C06E5F01C06F5F7F4F8F4F9F4F9E93DC
:103800008E937E936E930895BF92CF92DF92EF9244
:10381000FF920F931F93CF93DF93EC01B62EC72E29
:103820008D85811105C0CE010E94100981110EC045
:103830001B861D861C8680E0DF91CF911F910F9122
:10384000FF90EF90DF90CF90BF90089540E060EF41
:10385000CE010E94BD0801E0E12CD12C11E0CE0187
:103860000E946A08F82ECE010E946A0891E0F912BF
:1038700018C0813099F51134D8F2DB86D11002C01E
:1038800081E08D878B81882399F22396EB2DFC2D87
:10389000CF01089629912193E817F907D9F781E01C
:1038A000CBCFEE2DF0E0F8120FC08B851817A0F4E7
:1038B000DE01AE0FBF1F13968C91802379F4F12C9B
:1038C000193008F41C87D12EEC0FFD1F8381902F37
:1038D0009095892383830AC08113F1CFFE01EE0DF9
:1038E000F11D8381802B8383FF24F3946F2DCE0100
:1038F0000E948E081F5F000F11F4E39401E087E03F
:103900008E1508F0ACCFB7CF4F925F926F927F9237
:103910008F929F92AF92BF92CF92DF92EF92FF92DF
:103920000F931F93CF93DF93CDB7DEB761970FB699
:10393000F894DEBF0FBECDBF0E944708C0901502AD
:10394000D0901602E0901702F09018026C197D09D1
:103950008E099F09693873418105910508F458C0A3
:1039600080911402811154C01092A7038091AB037F
:103970009091AC030E94100940E06CEC8091AB0385
:103980009091AC030E94BD084091A50364E480912E
:10399000AB039091AC030E94BD088091A7038823DC
:1039A00091F1E091A603E9500EEE12E0E33038F415
:1039B000F0E0EE0FFF1FE75DFE4F00811181809167
:1039C000A803882309F47EC08091A50381117AC0E1
:1039D0000E9447084B015C012801110F6608770817
:1039E0008091AB039091AC030E946A08813059F03A
:1039F0000E944708641975098609970968157905B1
:103A00008A059B0568F381E08093A70380931402E5
:103A10000E9447086C197D098E099F0961347F4116
:103A200081059105C0F1809114028823A1F1E091F4
:103A3000AB03F091AC0313861586148612861186AB
:103A4000108617821682158214821382BE01665F69
:103A50007F4F8091AB039091AC030E94041C8111B5
:103A600038C060E070E08EEF92EC20E030E040E0A3
:103A70005FE30E94B52D0E94982E609319020E9468
:103A80004708609315027093160280931702909373
:103A900018021092140261960FB6F894DEBF0FBEA2
:103AA000CDBFDF91CF911F910F91FF90EF90DF90ED
:103AB000CF90BF90AF909F908F907F906F905F90CE
:103AC0004F900895B801110F880B990B0E941408AC
:103AD0009ACF67E0CE010A960E945308998989130C
:103AE000C0CF8091AB039091AC030E941009882352
:103AF00009F4B7CFBE016F5F7F4FCE010A960E94D7
:103B00004809882309F4ADCF68E0CE0101960E94F0
:103B1000530899858913A5CF6A8170E0762F6627AF
:103B2000770F770F770F298158E0259F9001112497
:103B3000262B372B8A858031D1F4688570E08F8100
:103B4000AB01481B5109CA019695982F8827979574
:103B500087950E940C30CB014097B90153E0660F66
:103B6000771F5A95E1F760789C01260F371F21389F
:103B700054EE35070CF475CFB901330F880B990B50
:103B80000E94C92E20E030E040E05CE30E947E2FDE
:103B90006CCF0F931F93CF93DF9380918D02882377
:103BA00059F01092EC020E94DD1010928D02DF910C
:103BB000CF911F910F9108950E9447080091100224
:103BC000109111022091120230911302601B710BAF
:103BD000820B930B693E73408105910520F4012B04
:103BE000022B032B21F70E94470860931002709369
:103BF0001102809312029093130288E60E948605B8
:103C000060E085E993E00E944C1085E993E00E9412
:103C10008010882391F01092F3028091F3028823A0
:103C200031F21092EE021092ED021092EC02DF914E
:103C3000CF911F910F910C94DD1081E08093F302DE
:103C400067E088E60E9490051092A4028093A30288
:103C5000873018F385E993E00E940C10D82F982F35
:103C600092959770CAE08D2F8F709C9F800D1124C4
:103C70008093EC0285E993E00E940C10982F9295B6
:103C80009F708F709C9F800D11248093ED0285E9B9
:103C900093E00E940C10982F929593708F709C9FC8
:103CA000800D11248093EE0285E993E00E940C10B0
:103CB000982F92959F708F709C9F800D11248093F8
:103CC000EF0285E993E00E940C10982F92959F7067
:103CD0008F709C9F800D11248093F00285E993E002
:103CE0000E940C10982F92959F708F709C9F800D52
:103CF00011248093F10285E993E00E940C10982F23
:103D00009F70925E82958F708C9F900D112490937E
:103D1000F202D7FF4CCF81CFCF93DF93EC0180919C
:103D20002F040E9486058D2F90E00E947B10CE010B
:103D300099270E947B1085E993E00E94801061E042
:103D400080912F040E9490051092A4028093A302F8
:103D5000882339F085E993E00E940C10DF91CF9120
:103D6000089580E0FBCFFC0101900020E9F7319736
:103D7000AF01481B590BBC0187EC93E00C94DC05A8
:103D80008F929F92AF92BF920F931F93CF93DF9327
:103D9000CDB7DEB7A1970FB6F894DEBF0FBECDBF8B
:103DA00019A2423008F44AE08E010F5D1F4F842EA5
:103DB000912CB12CA12CA50194010E94832DE62FFA
:103DC000B901CA01EA30F4F4E05DD801EE938D0147
:103DD000232B242B252B79F790E080E0109719F006
:103DE000CD010E94B31EA1960FB6F894DEBF0FBEA0
:103DF000CDBFDF91CF911F910F91BF90AF909F905A
:103E00008F900895E95CE1CF682F70E090E080E04A
:103E10004AE00C94C01E0C94B31ECF92DF92EF9236
:103E2000FF92CF93DF936C01990FEE08FF08F7FE26
:103E30001FC06DE287EC93E00E94120CEC01662734
:103E40007727CB016C197D098E099F094AE00E94F2
:103E5000C01EC80FD91F8BE891E00E94B31E8C0FC3
:103E60009D1FDF91CF91FF90EF90DF90CF9008954D
:103E70004AE0C701B6010E94C01EEC01ECCF4F9290
:103E80005F926F927F928F929F92AF92BF92CF92EA
:103E9000DF92EF92FF920F931F93CF936B017C0100
:103EA000742EAC019B010E94EB2F882399F08EE8C1
:103EB00091E0CF911F910F91FF90EF90DF90CF9005
:103EC000BF90AF909F908F907F906F905F904F903A
:103ED0000C94B31E46015701E894B7F82FEF3FEF5B
:103EE0004FE75FE7C501B4010E94EB2F81110DC0C0
:103EF0002FEF3FEF4FE75FE7C501B4010E94212E8E
:103F000018161CF482E991E0D4CF2FEF3FEF4FE772
:103F10005FE4C701B6010E94792F18161CF486E9E8
:103F200091E0C7CF2FEF3FEF4FE75FECC701B6013E
:103F30000E94212E87FDF3CF20E030E0A901C701C8
:103F4000B6010E94212E10E000E087FF0AC06DE25A
:103F500087EC93E00E94120C8C01F7FAF094F7F8CA
:103F6000F094C0E060E070E080E09FE37C1641F0F8
:103F700020E030E040E251E40E94262ECF5FF6CFF1
:103F8000A70196010E94B52D2B013C010E94982E9D
:103F90004B015C014AE00E94C01E7C01E00EF11E54
:103FA000CC23C1F1C501B4010E94C72E9B01AC0115
:103FB000C301B2010E94B42D4B015C016EE287EC9B
:103FC00093E00E94120CE80EF91EC15018F120E097
:103FD00030E040E251E4C501B4010E947E2F2B0184
:103FE0003C010E94982E4B01B12CA12C4AE0C50146
:103FF000B4010E94C01EE80EF91EC501B4010E9462
:10400000C72E9B01AC01C301B2010E94B42D4B012C
:104010005C01DBCFC701CF911F910F91FF90EF9013
:10402000DF90CF90BF90AF909F908F907F906F90D8
:104030005F904F9008952091CD033091CE03C90138
:10404000079697FD079623E0959587952A95E1F7C2
:104050002091CB033091CC03829FA001839F500D10
:10406000929F500D112470E060E08091E6039091E2
:10407000E7030C940632EF92FF920F931F930E9476
:104080001B201092D4031092D3031092D6031092E7
:10409000D50381E090E09093DA038093D903909365
:1040A000D8038093D70383E08093DB038093DC0302
:1040B000E0919E02EA3008F05FC0F0E0EE59FF4D5B
:1040C0000C9420306C20FC2016212E2149215B21EC
:1040D0006D2181219521B12160910C0170910D011B
:1040E00080910E0190910F010E94C72E20E030E0D8
:1040F0004AE754E40E94262E42E00E943F1F8BE8CC
:1041000091E00E94B31E81E08093DB038093DC0387
:1041100080911B02843620F48AE991E00E940B1FF3
:1041200060911B0270E090E080E00E94C92E20E0C8
:1041300030E040E251E40E94262E42E00E943F1F00
:104140008CE991E00E940B1F80919D028823D1F0A1
:104150008FE991E00E940B1F20911A0230E0EE24BB
:10416000E394F12C09E010E047E150E060E470E0F6
:1041700087EC93E00E94D80D1F910F91FF90EF9074
:104180000C940315809119020E94041F67EF87ECBD
:1041900093E00E94120C84EA91E00E940B1F809130
:1041A000EE028A3020F485EA91E00E940B1F809194
:1041B000EE020E94041F87EA91E00E940B1F80918B
:1041C000ED028A3020F48AE991E00E940B1F809171
:1041D000ED020E94041F87EA91E00E940B1F80916C
:1041E000EC028A3020F48AE991E00E940B1F809152
:1041F000EC020E94041FC0CFE0910901F0E0E15DF4
:10420000FE4F80812AE0829FC00111240E940D1F71
:1042100081E08093DB038093DC0380919E020E9407
:10422000041F89EA91E00E940B1FA6CF809116011E
:10423000909117010E940D1F81E08093DB03809312
:10424000DC0380919E020E94041F80EB91E00E949B
:10425000B31E8BE891E00E94B31E8ECF60911001D7
:104260007091110180911201909113014AE00E9416
:10427000C01E8BE891E00E94B31E81E08093DB03B7
:104280008093DC0380919E020E94041F8DEB91E0DD
:10429000CACF80910A0190910B010E940D1F81E00D
:1042A0008093DB038093DC0380919E020E94041FB5
:1042B00089EC91E0B8CF80911401909115010E9492
:1042C0000D1F81E08093DB038093DC0380919E02CD
:1042D0000E94041F84ED91E0A6CF8091180124E68E
:1042E000829FC00111240E940D1F81E08093DB0397
:1042F0008093DC0380919E020E94041F82EE91E075
:1043000092CF8091190124E6829FC00111240E945E
:104310000D1F81E08093DB038093DC0380919E027C
:104320000E94041F81EF91E07ECF8091EE028A30DF
:1043300020F48AE991E00E940B1F8091EE020E9416
:10434000041F8BE891E00E94B31E81E08093DB03A1
:104350008093DC0380919E020E94041F80E092E023
:1043600062CF8091ED028A3020F48AE991E00E94C8
:104370000B1F8091ED020E94041F8BE891E00E94C8
:10438000B31E81E08093DB038093DC0380919E0267
:104390000E94041F87E092E046CF0E9401321F92E4
:1043A0000F920FB60F9211242F933F934F935F9369
:1043B0006F937F938F939F93AF93BF93EF93FF93ED
:1043C00088EF92E00E945A06FF91EF91BF91AF9162
:1043D0009F918F917F916F915F914F913F912F911D
:1043E0000F900FBE0F901F9018951F920F920FB64F
:1043F0000F9211242F938F939F93EF93FF93E0914C
:104400000803F09109038081E0910E03F0910F03FE
:1044100082FD1BC09081809111038F5F8F7320916B
:104420001203821741F0E0911103F0E0E850FD4FD4
:10443000958F80931103FF91EF919F918F912F9111
:104440000F900FBE0F901F9018958081F4CF1F9290
:104450000F920FB60F9211242F933F938F939F9338
:10446000AF93BF938091800290918102A0918202CC
:10447000B091830230917F0223E0230F2D3758F54E
:104480000196A11DB11D20937F028093800290931D
:104490008102A0938202B093830280918402909162
:1044A0008502A0918602B09187020196A11DB11DDF
:1044B0008093840290938502A0938602B093870232
:1044C000BF91AF919F918F913F912F910F900FBE10
:1044D0000F901F90189526E8230F0296A11DB11D7D
:1044E000D2CF1F920F920FB60F9211242F933F93AA
:1044F0004F935F936F937F938F939F93AF93BF93EC
:10450000EF93FF938091B900887F803609F44AC009
:10451000F0F5883209F4A7C018F5803109F49BC082
:10452000B8F4882309F4F9C0883009F494C0FF91E5
:10453000EF91BF91AF919F918F917F916F915F911B
:104540004F913F912F910F900FBE0F901F90189594
:10455000883109F488C0803251F78093E90214C091
:10456000803409F49DC040F48033B9F38833F9F600
:104570008093E90285ECB0C0803509F485C08835A8
:1045800009F496C0883499F60E94CC0FD0CF8839B0
:1045900009F48CC038F5883729F050F4883611F0CA
:1045A000803729F683E08093EB0210927E0257C099
:1045B000883809F47BC0803919F0803809F0B7CF0A
:1045C00080917E02803208F071C0E0917E0281E02D
:1045D0008E0F80937E028091BB00F0E0E25AFD4F87
:1045E00080833DC0803B39F0E0F4803A09F479C023
:1045F000883A09F09CCF84E08093EB0210925D0230
:1046000010925C02E091A102F091A20209958091C2
:104610005C0281110FC081E080935C0210923C0229
:1046200009C0803C09F4A6CF883C09F4A3CF883B9D
:1046300009F07DCFE0915D0281E08E0F80935D02F5
:10464000F0E0E45CFD4F80818093BB0090915D02BF
:1046500080915C0229C08091E6028093BB0085ECCA
:104660008093BC0064CF9091E8028091E702981794
:1046700058F5E091E80281E08E0F8093E802F0E0C7
:10468000EB53FD4F8081E9CFE091E80281E08E0F8E
:104690008093E8028091BB00F0E0EB53FD4F8083F4
:1046A0009091E8028091E7029817C8F285E8D8CF88
:1046B000E091E80281E08E0F8093E8028091BB00D8
:1046C000F0E0EB53FD4F80838091EA0281115CCFD3
:1046D00081E08093E50284EA8093BC001092EB02B3
:1046E00026CF85EC8093BC001092EB0280917E0275
:1046F000803230F4E0917E02F0E0E25AFD4F108209
:1047000060917E0270E0E0919F02F091A0028EE540
:1047100092E0099510927E020ACF1092E90234CFFE
:104720001F920F920FB60F9211242F933F934F9326
:104730005F936F937F938F939F93AF93BF93EF9309
:10474000FF938091A3039091A4030E94C21BFF9149
:10475000EF91BF91AF919F918F917F916F915F91F9
:104760004F913F912F910F900FBE0F901F90189572
:104770001F920F920FB60F9211242F933F934F93D6
:104780005F936F937F938F939F93AF93BF93EF93B9
:10479000FF938091A1039091A2030E94C21BFF91FD
:1047A000EF91BF91AF919F918F917F916F915F91A9
:1047B0004F913F912F910F900FBE0F901F90189522
:1047C000CF92DF92EF92FF92CF93DF931092FB0292
:1047D0001092FA0298EEC92E93E0D92EE12CF12C1A
:1047E000C092FC02D092FD02E092FE02F092FF0223
:1047F0008FE391E09093F9028093F80285EC90E0CA
:10480000909305038093040384EC90E09093070356
:104810008093060380EC90E0909309038093080353
:1048200081EC90E090930B0380930A0382EC90E07C
:1048300090930D0380930C0386EC90E090930F030C
:1048400080930E031092110310921203109213031F
:10485000109214030E946907109298031092970314
:10486000C0929903D0929A03E0929B03F0929C032A
:1048700081E591E0909396038093950380E5809382
:104880002F0410920F0410920E0410921104109233
:104890001004109213041092120410921404109237
:1048A0001504109216048091260190912701A09181
:1048B00028018093170490931804A0931904109270
:1048C0001A0410921B0410921C0410921D041092E2
:1048D0001E0410921F0410922004109221041092C2
:1048E000220410922304109224041092250480E8DC
:1048F00092EBA6EEBEE08093260490932704A0934B
:104900002804B093290462E083E00E949B0762E0E0
:1049100082E00E949B07E2EAFAE0E491F0E0EE0F09
:10492000FF1FEB56F54FA591B491B0930304A093EC
:104930000204E4E8FAE0449140930604E1EAFAE074
:10494000E491F0E0EE0FFF1FEB56F54FC591D491C7
:10495000D0930504C0930404E3E8FAE0E491E09303
:1049600007041092090410920A0410920B0410928A
:104970000C042BE33FE1C9010197F1F79C91842FCF
:10498000892391E009F490E08881E82309F092609E
:1049900022E034E0909308043093A4032093A3030F
:1049A00080916900837F846080936900E99AC1E007
:1049B000C0930D043093A2032093A103809169005A
:1049C0008C7F816080936900E89A82E080930D0477
:1049D0001092CA031092C90320E830E03093CC0350
:1049E0002093CB0380E290E09093CE038093CD039D
:1049F0003093D0032093CF039093D2038093D103BD
:104A00001092DD031092D4031092D3031092D603B8
:104A10001092D503C093DC03C093DB038FEF9FEFAD
:104A20009093DA038093D9039093D8038093D703AC
:104A3000C093DE031092DF031092E1031092E003B3
:104A400083E691E09093C8038093C70385E993E0E0
:104A50009093E5038093E4031092E7031092E6033A
:104A60008FEF8093EB038093EC038093ED038093AF
:104A7000EE0384E08093EF0380E58093FC031092C3
:104A8000FD031092E3031092E20360E08CE00E94C9
:104A90009B07EDE8FAE0E491E093B903EBEAFAE072
:104AA000E491F0E0EE0FFF1FEB56F54F85919491E6
:104AB0009093BB038093BA031092C4031092C60371
:104AC0001092C5031092C3031092C2031092C10347
:104AD0001092C0031092BF031092BE031092BD0348
:104AE0001092BC0389EB93E09093AC038093AB03EB
:104AF0001092A9031092AA031092A50389E0809353
:104B0000A603C093A703C093A8031092B803109202
:104B1000B703DF91CF91FF90EF90DF90CF90089592
:104B2000CF93DF93CDB7DEB760970FB6F894DEBFB3
:104B30000FBECDBF789484B5826084BD84B581609A
:104B400084BD85B5826085BD85B5816085BD809158
:104B50006E00816080936E001092810080918100D0
:104B600082608093810080918100816080938100C8
:104B7000809180008160809380008091B10084608A
:104B80008093B1008091B00081608093B0008091EB
:104B90007A00846080937A0080917A0082608093AA
:104BA0007A0080917A00816080937A0080917A0007
:104BB000806880937A001092C100E0910803F09120
:104BC000090382E08083E0910803F09109031082D9
:104BD000E0910403F09105031082E0910603F09147
:104BE000070380E1808310921003E0910C03F091A1
:104BF0000D0386E08083E0910A03F0910B0380812E
:104C000080618083E0910A03F0910B0380818860CA
:104C10008083E0910A03F0910B0380818068808398
:104C2000E0910A03F0910B0380818F7D808360E027
:104C300084E00E949B0760E08EE00E949B0761E099
:104C400084E00E943B0783E0809300018091E603AB
:104C50009091E703892B11F10E941B202091CD0335
:104C60003091CE038091CB039091CC03213231055A
:104C70000CF0B4C0B9016052710977FF02C06F5FD8
:104C80007F4F759567958357910997FD019600E2CF
:104C900010E023E730E04CED55E0B3C02091CD03A8
:104CA0003091CE03C901079697FD0796B3E095951D
:104CB0008795BA95E1F72091CB033091CC03AC01F5
:104CC000429FC001439F900D529F900D11240E945E
:104CD000DC309093E7038093E603892B09F0BCCF87
:104CE0000E941B200E940315E091AB03F091AC03DE
:104CF00013861586148612861186108617821682F0
:104D00001582148213821092A9031092AA0301E063
:104D1000BE016F5F7F4F8091AB039091AC030E9407
:104D2000041C882309F431C267E0CE0101960E9479
:104D3000530898858913ECCF8091A503811128C071
:104D40008091AB039091AC030E941009BE016F5F8C
:104D50007F4F8091AB039091AC030E94F10840E03B
:104D600064EB8091AB039091AC030E94BD088091ED
:104D7000AB039091AC030E946A08182F8091AB039B
:104D80009091AC030E941009111102C00093A50379
:104D90001091A6038981803109F478C6CE0101966D
:104DA0000E949409811708F0DFC18091A6038093C7
:104DB000A6038091A9038F5F8093A903898188321C
:104DC00039F008F0DBC1803119F0823209F0A0CF50
:104DD0008091AA038F5F8093AA039ACFB901605490
:104DE000710977FF02C06F5F7F4F75956795825598
:104DF000910997FD019600E410E022E530E04CEBCC
:104E000057E0959587950E94BE0E82E08093E90356
:104E10008091E4039091E503892B09F49AC08CE317
:104E20008093E8030E9469078091EF0387FD1EC00D
:104E300061E00E949B0761E08091EF030E943B07C5
:104E400061E070E080E090E00E94140860E08091F2
:104E5000EF030E943B076AE070E080E090E00E9470
:104E6000140861E08091EF030E943B078091E40306
:104E70009091E503892B09F42BC18CE08093B80055
:104E800064E08EEC95E00E9400146091CD036150C7
:104E900087EC93E00E94A31464E08AEC95E00E9402
:104EA00000148091E90360E1813009F064E187EC4E
:104EB00093E00E94A31464E086EC95E00E94001445
:104EC0008091CB039091CC038038910509F02BC1E0
:104ED0008091CD039091CE038032910509F00FC1EE
:104EE00064E082EC95E00E94001469ED87EC93E0A9
:104EF0000E94A3148091E90362E2813009F061EF1E
:104F000087EC93E00E94A31466E086EB95E00E9494
:104F100000148091E4039091E503892B09F41AC1F0
:104F20002091FE033091FF03409100045091010451
:104F300060E074E284EF90E00E94832D20513109FB
:104F40004109510956954795379527952093B80003
:104F5000C7CE61E08091ED030E949B0761E08091E4
:104F6000EE030E949B078091ED03082E000C990B25
:104F7000FC01E156F54FE491F0E0EE0FFF1FEE5219
:104F8000FA4F259134913093F5032093F403FC01FB
:104F9000EF57F54FE491E093FA038091EE03082E6A
:104FA000000C990BFC01E156F54FE491F0E0EE0F97
:104FB000FF1FEE52FA4FA591B491B093F703A0935F
:104FC000F603FC01EF57F54FE491E093FB038C915E
:104FD000E82BEC938091E2039091E303892B09F491
:104FE00034C01FB7F89480918802811127C0E9EA84
:104FF000FAE08491EBE8FAE09491E82FF0E0EE0F0C
:10500000FF1FE455FA4FA591B491EC91E92321F4E7
:1050100061E08AE00E943B0761E08AE00E949B0712
:105020008CB580618CBD8CB580648CBD61E08DE0F9
:105030000E949B0761E08BE00E949B0780918802A1
:105040008F5F809388021FBFEFCE61E08091EB03FA
:105050000E949B0761E08091EC030E949B07809176
:10506000EB03082E000C990BFC01E156F54FE4917F
:10507000F0E0EE0FFF1FEE52FA4F2591349130937E
:10508000F1032093F003FC01EF57F54FE491E09317
:10509000F8038091EC03082E000C990BFC01E156FB
:1050A000F54FE491F0E0EE0FFF1FEE52FA4FA5919D
:1050B000B491B093F303A093F203FC01EF57F54FC3
:1050C000E491E093F9038C91E095E823EC93ACCE66
:1050D0008091E2039091E303892B31F08091FC03EE
:1050E0009091FD030E940015E091F603F091F70303
:1050F00090818091FB03809589238083C1CE803489
:10510000910509F0F2CE63E08FEB95E00E94001468
:105110008091E9036FE9813009F06FEC87EC93E04F
:105120000E94A314E2CE8036910509F0DECE809174
:10513000CD039091CE03409709F0D7CE63E08CEB7E
:1051400095E00E9400148091E90360E1813031F321
:105150006FEAE4CFE091F603F091F703808190913C
:10516000FB03892B8083BCCD8981803111F48CE0D5
:105170001ECECE0101960E94940919CE8B3309F4FC
:1051800027CE823409F0C4CD23CE90E080E00E9487
:105190008C1E898381E090E00E948C1E8A8302E04D
:1051A00010E0F12CE12CC8010E948C1EE80EF11CCD
:1051B0000F5F1F4F03311105B1F75FEFE51AF50AD5
:1051C00089819A81E816F90609F0C2C009E011E068
:1051D00082E090E07C01AFEFEA1AFA0A0E948C1E8E
:1051E000F80181938F01C7018331910599F71092DE
:1051F0001704109218041092190460E880E10E94CC
:10520000691760E881E10E94691760E882E10E9405
:10521000691780E896E3AEEBB6E280931C019093A9
:105220001D01A0931E01B0931F0162E987EB0E944C
:1052300069170E94AC180E94C6180E949E1B0E940B
:10524000B11B0E94841C0E94C91D0E941B20109249
:10525000D4031092D3031092D6031092D50381E0A9
:1052600090E09093DA038093D9039093D8038093CE
:10527000D70383E08093DB038093DC0381E091E03C
:105280000E94B31E8BE891E00E94B31E0E9403159A
:1052900068EE73E080E090E00E9414080E943B20DA
:1052A00084E6282E312C02E310E084E00E941207ED
:1052B00020910801892B09F089C3222361F0109203
:1052C00008010E9447086093890270938A028093C4
:1052D0008B0290938C0280910D04823008F041C0C3
:1052E000F89482E094E00E94C21B609109047091DE
:1052F0000A0480910B0490910C04789424E030E02F
:1053000040E050E00E94592D29013A01C0908E02E0
:10531000D0908F02E0909002F09091024C145D04C6
:105320006E047F0409F403C1E0919E02EA3008F0A4
:10533000E7C0F0E0E256F64D0C942030B3296C2A19
:10534000252B6E2BE12B162C5E2C852CAC2CC72C20
:105350000E947E184CCF10929E0258C310929E025B
:1053600066C3F894C2CF80900C0190900D01A0907C
:105370000E01B0900F01A0911901B0E020EA36E8CB
:1053800041E050E00E94782D6D877E878F87988B53
:10539000A0911801B0E00E94782D69877A878B87E9
:1053A0009C87C414D504E604F7040CF067C08D850F
:1053B0009E85AF85B88988159905AA05BB0548F172
:1053C000E0910901F0E0E15DFE4FC0809AE0C99EE6
:1053D000600111240D2C000CEE08FF08C501B4017A
:1053E000A70196010E94832D8C0C9D1CAE1CBF1C36
:1053F000611571058105910521F0861A970AA80AA1
:10540000B90A80920C0190920D01A0920E01B09207
:105410000F0180910C0190910D01A0910E01B091AE
:105420000F0129853A854B855C8582179307A40770
:10543000B50740F420930C0130930D0140930E0109
:1054400050930F0180910C0190910D01A0910E01DC
:10545000B0910F012D853E854F8558892817390752
:105460004A075B0740F420930C0130930D014093F1
:105470000E0150930F010E94C61842C04C145D04E7
:105480006E047F0434F629853A854B855C85821647
:105490009306A406B50608F4BCCFE0910901F0E03C
:1054A000E15DFE4FC0803AE0C39E600111240D2CE7
:1054B000000CEE08FF08C501B401A70196010E9487
:1054C000832D611571058105910509F096CF8C1822
:1054D0009D08AE08BF0895CF80910901C414D5047A
:1054E000E604F7040CF0A6C0833018F48F5F8093B5
:1054F000090180910901843018F083E0809309014B
:105500000E944708609395027093960280939702D9
:105510009093980241E0409394020E943B20409275
:105520008E0250928F02609290027092910285E0FA
:105530000E94120720919D02892B09F482C2211139
:1055400009C051E050939D02109293021092920272
:105550000E94C61880919E0281115FC080919D02B9
:10556000882309F42CC230921B0120921A010E9458
:105570004708C0909902D0909A02E0909B02F09068
:105580009C02AB01BC014C195D096E097F09809139
:105590001A0190911B01092E000CAA0BBB0B84175A
:1055A0009507A607B707C8F50E944708C09095025F
:1055B000D0909602E0909702F09098026C197D09C5
:1055C0008E099F09613177428105910590F08091A4
:1055D0009402882371F00E944708609395027093AB
:1055E00096028093970290939802109294020E94E0
:1055F0007E180E949E1B0E94B11B0E94841C0E9468
:10560000C91D0E943B200E94470860939902709335
:105610009A0280939B0290939C02E0E0F0E0EF2BD3
:1056200009F443CE0E944606882309F43CCE0E942A
:10563000000039CE4C145D046E047F040CF059CF89
:10564000882309F456CF815052CF20911601309112
:105650001701C414D504E604F70474F5293B4BE0A4
:10566000340774F4C901B8010E940C302E5C3F4F1E
:10567000009711F0281B390B309317012093160166
:105680008091160190911701893B9B4034F0E8EB23
:10569000FBE0F0931701E0931601809116019091C1
:1056A00017018834944F0CF0E6CE28E434EF3093A1
:1056B000170120931601DFCE4C145D046E047F04A5
:1056C000FCF6283454EF3507DCF2C901B8010E941A
:1056D0000C30009779F622533109CECF809110011A
:1056E00090911101A0911201B0911301C414D5043D
:1056F000E604F7040CF04DC0813734E6930738E038
:10570000A307B10590F4E0910901F0E0E15DFE4FDF
:105710002081820F911DA11DB11D809310019093D6
:105720001101A0931201B093130180911001909187
:105730001101A0911201B0911301803D9D4DA64031
:10574000B10560F480ED9DEDA6E0B0E0809310011E
:1057500090931101A0931201B09313018091100155
:1057600090911101A0911201B091130181379446DB
:10577000A840B10508F47FCE20E734E648E050E0C9
:1057800020931001309311014093120150931301A3
:1057900072CE4C145D046E047F043CF6803D4DEDEA
:1057A000940746E0A407B10508F4BFCFE0910901D2
:1057B000F0E0E15DFE4F2081821B9109A109B10952
:1057C000ACCF80910A0190910B01C414D504E6047A
:1057D000F70414F58F3F91052CF4019690930B017B
:1057E00080930A0180910A0190910B018F3F9105EE
:1057F00034F04EEF50E050930B0140930A0180913A
:105800000A0190910B01843691050CF079CE30920B
:105810000B0120920A0174CE4C145D046E047F04C7
:105820000CF784369105F4F20197D8CF80911401DA
:1058300090911501C414D504E604F7046CF5813386
:1058400055E7950764F4E0910901F0E0E15DFE4F52
:105850002081820F911D90931501809314018091F6
:105860001401909115018133954734F0E0E3F5E799
:10587000F0931501E09314018091140190911501AA
:10588000803D9A4834F420ED3AE830931501209396
:1058900014010E94AC18EFCD4C145D046E047F041B
:1058A000F4F6803DAAE89A07D4F2E0910901F0E00D
:1058B000E15DFE4F2081821B9109CDCF80911801BF
:1058C000C414D504E604F704BCF48B3F18F48F5FCE
:1058D00080931801809118018A3018F48AE080932F
:1058E00018018091190190911801981708F408CEB9
:1058F00081508093180104CE4C145D046E047F0423
:105900004CF78A3038F38150E3CF80911901C414E9
:10591000D504E604F704BCF48B3F18F48F5F809342
:1059200019018091180190911901891718F08F5F62
:1059300080931901809119018B3F08F4E1CD8AEF22
:1059400080931901DDCD4C145D046E047F044CF787
:105950008A3038F38150E3CF8091EE02C414D5042D
:10596000E604F7046CF48F5F8093EE028091EE0200
:10597000883110F01092EE0231E030938D02C0CDEC
:105980004C145D046E047F048CF78150EDCF809140
:10599000ED02C414D504E604F70454F48F5F809339
:1059A000ED028091ED028C3338F31092ED02E4CFDA
:1059B0004C145D046E047F04A4F78150F0CF88EE90
:1059C00093E090931B0180931A01D1CD211183CCD8
:1059D000F1E0F09308010E944708C0908902D0903E
:1059E0008A02E0908B02F0908C026C197D098E097E
:1059F0009F09683E23E072078105910538F02091E8
:105A00009E022111A8CC23E020939E0265567109C5
:105A100081099109633873408105910578F480917B
:105A20009E028F5F833009F499CC80939E0280910F
:105A30009E028A3018F083E080939E020E943B20F1
:105A40004ACC222371F010929D0280911601909110
:105A5000170190939302809392020E94C6180E94AD
:105A60003B2080919D02811175CD8091160190910E
:105A7000170120919202309193028217930709F443
:105A800069CD909393028093920262CD1D3008F00D
:105A90008CC96DCB83E691E09093C8038093C703D4
:105AA0008091E6039091E703009711F00C94783110
:105AB0000895052E97FB1EF400940E94702D57FD4B
:105AC00007D00E94832D07FC03D04EF40C94702D58
:105AD00050954095309521953F4F4F4F5F4F08951A
