:100000000C945C050C94B9290C9492290C948405E9
:100010000C9484050C9484050C9484050C9484053C
:100020000C9484050C9484050C9484050C9484052C
:100030000C9484050C9484050C9484050C9484051C
:100040000C9448290C9484050C9484050C94840524
:100050000C9484050C9484050C9484050C948405FC
:100060000C94E0290C948405000103070F1F3F7FC7
:100070000080C0E0F0F8FCFE00000000003E5B4F96
:100080005B3E3E6B4F6B3E1C3E7C3E1C183C7E3CF8
:10009000181C577D571C1C5E7F5E1C00183C180006
:1000A000FFE7C3E7FF0018241800FFE7DBE7FF3096
:1000B000483A060E2629792926407F050507407F04
:1000C00005253F5A3CE73C5A7F3E1C1C08081C1C77
:1000D0003E7F14227F22145F5F005F5F06097F016D
:1000E0007F006689956A606060606094A2FFA29458
:1000F00008047E040810207E201008082A1C080826
:100100001C2A08081E101010100C1E0C1E0C303873
:100110003E3830060E3E0E06000000000000005F74
:1001200000000007000700147F147F14242A7F2A90
:100130001223130864623649562050000807030052
:10014000001C2241000041221C002A1C7F1C2A089E
:10015000083E080800807030000808080808000001
:1001600060600020100804023E5149453E00427F75
:10017000400072494949462141494D331814127FC4
:100180001027454545393C4A494931412111090764
:100190003649494936464949291E000014000000E5
:1001A00040340000000814224114141414140041B7
:1001B00022140802015909063E415D594E7C121174
:1001C000127C7F494949363E414141227F414141AC
:1001D0003E7F494949417F090909013E4141517327
:1001E0007F0808087F00417F41002040413F017F98
:1001F000081422417F404040407F021C027F7F0460
:1002000008107F3E4141413E7F090909063E4151A8
:10021000215E7F09192946264949493203017F0198
:10022000033F4040403F1F2040201F3F4038403F99
:10023000631408146303047804036159494D4300AF
:100240007F4141410204081020004141417F0402E6
:10025000010204404040404000030708002054547D
:1002600078407F284444383844444428384444285B
:100270007F385454541800087E090218A4A49C78AE
:100280007F0804047800447D40002040403D007F0A
:100290001028440000417F40007C047804787C08EA
:1002A0000404783844444438FC18242418182424BE
:1002B00018FC7C08040408485454542404043F44A3
:1002C000243C4040207C1C2040201C3C4030403CD2
:1002D00044281028444C9090907C4464544C440032
:1002E0000836410000007700000041360800020196
:1002F0000204023C2623263C1EA1A161123A404082
:10030000207A3854545559215555794122545478FE
:1003100042215554784020545579400C1E52721297
:100320003955555559395454545939555454580020
:1003300000457C410002457D420001457C407D1224
:1003400011127DF0282528F07C5455450020545486
:100350007C547C0A097F4932494949323A44444431
:100360003A324A4848303A4141217A3A424020786C
:10037000009DA0A07D3D4242423D3D4040403D3C6D
:1003800024FF2424487E4943662B2FFC2F2BFF0992
:1003900029F620C0887E0903205454794100004486
:1003A0007D413048484A32384040227A007A0A0A71
:1003B000727D0D19317D2629292F282629292926E4
:1003C00030484D4020380808080808080808382F29
:1003D00010C8ACBA2F102834FA00007B00000814B3
:1003E0002A142222142A14085500550055AA55AA89
:1003F00055AAFF55FF55FF000000FF00101010FF29
:1004000000141414FF001010FF00FF1010F010F083
:10041000141414FC001414F700FF0000FF00FF1474
:1004200014F404FC141417101F10101F101F1414C0
:10043000141F00101010F0000000001F101010100A
:100440001F10101010F010000000FF1010101010FE
:1004500010101010FF10000000FF140000FF00FF3C
:1004600000001F10170000FC04F4141417101714D8
:1004700014F404F40000FF00F714141414141414FA
:10048000F700F7141414171410101F101F1414146D
:10049000F4141010F010F000001F101F0000001FD7
:1004A00014000000FC140000F010F01010FF10FF0A
:1004B000141414FF141010101F00000000F010FF9F
:1004C000FFFFFFFFF0F0F0F0F0FFFFFF0000000083
:1004D00000FFFF0F0F0F0F0F3844443844FC4A4A07
:1004E0004A347E02020606027E027E0263554941BC
:1004F000633844443C04407E201E2006027E0202F3
:1005000099A5E7A5991C2A492A1C4C7201724C3006
:100510004A4D4D303048784830BC625A463D3E49DD
:100520004949007E0101017E2A2A2A2A2A44445F81
:10053000444440514A444040444A51400000FF0175
:1005400003E080FF000008086B6B08361236243683
:10055000060F090F060000181800000010100030E8
:1005600040FF0101001F01011E00191D1712003C70
:100570003C3C3C0000000000005EBCE2613FDD83CB
:10058000C29C7E20A3FD1F41009D23BE46DB65F873
:100590008C11AF32CA57E974000000080002010054
:1005A000000304070000000000000000000000003D
:1005B000240027002A00DB40A4A62EAFDA0281DA4D
:1005C0001281DA02818F2000A1C8D300408DAED500
:1005D00080A800000000250028002B00000060001B
:1005E00000000000000000000000000000E000002B
:1005F000000000000000000000000001E00000001A
:100600000000000000000000000001F000000000F9
:1006100000000000000000000003F00000000000E7
:10062000000000000000000007F0000000000000D3
:100630000000000000000007F800000000000000BB
:100640000000000000000FF800000003C0007E0062
:100650000001E0007F0FF800000003C000FE000072
:1006600001E000FFEFF800000003C000FE00000101
:10067000E000FFFFF800000003C000F00000000FE2
:10068000007FFE7FC0000003C000F00000000F00EC
:100690003FFE7FF83FF1FBCFFCFEF3BC3DEFE01FD8
:1006A000FE7FFF7FFBFFDFFEFEFFBC3DEFE01FC6CE
:1006B000FFFF7FFBFFDFFEFEFFBC3DEFE00FE3C768
:1006C000FE787BC3DE1EF0FFBC3DEF0007FF87FC1A
:1006D000787BC3DE1EF0F83C3DEF0001FFFFF00029
:1006E0007BC3C01EF0F03C3DEF0001F37FE03FFB19
:1006F000C3CFFEF0F03C3DEF0003E33F807FFBC340
:10070000DFFEF0F03C3DEF0007E73C00787BC3DE06
:100710001EF0F03C3DEF0007FFBE00787BC3DE1EFD
:10072000F0F03C3DEF0007FFFE00787BC3DE1EF0DB
:10073000F03C3DEF000FFFFE007FFBFFDFFEF0F01F
:100740003FFDEFE00FFFFF007FFBFFDFFEF0F03F1C
:10075000FDEFE00FF9FF003E79F9CF9EF0F01F3D6D
:10076000E7E01FF1FF0000000000000000000000B3
:10077000001F80FF007FFFFFFFFFFFFFFFFFFFE085
:100780001C007F007FFFFFFFFEB46D888D18E00026
:10079000001F007FFFFFFFFE95AD7DB577E00000F5
:1007A0000F007FFFFFFFFEA5AD9D8D19E000000645
:1007B000007FFFFFFFFEB5ADEDB57EE0000000005D
:1007C0000001800000000000000000000380000025
:1007D0000000000000000007C00000000000000052
:1007E000000007C00000000000000000000FC00073
:1007F00000000000000000001FE0000000000000FA
:100800000000001FE00000000000000000003FE0CA
:100810000000000000000000003FF00000000000A9
:10082000000000007FF0000000000000001FF87FC3
:10083000F0000000000000003FFE7FF0000000001C
:100840000000003FFF7FF0000000000000001FFFDD
:10085000FBE0000000000000000FFFF9FFC00000F7
:10086000000000000FFFF9FFF80000000000000783
:10087000FFF1FFFF00000000000003FC73FFFF809A
:10088000000000000001FE3FFFFF800000000000AC
:1008900000FF1E0FFF000000000000007FFE1FFC95
:1008A000000000000000003FFFFFF8000000000013
:1008B00000000FDFFFE0000000000000001F19FF34
:1008C000C0000000000000003F3CFF0000000000EE
:1008D0000000007E7CF800000000000000007FFEA9
:1008E0007C0000000000000000FFFFFC0000000092
:1008F00000000000FFFFFE0000000000000000FFFD
:10090000FFFE0000000000000001FFEFFE000000FD
:100910000000000001FFCFFE000000000000000307
:10092000FF07FE0000000000000003FC07FE0000BF
:10093000000000000003F003FE00000000000000C3
:10094000018000FE000000000000000000007E00AA
:100950000000000000000000003E00000000000059
:10096000000000000C000000000000078000FC00F8
:100970000003C0000000078001FC000003C000006D
:1009800000078001FC000003C0000000078001E0B8
:100990000000001E000000078001E00000001E00B3
:1009A0007FE3F79FF9FDE7787BDFC0FFF7FFBFFD2F
:1009B000FDFF787BDFC0FFF7FFBFFDFDFF787BDF2A
:1009C000C0F0F787BC3DE1FF787BDE00F0F787BC25
:1009D0003DE1F0787BDE0000F787803DE1E0787B49
:1009E000DE007FF7879FFDE1E0787BDE00FFF78781
:1009F000BFFDE1E0787BDE00F0F787BC3DE1E07809
:100A00007BDE00F0F787BC3DE1E0787BDE00F0F7AD
:100A100087BC3DE1E0787BDE00FFF7FFBFFDE1E052
:100A20007FFBDFC0FFF7FFBFFDE1E07FFBDFC07CA6
:100A3000F3F39F3DE1E03E7BCFC0000000000000EB
:100A40000000000000FFFFFFFFFFFFFFFFFFFFC0F0
:100A5000FFFFFFFFFD68DB111A31C0FFFFFFFFFD45
:100A60002B5AFB6AEFC0FFFFFFFFFD4B5B3B1A33C6
:100A7000C0FFFFFFFFFD6B5BDB6AFDC02200FF21B3
:100A80000001020408102040800102040810200127
:100A900002040810200000000023002600290004A2
:100AA0000404040404040402020202020203030315
:100AB00003030300FF2AD23411241FBECFEFD8E076
:100AC000DEBFCDBF11E0A0E0B1E0EAE9F5E702C08A
:100AD00005900D92AC3FB107D9F723E0ACEFB1E040
:100AE00001C01D92AD3EB207E1F715E0CBE5D5E0C0
:100AF00004C02197FE010E94B537CA35D107C9F756
:100B00000E94562C0C94C03A0C94000091E09093F3
:100B1000E8028093E7021092E6021092E50208953F
:100B20009091DC029111FCCF91E09093DC02409314
:100B3000DB022FEF2093DA021092D902260F2093C6
:100B4000D8029093D7029091D702880F892B809377
:100B5000D7028091D6028130F9F41092D6028091AA
:100B6000D7028093BB008091BC0083FDF8CF85EC59
:100B70008093BC008091DC028130E1F38091D90246
:100B8000861710F46091D902A6EBB2E0E6E9F2E034
:100B900080E0861303C0089585EEEACF9D9191937E
:100BA0008F5FF7CF8091940290919502891B990BEA
:100BB00008952F923F924F925F926F927F928F9201
:100BC0009F92AF92BF92CF92DF92EF92FF920F93DC
:100BD0001F93CF93DF93CDB7DEB7AA970FB6F894E4
:100BE000DEBF0FBECDBF0D871D8B298F3A8F4B8F78
:100BF0005C8F6F8F7BA3FE8EED8EE091CB03F09127
:100C0000CC03892B21F0E091CD03F091CE03FF2797
:100C1000EE0FFF1FEE0FFF1FE153FC4F608171814C
:100C20008281938124E630E040E050E00E94223847
:100C3000522E632E742E852E962E7A8B898B492EFA
:100C400086017501110FEE08FE2C87019501A601A2
:100C50006E2D7E2D8E2D9E2D0FE10E942439A12C0C
:100C6000EAECBE2EFAE9CF2EABE3DA2EE12CF12C22
:100C700000E010E00E944F38A52CB62CC72CD82CD1
:100C8000E92CFA880989142D0E94CA370FE10E94C5
:100C90003F3929833A834B835C836D837E838F83C3
:100CA000988729813A814B815C81550F220B322F25
:100CB000A90129873A874B875C87252D362D472D3B
:100CC000582D692D7F2D8989942DA980BA80CB80DC
:100CD000DC80E984FE2C0E2D1E2D0E945A392983BA
:100CE0003987498B5A8B6B8B7C8B1C016D847D887B
:100CF000898C9A8C3C8D3D8B4F8C5BA09301A40119
:100D00006B8D7D89C20121153E424945564761419F
:100D100071058105910569F060F0612C2EE2722E5B
:100D200039E5832E46E7942EB1E1BB8F1D8A412C15
:100D3000512CEB8DEF8F9301A4016E2F7D89C201A1
:100D40002115364641445E4C6C4071058105910584
:100D500060F4612C06E6702E81E4882E9EEC992EBC
:100D60002CE02F8F1D8A412C512CA980B984C98871
:100D7000DA88EB88FC8881019301A4016F8D7D895D
:100D8000C2010E948038298F3A8F4B8F5C8F2D874C
:100D90003E874F87588B8D859E85AF85B8891FE02C
:100DA000A12E0F97A105B10558F02D853E854F85E1
:100DB00058892B35310541055105B8F0BAE5AB2E00
:100DC000B12CC12CD12CE12CF12C00E010E02981B8
:100DD000398549895A896B897C89C1010E94CA3742
:100DE00039014A016F8F7D8B2C01A980B984C98894
:100DF000DA88EB88FC8881019301A4016F8D7D89DD
:100E0000C2010E947E38E0E4AE2EF2E4BF2EAFE0D5
:100E1000CA2ED12CE12CF12C00E010E00E94CA3740
:100E2000A980B984C988DA88EB88FC8881010E948E
:100E3000803849014CA35BA3C901DA0121E030E00D
:100E400040E050E00097A105B10521F020E432E434
:100E50004FE050E02D8B3E8B4F8B588FBC01CD0166
:100E600027E0660F771F881F991F2A95D1F72D89D4
:100E70003E894F89588D0E94213529013A016F8F93
:100E800078A389A39AA3A980B984C988DA88EB8852
:100E9000FC88810194014CA15BA160E070E080E0DE
:100EA00090E00E94CA372BA33CA34DA35EA36FA37F
:100EB00078A789A79AA78D859E85AF85B88937E0E1
:100EC000880F991FAA1FBB1F3A95D1F79250A1090D
:100ED000B109840D951DA61DB71DED8DFE8D808376
:100EE0009183A283B3832F8D38A149A15AA1248372
:100EF0003583468357832D893E894F89588D2087B6
:100F0000318742875387298D3A8D4B8D5C8D60E008
:100F100070E080E090E00E94CA3729013A014B015D
:100F2000898799838D899E89AF89B88D5C016D0110
:100F3000E12CF12C00E010E02BA13CA14DA15EA121
:100F40006FA178A589A59AA50E94803859016A01E8
:100F50007B018C019201A301B401898599810E94D2
:100F60005A39AA960FB6F894DEBF0FBECDBFDF91F7
:100F7000CF911F910F91FF90EF90DF90CF90BF9096
:100F8000AF909F908F907F906F905F904F903F9029
:100F90002F9008952F923F924F925F926F927F927F
:100FA0008F929F92AF92BF92CF92DF92EF92FF9279
:100FB0000F931F93CF93DF93CDB7DEB765970FB62F
:100FC000F894DEBF0FBECDBF2D833E834F8358877D
:100FD00069877A878B879C87A982BF86C88AD98AC6
:100FE000EA8AFB8A0C8B1D8B9E868D86211506ED69
:100FF000300701E140070EE7500703E06007710585
:101000008105910511F008F032C12F37304F4A4F5A
:101010005240610571058105910509F008F459C137
:101020009501A601B7018C899D89A0E00E946F39C6
:1010300009F0C9C0AD80BE80CF80D884E984FA842D
:101040000B851C8520E03DE443E650E761E170E05C
:1010500080E090E00E948038F22FE32F8F2F9E2FA8
:10106000A42FB52FF0FF03C00196A11DB11D8F3F26
:101070009105A105B10520F08EEF90E0A0E0B0E071
:1010800089839A83AB83BC830697A105B10540F49D
:1010900086E090E0A0E0B0E089839A83AB83BC83D4
:1010A000E980FA800B811C81A8019701AD80BE8088
:1010B000CF80D884E984FA840B851C8560E070E0D9
:1010C00080E090E00E94CA3729013A014B011C01DF
:1010D00021150EE2300709E5400706E7500701E158
:1010E000600771058105910509F008F44CC08981FC
:1010F0009A81AB81BC810297A109B10989839A8346
:10110000AB83BC831C012D010B859101A20160E022
:1011100070E080E090E00E94CA3729013A014B015B
:101120001C0189819A81AB81BC819927AA27BB27A1
:10113000ED85FE8580839183A283B383148215821B
:101140001682178210861186128613869201A301D9
:10115000B401C10165960FB6F894DEBF0FBECDBFD6
:10116000DF91CF911F910F91FF90EF90DF90CF9083
:10117000BF90AF909F908F907F906F905F904F90B7
:101180003F902F9008952F3F354641445E4C6C4070
:1011900071058105910509F020F689819A81AB815D
:1011A000BC810296A11DB11D89839A83AB83BC8348
:1011B0001C012D01AD80BE80CF80D884E984FA84E3
:1011C0000B851C85A2CFAD80BE80CF80D884E984FA
:1011D000FA840B851C8529813F85488959896A894C
:1011E0007B898C899D890E947E3829013A014B01B7
:1011F0001C01A0E00E946F39C1F529813F85488913
:1012000059896A897B898C899D890E948038022F3F
:10121000132F242F352FD901C8010697A109B10931
:10122000893F9105A105B10508F090CF10E030E0AD
:1012300020E0AD85BE850D931D932D933C931397B0
:10124000FD01148215821682178218961D921D9236
:101250001D921C921B9744244394512C612C712C99
:10126000812C912C212C312C71CF412CF6CF1D8259
:10127000B6EDBE83E1E1EF83FEE7F88703E009877F
:101280001A861B861C8629813F85488959896A8967
:101290007B898C899D89A0E00E946F3909F093CFEA
:1012A000AD80BE80CF80D884E984F12C00E010E0CE
:1012B00020E03DE443E650E761E170E080E090E04B
:1012C0000E948038F22FE32F8F2F9E2FA42FB52F4F
:1012D000CECE10E81D8380EF8E839AEF9F83A2E02D
:1012E000A8871986CDCFDF92EF92FF920F931F93BD
:1012F000CF93DF93FC01E080F18002811381D481E0
:10130000C581B681D7809701A8016D2F7C2F8B2FC7
:101310009D2D205D3F4C49415109610971098109A9
:1013200091092F3C3F4C49415105610571058105EB
:10133000910509F0D0F49701A8016D2F7C2F8B2F18
:101340009D2D07E00E9424392083318342835383FB
:10135000648375838683978387E0DF91CF911F91A4
:101360000F91FF90EF90DF9008959701A8016D2FE6
:101370007C2F8B2F9D2D205A3F49434351096109F2
:101380007109810991092F393F494343510561058D
:1013900071058105910509F098F49701A8016D2F59
:1013A0007C2F8B2F9D2D06E00E94243920833183D2
:1013B00042835383648375838683978386E0CDCF8E
:1013C0009701A8016D2F7C2F8B2F9D2D20543F431B
:1013D0004746510961097109810991092F333F433A
:1013E00047465105610571058105910509F098F49D
:1013F0009701A8016D2F7C2F8B2F9D2D05E00E945A
:1014000024392083318342835383648375838683A5
:10141000978385E0A2CF9701A8016D2F7C2F8B2F9A
:101420009D2D20583E474E4C510961097109810993
:1014300091092F373E474E4C5105610571058105D5
:10144000910509F098F49701A8016D2F7C2F8B2F3F
:101450009D2D04E00E9424392083318342835383ED
:10146000648375838683978384E077CF9701A8018F
:101470006D2F7C2F8B2F9D2D3D5F4C495140610975
:101480007109810991092F3F3C4F4C495140610539
:1014900071058105910509F098F49701A8016D2F58
:1014A0007C2F8B2F9D2D03E00E94243920833183D4
:1014B00042835383648375838683978383E04DCF10
:1014C0009701A8016D2F7C2F8B2F9D2D3A5F4943EB
:1014D000534061097109810991092F3F394F4943EF
:1014E0005340610571058105910509F098F4970154
:1014F000A8016D2F7C2F8B2F9D2D02E00E94243997
:1015000020833183428353836483758386839783E7
:1015100082E023CF9701A8016D2F7C2F8B2F9D2D6B
:10152000345F4347564061097109810991092F3F92
:10153000334F43475640610571058105910509F018
:1015400098F49701A8016D2F7C2F8B2F9D2D01E022
:101550000E942439208331834283538364837583BB
:101560008683978381E0F9CE80E0F7CE2F923F9279
:101570004F925F926F927F928F929F92AF92BF92A3
:10158000CF92DF92EF92FF920F931F93CF93DF934F
:10159000CDB7DEB76C970FB6F894DEBF0FBECDBFE8
:1015A000322E3D87242E5E872B013C01A982BF8607
:1015B000C88AD98AEA8AFB8A0C8B1D8B988E8F8AFF
:1015C000211501EC30070AE140070DE3500705E063
:1015D000600771058105910509F0A0F52F3710EF1F
:1015E00031071AEF410712E05107610571058105C6
:1015F000910509F008F4BBC12F3F354D41415E47CD
:10160000634071058105910509F008F496C02981B0
:101610003F85488959896A897B898C899D89A0E0A1
:10162000992493940E946F3909F095C011E01E8BA4
:1016300094E0892E912CA12CB12C89869A86AB86B8
:10164000BC8634C0312CB1ECBD872AE1222EEDE3FB
:10165000EE8735E0432E512C612C712CD8CFA32C72
:10166000BD84C22CDE847201830120E03EE249E5A4
:1016700056E761E170E080E090E00E948038122F30
:10168000B32FF42FE52FA5E00E946F3909F453C062
:10169000A7E00E946F3921F416E0B0E0F0E0E0E04E
:1016A000CF011987BA879B87EC871E8A89849A8421
:1016B000AB84BC84A501940160E070E0CB01A32C55
:1016C000BD84C22CDE847201830129833A834B835B
:1016D0005C836D837E838F83988760E070E080E019
:1016E00090E00E94CA3729833F87488B598B6A8BC9
:1016F0007B8B8C8B9D8B0E89C12CD12C7601C39456
:1017000040E050E0BA01013009F0ABC0AF89B88DBC
:101710001D921D921D921C921397FD011482158239
:101720001682178281E090E0A0E0B0E08087918788
:10173000A287B387E0C014E0B0CF29813F854889F4
:1017400059896A897B898C899D89A0E00E946F39BB
:1017500009F485CF912CA32CBD84C22CDE847201A8
:10176000830129813F85488959896A897B898C89C8
:101770009D890E94803829873A874B875C87298515
:101780003A854B855C8506E0A02EB12C26303105CC
:101790004105510568F089859A85AB85BC858930FE
:1017A0009740A105B105D0F0B8E0AB2E17E0B12EFF
:1017B000C12CD12CE12CF12C00E010E029813F85D7
:1017C000488959896A897B898C899D890E948038DA
:1017D000322E3D87242E5E872B013C01A32CBD8435
:1017E000C22CDE847201830129813F854889598991
:1017F0006A897B898C899D890E947E38E0E4AE2EBF
:10180000F2E4BF2EAFE0CA2ED12CE12CF12C00E087
:1018100010E00E94CA37A32CBD84C22CDE84720162
:1018200083010E948038A32FF42FE52F422F5A2FD7
:101830006F2F7E2FA0E4CA2EA2E4DA2EAFE0EA2EAC
:10184000F12C411551056105710521F4C12CD12CF4
:101850007601C394AA24A3949A1409F46DC001E0FC
:101860000E8BCB01BA0117E0660F771F881F991FF7
:101870001A95D1F7A70196010E942135298F3A8F39
:101880004B8F5C8F89849A84AB84BC8407E0880C7E
:10189000991CAA1CBB1C0A95D1F795018401125012
:1018A0002109310948015901298D3A8D4B8D5C8DF3
:1018B000280D391D4A1D5B1DAF89B88D2D933D93B1
:1018C0004D935C931397FD0164837583868397839F
:1018D0001896CD92DD92ED92FC921B978E8888200F
:1018E00051F039829D849F86288AAE84A98A4A8ACB
:1018F0005B8A6C8A7D8A29813F85488959896A89F2
:101900007B898C899D896C960FB6F894DEBF0FBEDB
:10191000CDBFDF91CF911F910F91FF90EF90DF909E
:10192000CF90BF90AF909F908F907F906F905F907F
:101930004F903F902F900895AF89B88D1D921D92C2
:101940001D921C921397FD01148215821682178234
:1019500081E090E0A0E0B0E080879187A287B38724
:101960003982FD85FF87288A8E84898AC0CF2981A4
:101970003F85488959896A897B898C899D89A0E03E
:10198000E0E83E2EF0EFFD87FAEF2F2E02E00E8703
:10199000412C512C612C712C0E946F3909F0DACE48
:1019A0001CEDB5E07BCEDF92EF92FF920F931F9379
:1019B000CF93DF93FC01E080F18002811381D48119
:1019C000C581B681D7809701A8016D2F7C2F8B2F01
:1019D0009D2D20583A4146405109610971098109FC
:1019E00091092F373A41464051056105710581053E
:1019F000910509F0D0F49701A8016D2F7C2F8B2F52
:101A00009D2D07E00E942439208331834283538334
:101A1000648375838683978387E0DF91CF911F91DD
:101A20000F91FF90EF90DF9008959701A8016D2F1F
:101A30007C2F8B2F9D2D35534C4051096109710925
:101A4000810991092F3F34434C40510561057105CF
:101A50008105910509F098F49701A8016D2F7C2F5D
:101A60008B2F9D2D06E00E942439208331834283F1
:101A70005383648375838683978386E0CECF9701F3
:101A8000A8016D2F7C2F8B2F9D2D3A56484151096F
:101A900061097109810991092F3F39464841510572
:101AA000610571058105910509F098F49701A80178
:101AB0006D2F7C2F8B2F9D2D05E00E9424392083D4
:101AC000318342835383648375838683978385E060
:101AD000A4CF9701A8016D2F7C2F8B2F9D2D345DF6
:101AE0004043510961097109810991092F3F334D23
:101AF00040435105610571058105910509F098F490
:101B00009701A8016D2F7C2F8B2F9D2D04E00E9443
:101B1000243920833183428353836483758386838E
:101B2000978384E07ACF9701A8016D2F7C2F8B2FAC
:101B30009D2D385A41465109610971098109910960
:101B40002F3F374A414651056105710581059105D1
:101B500009F098F49701A8016D2F7C2F8B2F9D2DF4
:101B600003E00E94243920833183428353836483BA
:101B700075838683978383E050CF9701A8016D2FEB
:101B80007C2F8B2F9D2D3055434C510961097109D4
:101B9000810991092F3F3F44434C5105610571056F
:101BA0008105910509F098F49701A8016D2F7C2F0C
:101BB0008B2F9D2D02E00E942439208331834283A4
:101BC0005383648375838683978382E026CF97014E
:101BD000A8016D2F7C2F8B2F9D2D305A46485140E8
:101BE00061097109810991092F3F3F4946485140D8
:101BF000610571058105910509F098F49701A80127
:101C00006D2F7C2F8B2F9D2D01E00E942439208386
:101C1000318342835383648375838683978381E012
:101C2000FCCE80E0FACE089508950895AF92BF9259
:101C3000CF92DF92EF92FF920F931F93CF93DF9398
:101C40006C017B018B01040F151FEB015E01AE18C7
:101C5000BF08C017D10759F06991D601ED91FC91E9
:101C60000190F081E02DC6010995892B79F7C50116
:101C7000DF91CF911F910F91FF90EF90DF90CF9068
:101C8000BF90AF900895833081F028F4813099F0AF
:101C90008230A9F008958730A9F08830C9F08430E7
:101CA000B1F4809180008F7D03C0809180008F7798
:101CB00080938000089584B58F7784BD089584B59E
:101CC0008F7DFBCF8091B0008F778093B000089517
:101CD0008091B0008F7DF9CFCF93DF93282F30E034
:101CE000F901E856FA4F8491F901EF57F54FD49175
:101CF000F901E156F54FC491CC23A1F081110E9466
:101D0000430EEC2FF0E0EE0FFF1FEB56F54FA591C1
:101D1000B491EC91ED2381E090E009F480E0DF9153
:101D2000CF91089580E090E0FACF1F93CF93DF9397
:101D3000282F30E0F901E856FA4F8491F901EF5766
:101D4000F54FD491F901E156F54FC491CC23A9F098
:101D5000162F81110E94430EEC2FF0E0EE0FFF1FB3
:101D6000EE52FA4FA591B4918FB7F894EC911111FE
:101D700008C0D095DE23DC938FBFDF91CF911F91F8
:101D80000895DE2BF8CF10929502109294021092D3
:101D9000E6021092E5021092DC0281E08093DB0201
:101DA0001092D60261E082E10E94950E61E083E12B
:101DB0000E94950EE9EBF0E080818E7F8083808128
:101DC0008D7F808388E48093B80085E48093BC0095
:101DD00083E19EE0909393028093920284E19EE0DF
:101DE00090939102809390020895CF93DF9390E0B7
:101DF000FC01EF57F54F24918156954FFC018491DA
:101E00008823C9F090E0880F991FFC01E455FA4F30
:101E1000A591B491FC01EE52FA4FC591D491611194
:101E20000DC09FB7F8948C91209582238C93888164
:101E3000282328839FBFDF91CF910895623051F40A
:101E40009FB7F8943C91822F809583238C93E881EF
:101E50002E2BEFCF8FB7F894EC912E2B2C938FBFB6
:101E6000EACF8E3008F08E502091000190E4299F37
:101E7000900111248770822B80937C0080917A00DE
:101E8000806480937A0080917A0086FDFCCF8091F7
:101E900078009091790008953FB7F8948091750289
:101EA00090917602A0917702B091780226B5A89B16
:101EB00005C02F3F19F00196A11DB11D3FBFBA2FDC
:101EC000A92F982F8827BC01CD01620F711D811D9C
:101ED000911D42E0660F771F881F991F4A95D1F721
:101EE00008958F929F92AF92BF92CF92DF92EF921E
:101EF000FF926B017C010E944C0F4B015C01C114ED
:101F0000D104E104F104B9F00E944C0F6819790979
:101F10008A099B09683E73408105910580F321E0A1
:101F2000C21AD108E108F10888EE880E83E0981EF5
:101F3000A11CB11CE4CFFF90EF90DF90CF90BF9039
:101F4000AF909F908F9008952FB7F8946091710291
:101F50007091720280917302909174022FBF089564
:101F60000895DC0180E0615090F09D919827E92F61
:101F7000EF70F0E0E858FA4F2491E92FE295EF7006
:101F8000F0E0E857FA4FE491822F8E27ECCF0895C6
:101F9000DC012C911196ED91FC91F8948181822BBA
:101FA00081839281322F30959323928387E090E052
:101FB0000197F1F781818323818383E290E0019788
:101FC000F1F790817894EFECF0E03197F1F79223FC
:101FD00081E009F480E00895FC0190810180F281A4
:101FE000E02D292F209560FF14C0F8948281822370
:101FF00082838181892B8183A3E2B0E01197F1F77D
:102000008281982B9283789487ED90E00197F1F785
:102010000895F8948281822382838181892B818330
:10202000AFEFB0E01197F1F78281982B928378940B
:102030008FE090E0EBCFDF92EF92FF920F931F9330
:10204000CF93DF93EC01D62EE42E08E010E0FF24BE
:10205000F39461E08D2D8F2109F460E0CE010E94A0
:10206000EC0FFF0C01501109A1F7E11010C0F8941A
:10207000E981FA8191818881809589238183E98131
:10208000FA81928188818095892382837894DF9177
:10209000CF911F910F91FF90EF90DF900895EF92F5
:1020A000FF920F931F93CF93DF938C017B0140E04E
:1020B00065E50E941B10E70188E0E80EF11C6991BC
:1020C00040E0C8010E941B10CE15DF05C1F7DF916B
:1020D000CF911F910F91FF90EF900895FC01908197
:1020E0000180F281E02DF8948181292F20958223AF
:1020F000818378943DE743E050E0315029F1DA01E3
:102100001197F1F780818923C1F3F89482818223AA
:1021100082838181892B81837894ABE7B7E0119723
:10212000F1F7F894818182238183A3E1B1E01197D3
:10213000F1F78081982381E009F080E07894E3E66C
:10214000F6E03197F1F7089580E00895AF92BF92DD
:10215000CF92DF92EF92FF920F931F93CF93DF9373
:102160008B01BC018091FF02909100030E944F10EF
:1021700040E06EEB8091FF02909100030E941B10E3
:10218000E801680189E0C80ED11CA090FF02B09060
:10219000000388E0E82EF12C10E001E0C5010E9468
:1021A000C80F8111102B000F81E0E81AF108B1F778
:1021B0001993CC16DD0649F78091FF029091000338
:1021C0000E946E1091E0813009F090E0892FDF913C
:1021D000CF911F910F91FF90EF90DF90CF90BF9024
:1021E000AF9008950F931F93CF93DF93CDB7DEB7D2
:1021F00029970FB6F894DEBF0FBECDBF8C0180913A
:10220000FF02909100030E946E10811102C080E0D5
:102210001FC0BE016F5F7F4FC8010E94A6108823B8
:10222000B1F368E0CE0101960E94B10F9985891340
:10223000EECF8D818F33B9F020F48F3141F789E0F3
:1022400007C08F3521F08F3711F78CE001C08BE08C
:1022500029960FB6F894DEBF0FBECDBFDF91CF91A8
:102260001F910F9108958AE0F3CF0895FC016370E8
:10227000668B8481958126813781613039F06330A6
:1022800029F09187808733872287089531872087B7
:102290009387828708952F923F924F925F926F9219
:1022A0007F928F929F92AF92BF92CF92DF92EF92E6
:1022B000FF920F931F93CF93DF93CDB7DEB76A974B
:1022C0000FB6F894DEBF0FBECDBF9A8F898F7A8389
:1022D00069834A01D22E18870F833701BC2CDC0199
:1022E00059962D913C915A972115310509F015C148
:1022F00018968D919C911997681779070CF0D7C1A2
:102300001A968D919C91481759070CF0D0C14C2C0E
:10231000512CB6E0CB9E600D711D11247C876B871C
:10232000161617060CF0C3C1EA2DF0E0FA87E9870C
:1023300093E0EE0FFF1F9A95E1F7F88BEF87CF013F
:10234000840F951F181619060CF0B1C1A98DBA8D0E
:1023500058968C91811104C0BFEABD1508F4D3943E
:10236000A98DBA8DED91FC9111970284F385E02D32
:10237000CD010995B5E0DB9EC0011124E981FA8108
:10238000FC83EB83312C212C9C0128583F4F388F44
:102390002F8B4A2D50E05E8B4D8BEF89F88DE20D2F
:1023A000F31D44919E828D82D12CC12C69817A814A
:1023B000620D731D7A8B698B842F90E09C8B8B8BC5
:1023C000E98DFA8DA081B18140FF82C0F1E0BF129A
:1023D0006FC0AF126DC01C96ED91FC912F813885B6
:1023E000A4014C0D5D1D69897A89898D9A8D0995A5
:1023F000EB89FC89F595E7954E2F5FEFC51AD50A55
:102400006D817E818D899E89680F791F7E836D83A2
:1024100098E0C916D10481F6AFEF2A1A3A0AEB8187
:10242000FC81E40DF51DFC83EB83F5E02F163104F0
:1024300009F0B3CF2F81388526153705B9F0A98D5E
:10244000BA8DED91FC91B1E0BB1257C0AB1255C0F3
:1024500069817A816B5F7F4F0088F189E02D83016C
:1024600028E030E0A401898D9A8D0995A98DBA8D57
:10247000ED91FC9111970688F789E02DCD016A96C0
:102480000FB6F894DEBF0FBECDBFDF91CF911F9185
:102490000F91FF90EF90DF90CF90BF90AF909F9003
:1024A0008F907F906F905F904F903F902F90099406
:1024B0001E96ED91FC91EF80F88409851A859201B2
:1024C0004D815E816B817C81898D9A8D099590CF3C
:1024D0002F8138852615370509F48ACF31E0B312EC
:1024E00007C0A31205C01C96ED91FC91930178CF13
:1024F0001E96ED91FC917301E0CF6B857C8564198C
:1025000075090684F785E02D73010F8518899201FE
:10251000A401898D9A8D0995A9CFF90134969491DA
:10252000329745915491D91AB7E0DB9E400D511D69
:102530001124F901259134913C8B2B8BFA012590C4
:102540003490FA013296749031963491398B3296E8
:1025500064903196449041E04C1518F04A1508F00B
:102560007FC0662D062C000C770B7C836B83842D3B
:10257000042C000C990B9E838D83A98DBA8DED914F
:10258000FC9111970284F385E02DCD010995512C22
:10259000D12CC12CEA2DF0E0FA87E9872B2D30E011
:1025A0003C872B87A401440D511D47FC5A95588F39
:1025B0004F8B69817A81660D711D67FC7A957E87E4
:1025C0006D877989C71608F051CF2C2D30E04D81E9
:1025D0005E81420F531FA985BA854A9FC0014B9F58
:1025E000900D5A9F900D1124FC01E80DF91DF88BF8
:1025F000EF87852D612C4F89588D420F531F5E8BBD
:102600004D8B671408F050C044244394480E8770E3
:1026100041F4C1010196EB89FC89E20DF31DD490D0
:102620001C01D7FE19C0A98DBA8DED91FC91662DC4
:1026300070E0B1E0BB1219C0AB1217C02D853E850A
:10264000620F731F0484F585E02D2F8138854D8935
:102650005E89898D9A8D0995DD0C6394842DD1CF87
:102660001E821D821C821B8288CF4B815C81640F7D
:10267000751FAB85BC856A9FC0016B9F900D7A9FCB
:10268000900D112469817A81680F791F0684F7857E
:10269000E02DEF80F88409851A859D014F855889C2
:1026A000898D9A8D0995D8CF570CC3948ACF6A9695
:1026B0000FB6F894DEBF0FBECDBFDF91CF911F9153
:1026C0000F91FF90EF90DF90CF90BF90AF909F90D1
:1026D0008F907F906F905F904F903F902F900895D4
:1026E0008F929F92AF92CF92EF92FF920F931F9390
:1026F000CF93DF93EC01262F898D9A8D009709F0F7
:1027000051C06A30D1F41D861C868D8948E0849FB3
:10271000900111248E859F85820F931F9F878E873E
:1027200081E090E0DF91CF911F910F91FF90EF90AA
:10273000CF90AF909F908F9008956D3089F3CC88A3
:10274000AD888F898823C1F08C859D8536E0C39E36
:10275000800D911D1124488559854817590764F447
:102760004E855F851D861C8638E0A39EC00111241E
:10277000840F951F9F878E87EA88FB8808891989AF
:102780004E855F856C857D85CE010E944B112C891D
:102790008C859D8546E0249F800D911D11249D8789
:1027A0008C87BECF6A3069F41D861C86FC01369684
:1027B000E4912D898E859F85E29F800D911D1124C6
:1027C000ADCF6D3009F4ACCFFC0134963491631772
:1027D00008F4A6CF3196E491E61708F4A1CFFC01E6
:1027E000329685909490462F431B342F47E0349FB8
:1027F000800C911C1124F401329634913196E491AD
:102800003323A9F1EE2399F1CC88F4013596E491B4
:10281000AD884F89442301F10E2E000CFF0BE30F0E
:10282000F11DCE9EA001CF9E500D11246C857D859B
:10283000460F571F68857985641775076CF44E85B8
:102840005F851D861C86FC013696E491AE9E400D88
:10285000511D11245F874E87EA88FB8808891989F2
:102860004E855F856C857D85CE010E944B11F401FC
:102870003496E4912C898C859D85E29F800D911D75
:1028800011248DCF6F927F928F929F92AF92BF92C1
:10289000CF92DF92EF92FF920F931F93CF93DF932C
:1028A000EC016B015A0139014801E881F981028488
:1028B000F385E02D0995E881F9810288F389E02DFF
:1028C00087019301A501B601CE010995A501480D27
:1028D000591D41505109E881F9810288F389E02DA1
:1028E0009301B601CE010995E881F9810088F1894B
:1028F000E02D9401A501B601CE010995C60CD71CA7
:10290000B60161507109E881F9810088F189E02DF3
:102910009401A501CE010995E881F9810688F7891E
:10292000E02DCE01DF91CF911F910F91FF90EF909D
:10293000DF90CF90BF90AF909F908F907F906F90DF
:1029400009946F927F928F929F92AF92BF92CF9293
:10295000DF92EF92FF920F931F93CF93DF935C016F
:10296000EB016A01490138018701DC01ED91FC911D
:102970006217730719F5641675062CF0962D872DCE
:102980003A01C92ED82E9601261937092F5F3F4FDD
:10299000048CF58DE02DA301BE01C5010995DF91E1
:1029A000CF911F910F91FF90EF90DF90CF90BF904C
:1029B000AF909F908F907F906F9008954615570528
:1029C00091F42617370724F0892D4B01C22FD82FF9
:1029D0009E01281939092F5F3F4F068CF78DE02D96
:1029E000A601B401DACF0284F385E02D0995D50163
:1029F000ED91FC910488F589E02D83019401A601F5
:102A0000BE01C5010995D501ED91FC910688F789B4
:102A1000E02DC501DF91CF911F910F91FF90EF90B5
:102A2000DF90CF90BF90AF909F908F907F906F90EE
:102A30000994EF92FF920F931F93DC011A960D9168
:102A40001C911B9718962D913C911997ED91FC9133
:102A500000A0F1A1E02D7B0150E040E070E060E0DB
:102A600009951F910F91FF90EF9008954F925F92FB
:102A70006F927F928F929F92AF92BF92CF92DF928E
:102A8000EF92FF920F931F93CF93DF936C012B0173
:102A90005A0139014801DC01ED91FC910284F38572
:102AA000E02D0995E201640C751CD601ED91FC91B5
:102AB000C615D7055CF40088F189E02D87019401E3
:102AC000A501BE01C60109952196EFCF0688F789B9
:102AD000E02DC601DF91CF911F910F91FF90EF90F4
:102AE000DF90CF90BF90AF909F908F907F906F902E
:102AF0005F904F9009948F929F92AF92BF92CF9226
:102B0000DF92EF92FF920F931F93CF93DF93EC012D
:102B10005B014A016901E881F9810284F385E02DB6
:102B2000099595012C0D3D1D21503109E881F98150
:102B30000488F589E02D78018401A401B501CE0156
:102B40000995E881F9810688F789E02DCE01DF91AA
:102B5000CF911F910F91FF90EF90DF90CF90BF909A
:102B6000AF909F908F9009948F929F92AF92BF9257
:102B7000CF92DF92EF92FF920F931F93CF93DF9349
:102B8000EC015B014A0169017801E881F981028465
:102B9000F385E02D0995C80CD91C86010150110957
:102BA000E881F9810488F589E02D9501A401B5013A
:102BB000CE010995E881F9810688F789E02DCE01DB
:102BC000DF91CF911F910F91FF90EF90DF90CF9009
:102BD000BF90AF909F908F900994EF92FF920F93C8
:102BE0001F93DC01ED91FC9100A0F1A1E02D09956E
:102BF0001F910F91FF90EF9008950F931F93DC01A9
:102C0000ED91FC91068CF78DE02D09951F910F91A8
:102C100008950F931F93DC01ED91FC91048CF58DC9
:102C2000E02D09951F910F910895DC01ED91FC9124
:102C30000084F185E02D09943F924F925F926F924C
:102C40007F928F929F92AF92BF92CF92DF92EF923C
:102C5000FF920F931F93CF93DF935C017B014A0197
:102C60006901390187E0680E711C93E075946794DF
:102C70009A95E1F72B01400E511E10E000E0312C37
:102C8000D0E0C0E0CE0187709927330C892B59F42E
:102C9000FE0183E0F595E7958A95E1F7E00FF11FD6
:102CA000E80DF91D349037FE0AC021E030E0A7019D
:102CB000B5016C0F7D1F8BE193E00E9415162196E4
:102CC000CC16DD06F9F68FEFE81AF80A060D171D87
:102CD000E414F504A9F6DF91CF911F910F91FF90B5
:102CE000EF90DF90CF90BF90AF909F908F907F90AC
:102CF0006F905F904F903F9008952F923F924F9228
:102D00005F926F927F928F929F92AF92BF92CF927B
:102D1000DF92EF92FF920F931F93CF93DF9300D038
:102D200000D000D0CDB7DEB73C016A013E832D83D1
:102D3000FC82EB825801A41AB50AB7FE03C0B19415
:102D4000A194B1088D809E80861A970A97FE03C0D1
:102D50009194819491088A149B045CF0902F812FA8
:102D60000D811E819D838E839C2D8D2D6B01692F7E
:102D7000782F0C151D055CF09D818E817E836D83FF
:102D8000692F782F902F812F8601C92ED82E1601FA
:102D9000201A310A2B012D813E81421A530A57FE17
:102DA00003C0519441945108710137FE03C03FEFB5
:102DB000E31AF30AF594E7948D819E8186179707AD
:102DC0005CF5A1E0B0E0BA83A983C016D1064CF14E
:102DD000D301ED91FC910484F585E02D2B813C819C
:102DE000A8016D817E818A149B041CF04D815E8157
:102DF000B801C3010995E418F508F7FE0AC02D8152
:102E00003E8189819A81280F391F3E832D83E20CF0
:102E1000F31C0F5F1F4FD9CF2FEF3FEF3A8329836A
:102E2000D4CF26960FB6F894DEBF0FBECDBFDF918C
:102E3000CF911F910F91FF90EF90DF90CF90BF90B7
:102E4000AF909F908F907F906F905F904F903F904A
:102E50002F90089585ED8093BC008091BC0084FD87
:102E6000FCCF1092DC02089520914D02260F3327EB
:102E7000331F21323105ECF42091DC02FC0190E09B
:102E800080E0243069F082E00895A0914D02219104
:102E9000AC01435D5D4FA40FB52FB11D2C9301967E
:102EA000861798F380914D02680F60934D0280E081
:102EB000089581E00895E091950280919402E817C9
:102EC00030F4F0E0EA56FD4F808190E008958FEFF6
:102ED0009FEF089590919502809194022FEF3FEF1C
:102EE000981748F4E92FF0E0EA56FD4F208130E0D2
:102EF0009F5F90939502C9010895CF92DF92EF9260
:102F0000FF920F931F93CF93DF937C01CB018A0134
:102F10002091E802222389F0EB016B01C40ED51E3B
:102F2000CC15DD0569F06991D701ED91FC91019017
:102F3000F081E02DC7010995F3CF642F0E9434176B
:102F4000C801DF91CF911F910F91FF90EF90DF901B
:102F5000CF900895CF93DF931F92CDB7DEB76983EB
:102F60002091E8022223F9F02091E502203258F066
:102F700021E030E0FC013383228390E080E00F9079
:102F8000DF91CF9108958091E602E82FF0E0E35FB2
:102F9000FD4F998190838F5F8093E6028093E502D5
:102FA00081E090E0ECCF61E0CE0101960E94341701
:102FB000F7CF2091E50281E0213208F044C08091F2
:102FC000DC028111FCCF8091E70292E09093DC0259
:102FD00091E09093DB029FEF9093DA021092D90276
:102FE0002093D802ADE0B2E0E6EBF2E090E02913E6
:102FF00031C01092D7029091D702880F892B80930D
:10300000D7028091D602813049F51092D602809184
:10301000D7028093BB008091BC0083FDF8CF85EC84
:103020008093BC008091DC028230E1F38091DA026F
:103030008F3FB1F08091DA028032A1F08091DA0204
:10304000803391F084E01092E6021092E502109233
:10305000E80208953D9131939F5FC9CF85EEE0CF9F
:1030600080E0F1CF82E0EFCF83E0EDCFCF9388E631
:103070000E94860560E089EE92E00E94AA1760E84F
:1030800089EE92E00E94AA178091DE02CAE06C2FBE
:103090000E9495378295807F682F690F89EE92E0B4
:1030A0000E94AA178091DF026C2F0E9495378295AB
:1030B000807F682F690F89EE92E00E94AA178091A5
:1030C000E0026C2F0E9495378295807F682F690FF0
:1030D00089EE92E00E94AA178091E1026C2F0E9473
:1030E00095378295807F682F690F89EE92E00E9464
:1030F000AA178091E2026C2F0E9495378295807FFB
:10310000682F690F89EE92E00E94AA178091E3026E
:103110008E516C2F0E9495378295807F682F690FA2
:1031200089EE92E00E94AA1789EE92E00E94D917D8
:10313000882329F01092E40280E0CF91089581E085
:103140008093E40288E60E94860560E089EE92E0C2
:103150000E94AA178091DD026C2F0E9495378295FC
:10316000807F682F690F89EE92E00E94AA1789EE8E
:1031700092E00E94D9178111DDCF81E0DECFCF939D
:10318000DF93D82FC62F8091E0030E9486056D2F14
:1031900089EE92E00E94AA176C2F89EE92E00E94BD
:1031A000AA1789EE92E0DF91CF910C94D917EF9294
:1031B000FF920F931F93CF93DF93C82F062F7A01AF
:1031C0008091E0030E9486056C2F89EE92E00E94B8
:1031D000AA17E70110E0CE018E199F098017910709
:1031E00034F4699189EE92E00E94AA17F4CF89EE37
:1031F00092E0DF91CF911F910F91FF90EF900C948F
:10320000D917EF92FF920F931F93CF93DF93EC01A7
:10321000EC80FD806E157F050CF070C057FF04C078
:10322000240F351F50E040E08E819F81FA01E20FAC
:10323000F31F8E179F071CF49C01241B350B1216DD
:1032400013060CF05BC0922F842F86958695869589
:103250008E9DD0018F9DB00D11246A0F7B1FAF8D05
:10326000B8A1A60FB71F477049F188E0841B482F0B
:10327000682F70E0FB01E059FF4FE491281708F038
:1032800063C0621B71092FEF30E002C035952795AE
:103290006A95E2F7E2230130110539F0B0F102300E
:1032A000110561F58C91E82702C08C91E82BEC9315
:1032B000941720F12C813D81A20FB31FE92FE41B4D
:1032C000E83078F00230110521F58E2F9C91909511
:1032D0009C932C813D81A20FB31F88508830B0F79A
:1032E000E770EE2359F0F0E0E859FF4FE491013028
:1032F0001105F9F010F10230110519F1DF91CF91AC
:103300001F910F91FF90EF900895E0958C91E82325
:10331000CECF81E00115110509F480E081959E2F43
:103320008C932C813D81A20FB31F98509830C0F729
:10333000D7CF8C91E82BEC93E1CFE0958C91E823EB
:10334000FACF8C91E827F7CF0130110509F4ADCF02
:10335000E0F20230110509F4A5CFAE0DBF1DAECFCE
:103360000F931F93CF93DF9377FF04C0260F371F70
:1033700070E060E0DC011496CD91DC91FB01E20F7E
:10338000F31FCE17DF071CF49E01261B370B121606
:1033900013064CF5FA0157FD3796A3E0F595E7952E
:1033A000AA95E1F7EC9FD001ED9FB00DFC9FB00D09
:1033B00011246A0F7B1FDC015F96ED91FC91E60FF3
:1033C000F71F4770552781E090E001C0880F4A95AC
:1033D000EAF7482F0130110559F0A8F02E0F3F1FD2
:1033E00002301105E1F0DF91CF911F910F91089507
:1033F0002E0F3F1FE217F307B1F38191DF01119701
:10340000842B8C93F7CF80952E0F3F1FE217F30785
:1034100051F39191DF01119798239C93F7CFE21715
:10342000F30709F38191DF01119784278C93F7CF7C
:103430000F931F93FA01DC0156964C915697423038
:10344000E9F04330A1F1413061F514964D915C9162
:10345000DA01AE1BBF0BFD01E21BF30B77FD0BC0C6
:10346000DC0116964D915C916417750724F4AB014D
:10347000BF010E94B0191F910F91089514964D91AC
:103480005C91DA01A61BB70BBD0161507109DC012B
:1034900016964D915C91DA01AE1BBF0BFD01E21B4C
:1034A000F30B77FDE8CFAF010E940119E4CF169628
:1034B0004D915C91DA01A61BB70BBD0161507109FA
:1034C000CDCF0F931F93FA01DC0156964C9156977E
:1034D0004230A9F0433091F1413019F514964D91E5
:1034E0005C91DA01AE1BBF0BFD013197F7FD04C003
:1034F000AB01BF010E9401191F910F91089514960D
:103500004D915C91DA01A61BB70BBD01DC0116964B
:103510004D915C91DA01AE1BBF0BFD013197621B2F
:10352000730BF7FDE9CFDC0116964D915C91E41722
:10353000F50714F7AF010E94B019DECF16964D9132
:103540005C91DA01A61BB70BBD01621B730BCECFDA
:10355000FC0177FD64C080859185681779070CF0C0
:103560005EC057FD5CC082859385481759070CF0F3
:1035700056C086898230B1F0833029F1813041F420
:1035800084819581841B950BAB01BC01615071094D
:103590002130310509F108F443C02230310509F426
:1035A00063C0089584819581DC01A61BB70BBD0122
:1035B0006150710986819781DC01A41BB50BAD01B7
:1035C00041505109E5CF86819781861B970BBA013F
:1035D000AC0141505109DCCFCA0157FD0796A3E069
:1035E00095958795AA95E1F7A481B5818A9F900169
:1035F0008B9F300D9A9F300D1124620F731F078C23
:10360000F0A1E02DE60FF71F4770552721E030E0CD
:1036100001C0220F4A95EAF78081822B80830895AA
:10362000CA0157FD079633E0959587953A95E1F7DE
:10363000A481B5818A9F90018B9F300D9A9F300D98
:103640001124620F731F078CF0A1E02DE60FF71F06
:103650004770552781E090E001C0880F4A95EAF74E
:10366000809590818923DACFCA0157FD079623E020
:10367000959587952A95E1F7A481B5818A9F900158
:103680008B9F300D9A9F300D1124620F731F078C92
:10369000F0A1E02DE60FF71F4770552721E030E03D
:1036A00001C0220F4A95EAF780818227B7CF08959B
:1036B0008EBD00000DB407FEFDCF8EB50895FF92BC
:1036C0000F931F93CF93DF93F82ED92FC62F80919E
:1036D000380390913903892B09F447C080913C034A
:1036E0000E9486058091380390913903DC01ED91A9
:1036F000FC910190F081E02D60E009950F2D1D2FC8
:10370000D1E0C1508091380390913903CF3F31F11E
:10371000D03298F00E94D91780913C030E94860510
:103720008091380390913903DC01ED91FC91019077
:10373000F081E02D60E00995D1E08091380390910F
:103740003903F8016491DC01ED91FC910190F08165
:10375000E02D0995DF5F0F5F1F4FD3CFDF91CF9132
:103760001F910F91FF900C94D917E0914803F091AD
:103770004903908180914E038095892380830F2D8A
:103780001D2FC15008F438C0F801849120913603F0
:1037900030913703232B29F00E94581B0F5F1F4FD6
:1037A000F0CF28E030E040E8E0914403F091450399
:1037B00090914C03582F5423D9F05081952B90832E
:1037C000E0914603F0914703908150914D03952B72
:1037D0009083E0914603F0914703508190914D030F
:1037E000909595239083469521503109E9F6D6CFDF
:1037F000508190959523E3CFDF91CF911F910F9149
:10380000FF9008951F93CF93DF93EC018D8D9E8DD4
:10381000892BF9F0162F89A10E9486058D8D9E8D2A
:10382000DC01ED91FC910190F081E02D60E00995C3
:103830008D8D9E8DDC01ED91FC910190F081E02D4C
:10384000612F09958D8D9E8DDF91CF911F910C94E5
:10385000D917ADA5BEA59C918BA9809589238C9382
:103860008B8D9C8D892B31F0862FDF91CF911F910D
:103870000C94581B28E030E080E8A9A5BAA599A9C6
:10388000462F4823C1F04C91942B9C93ABA5BCA52B
:103890009C914AA9942B9C93ABA5BCA54C919AA949
:1038A000909594239C9386952150310931F7DF91AF
:1038B000CF911F9108954C9190959423E6CF8CBDA4
:1038C0009DBD0895FF920F931F93CF93DF93809137
:1038D000380390913903892B09F472C08CE08093EE
:1038E000B80065E08CE79AE00E945F1B60911F03BF
:1038F00061508BE193E00E94021C209121033091E2
:103900002203C901079697FD079623E095958795B1
:103910002A95E1F720911F0330912003829F8001B7
:10392000839F100D929F100D1124C0913A03D091E6
:103930003B0380913803909139030C0F1D1F892B95
:1039400009F47CC080913C030E9486058091380375
:1039500090913903DC01ED91FC910190F081E02D13
:1039600060E40995FF24F394809138039091390322
:103970000C171D07E1F1BFE1BF15A0F40E94D91794
:1039800080913C030E948605809138039091390311
:10399000DC01ED91FC910190F081E02D60E409954E
:1039A000FF24F39480913803909139036991DC01ED
:1039B000ED91FC910190F081E02D0995F394D4CF25
:1039C0008091360390913703892B31F08091500319
:1039D000909151030E945F1CE0914A03F0914B03C8
:1039E000908180914F038095892380837ACF0E94B4
:1039F000D9178091380390913903892B09F45FC05E
:103A00002091520330915303409154035091550338
:103A100060E074E284EF90E00E942135205131098A
:103A20004109510956954795379527952093B80038
:103A3000DF91CF911F910F91FF900895E09148037E
:103A4000F0914903808190914E03892B80830C175C
:103A50001D0779F289912091360330913703232B8A
:103A600019F00E94581BF3CF28E030E040E8E091C5
:103A70004403F091450390914C03582F5423D9F0FF
:103A80005081952B9083E0914603F09147039081FC
:103A900050914D03952B9083E0914603F09147039D
:103AA000508190914D039095952390834695215098
:103AB0003109E9F6CCCF508190959523E3CFE09181
:103AC0004A03F0914B03808190914F03892B8083AF
:103AD000AFCF1F93CF93DF93EC01162F8D8D9E8D6B
:103AE000892B29F18CE08093B80066EA111167EA0E
:103AF000CE010E94021C8D8D9E8D892B41F12FA934
:103B000038AD49AD5AAD60E074E284EF90E00E94B8
:103B1000213520513109410951095695479537956D
:103B200027952093B800DF91CF911F9108958B8D39
:103B30009C8D892B21F08DA99EA90E945F1CEFA569
:103B4000F8A990818CA9809589238083CECFEFA599
:103B5000F8A980819CA9892B8083E5CF089590E006
:103B600080E008958FE00E94310FA0910B01B09189
:103B70000C019C010E94BB372FEF33E040E050E086
:103B80000E94F734CA01B9010E946E3620E030E08D
:103B900040E251E40E94C4356093090270930A0226
:103BA00080930B0290930C0208958EE00E94310FD7
:103BB00024E630E0DC010E94C3372FEF33E040E021
:103BC00050E00E94F73430930802209307020895D2
:103BD000DC01ED91FD918081ED91FD919081ED9160
:103BE000FD916C9163708E2309F064609F2309F04E
:103BF0006860E5E0FEE1E60FF11D659565956D9362
:103C00006D917D918D919D91099423C01AC012C030
:103C100016C010C01EC009C014C013C006C019C011
:103C200009C00DC007C00DC014C062507040804074
:103C300090400BC0615070408040904006C06E5F65
:103C400001C06F5F7F4F8F4F9F4F9E938E937E93E8
:103C50006E9308958091F5029091F6020C94E81D00
:103C60008091F7029091F8020C94E81DBF92CF92D8
:103C7000DF92EF92FF920F931F93CF93DF93EC01AC
:103C8000B62EC72E8D85811105C0CE010E946E1003
:103C900081110EC01B861D861C8680E0DF91CF91AE
:103CA0001F910F91FF90EF90DF90CF90BF900895FC
:103CB00040E060EFCE010E941B1001E0E12CD12C0E
:103CC00011E0CE010E94C80FF82ECE010E94C80F4D
:103CD00091E0F91218C0813099F51134D8F2DB86E1
:103CE000D11002C081E08D878B81882399F22396C1
:103CF000EB2DFC2DCF01089629912193E817F907A8
:103D0000D9F781E0CBCFEE2DF0E0F8120FC08B8514
:103D10001817A0F4DE01AE0FBF1F13968C918023FD
:103D200079F4F12C193008F41C87D12EEC0FFD1F0B
:103D30008381902F9095892383830AC08113F1CFCB
:103D4000FE01EE0DF11D8381802B8383FF24F3940C
:103D50006F2DCE010E94EC0F1F5F000F11F4E39452
:103D600001E087E08E1508F0ACCFB7CF4F925F929D
:103D70006F927F928F929F92AF92BF92CF92DF927B
:103D8000EF92FF920F931F93CF93DF93CDB7DEB7E0
:103D900061970FB6F894DEBF0FBECDBF0E94A40F8F
:103DA000C0900102D0900202E0900302F090040261
:103DB0006C197D098E099F09693873418105910548
:103DC00008F458C080910002811154C01092FB0287
:103DD0008091FF02909100030E946E1040E06CEC15
:103DE0008091FF02909100030E941B104091F90204
:103DF00064E48091FF02909100030E941B10809167
:103E0000FB02882391F1E091FA02E9500EEE12E0F4
:103E1000E33038F4F0E0EE0FFF1FE95DFE4F008164
:103E200011818091FC02882309F480C08091F902FD
:103E300081117CC00E94A40F4B015C012801110F6D
:103E4000660877088091FF02909100030E94C80FD6
:103E5000813059F00E94A40F6419750986099709E9
:103E6000681579058A059B0568F381E08093FB025C
:103E7000809300020E94A40F6C197D098E099F098E
:103E800061347F4181059105D0F180910002882342
:103E9000B1F1E091FF02F0910003138615861486BC
:103EA000128611861086178216821582148213825A
:103EB000BE01665F7F4F8091FF02909100030E94D8
:103EC000361E81113AC060E070E08EEF92EC20E087
:103ED00030E040E05FE30E9453350E943636709335
:103EE0000602609305020E94A40F60930102709382
:103EF00002028093030290930402109200026196E2
:103F00000FB6F894DEBF0FBECDBFDF91CF911F91EA
:103F10000F91FF90EF90DF90CF90BF90AF909F9068
:103F20008F907F906F905F904F900895B801110F20
:103F3000880B990B0E94710F98CF67E0CE010A960B
:103F40000E94B10F99898913BECF8091FF02909191
:103F500000030E946E10882309F4B5CFBE016F5F85
:103F60007F4FCE010A960E94A610882309F4ABCF9A
:103F700068E0CE0101960E94B10F99858913A3CF05
:103F80006A8170E0762F6627770F770F770F298188
:103F900058E0259F90011124262B372B8A858031EC
:103FA000D1F4688570E08F81AB01481B5109CA01CB
:103FB0009695982F8827979587950E94A137CB01D2
:103FC0004097B90153E0660F771F5A95E1F7607883
:103FD0009C01260F371F213854EE35070CF473CFA0
:103FE000B901330F880B990B0E946E3620E030E048
:103FF00040E05CE30E9423376ACFCF93C82F8091C3
:10400000E0030E9486056C2F89EE92E00E94AA17B9
:1040100089EE92E00E94D91740E061E08091E003D0
:104020000E949005C82F109295028093940280E020
:1040300090919502C91729F089EE92E00E946A17C3
:10404000F7CFCF9108951F93CF93DF93C62F142FEF
:104050008F5C9E4FFC01D0818D2F0E94FD1F8378C5
:1040600011118C60F0E1CF9FB0011124682B8D2FCE
:10407000DF91CF911F910C94BF18CF93DF93D62F70
:10408000C0E1C80F8C2F0E94FD1F682FD13031F482
:1040900060648C2FDF91CF910C94BF186F7BF9CFA8
:1040A000CF93DF93D82FC62F83E00E94FD1F61E0DE
:1040B00070E001C0660FDA95EAF7C13039F4609517
:1040C000682383E0DF91CF910C94BF18682BF9CF60
:1040D000FF920F931F93CF93DF93EC018B01F82E88
:1040E00080E1F80E8F2D0E94FD1F682F011511052C
:1040F00081F46F7D8F2D0E94BF18CC0FDD1FCE592C
:10410000DC4F1A870987DF91CF911F910F91FF90A4
:1041100008956062EFCF0F931F93CF93DF93809149
:104120007E02882359F01092DD020E943618109208
:104130007E02DF91CF911F910F9108950E94A40FED
:104140000091FC011091FD012091FE013091FF01D1
:10415000601B710B820B930B693E734081059105C7
:1041600020F4012B022B032B21F70E94A40F609354
:10417000FC017093FD018093FE019093FF0188E69E
:104180000E94860560E089EE92E00E94AA1789EEFF
:1041900092E00E94D917882391F01092E402809156
:1041A000E402882331F21092DF021092DE021092B4
:1041B000DD02DF91CF911F910F910C94361881E0B1
:1041C0008093E40241E067E088E60E949005109247
:1041D000950280939402873010F389EE92E00E945A
:1041E0006A17D82F982F92959770CAE08D2F8F70ED
:1041F0009C9F800D11248093DD0289EE92E00E9445
:104200006A17982F92959F708F709C9F800D112434
:104210008093DE0289EE92E00E946A17982F9295B1
:1042200093708F709C9F800D11248093DF0289EE24
:1042300092E00E946A17982F92959F708F709C9FB2
:10424000800D11248093E00289EE92E00E946A17AB
:10425000982F92959F708F709C9F800D1124809352
:10426000E10289EE92E00E946A17982F92959F7062
:104270008F709C9F800D11248093E20289EE92E062
:104280000E946A17982F9F70925E82958F708C9F04
:10429000900D11249093E302D7FF4BCF80CF2F9244
:1042A0003F924F925F926F927F928F929F92AF92C6
:1042B000BF92CF92DF92EF92FF920F931F93CF9313
:1042C000DF93CDB7DEB72D970FB6F894DEBF0FBEE4
:1042D000CDBF3C01C982DA82EB82FC820D831E8352
:1042E0002F83388749875A876B877C87BAA03C2CF5
:1042F0002D2C5E2C0D87412E922EC984DA84EB84FE
:10430000FC8484E190E00E948F398C01FC01D08212
:10431000C182862D880F880F880F845D0E94FD1F43
:10432000F52DF3705F2E8C7F582AF801528223827C
:1043300034828CE0F694E794D794C7948A95D1F7A9
:10434000FC2DF07FCF2E892D8F70C82AF801C582F1
:1043500046828D85878393E06916710409F46CC0E9
:10436000A8F5F1E06F16710409F448C082E0681600
:10437000710409F452C0A80168E08AE20E94D718CB
:104380006A2D90E080E00E943D204B2D682D90E04A
:1043900080E00E942320C8012D960FB6F894DEBF5E
:1043A0000FBECDBFDF91CF911F910F91FF90EF9086
:1043B000DF90CF90BF90AF909F908F907F906F9045
:1043C0005F904F903F902F900C942B3A94E0691699
:1043D000710409F440C0E5E06E16710461F6A801AD
:1043E00068E082E50E94D7186A2D85E090E00E947F
:1043F0003D204B2D682D85E090E0CBCFA80168E0F3
:1044000082E30E94D7186A2D81E090E00E943D204F
:104410004B2D682D81E090E0BCCFA80168E08AE3D5
:104420000E94D7186A2D82E090E00E943D204B2D1B
:10443000682D82E090E0ADCFA80168E082E40E94A0
:10444000D7186A2D83E090E00E943D204B2D682D07
:1044500083E090E09ECFA80168E08AE40E94D7182C
:104460006A2D84E090E00E943D204B2D682D84E071
:1044700090E08FCF2F923F924F925F926F927F92F8
:104480008F929F92AF92BF92CF92DF92EF92FF9264
:104490000F931F93CF93DF93CDB7DEB72E970FB651
:1044A000F894DEBF0FBECDBF19013A014B018D87D5
:1044B0009E872801012B09F073C0E091CB03F09196
:1044C000CC03EE0FFF1FEE0FFF1FE952FC4FA08041
:1044D000B180C280D380CE0101967C018901930115
:1044E000AB016D857E8590E080E00E94D90584E176
:1044F00090E00E948F398C0189859A85AB85BC85B7
:10450000F8019083818339814A812B812370228332
:10451000438334832CE0B695A795979587952A9584
:10452000D1F7807F2D813E819F819F70892B85836C
:10453000368327834114510409F04BC0A80168E079
:104540008AE10E94D7182092BB033092BC0360928C
:10455000BD037092BE038092BF039092C003FD859D
:10456000F093C1038E858093C203C8012E960FB6C7
:10457000F894DEBF0FBECDBFDF91CF911F910F9199
:10458000FF90EF90DF90CF90BF90AF909F908F9073
:104590007F906F905F904F903F902F900C942B3AAC
:1045A000E091CD03F091CE03EE0FFF1FEE0FFF1F42
:1045B000E952FC4FA080B180C280D380FE013196C9
:1045C0007F0181019A01AB016D857E8581E090E0DC
:1045D0008CCF4A94452849F6A80168E082E20E94FF
:1045E000D7182092C3033092C4036092C50370921F
:1045F000C6038092C7039092C803ED85E093C90378
:10460000FE85F093CA03B1CF2F923F924F925F92F3
:104610006F927F928F929F92AF92BF92CF92DF92D2
:10462000EF92FF920F931F93CF93DF93CDB7DEB737
:10463000E5970FB6F894DEBF0FBECDBFE22E29A3DB
:10464000F32E3AA34BA35CA36DA37EA38FA398A7DD
:10465000702E612E9701AFEF0E9463392E373A41D9
:1046600046405105610571058105910509F058F431
:1046700080E889A38AE18AA386E08BA31CA21DA2FD
:104680001EA21FA218A629A13AA14BA15CA16DA14F
:104690007EA18FA198A52115314C4A415D4365400B
:1046A00071058105910569F060F019A281EC8AA37A
:1046B0008AE18BA38DE38CA385E08DA31EA21FA2AC
:1046C00018A6D9A04AA05BA0ACA0EDA0FEA00FA1A7
:1046D00018A5272C362C2D2D342D452D5A2DB701FC
:1046E000C8012115344E4B40544562407105810587
:1046F000910509F008F425C1ABE74A2EA3E05A2E34
:1047000022E633E03AA729A78901F201D12CC101A1
:10471000880F991FDC01A559BC4F7D012081318193
:1047200042815381648175818681978138962115F4
:10473000344E4B405445624071058105910571F03E
:1047400068F0D71459F0D80119962D913C91D701F2
:104750008D919C912817390709F46AC1D3940E5F93
:104760001F4FB6E0DB12DACF81010F511C4FF80169
:104770008081811108C061E0872D962D0E94502014
:1047800081E0D8018C9329A13AA14BA15CA16DA134
:104790007EA18FA198A5D101E3E0AA0FBB1FEA95E6
:1047A000E1F7AE59BC4FFD01799659962C933183B0
:1047B000428353836483758386839783FE013D968A
:1047C0004F01A12CB12CC12CD12CE12CF12C00E0FB
:1047D00010E00E94B60A2BA73CA74DA75EA76FA7C3
:1047E00078AB89AB9AABC101880F991F9C012E59F8
:1047F0003C4F7901D90119960D911C912BA53CA52F
:1048000089A99AA90E943A22712C612CF701399644
:10481000FDABECABD201AC901196EC9011971296D7
:10482000FC90129713960C91139714961C91149761
:104830001596BC91F201D680C780F8E04F0E511C4E
:104840002A2D3E2D4F2D502F612F7B2F8D2D9C2DEE
:10485000A0E00E946F3909F455C0E9A5FAA52185A9
:104860003285ECA9FDA9808191812817390709F0CB
:1048700049C0A98EEA8EFB8E0C8F1D8FBE8FDF8EF6
:10488000C8A2CE0149960E94D30C8BAB298D3A8DDC
:104890004B8D5C8D6D8D7E8DCE0101964C01ABA450
:1048A000BCA4CDA4DEA4EFA4F8A809A91AA98F8DF1
:1048B00098A10E94B60AAA24A394298D3A8D4B8D03
:1048C0005C8D6D8D7E8D8F8D98A12F3F354D414133
:1048D0005E47634071058105910509F008F4A12C3C
:1048E000AF928BA8C980DA80EB80FC800D811E819D
:1048F0002F81388549855A856B857C85C3010E9447
:104900004F210F90BFEF6B1A7B0AE9A5FAA53296EB
:10491000FAA7E9A7F6E06F16710409F07BCFF10161
:10492000EE0FFF1FEE59FC4F8185928560E20097E4
:1049300019F0019721F460E881EB0E94BF1880E034
:1049400078C0D10193E0AA0FBB1F9A95E1F7AE5949
:10495000BC4FFD0179965996DC9241825282A38226
:10496000E482F5820683178381010F511C4FD80121
:104970008C91811108C061E0872D962D0E945020F6
:1049800081E0F8018083CE0181960E94D30C582EDD
:10499000F101EE0FFF1FEE59FC4F0184F285E02D6F
:1049A00029A13AA14BA15CA16DA17EA18FA198A5DF
:1049B000EF2B51F5A090BB03B090BC03C090BD039A
:1049C000D090BE03E090BF03F090C0030091C103FC
:1049D0001091C203DE011D964D010E94B60A1F927E
:1049E000852CA12CCD84DE84EF84F88809891A896E
:1049F0002B893C894D895E896F89788D872D962D0D
:104A00000E944F210F909BCFA090C303B090C4038E
:104A1000C090C503D090C603E090C703F090C803D0
:104A20000091C9031091CA03FE013D964F01D5CFF5
:104A300081E0E5960FB6F894DEBF0FBECDBFDF91E3
:104A4000CF911F910F91FF90EF90DF90CF90BF908B
:104A5000AF909F908F907F906F905F904F903F901E
:104A60002F9008950F931F93CF93DF93209183028C
:104A700030918402032E000C440B550B80911101E0
:104A800090911201A0911301B0911401280F391FC8
:104A90004A1F5B1FA4E6B0E00E941635DC0101E06E
:104AA00010E09B01AD0160E070E080E090E00E94CA
:104AB0000423DF91CF911F910F9108950F931F93BE
:104AC000CF93DF93EAE0F1E0238134814581568181
:104AD00087819085A185B285280F391F4A1F5B1FEA
:104AE0008091830290918402092E000CAA0BBB0BCB
:104AF000280F391F4A1F5B1FA4E6B0E00E9416353D
:104B0000DC0110E000E09B01AD0160E070E080E0BE
:104B100090E00E940423DF91CF911F910F9108959F
:104B20000F931F936093D7037093D8038093D90397
:104B30009093DA03EBEBF3E02081318142815381E2
:104B40006481758110E000E0868197810E943A229D
:104B5000E3ECF3E0208131814281538164817581EE
:104B600001E010E0868197810E943A221F910F9107
:104B70000895FC0101900020E9F73197AF01481B2F
:104B8000590BBC018BE193E00C94160E8F929F920F
:104B9000AF92BF920F931F93CF93DF93CDB7DEB742
:104BA000A1970FB6F894DEBF0FBECDBF19A2423059
:104BB00008F44AE08E010F5D1F4F842E912CB12C1A
:104BC000A12CA50194010E942135E62FB901CA014B
:104BD000EA30F4F4E05DD801EE938D01232B242B11
:104BE000252B79F790E080E0109719F0CD010E9415
:104BF000B925A1960FB6F894DEBF0FBECDBFDF91E9
:104C0000CF911F910F91BF90AF909F908F9008957B
:104C1000E95CE1CF682F70E090E080E04AE00C941E
:104C2000C625CF92DF92EF92FF92CF93DF936B0175
:104C30007C016DE28BE193E00E947013EC0166272A
:104C40007727CB016C197D098E099F094AE00E94E4
:104C5000C6258C0F9D1FDF91CF91FF90EF90DF90C5
:104C6000CF9008950C94B925CF93DF93BC01990F91
:104C7000880B990B97FF0CC00E941126EC0187E767
:104C800091E00E94B9258C0F9D1FDF91CF9108956F
:104C90004AE00E94C625F2CF4F925F926F927F92B8
:104CA0008F929F92AF92BF92CF92DF92EF92FF923C
:104CB0000F931F93CF936B017C01742EAC019B016A
:104CC0000E949037882399F08AE791E0CF911F9155
:104CD0000F91FF90EF90DF90CF90BF90AF909F909B
:104CE0008F907F906F905F904F900C94B925460104
:104CF0005701E894B7F82FEF3FEF4FE75FE7C501A3
:104D0000B4010E94903781110DC02FEF3FEF4FE7A4
:104D10005FE7C501B4010E94BF3518161CF48EE789
:104D200091E0D4CF2FEF3FEF4FE75FE4C701B6012B
:104D30000E941E3718161CF482E891E0C7CF2FEFAF
:104D40003FEF4FE75FECC701B6010E94BF3587FD1B
:104D5000F3CF20E030E0A901C701B6010E94BF35C2
:104D600010E000E087FF0AC06DE28BE193E00E9453
:104D700070138C01F7FAF094F7F8F094C0E060E05B
:104D800070E080E09FE37C1641F020E030E040E2FC
:104D900051E40E94C435CF5FF6CFA70196010E946F
:104DA00053352B013C010E943D364B015C014AE02A
:104DB0000E94C6257C01E00EF11ECC23C1F1C50185
:104DC000B4010E946C369B01AC01C301B2010E9488
:104DD00052354B015C016EE28BE193E00E9470134F
:104DE000E80EF91EC15018F120E030E040E251E435
:104DF000C501B4010E9423372B013C010E943D36BE
:104E00004B01B12CA12C4AE0C501B4010E94C6257A
:104E1000E80EF91EC501B4010E946C369B01AC017D
:104E2000C301B2010E9452354B015C01DBCFC701C7
:104E3000CF911F910F91FF90EF90DF90CF90BF9097
:104E4000AF909F908F907F906F905F904F9008955C
:104E50002091210330912203C901079697FD0796FF
:104E600023E0959587952A95E1F720911F033091CE
:104E70002003829FA001839F500D929F500D11240B
:104E800070E060E080913A0390913B030C94B93A52
:104E9000EF92FF920F931F930E94282710922803EE
:104EA0001092270310922A031092290381E090E0C8
:104EB00090932E0380932D0390932C0380932B03C8
:104EC00083E080932F0380933003E0918F02EA30D8
:104ED00008F06CC0F0E0E159F84D0C94B537792733
:104EE00022283C285428742886289828AC28C028D2
:104EF000DC2860910D0170910E0180910F0190915D
:104F000010010E946C3620E030E04AE754E40E9431
:104F1000C43542E00E944C2687E791E00E94B92503
:104F200081E080932F038093300320E030E040E263
:104F300051E46091090270910A0280910B029091F4
:104F40000C020E94523520E030E0A9010E94BF35DA
:104F500087FF04C086E891E00E9432266091090232
:104F600070910A0280910B0290910C0242E00E9423
:104F70004C2688E891E00E94322680918E02882398
:104F8000D9F08BE891E00E943226209107023091FF
:104F90000802EE24E394F12C09E010E047E150E030
:104FA00060E470E08BE193E00E9436151F910F9151
:104FB000FF90EF900C94621C6091050270910602C4
:104FC000072E000C880B990B97FF38C00E94112602
:104FD00067EF8BE193E00E94701380E991E00E94FB
:104FE00032268091DF028A3020F481E991E00E942C
:104FF00032268091DF020E940A2683E991E00E9416
:1050000032268091DE028A3020F486E891E00E9408
:1050100032268091DE020E940A2683E991E00E94F6
:1050200032268091DD028A3020F486E891E00E94E9
:1050300032268091DD020E940A26B8CF4AE00E9403
:10504000C625C6CFE0910A01F0E0E35DFE4F808106
:105050002AE0829FC00111240E94342681E08093BF
:105060002F038093300380918F020E940A2685E9E6
:1050700091E00E9432269ACF8091170190911801F9
:105080000E94342681E080932F0380933003809127
:105090008F020E940A268CE991E00E94B92587E7D9
:1050A00091E00E94B92582CF82E080932F03809304
:1050B0003003609111017091120180911301909160
:1050C00014014AE00E94C62587E791E00E94B925B5
:1050D00081E080932F038093300380918F020E94A0
:1050E0000A2689EA91E0C5CF80910B0190910C01CD
:1050F0000E94342681E080932F03809330038091B7
:105100008F020E940A2685EB91E0B3CF80911501B2
:10511000909116010E94342681E080932F038093A2
:10512000300380918F020E940A2680EC91E0A1CF8B
:105130008091190124E6829FC00111240E94342627
:1051400081E080932F038093300380918F020E942F
:105150000A268EEC91E08DCF80911A0124E6829F81
:10516000C00111240E94342681E080932F03809394
:10517000300380918F020E940A268DED91E079CF55
:105180008091DF028A3020F486E891E00E94322686
:105190008091DF020E940A2687E791E00E94B925EC
:1051A00081E080932F038093300380918F020E94CF
:1051B0000A268CEE91E05DCF8091DE028A3020F4E9
:1051C00086E891E00E9432268091DE020E940A2643
:1051D00087E791E00E94B92581E080932F038093B7
:1051E000300380918F020E940A2683EF91E041CF25
:1051F0000E94B43ADF92EF92FF920F931F93CF93E6
:10520000DF938AE0E82E81E0F82E8BE191E0F70150
:10521000D0E0C0E02191C20FD11D8E179F07D1F7BA
:1052200002E010E0F701D1907F01C8010E94E13453
:10523000D81621F06D2DC8010E94E9340F5F1F4F71
:105240000331110579F790E080E00E94E1348C177A
:1052500029F06C2F90E080E00E94E93481E090E03A
:105260000E94E134D81761F06D2F81E090E0DF916A
:10527000CF911F910F91FF90EF90DF900C94E93444
:10528000DF91CF911F910F91FF90EF90DF900895E4
:105290001F920F920FB60F9211242F933F938F936B
:1052A0009F93AF93BF938091710290917202A091EE
:1052B0007302B09174023091700223E0230F2D37F6
:1052C00058F50196A11DB11D2093700280937102C3
:1052D00090937202A0937302B0937402809175024E
:1052E00090917602A0917702B09178020196A11D6B
:1052F000B11D8093750290937602A0937702B093CC
:105300007802BF91AF919F918F913F912F910F9014
:105310000FBE0F901F90189526E8230F0296A11D2F
:10532000B11DD2CF1F920F920FB60F9211242F935F
:105330003F934F935F936F937F938F939F93AF931D
:10534000BF93EF93FF93E0911F01F0912001099526
:10535000FF91EF91BF91AF919F918F917F916F914D
:105360005F914F913F912F910F900FBE0F901F9023
:1053700018951F920F920FB60F9211242F933F93FF
:105380004F935F936F937F938F939F93AF93BF934D
:10539000EF93FF93E0911D01F0911E010995FF919C
:1053A000EF91BF91AF919F918F917F916F915F919D
:1053B0004F913F912F910F900FBE0F901F90189516
:1053C0001F920F920FB60F9211242F933F934F937A
:1053D0005F936F937F938F939F93AF93BF93EF935D
:1053E000FF938091B900887F803609F44AC0F0F5B8
:1053F000883209F4A7C018F5803109F49BC0B8F4CD
:10540000882309F4F9C0883009F494C0FF91EF9122
:10541000BF91AF919F918F917F916F915F914F91CC
:105420003F912F910F900FBE0F901F9018958831CC
:1054300009F488C0803251F78093DA0214C08034B6
:1054400009F49DC040F48033B9F38833F9F68093B2
:10545000DA0285ECB0C0803509F485C0883509F4DE
:1054600096C0883499F60E942A17D0CF883909F45B
:105470008CC038F5883729F050F4883611F0803721
:1054800029F683E08093DC0210926F0257C08838BF
:1054900009F47BC0803919F0803809F0B7CF8091CA
:1054A0006F02803208F071C0E0916F0281E08E0FD0
:1054B00080936F028091BB00F0E0E15BFD4F808341
:1054C0003DC0803B39F0E0F4803A09F479C0883A75
:1054D00009F09CCF84E08093DC0210924E0210927F
:1054E0004D02E0919202F0919302099580914D0254
:1054F00081110FC081E080934D0210922D0209C0EE
:10550000803C09F4A6CF883C09F4A3CF883B09F07E
:105510007DCFE0914E0281E08E0F80934E02F0E04D
:10552000E35DFD4F80818093BB0090914E0280919E
:105530004D0229C08091D7028093BB0085EC8093F7
:10554000BC0064CF9091D9028091D802981758F589
:10555000E091D90281E08E0F8093D902F0E0EA5405
:10556000FD4F8081E9CFE091D90281E08E0F8093D9
:10557000D9028091BB00F0E0EA54FD4F8083909106
:10558000D9028091D8029817C8F285E8D8CFE09167
:10559000D90281E08E0F8093D9028091BB00F0E0A8
:1055A000EA54FD4F80838091DB0281115CCF81E062
:1055B0008093D60284EA8093BC001092DC0226CF4E
:1055C00085EC8093BC001092DC0280916F028032E7
:1055D00030F4E0916F02F0E0E15BFD4F10826091EA
:1055E0006F0270E0E0919002F09191028FE492E0FE
:1055F000099510926F020ACF1092DA0234CFCF933E
:10560000DF930E94C30E1092EC021092EB0288EE20
:1056100093E0A0E0B0E08093ED029093EE02A093BF
:10562000EF02B093F0028DE391E09093EA02809351
:10563000E90285E0E2E6F3E0DF011D928A95E9F7F1
:1056400010926703109268031092690310926A0324
:1056500080E68093E00380E498E7ADE7B1E08093D3
:10566000CF039093D003A093D103B093D2031092B1
:10567000CC031092CB031092CE031092CD03109264
:10568000DF0362E083E00E94F50E62E082E00E94A8
:10569000F50EE2EAFAE0E491F0E0EE0FFF1FEB56C0
:1056A000F54FA591B491B0935703A0935603E4E846
:1056B000FAE0449140935A03E1EAFAE0E491F0E021
:1056C000EE0FFF1FEB56F54FC591D491D0935903C0
:1056D000C0935803E3E8FAE0E491E0935B0310928F
:1056E0005D0310925E0310925F03109260032BE340
:1056F0003FE1C9010197F1F79C91842F892391E043
:1057000009F490E08881E82309F0926026E533E00F
:1057100090935C033093F8022093F70280E39EE1BC
:105720009093200180931F0180916900837F8460A2
:1057300080936900E99AC1E0C09361033093F60257
:105740002093F5028AE29EE190931E0180931D0151
:10575000809169008C7F816080936900E89A82E083
:105760008093610310921E0310921D0320E830E025
:105770003093200320931F0380E290E09093220354
:1057800080932103309324032093230390932603D3
:10579000809325031092310310922803109227035F
:1057A00010922A0310922903C0933003C0932F0351
:1057B0008FEF9FEF90932E0380932D0390932C03F4
:1057C00080932B03C093320310923303109235035E
:1057D000109234038FE491E090931C0380931B0399
:1057E00089EE92E0909339038093380310923B0343
:1057F00010923A038FEF80933F038093400380938E
:1058000041038093420384E08093430380E58093C7
:10581000500310925103109237031092360360E048
:105820008CE00E94F50EEDE8FAE0E491E0930D03C0
:10583000EBEAFAE0E491F0E0EE0FFF1FEB56F54FD4
:105840008591949190930F0380930E031092180307
:1058500010921A0310921903109217031092160354
:105860001092150310921403109213031092120356
:1058700010921103109210038DE093E090930003B7
:105880008093FF021092FD021092FE021092F90224
:1058900089E08093FA02C093FB02C093FC0210924D
:1058A0000C0310920B03DF91CF910895CF93DF93F8
:1058B000CDB7DEB760970FB6F894DEBF0FBECDBF91
:1058C000789484B5826084BD84B5816084BD85B5DB
:1058D000826085BD85B5816085BD80916E008160E7
:1058E00080936E001092810080918100826080938D
:1058F000810080918100816080938100809180008F
:105900008160809380008091B10084608093B100B9
:105910008091B00081608093B00080917A008460B3
:1059200080937A0080917A00826080937A008091DF
:105930007A00816080937A0080917A0080688093F9
:105940007A001092C10060E084E00E94F50E60E0F1
:105950008EE00E94F50E61E084E00E94950E83E0E7
:105960008093000180913A0390913B03892B11F1C0
:105970000E942827209121033091220380911F0348
:1059800090912003213231050CF0B4C0B90160526E
:10599000710977FF02C06F5F7F4F759567958357D9
:1059A000910997FD019600E210E023E730E04CED0D
:1059B00055E0B3C02091210330912203C90107961D
:1059C00097FD0796B3E095958795BA95E1F72091F5
:1059D0001F0330912003AC01429FC001439F900DF3
:1059E000529F900D11240E948F3990933B03809316
:1059F0003A03892B09F0BCCF0E9428270E94621C21
:105A0000E091FF02F091000313861586148612863A
:105A100011861086178216821582148213821092C4
:105A2000FD021092FE0201E0BE016F5F7F4F809188
:105A3000FF02909100030E94361E882309F431C2B0
:105A400067E0CE0101960E94B10F98858913ECCFD3
:105A50008091F902811128C08091FF02909100038A
:105A60000E946E10BE016F5F7F4F8091FF02909188
:105A700000030E944F1040E064EB8091FF02909180
:105A800000030E941B108091FF02909100030E946E
:105A9000C80F182F8091FF02909100030E946E1092
:105AA000111102C00093F9021091FA02898180312C
:105AB00009F474C7CE0101960E94F210811708F014
:105AC000DFC18091FA028093FA028091FD028F5F1C
:105AD0008093FD028981883239F008F0DBC1803182
