:100000000C945C050C9462220C943A220C948405A6
:100010000C9484050C9484050C9484050C9484053C
:100020000C9484050C9484050C9484050C9484052C
:100030000C9484050C9484050C9484050C9484051C
:100040000C94D1200C9484050C9484050C948405A4
:100050000C9484050C9484050C9484050C948405FC
:100060000C941B210C948405000103070F1F3F7F94
:100070000080C0E0F0F8FCFE00000000003E5B4F96
:100080005B3E3E6B4F6B3E1C3E7C3E1C183C7E3CF8
:10009000181C577D571C1C5E7F5E1C00183C180006
:1000A000FFE7C3E7FF0018241800FFE7DBE7FF3096
:1000B000483A060E2629792926407F050507407F04
:1000C00005253F5A3CE73C5A7F3E1C1C08081C1C77
:1000D0003E7F14227F22145F5F005F5F06097F016D
:1000E0007F006689956A606060606094A2FFA29458
:1000F00008047E040810207E201008082A1C080826
:100100001C2A08081E101010100C1E0C1E0C303873
:100110003E3830060E3E0E06000000000000005F74
:1001200000000007000700147F147F14242A7F2A90
:100130001223130864623649562050000807030052
:10014000001C2241000041221C002A1C7F1C2A089E
:10015000083E080800807030000808080808000001
:1001600060600020100804023E5149453E00427F75
:10017000400072494949462141494D331814127FC4
:100180001027454545393C4A494931412111090764
:100190003649494936464949291E000014000000E5
:1001A00040340000000814224114141414140041B7
:1001B00022140802015909063E415D594E7C121174
:1001C000127C7F494949363E414141227F414141AC
:1001D0003E7F494949417F090909013E4141517327
:1001E0007F0808087F00417F41002040413F017F98
:1001F000081422417F404040407F021C027F7F0460
:1002000008107F3E4141413E7F090909063E4151A8
:10021000215E7F09192946264949493203017F0198
:10022000033F4040403F1F2040201F3F4038403F99
:10023000631408146303047804036159494D4300AF
:100240007F4141410204081020004141417F0402E6
:10025000010204404040404000030708002054547D
:1002600078407F284444383844444428384444285B
:100270007F385454541800087E090218A4A49C78AE
:100280007F0804047800447D40002040403D007F0A
:100290001028440000417F40007C047804787C08EA
:1002A0000404783844444438FC18242418182424BE
:1002B00018FC7C08040408485454542404043F44A3
:1002C000243C4040207C1C2040201C3C4030403CD2
:1002D00044281028444C9090907C4464544C440032
:1002E0000836410000007700000041360800020196
:1002F0000204023C2623263C1EA1A161123A404082
:10030000207A3854545559215555794122545478FE
:1003100042215554784020545579400C1E52721297
:100320003955555559395454545939555454580020
:1003300000457C410002457D420001457C407D1224
:1003400011127DF0282528F07C5455450020545486
:100350007C547C0A097F4932494949323A44444431
:100360003A324A4848303A4141217A3A424020786C
:10037000009DA0A07D3D4242423D3D4040403D3C6D
:1003800024FF2424487E4943662B2FFC2F2BFF0992
:1003900029F620C0887E0903205454794100004486
:1003A0007D413048484A32384040227A007A0A0A71
:1003B000727D0D19317D2629292F282629292926E4
:1003C00030484D4020380808080808080808382F29
:1003D00010C8ACBA2F102834FA00007B00000814B3
:1003E0002A142222142A14085500550055AA55AA89
:1003F00055AAFF55FF55FF000000FF00101010FF29
:1004000000141414FF001010FF00FF1010F010F083
:10041000141414FC001414F700FF0000FF00FF1474
:1004200014F404FC141417101F10101F101F1414C0
:10043000141F00101010F0000000001F101010100A
:100440001F10101010F010000000FF1010101010FE
:1004500010101010FF10000000FF140000FF00FF3C
:1004600000001F10170000FC04F4141417101714D8
:1004700014F404F40000FF00F714141414141414FA
:10048000F700F7141414171410101F101F1414146D
:10049000F4141010F010F000001F101F0000001FD7
:1004A00014000000FC140000F010F01010FF10FF0A
:1004B000141414FF141010101F00000000F010FF9F
:1004C000FFFFFFFFF0F0F0F0F0FFFFFF0000000083
:1004D00000FFFF0F0F0F0F0F3844443844FC4A4A07
:1004E0004A347E02020606027E027E0263554941BC
:1004F000633844443C04407E201E2006027E0202F3
:1005000099A5E7A5991C2A492A1C4C7201724C3006
:100510004A4D4D303048784830BC625A463D3E49DD
:100520004949007E0101017E2A2A2A2A2A44445F81
:10053000444440514A444040444A51400000FF0175
:1005400003E080FF000008086B6B08361236243683
:10055000060F090F060000181800000010100030E8
:1005600040FF0101001F01011E00191D1712003C70
:100570003C3C3C0000000000005EBCE2613FDD83CB
:10058000C29C7E20A3FD1F41009D23BE46DB65F873
:100590008C11AF32CA57E974000000080002010054
:1005A000000304070000000000000000000000003D
:1005B000240027002A00DB40A4A62EAFDA0281DA4D
:1005C0001281DA02818F2000A1C8D300408DAED500
:1005D00080A800000000250028002B00000060001B
:1005E00000000000000000000000000000E000002B
:1005F000000000000000000000000001E00000001A
:100600000000000000000000000001F000000000F9
:1006100000000000000000000003F00000000000E7
:10062000000000000000000007F0000000000000D3
:100630000000000000000007F800000000000000BB
:100640000000000000000FF800000003C0007E0062
:100650000001E0007F0FF800000003C000FE000072
:1006600001E000FFEFF800000003C000FE00000101
:10067000E000FFFFF800000003C000F00000000FE2
:10068000007FFE7FC0000003C000F00000000F00EC
:100690003FFE7FF83FF1FBCFFCFEF3BC3DEFE01FD8
:1006A000FE7FFF7FFBFFDFFEFEFFBC3DEFE01FC6CE
:1006B000FFFF7FFBFFDFFEFEFFBC3DEFE00FE3C768
:1006C000FE787BC3DE1EF0FFBC3DEF0007FF87FC1A
:1006D000787BC3DE1EF0F83C3DEF0001FFFFF00029
:1006E0007BC3C01EF0F03C3DEF0001F37FE03FFB19
:1006F000C3CFFEF0F03C3DEF0003E33F807FFBC340
:10070000DFFEF0F03C3DEF0007E73C00787BC3DE06
:100710001EF0F03C3DEF0007FFBE00787BC3DE1EFD
:10072000F0F03C3DEF0007FFFE00787BC3DE1EF0DB
:10073000F03C3DEF000FFFFE007FFBFFDFFEF0F01F
:100740003FFDEFE00FFFFF007FFBFFDFFEF0F03F1C
:10075000FDEFE00FF9FF003E79F9CF9EF0F01F3D6D
:10076000E7E01FF1FF0000000000000000000000B3
:10077000001F80FF007FFFFFFFFFFFFFFFFFFFE085
:100780001C007F007FFFFFFFFEB46D888D18E00026
:10079000001F007FFFFFFFFE95AD7DB577E00000F5
:1007A0000F007FFFFFFFFEA5AD9D8D19E000000645
:1007B000007FFFFFFFFEB5ADEDB57EE0000000005D
:1007C0000001800000000000000000000380000025
:1007D0000000000000000007C00000000000000052
:1007E000000007C00000000000000000000FC00073
:1007F00000000000000000001FE0000000000000FA
:100800000000001FE00000000000000000003FE0CA
:100810000000000000000000003FF00000000000A9
:10082000000000007FF0000000000000001FF87FC3
:10083000F0000000000000003FFE7FF0000000001C
:100840000000003FFF7FF0000000000000001FFFDD
:10085000FBE0000000000000000FFFF9FFC00000F7
:10086000000000000FFFF9FFF80000000000000783
:10087000FFF1FFFF00000000000003FC73FFFF809A
:10088000000000000001FE3FFFFF800000000000AC
:1008900000FF1E0FFF000000000000007FFE1FFC95
:1008A000000000000000003FFFFFF8000000000013
:1008B00000000FDFFFE0000000000000001F19FF34
:1008C000C0000000000000003F3CFF0000000000EE
:1008D0000000007E7CF800000000000000007FFEA9
:1008E0007C0000000000000000FFFFFC0000000092
:1008F00000000000FFFFFE0000000000000000FFFD
:10090000FFFE0000000000000001FFEFFE000000FD
:100910000000000001FFCFFE000000000000000307
:10092000FF07FE0000000000000003FC07FE0000BF
:10093000000000000003F003FE00000000000000C3
:10094000018000FE000000000000000000007E00AA
:100950000000000000000000003E00000000000059
:10096000000000000C000000000000078000FC00F8
:100970000003C0000000078001FC000003C000006D
:1009800000078001FC000003C0000000078001E0B8
:100990000000001E000000078001E00000001E00B3
:1009A0007FE3F79FF9FDE7787BDFC0FFF7FFBFFD2F
:1009B000FDFF787BDFC0FFF7FFBFFDFDFF787BDF2A
:1009C000C0F0F787BC3DE1FF787BDE00F0F787BC25
:1009D0003DE1F0787BDE0000F787803DE1E0787B49
:1009E000DE007FF7879FFDE1E0787BDE00FFF78781
:1009F000BFFDE1E0787BDE00F0F787BC3DE1E07809
:100A00007BDE00F0F787BC3DE1E0787BDE00F0F7AD
:100A100087BC3DE1E0787BDE00FFF7FFBFFDE1E052
:100A20007FFBDFC0FFF7FFBFFDE1E07FFBDFC07CA6
:100A3000F3F39F3DE1E03E7BCFC0000000000000EB
:100A40000000000000FFFFFFFFFFFFFFFFFFFFC0F0
:100A5000FFFFFFFFFD68DB111A31C0FFFFFFFFFD45
:100A60002B5AFB6AEFC0FFFFFFFFFD4B5B3B1A33C6
:100A7000C0FFFFFFFFFD6B5BDB6AFDC02200FF21B3
:100A80000001020408102040800102040810200127
:100A900002040810200000000023002600290004A2
:100AA0000404040404040402020202020203030315
:100AB000030303008A22312B11241FBECFEFD8E09D
:100AC000DEBFCDBF11E0A0E0B1E0E2E0F0E602C0A1
:100AD00005900D92AE3FB107D9F723E0AEEFB1E03C
:100AE00001C01D92A538B207E1F715E0CBE5D5E0CE
:100AF00004C02197FE010E94072ECA35D107C9F70D
:100B00000E94F2230C94F42F0C94000091E0909337
:100B1000E5028093E4021092E3021092E20208954B
:100B20009091D9029111FCCF91E09093D9029093CA
:100B3000D8022FEF2093D7021092D602260F2093CF
:100B4000D5029093D4029091D402880F892B809380
:100B5000D4028091D3028130F9F41092D3028091B3
:100B6000D4028093BB008091BC0083FDF8CF85EC5C
:100B70008093BC008091D9028130E1F38091D6024C
:100B8000861710F46091D602A3EBB2E0E3E9F2E03D
:100B900080E0861303C0089585EEEACF9D9191937E
:100BA0008F5FF7CF8091910290919202891B990BF0
:100BB0000895089508950895AF92BF92CF92DF925D
:100BC000EF92FF920F931F93CF93DF936C017B0102
:100BD0008B01040F151FEB015E01AE18BF08C01793
:100BE000D10759F06991D601ED91FC910190F08106
:100BF000E02DC6010995892B79F7C501DF91CF91C9
:100C00001F910F91FF90EF90DF90CF90BF90AF902A
:100C10000895833081F028F4813099F08230A9F072
:100C200008958730A9F08830C9F08430B1F48091FC
:100C300080008F7D03C0809180008F77809380003B
:100C4000089584B58F7784BD089584B58F7DFBCFDB
:100C50008091B0008F778093B00008958091B000AC
:100C60008F7DF9CFCF93DF93282F30E0F901E8563D
:100C7000FA4F8491F901EF57F54FD491F901E156FC
:100C8000F54FC491CC23A1F081110E940906EC2FED
:100C9000F0E0EE0FFF1FEB56F54FA591B491EC91EC
:100CA000ED2381E090E009F480E0DF91CF91089599
:100CB00080E090E0FACF1F93CF93DF93282F30E0AE
:100CC000F901E856FA4F8491F901EF57F54FD491A5
:100CD000F901E156F54FC491CC23A9F0162F8111EB
:100CE0000E940906EC2FF0E0EE0FFF1FEE52FA4FC4
:100CF000A591B4918FB7F894EC91111108C0D095DB
:100D0000DE23DC938FBFDF91CF911F910895DE2BFF
:100D1000F8CF10929202109291021092E302109278
:100D2000E2021092D90281E08093D8021092D3029D
:100D300061E082E10E945B0661E083E10E945B0664
:100D4000E9EBF0E080818E7F808380818D7F8083DE
:100D500088E48093B80085E48093BC0089ED95E039
:100D60009093900280938F028AED95E090938E028B
:100D700080938D020895CF93DF9390E0FC01EF57AD
:100D8000F54F24918156954FFC0184918823C9F039
:100D900090E0880F991FFC01E455FA4FA591B4919A
:100DA000FC01EE52FA4FC591D49161110DC09FB76D
:100DB000F8948C91209582238C9388812823288312
:100DC0009FBFDF91CF910895623051F49FB7F8949F
:100DD0003C91822F809583238C93E8812E2BEFCF3B
:100DE0008FB7F894EC912E2B2C938FBFEACF2091E4
:100DF000040190E4299F900111248E50822B80934E
:100E00007C0080917A00806480937A0080917A00DF
:100E100086FDFCCF809178009091790008953FB7CE
:100E2000F8948091720290917302A0917402B09133
:100E3000750226B5A89B05C02F3F19F00196A11D8C
:100E4000B11D3FBFBA2FA92F982F8827BC01CD0114
:100E5000620F711D811D911D42E0660F771F881F73
:100E6000991F4A95D1F708958F929F92AF92BF92A2
:100E7000CF92DF92EF92FF926B017C010E940F07ED
:100E80004B015C01C114D104E104F104B9F00E94EA
:100E90000F07681979098A099B09683E7340810523
:100EA000910580F321E0C21AD108E108F10888EE2B
:100EB000880E83E0981EA11CB11CE4CFFF90EF9038
:100EC000DF90CF90BF90AF909F908F9008952FB7F5
:100ED000F89460916E0270916F028091700290910F
:100EE00071022FBF0895DC0180E0615090F09D9168
:100EF0009827E92FEF70F0E0E858FA4F2491E92F96
:100F0000E295EF70F0E0E857FA4FE491822F8E27D8
:100F1000ECCF0895DC012C911196ED91FC91F894A1
:100F20008181822B81839281322F3095932392830A
:100F300087E090E00197F1F781818323818383E249
:100F400090E00197F1F790817894EFECF0E0319721
:100F5000F1F7922381E009F480E00895FC0190818B
:100F60000180F281E02D292F209560FF14C0F894B4
:100F70008281822382838181892B8183A3E2B0E0F5
:100F80001197F1F78281982B9283789487ED90E006
:100F90000197F1F70895F8948281822382838181F9
:100FA000892B8183AFEFB0E01197F1F78281982B05
:100FB000928378948FE090E0EBCFDF92EF92FF92F4
:100FC0000F931F93CF93DF93EC01D62EE42E08E00E
:100FD00010E0FF24F39461E08D2D8F2109F460E08F
:100FE000CE010E94AE07FF0C01501109A1F7E110DC
:100FF00010C0F894E981FA819181888180958923D4
:101000008183E981FA819281888180958923828315
:101010007894DF91CF911F910F91FF90EF90DF9027
:101020000895EF92FF920F931F93CF93DF938C015C
:101030007B0140E065E50E94DD07E70188E0E80EFE
:10104000F11C699140E0C8010E94DD07CE15DF0563
:10105000C1F7DF91CF911F910F91FF90EF9008950D
:10106000FC0190810180F281E02DF8948181292F8B
:1010700020958223818378943DE743E050E031500E
:1010800029F1DA011197F1F780818923C1F3F894EE
:101090008281822382838181892B81837894ABE74B
:1010A000B7E01197F1F7F894818182238183A3E15E
:1010B000B1E01197F1F78081982381E009F080E099
:1010C0007894E3E6F6E03197F1F7089580E008952B
:1010D000AF92BF92CF92DF92EF92FF920F931F9346
:1010E000CF93DF938B01BC018091FC029091FD02B4
:1010F0000E94110840E06EEB8091FC029091FD028D
:101100000E94DD07E801680189E0C80ED11CA090AB
:10111000FC02B090FD0288E0E82EF12C10E001E026
:10112000C5010E948A078111102B000F81E0E81A87
:10113000F108B1F71993CC16DD0649F78091FC024E
:101140009091FD020E94300891E0813009F090E01A
:10115000892FDF91CF911F910F91FF90EF90DF903A
:10116000CF90BF90AF9008950F931F93CF93DF93CD
:10117000CDB7DEB729970FB6F894DEBF0FBECDBF4F
:101180008C018091FC029091FD020E943008811137
:1011900002C080E01FC0BE016F5F7F4FC8010E9488
:1011A00068088823B1F368E0CE0101960E947307B6
:1011B00099858913EECF8D818F33B9F020F48F316B
:1011C00041F789E007C08F3521F08F3711F78CE0A8
:1011D00001C08BE029960FB6F894DEBF0FBECDBFDD
:1011E000DF91CF911F910F9108958AE0F3CF089579
:1011F000FC016370668B8481958126813781613023
:1012000039F0633029F091878087338722870895EA
:10121000318720879387828708952F923F924F923C
:101220005F926F927F928F929F92AF92BF92CF9276
:10123000DF92EF92FF920F931F93CF93DF93CDB77F
:10124000DEB76A970FB6F894DEBF0FBECDBF9A8F98
:10125000898F7A8369834A01D22E18870F833701D9
:10126000BC2CDC0159962D913C915A9721153105E2
:1012700009F015C118968D919C91199768177907F7
:101280000CF0D7C11A968D919C91481759070CF014
:10129000D0C14C2C512CB6E0CB9E600D711D112499
:1012A0007C876B87161617060CF0C3C1EA2DF0E099
:1012B000FA87E98793E0EE0FFF1F9A95E1F7F88B25
:1012C000EF87CF01840F951F181619060CF0B1C1D6
:1012D000A98DBA8D58968C91811104C0BFEABD15B5
:1012E00008F4D394A98DBA8DED91FC9111970284E5
:1012F000F385E02DCD010995B5E0DB9EC0011124F9
:10130000E981FA81FC83EB83312C212C9C01285844
:101310003F4F388F2F8B4A2D50E05E8B4D8BEF89DE
:10132000F88DE20DF31D44919E828D82D12CC12C4B
:1013300069817A81620D731D7A8B698B842F90E0AD
:101340009C8B8B8BE98DFA8DA081B18140FF82C08F
:10135000F1E0BF126FC0AF126DC01C96ED91FC9111
:101360002F813885A4014C0D5D1D69897A89898D8D
:101370009A8D0995EB89FC89F595E7954E2F5FEFDE
:10138000C51AD50A6D817E818D899E89680F791F66
:101390007E836D8398E0C916D10481F6AFEF2A1AD7
:1013A0003A0AEB81FC81E40DF51DFC83EB83F5E04B
:1013B0002F16310409F0B3CF2F8138852615370554
:1013C000B9F0A98DBA8DED91FC91B1E0BB1257C077
:1013D000AB1255C069817A816B5F7F4F0088F189BC
:1013E000E02D830128E030E0A401898D9A8D0995D4
:1013F000A98DBA8DED91FC9111970688F789E02DA2
:10140000CD016A960FB6F894DEBF0FBECDBFDF9157
:10141000CF911F910F91FF90EF90DF90CF90BF90F1
:10142000AF909F908F907F906F905F904F903F9084
:101430002F9009941E96ED91FC91EF80F884098518
:101440001A8592014D815E816B817C81898D9A8D97
:10145000099590CF2F8138852615370509F48ACF55
:1014600031E0B31207C0A31205C01C96ED91FC91A8
:10147000930178CF1E96ED91FC917301E0CF6B85BF
:101480007C85641975090684F785E02D73010F8545
:1014900018899201A401898D9A8D0995A9CFF90126
:1014A00034969491329745915491D91AB7E0DB9EC6
:1014B000400D511D1124F901259134913C8B2B8B4A
:1014C000FA0125903490FA01329674903196349155
:1014D000398B329664903196449041E04C1518F067
:1014E0004A1508F07FC0662D062C000C770B7C8314
:1014F0006B83842D042C000C990B9E838D83A98D06
:10150000BA8DED91FC9111970284F385E02DCD0108
:101510000995512CD12CC12CEA2DF0E0FA87E987EE
:101520002B2D30E03C872B87A401440D511D47FC37
:101530005A95588F4F8B69817A81660D711D67FCB2
:101540007A957E876D877989C71608F051CF2C2D43
:1015500030E04D815E81420F531FA985BA854A9FB5
:10156000C0014B9F900D5A9F900D1124FC01E80D76
:10157000F91DF88BEF87852D612C4F89588D420F0F
:10158000531F5E8B4D8B671408F050C04424439466
:10159000480E877041F4C1010196EB89FC89E20D88
:1015A000F31DD4901C01D7FE19C0A98DBA8DED9101
:1015B000FC91662D70E0B1E0BB1219C0AB1217C0F0
:1015C0002D853E85620F731F0484F585E02D2F81E4
:1015D00038854D895E89898D9A8D0995DD0C6394D6
:1015E000842DD1CF1E821D821C821B8288CF4B810D
:1015F0005C81640F751FAB85BC856A9FC0016B9FC2
:10160000900D7A9F900D112469817A81680F791F5E
:101610000684F785E02DEF80F88409851A859D0101
:101620004F855889898D9A8D0995D8CF570CC394C9
:101630008ACF6A960FB6F894DEBF0FBECDBFDF919A
:10164000CF911F910F91FF90EF90DF90CF90BF90BF
:10165000AF909F908F907F906F905F904F903F9052
:101660002F9008958F929F92AF92CF92EF92FF9218
:101670000F931F93CF93DF93EC01262F898D9A8DC3
:10168000009709F051C06A30D1F41D861C868D89FF
:1016900048E0849F900111248E859F85820F931FBF
:1016A0009F878E8781E090E0DF91CF911F910F910E
:1016B000FF90EF90CF90AF909F908F9008956D30F6
:1016C00089F3CC88AD888F898823C1F08C859D856E
:1016D00036E0C39E800D911D112448855985481719
:1016E000590764F44E855F851D861C8638E0A39EED
:1016F000C0011124840F951F9F878E87EA88FB887D
:10170000088919894E855F856C857D85CE010E948B
:101710000D092C898C859D8546E0249F800D911DA7
:1017200011249D878C87BECF6A3069F41D861C8684
:10173000FC013696E4912D898E859F85E29F800D70
:10174000911D1124ADCF6D3009F4ACCFFC0134965E
:101750003491631708F4A6CF3196E491E61708F4A4
:10176000A1CFFC01329685909490462F431B342FD5
:1017700047E0349F800C911C1124F401329634917F
:101780003196E4913323A9F1EE2399F1CC88F40149
:101790003596E491AD884F89442301F10E2E000C5B
:1017A000FF0BE30FF11DCE9EA001CF9E500D112423
:1017B0006C857D85460F571F688579856417750789
:1017C0006CF44E855F851D861C86FC013696E4917F
:1017D000AE9E400D511D11245F874E87EA88FB881D
:1017E000088919894E855F856C857D85CE010E94AB
:1017F0000D09F4013496E4912C898C859D85E29F36
:10180000800D911D11248DCF6F927F928F929F92A8
:10181000AF92BF92CF92DF92EF92FF920F931F93FE
:10182000CF93DF93EC016B015A0139014801E88144
:10183000F9810284F385E02D0995E881F981028818
:10184000F389E02D87019301A501B601CE01099529
:10185000A501480D591D41505109E881F9810288BF
:10186000F389E02D9301B601CE010995E881F98154
:101870000088F189E02D9401A501B601CE010995FA
:10188000C60CD71CB60161507109E881F981008846
:10189000F189E02D9401A501CE010995E881F98136
:1018A0000688F789E02DCE01DF91CF911F910F912E
:1018B000FF90EF90DF90CF90BF90AF909F908F9070
:1018C0007F906F9009946F927F928F929F92AF92C8
:1018D000BF92CF92DF92EF92FF920F931F93CF931D
:1018E000DF935C01EB016A01490138018701DC01EA
:1018F000ED91FC916217730719F5641675062CF0CB
:10190000962D872D3A01C92ED82E96012619370912
:101910002F5F3F4F048CF58DE02DA301BE01C50163
:101920000995DF91CF911F910F91FF90EF90DF907C
:10193000CF90BF90AF909F908F907F906F900895C1
:101940004615570591F42617370724F0892D4B01CA
:10195000C22FD82F9E01281939092F5F3F4F068CBF
:10196000F78DE02DA601B401DACF0284F385E02DD6
:101970000995D501ED91FC910488F589E02D83014D
:101980009401A601BE01C5010995D501ED91FC9117
:101990000688F789E02DC501DF91CF911F910F9146
:1019A000FF90EF90DF90CF90BF90AF909F908F907F
:1019B0007F906F900994EF92FF920F931F93DC0139
:1019C0001A960D911C911B9718962D913C91199781
:1019D000ED91FC9100A0F1A1E02D7B0150E040E0F1
:1019E00070E060E009951F910F91FF90EF900895CE
:1019F0004F925F926F927F928F929F92AF92BF921F
:101A0000CF92DF92EF92FF920F931F93CF93DF93CA
:101A10006C012B015A0139014801DC01ED91FC9167
:101A20000284F385E02D0995E201640C751CD60152
:101A3000ED91FC91C615D7055CF40088F189E02D85
:101A400087019401A501BE01C60109952196EFCF3A
:101A50000688F789E02DC601DF91CF911F910F9184
:101A6000FF90EF90DF90CF90BF90AF909F908F90BE
:101A70007F906F905F904F9009948F929F92AF925A
:101A8000BF92CF92DF92EF92FF920F931F93CF936B
:101A9000DF93EC015B014A016901E881F98102846D
:101AA000F385E02D099595012C0D3D1D215031093F
:101AB000E881F9810488F589E02D78018401A40189
:101AC000B501CE010995E881F9810688F789E02DF5
:101AD000CE01DF91CF911F910F91FF90EF90DF909A
:101AE000CF90BF90AF909F908F9009948F929F92CC
:101AF000AF92BF92CF92DF92EF92FF920F931F931C
:101B0000CF93DF93EC015B014A0169017801E88121
:101B1000F9810284F385E02D0995C80CD91C860152
:101B200001501109E881F9810488F589E02D9501BA
:101B3000A401B501CE010995E881F9810688F789EC
:101B4000E02DCE01DF91CF911F910F91FF90EF908B
:101B5000DF90CF90BF90AF909F908F900994EF92BD
:101B6000FF920F931F93DC01ED91FC9100A0F1A176
:101B7000E02D09951F910F91FF90EF9008950F931D
:101B80001F93DC01ED91FC91068CF78DE02D0995FA
:101B90001F910F9108950F931F93DC01ED91FC911C
:101BA000048CF58DE02D09951F910F910895DC01AE
:101BB000ED91FC910084F185E02D09943F924F92C4
:101BC0005F926F927F928F929F92AF92BF92CF92CD
:101BD000DF92EF92FF920F931F93CF93DF935C01FD
:101BE0007B014A016901390187E0680E711C93E0AD
:101BF000759467949A95E1F72B01400E511E10E001
:101C000000E0312CD0E0C0E0CE0187709927330C82
:101C1000892B59F4FE0183E0F595E7958A95E1F764
:101C2000E00FF11FE80DF91D349037FE0AC021E0E6
:101C300030E0A701B5016C0F7D1F88E193E00E94A1
:101C4000D70D2196CC16DD06F9F68FEFE81AF80AC3
:101C5000060D171DE414F504A9F6DF91CF911F912D
:101C60000F91FF90EF90DF90CF90BF90AF909F903B
:101C70008F907F906F905F904F903F9008952F923C
:101C80003F924F925F926F927F928F929F92AF920C
:101C9000BF92CF92DF92EF92FF920F931F93CF9359
:101CA000DF9300D000D000D0CDB7DEB73C016A0191
:101CB0003E832D83FC82EB825801A41AB50AB7FE3D
:101CC00003C0B194A194B1088D809E80861A970AB2
:101CD00097FE03C09194819491088A149B045CF050
:101CE000902F812F0D811E819D838E839C2D8D2DA4
:101CF0006B01692F782F0C151D055CF09D818E817D
:101D00007E836D83692F782F902F812F8601C92EB6
:101D1000D82E1601201A310A2B012D813E81421A3C
:101D2000530A57FE03C0519441945108710137FE84
:101D300003C03FEFE31AF30AF594E7948D819E8187
:101D4000861797075CF5A1E0B0E0BA83A983C016B7
:101D5000D1064CF1D301ED91FC910484F585E02D81
:101D60002B813C81A8016D817E818A149B041CF02B
:101D70004D815E81B801C3010995E418F508F7FEAD
:101D80000AC02D813E8189819A81280F391F3E83A7
:101D90002D83E20CF31C0F5F1F4FD9CF2FEF3FEFC6
:101DA0003A832983D4CF26960FB6F894DEBF0FBEB0
:101DB000CDBFDF91CF911F910F91FF90EF90DF90FA
:101DC000CF90BF90AF909F908F907F906F905F90DB
:101DD0004F903F902F90089585ED8093BC008091A7
:101DE000BC0084FDFCCF1092D902089520914A02D4
:101DF000260F3327331F21323105ECF42091D9020D
:101E0000FC0190E080E0243069F082E00895A09128
:101E10004A022191AC01465D5D4FA40FB52FB11D63
:101E20002C930196861798F380914A02680F60936D
:101E30004A0280E0089581E00895E0919202809145
:101E40009102E81730F4F0E0ED56FD4F808190E00C
:101E500008958FEF9FEF08959091920280919102E3
:101E60002FEF3FEF981748F4E92FF0E0ED56FD4FC4
:101E7000208130E09F5F90939202C9010895CF9234
:101E8000DF92EF92FF920F931F93CF93DF937C012A
:101E9000CB018A012091E502222389F0EB016B013D
:101EA000C40ED51ECC15DD0569F06991D701ED9101
:101EB000FC910190F081E02DC7010995F3CF642FCB
:101EC0000E94F60EC801DF91CF911F910F91FF90F4
:101ED000EF90DF90CF900895CF93DF931F92CDB70F
:101EE000DEB769832091E5022223F9F02091E20216
:101EF000203258F021E030E0FC013383228390E06F
:101F000080E00F90DF91CF9108958091E302E82F58
:101F1000F0E0E65FFD4F998190838F5F8093E3024D
:101F20008093E20281E090E0ECCF61E0CE01019687
:101F30000E94F60EF7CF682F86EE92E00C946C0F9D
:101F40002091E20281E0213208F044C08091D90260
:101F50008111FCCF8091E40292E09093D90291E04C
:101F60009093D8029FEF9093D7021092D6022093BD
:101F7000D502AAE0B2E0E3EBF2E090E0291331C031
:101F80001092D4029091D402880F892B8093D402AE
:101F90008091D302813049F51092D3028091D4020E
:101FA0008093BB008091BC0083FDF8CF85EC8093CB
:101FB000BC008091D9028230E1F38091D7028F3F3B
:101FC000B1F08091D7028032A1F08091D7028033A6
:101FD00091F084E01092E3021092E2021092E50286
:101FE00008953D9131939F5FC9CF85EEE0CF80E0AA
:101FF000F1CF82E0EFCF83E0EDCFCF9388E60E9470
:10200000860560E086EE92E00E946C0F60E886EE46
:1020100092E00E946C0F8091DB02CAE06C2F0E945C
:10202000E72D8295807F682F690F86EE92E00E94EF
:102030006C0F8091DC026C2F0E94E72D8295807FCF
:10204000682F690F86EE92E00E946C0F8091DD028E
:102050006C2F0E94E72D8295807F682F690F86EE96
:1020600092E00E946C0F8091DE026C2F0E94E72D9F
:102070008295807F682F690F86EE92E00E946C0F38
:102080008091DF026C2F0E94E72D8295807F682F60
:10209000690F86EE92E00E946C0F8091E0028E51F3
:1020A0006C2F0E94E72D8295807F682F690F86EE46
:1020B00092E00E946C0F86EE92E00E94A00F8823AF
:1020C00029F01092E10280E0CF91089581E08093A1
:1020D000E10288E60E94860560E086EE92E00E94BA
:1020E0006C0F8091DA026C2F0E94E72D8295807F21
:1020F000682F690F86EE92E00E946C0F86EE92E0E8
:102100000E94A00F8111DDCF81E0DECFAF92BF92A0
:10211000DF92EF92FF920F931F93CF93DF938B0188
:10212000040F151FEB015C01A61AB70A7501EC0E2E
:10213000FD1ED990809180030E9486058F2D90E02E
:102140000E949B0FC70199270E949B0F6D2D86EE61
:1021500092E00E946C0F86EE92E00E94A00F6AE06F
:1021600070E080E090E00E943407C017D107F1F6DC
:10217000DF91CF911F910F91FF90EF90DF90BF9073
:10218000AF900895EF92FF920F931F93CF93DF9339
:10219000EC01EC80FD806E157F050CF070C057FFE0
:1021A00004C0240F351F50E040E08E819F81FA016A
:1021B000E20FF31F8E179F071CF49C01241B350BA5
:1021C000121613060CF05BC0922F842F869586950D
:1021D00086958E9DD0018F9DB00D11246A0F7B1FB7
:1021E000AF8DB8A1A60FB71F477049F188E0841BD7
:1021F000482F682F70E0FB01E059FF4FE49128174A
:1022000008F063C0621B71092FEF30E002C0359502
:1022100027956A95E2F7E2230130110539F0B0F114
:102220000230110561F58C91E82702C08C91E82BF2
:10223000EC93941720F12C813D81A20FB31FE92F5D
:10224000E41BE83078F00230110521F58E2F9C91C7
:1022500090959C932C813D81A20FB31F88508830AC
:10226000B0F7E770EE2359F0F0E0E859FF4FE49142
:1022700001301105F9F010F10230110519F1DF916B
:10228000CF911F910F91FF90EF900895E0958C9161
:10229000E823CECF81E00115110509F480E0819596
:1022A0009E2F8C932C813D81A20FB31F98509830A4
:1022B000C0F7D7CF8C91E82BEC93E1CFE0958C91D0
:1022C000E823FACF8C91E827F7CF0130110509F404
:1022D000ADCFE0F20230110509F4A5CFAE0DBF1D60
:1022E000AECF0F931F93CF93DF9377FF04C0260FDA
:1022F000371F70E060E0DC011496CD91DC91FB01AA
:10230000E20FF31FCE17DF071CF49E01261B370BCD
:10231000121613064CF5FA0157FD3796A3E0F59512
:10232000E795AA95E1F7EC9FD001ED9FB00DFC9FDA
:10233000B00D11246A0F7B1FDC015F96ED91FC91BB
:10234000E60FF71F4770552781E090E001C0880F26
:102350004A95EAF7482F0130110559F0A8F02E0FE1
:102360003F1F02301105E1F0DF91CF911F910F91D6
:1023700008952E0F3F1FE217F307B1F38191DF019C
:102380001197842B8C93F7CF80952E0F3F1FE21768
:10239000F30751F39191DF01119798239C93F7CFA5
:1023A000E217F30709F38191DF01119784278C93DA
:1023B000F7CF0F931F93FA01DC0156964C91569775
:1023C0004230E9F04330A1F1413061F514964D916E
:1023D0005C91DA01AE1BBF0BFD01E21BF30B77FD35
:1023E0000BC0DC0116964D915C916417750724F4BF
:1023F000AB01BF010E9471111F910F9108951496B6
:102400004D915C91DA01A61BB70BBD0161507109BA
:10241000DC0116964D915C91DA01AE1BBF0BFD01FC
:10242000E21BF30B77FDE8CFAF010E94C210E4CFAF
:1024300016964D915C91DA01A61BB70BBD01615058
:102440007109CDCF0F931F93FA01DC0156964C9181
:1024500056974230A9F0433091F1413019F5149666
:102460004D915C91DA01AE1BBF0BFD013197F7FD79
:1024700004C0AB01BF010E94C2101F910F910895CB
:1024800014964D915C91DA01A61BB70BBD01DC01DE
:1024900016964D915C91DA01AE1BBF0BFD01319791
:1024A000621B730BF7FDE9CFDC0116964D915C9131
:1024B000E417F50714F7AF010E947111DECF1696ED
:1024C0004D915C91DA01A61BB70BBD01621B730B2A
:1024D000CECFFC0177FD64C08085918568177907B0
:1024E0000CF05EC057FD5CC0828593854817590784
:1024F0000CF056C086898230B1F0833029F18130EA
:1025000041F484819581841B950BAB01BC01615022
:1025100071092130310509F108F443C02230310539
:1025200009F463C0089584819581DC01A61BB70B73
:10253000BD016150710986819781DC01A41BB50B37
:10254000AD0141505109E5CF86819781861B970BDC
:10255000BA01AC0141505109DCCFCA0157FD0796C1
:10256000A3E095958795AA95E1F7A481B5818A9F07
:1025700090018B9F300D9A9F300D1124620F731FB5
:10258000078CF0A1E02DE60FF71F4770552721E0DB
:1025900030E001C0220F4A95EAF78081822B8083C8
:1025A0000895CA0157FD079633E0959587953A95AA
:1025B000E1F7A481B5818A9F90018B9F300D9A9F8E
:1025C000300D1124620F731F078CF0A1E02DE60F70
:1025D000F71F4770552781E090E001C0880F4A95AA
:1025E000EAF7809590818923DACFCA0157FD0796D3
:1025F00023E0959587952A95E1F7A481B5818A9F77
:1026000090018B9F300D9A9F300D1124620F731F24
:10261000078CF0A1E02DE60FF71F4770552721E04A
:1026200030E001C0220F4A95EAF780818227B7CFB8
:1026300008958EBD00000DB407FEFDCF8EB5089540
:10264000FF920F931F93CF93DF93F82ED92FC62FAE
:102650008091350390913603892B09F447C080910E
:1026600039030E9486058091350390913603DC0181
:10267000ED91FC910190F081E02D60E009950F2D26
:102680001D2FD1E0C1508091350390913603CF3F8B
:1026900031F1D03298F00E94A00F809139030E944E
:1026A00086058091350390913603DC01ED91FC9114
:1026B0000190F081E02D60E00995D1E08091350333
:1026C00090913603F8016491DC01ED91FC91019049
:1026D000F081E02D0995DF5F0F5F1F4FD3CFDF91B2
:1026E000CF911F910F91FF900C94A00FE0914503A3
:1026F000F0914603908180914B03809589238083DC
:102700000F2D1D2FC15008F438C0F801849120917D
:10271000330330913403232B29F00E9419130F5FE8
:102720001F4FF0CF28E030E040E8E0914103F09106
:10273000420390914903582F5423D9F05081952B8F
:102740009083E0914303F0914403908150914A03B8
:10275000952B9083E0914303F09144035081909135
:102760004A03909595239083469521503109E9F6C7
:10277000D6CF508190959523E3CFDF91CF911F91D4
:102780000F91FF9008951F93CF93DF93EC018D8DF0
:102790009E8D892BF9F0162F89A10E9486058D8DBB
:1027A0009E8DDC01ED91FC910190F081E02D60E0C7
:1027B00009958D8D9E8DDC01ED91FC910190F0814C
:1027C000E02D612F09958D8D9E8DDF91CF911F9109
:1027D0000C94A00FADA5BEA59C918BA980958923D3
:1027E0008C938B8D9C8D892B31F0862FDF91CF912F
:1027F0001F910C94191328E030E080E8A9A5BAA530
:1028000099A9462F4823C1F04C91942B9C93ABA5DA
:10281000BCA59C914AA9942B9C93ABA5BCA54C91BB
:102820009AA9909594239C9386952150310931F76C
:10283000DF91CF911F9108954C9190959423E6CF0D
:102840008CBD9DBD0895FF920F931F93CF93DF938F
:102850008091350390913603892B09F472C08CE086
:102860008093B80065E08CE79AE00E9420136091A5
:102870001C03615088E193E00E94C31320911E0362
:1028800030911F03C901079697FD079623E09595A0
:1028900087952A95E1F720911C0330911D03829FB3
:1028A0008001839F100D929F100D1124C09137035A
:1028B000D091380380913503909136030C0F1D1F82
:1028C000892B09F47CC0809139030E948605809190
:1028D000350390913603DC01ED91FC910190F0817C
:1028E000E02D60E40995FF24F394809135039091E5
:1028F00036030C171D07E1F1BFE1BF15A0F40E94DC
:10290000A00F809139030E94860580913503909134
:102910003603DC01ED91FC910190F081E02D60E443
:102920000995FF24F39480913503909136036991C2
:10293000DC01ED91FC910190F081E02D0995F3947B
:10294000D4CF8091330390913403892B31F080915F
:102950004D0390914E030E942014E0914703F091A3
:102960004803908180914C038095892380837ACF9E
:102970000E94A00F8091350390913603892B09F4B2
:102980005FC020914F03309150034091510350910B
:10299000520360E074E284EF90E00E946A2B2051C1
:1029A0003109410951095695479537952795209347
:1029B000B800DF91CF911F910F91FF900895E091A2
:1029C0004503F0914603808190914B03892B8083CE
:1029D0000C171D0779F2899120913303309134034C
:1029E000232B19F00E941913F3CF28E030E040E8C0
:1029F000E0914103F091420390914903582F5423F1
:102A0000D9F05081952B9083E0914303F0914403DA
:102A1000908150914A03952B9083E0914303F0916C
:102A20004403508190914A03909595239083469555
:102A300021503109E9F6CCCF508190959523E3CF11
:102A4000E0914703F0914803808190914C03892BDA
:102A50008083AFCF1F93CF93DF93EC01162F8D8D23
:102A60009E8D892B29F18CE08093B80066EA1111C4
:102A700067EACE010E94C3138D8D9E8D892B41F193
:102A80002FA938AD49AD5AAD60E074E284EF90E013
:102A90000E946A2B205131094109510956954795E9
:102AA000379527952093B800DF91CF911F91089516
:102AB0008B8D9C8D892B21F08DA99EA90E942014BD
:102AC000EFA5F8A990818CA9809589238083CECF2A
:102AD000EFA5F8A980819CA9892B8083E5CF089573
:102AE00090E080E008958093BB0084E88093BC0070
:102AF0008091BC0087FFFCCF9091B900987F81E066
:102B0000983231F0983129F0903419F080E008952E
:102B10000895089584EA8093BC008091BC0087FFEB
:102B2000FCCF8091B900887F19F080EC0C9473156C
:102B300080E008955F926F927F928F929F92AF9202
:102B4000BF92CF92DF92EF92FF920F931F93CF939A
:102B5000DF93CDB7DEB7582E742E652EB62E922E8B
:102B60000E948A15852D0E9473158D2D0E94731564
:102B70008C2D0E9473158B2D8370A82A80E0811004
:102B80008CE08A290E947315862D0E947315872D6B
:102B90000E9473158CE0F694E794D794C7948A95B5
:102BA000D1F78C2D807FC82E892D8F708C290E94A3
:102BB0007315812F0E947315802F0E94731584E96D
:102BC0008093BC008091BC0084FDFCCFDF91CF914D
:102BD0001F910F91FF90EF90DF90CF90BF90AF903B
:102BE0009F908F907F906F905F9008954F925F922B
:102BF0006F927F928F929F92AF92BF92CF92DF920D
:102C0000EF92FF920F931F93CF93C82FC09077033B
:102C1000D0907803E0907903F0907A03CB01BA0169
:102C2000A70196010E946A2B49015A0125E0F694FA
:102C3000E794D794C7942A95D1F735E09695879570
:102C4000779567953A95D1F747E0660F771F881F0C
:102C5000991F4A95D1F7A70196010E946A2B290175
:102C60003A018B019C01B501A401552766277727FE
:102C7000E7E0440F551F661F771FEA95D1F75250C2
:102C800061097109440D551D661D771D812CA12C0C
:102C90008C2F0E949A15CF911F910F91FF90EF906A
:102CA000DF90CF90BF90AF909F908F907F906F906C
:102CB0005F904F9008958F92AF92CF92DF92EF92F4
:102CC000FF920F931F93882483944430510561052C
:102CD000710509F0812C4450510961097E4F97E03C
:102CE000440F551F661F771F9A95D1F7A22EC12C4E
:102CF000D12C7601C39400E010E098010E949A154F
:102D00001F910F91FF90EF90DF90CF90AF908F9039
:102D10000895CF93DF93D82FC62F0E948A158D2F49
:102D20000E9473158C2F0E94731584E98093BC0058
:102D30008091BC0084FDFCCFDF91CF910895CF93AB
:102D4000DF9300D0CDB7DEB7EDE0F1E02EE131E06A
:102D500090E080E04191840F911D2E173F07D1F73D
:102D60009A83898341E150E06DE071E082E090E078
:102D70000E94861042E050E0BE016F5F7F4F90E0FE
:102D800080E00E9486100F900F90DF91CF91089500
:102D9000CF93DF93CFE5D3E019861A861B8660E8D0
:102DA00080E10E94891660E881E10E94891660E84E
:102DB00082E10E94891680E896E3AEEBB6E280934A
:102DC000000190930101A0930201B093030180914F
:102DD000180190911901092E000CAA0BBB0B805C05
:102DE0009748A248BE4F888F998FAA8FBB8FDF91DB
:102DF000CF9108952F923F924F925F926F927F9260
:102E00008F929F92AF92BF92CF92DF92EF92FF92FA
:102E10000F931F93CF93DF9300D000D01F92CDB7B5
:102E2000DEB7409114015091150160911601709127
:102E300017018091800290918102092E000CAA0B4B
:102E4000BB0B8A019B01080F191F2A1F3B1F098317
:102E50001A832B833C830091100110911101209162
:102E6000120130911301400F511F621F731F4A015D
:102E70005B01880E991EAA1EBB1E10927F03409014
:102E80006F03509070036090710370907203809193
:102E90006B0390916C03A0916D03B0916E03881643
:102EA0009906AA06BB06B1F080926B0390926C0360
:102EB000A0926D03B0926E0381149104A104B10439
:102EC00009F0C5C060E880E10E9489161092600395
:102ED00010925F03411451046104710491F48091D4
:102EE000730390917403A0917503B09176032981C7
:102EF0003A814B815C81281739074A075B0709F43F
:102F000087C010926F031092700310927103109299
:102F1000720389819A81AB81BC8180937303909302
:102F20007403A0937503B093760360E881E10E9477
:102F3000891610926203109261038091730390913D
:102F40007403A0917503B0917603892B8A2B8B2B88
:102F500041F460E882E10E948916109264031092A5
:102F6000630380906F0390907003A0907103B09002
:102F7000720381149104A104B10409F41CC2452810
:102F80004628472809F469C1C0906103D0906203C4
:102F9000F12CE12C009166030983A5019401C7017E
:102FA000B6010E94D72D9B01AC01E02FF0E0E15D5E
:102FB000FE4FA081B0E00E945F2B2B013C01DC01A1
:102FC000CB0180589545A84CB0428130924CAB4E15
:102FD000BB4008F40BC16091000170910101809128
:102FE000020190910301A50194010E946A2B6901DD
:102FF0007A0124E0C216D104E104F10408F0C6C04D
:1030000060E881E10E9489161092620310926103C8
:1030100060917F03662309F47BC281EB0F900F90D0
:103020000F900F900F90DF91CF911F910F91FF9014
:10303000EF90DF90CF90BF90AF909F908F907F9058
:103040006F905F904F903F902F900C948916C09096
:103050005F03D0906003F12CE12C109165031D8378
:10306000A5019401C701B6010E94D72D9B01AC01B7
:10307000E12FF0E0E15DFE4FA081B0E00E945F2B08
:103080008B019C0100581545284C30420130124CF0
:103090002B4E3B4008F443C0609100017091010148
:1030A0008091020190910301A50194010E946A2B75
:1030B00069017A0154E0C516D104E104F10408F471
:1030C00001CF86E0C816D104E104F10408F458C029
:1030D0001D829DE2C91691E0D906E104F10440F099
:1030E0000D810F5F0D83F694E794D794C794F1CFC9
:1030F0001D81111103C0E894C0F81D82A50194013F
:10310000C701B6010E94D72D9B01AC010D81E02FB4
:10311000F0E0E15DFE4FA081B0E00E945F2BAB01CB
:10312000BC018AE10E94F61580915F0390916003D3
:10313000B0E0A0E08C159D05AE05BF0531F480918F
:1031400065031D81811709F4C5CE2D812295207F4D
:10315000B701A6018AE20E945B16609168036C6465
:1031600080E10E948916D0926003C0925F030D81B6
:103170000093650380917F03806280937F03AACED2
:1031800094E0C92ED12CE12CF12CB5CF36E0C3163A
:10319000D104E104F10408F48AC019824DE2C41696
:1031A00041E0D406E104F10440F009810F5F098396
:1031B000F694E794D794C794F1CF1981111103C005
:1031C000E894C0F81982A5019401C701B6010E94D4
:1031D000D72D9B01AC010981E02FF0E0E15DFE4FAE
:1031E000A081B0E00E945F2B2B013C01B301A20142
:1031F00082E20E94F6158091610390916203B0E033
:10320000A0E08C159D05AE05BF0529F480916603ED
:1032100019818117D1F029812295207FB701A6015C
:1032200082E30E945B16609169036C6681E10E94F3
:103230008916D0926203C0926103098100936603EC
:1032400080917F03806880937F0340927B0350923C
:103250007C0360927D0370927E03C0907303D090D4
:103260007403E0907503F0907603C114D104E10477
:10327000F10409F4CDCE80907B0390907C03A09064
:103280007D03B0907E03C501B401A70196010E94A1
:103290006A2B283031054105510578F460E882E158
:1032A0000E9489161092640310926303B1CE04E069
:1032B000C02ED12CE12CF12C83CF1D82213431057D
:1032C0004105510560F01D811F5F1D83CC0CDD1C85
:1032D000EE1CFF1C5695479537952795EFCFC501F6
:1032E000B401A70196010E946A2B29833A834B837C
:1032F0005C832FEF3FEF4FE050E00E941C2E560101
:103300006701E12CF12C00E010E00E94492E290118
:103310003A012D812295207F2D83C12CD12C76015D
:10332000C394411451046104710431F0CC24CA9453
:10333000DC2CFFE0EF2EF12CC301B20127E0660F79
:10334000771F881F991F2A95D1F7A70196010E9420
:103350006A2B49015A018B019C0149815A816B8179
:103360007C81552766277727E7E0440F551F661FA6
:10337000771FEA95D1F7525061097109480D591D1F
:103380006A1D7B1D812CAD808AE30E949A158CE416
:1033900045284628472809F08CE060916A0360625E
:1033A000682B82E10E94891681E090E0909364038B
:1033B000809363032DCE8090730390907403A0904C
:1033C0007503B090760381149104A104B10409F44B
:1033D0001FCEC0906303D0906403F12CE12C0091C8
:1033E00067030983A5019401C701B6010E94D72D87
:1033F0009B01AC01E02FF0E0E15DFE4FA081B0E069
:103400000E945F2B8B019C0100581545284C3042CF
:103410000130124C2B4E3B4008F443C06091000138
:10342000709101018091020190910301A501940125
:103430000E946A2B69017A0154E0C516D104E104A7
:10344000F10408F42BCF86E0C816D104E104F1049E
:1034500008F458C019829DE2C91691E0D906E1042A
:10346000F10440F009810F5F0983F694E794D79443
:10347000C794F1CF1981111103C0E894C0F81982E3
:10348000A5019401C701B6010E94D72D9B01AC0193
:103490000981E02FF0E0E15DFE4FA081B0E00E94E5
:1034A0005F2BAB01BC0182E20E94F61580916303A1
:1034B00090916403B0E0A0E08C159D05AE05BF05BA
:1034C00031F4809167031981811709F4A1CD298115
:1034D0002295207FB701A6018AE30E945B166091C6
:1034E0006A036C6682E10E948916D0926403C092DE
:1034F000630309810093670380917F038068809351
:103500007F0386CD84E0C82ED12CE12CF12CB5CFE1
:103510000F900F900F900F900F90DF91CF911F9110
:103520000F91FF90EF90DF90CF90BF90AF909F9062
:103530008F907F906F905F904F903F902F90089565
:103540008FE00E94F706A0910E01B0910F019C013F
:103550000E940D2E2FEF33E040E050E00E94402B00
:103560002093090208958EE00E94F70624E630E0D9
:10357000DC010E94152E2FEF33E040E050E00E9466
:10358000402B209308020895DC01ED91FD9180818C
:10359000ED91FD919081ED91FD916C9163708E2381
:1035A00009F064609F2309F06860E1EEFAE1E60F3C
:1035B000F11D659565956D936D917D918D919D91B1
:1035C000099423C01AC012C016C010C01EC009C082
:1035D00014C013C006C019C009C00DC007C00DC07B
:1035E00014C062507040804090400BC061507040E9
:1035F0008040904006C06E5F01C06F5F7F4F8F4F6D
:103600009F4F9E938E937E936E930895BF92CF9219
:10361000DF92EF92FF920F931F93CF93DF93EC0112
:10362000B62EC72E8D85811105C0CE010E943008AF
:1036300081110EC01B861D861C8680E0DF91CF9114
:103640001F910F91FF90EF90DF90CF90BF90089562
:1036500040E060EFCE010E94DD0701E0E12CD12CBB
:1036600011E0CE010E948A07F82ECE010E948A073F
:1036700091E0F91218C0813099F51134D8F2DB8647
:10368000D11002C081E08D878B81882399F2239627
:10369000EB2DFC2DCF01089629912193E817F9070E
:1036A000D9F781E0CBCFEE2DF0E0F8120FC08B857B
:1036B0001817A0F4DE01AE0FBF1F13968C91802364
:1036C00079F4F12C193008F41C87D12EEC0FFD1F72
:1036D0008381902F9095892383830AC08113F1CF32
:1036E000FE01EE0DF11D8381802B8383FF24F39473
:1036F0006F2DCE010E94AE071F5F000F11F4E394FF
:1037000001E087E08E1508F0ACCFB7CF4F925F9203
:103710006F927F928F929F92AF92BF92CF92DF92E1
:10372000EF92FF920F931F93CF93DF93CDB7DEB746
:1037300061970FB6F894DEBF0FBECDBF0E9467073A
:10374000C0900302D0900402E0900502F0900602BF
:103750006C197D098E099F096938734181059105AE
:1037600008F458C080910202811154C01092F802EE
:103770008091FC029091FD020E94300840E06CECC8
:103780008091FC029091FD020E94DD074091F602BB
:1037900064E48091FC029091FD020E94DD0780911B
:1037A000F802882391F1E091F702E9500EEE12E061
:1037B000E33038F4F0E0EE0FFF1FE75DFE4F0081CD
:1037C00011818091F902882309F47EC08091F6026C
:1037D00081117AC00E9467074B015C012801110F1B
:1037E000660877088091FC029091FD020E948A078A
:1037F000813059F00E946707641975098609970995
:10380000681579058A059B0568F381E08093F802C5
:10381000809302020E9467076C197D098E099F0937
:1038200061347F4181059105C0F1809102028823B6
:10383000A1F1E091FC02F091FD0213861586148639
:1038400012861186108617821682158214821382C0
:10385000BE01665F7F4F8091FC029091FD020E9445
:10386000061B811138C060E070E08EEF92EC20E022
:1038700030E040E05FE30E949C2B0E947F2C60932D
:1038800007020E946707609303027093040280930B
:103890000502909306021092020261960FB6F89408
:1038A000DEBF0FBECDBFDF91CF911F910F91FF9073
:1038B000EF90DF90CF90BF90AF909F908F907F90D0
:1038C0006F905F904F900895B801110F880B990B7E
:1038D0000E9434079ACF67E0CE010A960E947307D0
:1038E00099898913C0CF8091FC029091FD020E94BA
:1038F0003008882309F4B7CFBE016F5F7F4FCE0138
:103900000A960E946808882309F4ADCF68E0CE01CA
:1039100001960E94730799858913A5CF6A8170E08B
:10392000762F6627770F770F770F298158E0259F2D
:1039300090011124262B372B8A858031D1F468859C
:1039400070E08F81AB01481B5109CA019695982FF1
:103950008827979587950E94F32DCB014097B90151
:1039600053E0660F771F5A95E1F760789C01260FA8
:10397000371F213854EE35070CF475CFB901330FDA
:10398000880B990B0E94B02C20E030E040E05CE313
:103990000E94652D6CCF0F931F93CF93DF9380917F
:1039A0007B02882359F01092DA020E94FD0F1092D8
:1039B0007B02DF91CF911F910F9108950E946707BD
:1039C0000091FE011091FF0120910002309101024F
:1039D000601B710B820B930B693E7340810591054F
:1039E00020F4012B022B032B21F70E946707609321
:1039F000FE017093FF01809300029093010288E61C
:103A00000E94860560E086EE92E00E946C0F86EED2
:103A100092E00E94A00F882391F01092E102809121
:103A2000E102882331F21092DC021092DB02109244
:103A3000DA02DF91CF911F910F910C94FD0F81E07D
:103A40008093E10267E088E60E949005109292025E
:103A500080939102873018F386EE92E00E942C0F3B
:103A6000D82F982F92959770CAE08D2F8F709C9FBA
:103A7000800D11248093DA0286EE92E00E942C0FD2
:103A8000982F92959F708F709C9F800D112480932A
:103A9000DB0286EE92E00E942C0F982F9295937095
:103AA0008F709C9F800D11248093DC0286EE92E043
:103AB0000E942C0F982F92959F708F709C9F800D65
:103AC00011248093DD0286EE92E00E942C0F982F45
:103AD00092959F708F709C9F800D11248093DE02C1
:103AE00086EE92E00E942C0F982F92959F708F7017
:103AF0009C9F800D11248093DF0286EE92E00E944D
:103B00002C0F982F9F70925E82958F708C9F900DD6
:103B100011249093E002D7FF4CCF81CFCF93DF9356
:103B2000EC01809180030E9486058D2F90E00E9419
:103B30009B0FCE0199270E949B0F86EE92E00E9478
:103B4000A00F61E0809180030E9490051092920284
:103B500080939102882339F086EE92E00E942C0F28
:103B6000DF91CF91089580E0FBCFFC010190002010
:103B7000E9F73197AF01481B590BBC0188E193E08D
:103B80000C94DC058F929F92AF92BF920F931F937C
:103B9000CF93DF93CDB7DEB7A1970FB6F894DEBF12
:103BA0000FBECDBF19A2423008F44AE08E010F5D6E
:103BB0001F4F842E912CB12CA12CA50194010E94A1
:103BC0006A2BE62FB901CA01EA30F4F4E05DD801AE
:103BD000EE938D01232B242B252B79F790E080E0A9
:103BE000109719F0CD010E94B51DA1960FB6F8945B
:103BF000DEBF0FBECDBFDF91CF911F910F91BF9060
:103C0000AF909F908F900895E95CE1CF682F70E0AE
:103C100090E080E04AE00C94C21D0C94B51DCF9258
:103C2000DF92EF92FF92CF93DF936C01990FEE0832
:103C3000FF08F7FE1FC06DE288E193E00E94320B9F
:103C4000EC0166277727CB016C197D098E099F0946
:103C50004AE00E94C21DC80FD91F89E791E00E9467
:103C6000B51D8C0F9D1FDF91CF91FF90EF90DF90DE
:103C7000CF9008954AE0C701B6010E94C21DEC0131
:103C8000ECCF4F925F926F927F928F929F92AF9202
:103C9000BF92CF92DF92EF92FF920F931F93CF9339
:103CA0006B017C01742EAC019B010E94D22D8823F4
:103CB00099F08CE791E0CF911F910F91FF90EF90D9
:103CC000DF90CF90BF90AF909F908F907F906F903C
:103CD0005F904F900C94B51D46015701E894B7F8DA
:103CE0002FEF3FEF4FE75FE7C501B4010E94D22DF0
:103CF00081110DC02FEF3FEF4FE75FE7C501B40122
:103D00000E94082C18161CF480E891E0D4CF2FEF05
:103D10003FEF4FE75FE4C701B6010E94602D181620
:103D20001CF484E891E0C7CF2FEF3FEF4FE75FEC43
:103D3000C701B6010E94082C87FDF3CF20E030E0D8
:103D4000A901C701B6010E94082C10E000E087FF1E
:103D50000AC06DE288E193E00E94320B8C01F7FA11
:103D6000F094F7F8F094C0E060E070E080E09FE34A
:103D70007C1641F020E030E040E251E40E940D2C3E
:103D8000CF5FF6CFA70196010E949C2B2B013C012F
:103D90000E947F2C4B015C014AE00E94C21D7C0105
:103DA000E00EF11ECC23C1F1C501B4010E94AE2C7E
:103DB0009B01AC01C301B2010E949B2B4B015C0132
:103DC0006EE288E193E00E94320BE80EF91EC150CA
:103DD00018F120E030E040E251E4C501B4010E9456
:103DE000652D2B013C010E947F2C4B01B12CA12C95
:103DF0004AE0C501B4010E94C21DE80EF91EC501CA
:103E0000B4010E94AE2C9B01AC01C301B2010E941F
:103E10009B2B4B015C01DBCFC701CF911F910F9111
:103E2000FF90EF90DF90CF90BF90AF909F908F90DA
:103E30007F906F905F904F90089520911E03309176
:103E40001F03C901079697FD079623E0959587956F
:103E50002A95E1F720911C0330911D03829FA00158
:103E6000839F500D929F500D112470E060E080916F
:103E70003703909138030C94ED2FEF92FF920F933C
:103E80001F930E941D1F109225031092240310926D
:103E900027031092260381E090E090932B038093F8
:103EA0002A03909329038093280383E080932C03B3
:103EB00080932D03E0918C02EA3008F05FC0F0E0BF
:103EC000EC59F04E0C94072E6E1FFE1F1820302068
:103ED0004B205D206F2083209720B320609110013C
:103EE0007091110180911201909113010E94AE2CEA
:103EF00020E030E04AE754E40E940D2C42E00E94AA
:103F0000411E89E791E00E94B51D81E080932C035A
:103F100080932D0380910902843620F488E891E093
:103F20000E940D1E6091090270E090E080E00E9406
:103F3000B02C20E030E040E251E40E940D2C42E041
:103F40000E94411E8AE891E00E940D1E80918B0222
:103F50008823D1F08DE891E00E940D1E2091080287
:103F600030E0EE24E394F12C09E010E047E150E06A
:103F700060E470E088E193E00E94F80C1F910F91DB
:103F8000FF90EF900C942314809107020E94061E6C
:103F900067EF88E193E00E94320B82E991E00E9492
:103FA0000D1E8091DC028A3020F483E991E00E94AA
:103FB0000D1E8091DC020E94061E85E991E00E94A0
:103FC0000D1E8091DB028A3020F488E891E00E9487
:103FD0000D1E8091DB020E94061E85E991E00E9481
:103FE0000D1E8091DA028A3020F488E891E00E9468
:103FF0000D1E8091DA020E94061EC0CFE0910D01D5
:10400000F0E0E95CFE4F80812AE0829FC00111242C
:104010000E940F1E81E080932C0380932D038091DA
:104020008C020E94061E87E991E00E940D1EA6CF19
:1040300080911A0190911B010E940F1E81E08093D4
:104040002C0380932D0380918C020E94061E8EE922
:1040500091E00E94B51D89E791E00E94B51D8ECFC9
:1040600060911401709115018091160190911701D2
:104070004AE00E94C21D89E791E00E94B51D81E0DF
:1040800080932C0380932D0380918C020E94061E46
:104090008BEA91E0CACF80910E0190910F010E94AE
:1040A0000F1E81E080932C0380932D0380918C025E
:1040B0000E94061E87EB91E0B8CF80911801909185
:1040C00019010E940F1E81E080932C0380932D0321
:1040D00080918C020E94061E82EC91E0A6CF809116
:1040E0001C0124E6829FC00111240E940F1E81E062
:1040F00080932C0380932D0380918C020E94061ED6
:1041000080ED91E092CF80911D0124E6829FC00155
:1041100011240E940F1E81E080932C0380932D03B5
:1041200080918C020E94061E8FED91E07ECF8091DF
:10413000DC028A3020F488E891E00E940D1E809114
:10414000DC020E94061E89E791E00E94B51D81E015
:1041500080932C0380932D0380918C020E94061E75
:104160008EEE91E062CF8091DB028A3020F488E805
:1041700091E00E940D1E8091DB020E94061E89E7DD
:1041800091E00E94B51D81E080932C0380932D0364
:1041900080918C020E94061E85EF91E046CF0E941E
:1041A000E82F1F920F920FB60F9211242F933F9377
:1041B0008F939F93AF93BF9380916E0290916F0204
:1041C000A0917002B091710230916D0223E0230F33
:1041D0002D3758F50196A11DB11D20936D028093D6
:1041E0006E0290936F02A0937002B093710280915F
:1041F000720290917302A0917402B09175020196BF
:10420000A11DB11D8093720290937302A09374025A
:10421000B0937502BF91AF919F918F913F912F9174
:104220000F900FBE0F901F90189526E8230F02964F
:10423000A11DB11DD2CF1F920F920FB60F92112464
:104240002F933F934F935F936F937F938F939F939E
:10425000AF93BF93EF93FF938091B900887F80362F
:1042600009F44AC0F0F5883209F4A7C018F5803186
:1042700009F49BC0B8F4882309F4F9C0883009F424
:1042800094C0FF91EF91BF91AF919F918F917F91DA
:104290006F915F914F913F912F910F900FBE0F90B3
:1042A0001F901895883109F488C0803251F78093A7
:1042B000D70214C0803409F49DC040F48033B9F3B0
:1042C0008833F9F68093D70285ECB0C0803509F4C5
:1042D00085C0883509F496C0883499F60E94EC0EA2
:1042E000D0CF883909F48CC038F5883729F050F4DC
:1042F000883611F0803729F683E08093D902109236
:104300006C0257C0883809F47BC0803919F08038B6
:1043100009F0B7CF80916C02803208F071C0E09153
:104320006C0281E08E0F80936C028091BB00F0E004
:10433000E45BFD4F80833DC0803B39F0E0F4803A80
:1043400009F479C0883A09F09CCF84E08093D902BF
:1043500010924B0210924A02E0918F02F09190026B
:10436000099580914A0281110FC081E080934A0231
:1043700010922A0209C0803C09F4A6CF883C09F4B7
:10438000A3CF883B09F07DCFE0914B0281E08E0FF7
:1043900080934B02F0E0E65DFD4F80818093BB008F
:1043A00090914B0280914A0229C08091D40280935F
:1043B000BB0085EC8093BC0064CF9091D6028091C5
:1043C000D502981758F5E091D60281E08E0F8093C0
:1043D000D602F0E0ED54FD4F8081E9CFE091D602A6
:1043E00081E08E0F8093D6028091BB00F0E0ED5407
:1043F000FD4F80839091D6028091D5029817C8F224
:1044000085E8D8CFE091D60281E08E0F8093D60266
:104410008091BB00F0E0ED54FD4F80838091D80285
:1044200081115CCF81E08093D30284EA8093BC0049
:104430001092D90226CF85EC8093BC001092D9024D
:1044400080916C02803230F4E0916C02F0E0E45B29
:10445000FD4F108260916C0270E0E0918D02F0914E
:104460008E028CE492E0099510926C020ACF1092B1
:10447000D70234CF1F920F920FB60F9211242F93B1
:104480003F934F935F936F937F938F939F93AF93DC
:10449000BF93EF93FF938091F4029091F5020E94F5
:1044A000C41AFF91EF91BF91AF919F918F917F912E
:1044B0006F915F914F913F912F910F900FBE0F9091
:1044C0001F9018951F920F920FB60F9211242F93E1
:1044D0003F934F935F936F937F938F939F93AF938C
:1044E000BF93EF93FF938091F2029091F3020E94A9
:1044F000C41AFF91EF91BF91AF919F918F917F91DE
:104500006F915F914F913F912F910F900FBE0F9040
:104510001F901895CF93DF930E9489061092E902AD
:104520001092E80288EE93E0A0E0B0E08093EA0207
:104530009093EB02A093EC02B093ED028FE391E035
:104540009093E7028093E60280E5809380031092C7
:10455000600310925F031092620310926103109245
:104560006403109263031092650310926603109225
:1045700067038091260190912701A09128018093E3
:10458000680390936903A0936A0310926B031092DF
:104590006C0310926D0310926E0310926F031092D1
:1045A00070031092710310927203109273031092B1
:1045B0007403109275031092760380E892EBA6EED6
:1045C000BEE08093770390937803A0937903B09330
:1045D0007A0362E083E00E94BB0662E082E00E9410
:1045E000BB06E2EAFAE0E491F0E0EE0FFF1FEB56C3
:1045F000F54FA591B491B0935403A0935303E4E80D
:10460000FAE0449140935703E1EAFAE0E491F0E0E4
:10461000EE0FFF1FEB56F54FC591D491D093560383
:10462000C0935503E3E8FAE0E491E0935803109255
:104630005A0310925B0310925C0310925D032BE30C
:104640003FE1C9010197F1F79C91842F892391E003
:1046500009F490E08881E82309F0926023E533E0D3
:10466000909359033093F5022093F40280916900EE
:10467000837F846080936900E99AC1E0C0935E0300
:104680003093F3022093F202809169008C7F816065
:1046900080936900E89A82E080935E0310921B0386
:1046A00010921A0320E830E030931D0320931C037E
:1046B00080E290E090931F0380931E0330932103C8
:1046C00020932003909323038093220310922E03C0
:1046D00010922503109224031092270310922603B0
:1046E000C0932D03C0932C038FEF9FEF90932B0368
:1046F00080932A039093290380932803C0932F0368
:1047000010923003109232031092310381E591E050
:10471000909319038093180386EE92E090933603EA
:104720008093350310923803109237038FEF8093F4
:104730003C0380933D0380933E0380933F0384E0DA
:104740008093400380E580934D0310924E031092B6
:1047500034031092330360E08CE00E94BB06EDE866
:10476000FAE0E491E0930A03EBEAFAE0E491F0E086
:10477000EE0FFF1FEB56F54F8591949190930C032C
:1047800080930B03109215031092170310921603D7
:10479000109214031092130310921203109211033B
:1047A0001092100310920F0310920E0310920D033B
:1047B0008AE093E09093FD028093FC021092FA024B
:1047C0001092FB021092F60289E08093F702C093E8
:1047D000F802C093F9021092090310920803DF91C6
:1047E000CF910895CF93DF93CDB7DEB760970FB623
:1047F000F894DEBF0FBECDBF789484B5826084BDCF
:1048000084B5816084BD85B5826085BD85B58160D4
:1048100085BD80916E00816080936E001092810052
:10482000809181008260809381008091810081600D
:1048300080938100809180008160809380008091CE
:10484000B10084608093B1008091B000816080935A
:10485000B00080917A00846080937A0080917A0021
:10486000826080937A0080917A00816080937A00E0
:1048700080917A00806880937A001092C10060E095
:1048800084E00E94BB0660E08EE00E94BB0661E00F
:1048900084E00E945B0683E08093040180913703EB
:1048A00090913803892B11F10E941D1F20911E0346
:1048B00030911F0380911C0390911D03213231051B
:1048C0000CF0B4C0B9016052710977FF02C06F5F8C
:1048D0007F4F759567958357910997FD019600E283
:1048E00010E023E730E04CED55E0B3C020911E030B
:1048F00030911F03C901079697FD0796B3E0959580
:104900008795BA95E1F720911C0330911D03AC0106
:10491000429FC001439F900D529F900D11240E9411
:10492000C32E9093380380933703892B09F0BCCFB3
:104930000E941D1F0E942314E091FC02F091FD02D1
:1049400013861586148612861186108617821682A3
:104950001582148213821092FA021092FB0201E077
:10496000BE016F5F7F4F8091FC029091FD020E941B
:10497000061B882309F431C267E0CE0101960E942C
:10498000730798858913ECCF8091F602811128C0B6
:104990008091FC029091FD020E943008BE016F5F81
:1049A0007F4F8091FC029091FD020E94110840E02F
:1049B00064EB8091FC029091FD020E94DD078091E2
:1049C000FC029091FD020E948A07182F8091FC0240
:1049D0009091FD020E943008111102C00093F6026E
:1049E0001091F7028981803109F437C6CE01019612
:1049F0000E94B408811708F0DFC18091F70280930C
:104A0000F7028091FA028F5F8093FA0289818832DF
:104A100039F008F0DBC1803119F0823209F0A0CF03
:104A20008091FB028F5F8093FB029ACFB9016054A3
:104A3000710977FF02C06F5F7F4F7595679582554B
:104A4000910997FD019600E410E022E530E04CEB7F
:104A500057E0959587950E94DE0D82E080933A039A
:104A60008091350390913603892B09F49AC08CE329
:104A7000809339030E9489068091400387FD1EC000
:104A800061E00E94BB0661E0809140030E945B06EA
:104A900061E070E080E090E00E94340760E0809187
:104AA00040030E945B066AE070E080E090E00E94B4
:104AB000340761E0809140030E945B0680913503DA
:104AC00090913603892B09F42BC18CE08093B800B8
:104AD00064E08EEC95E00E94201360911E0361500B
:104AE00088E193E00E94C31364E08AEC95E00E94A1
:104AF000201380913A0360E1813009F064E188E19C
:104B000093E00E94C31364E086EC95E00E942013BA
:104B100080911C0390911D038038910509F02BC1F1
:104B200080911E0390911F038032910509F00FC1FF
:104B300064E082EC95E00E94201369ED88E193E047
:104B40000E94C31380913A0362E2813009F061EF61
:104B500088E193E00E94C31366E086EB95E00E9433
:104B600020138091350390913603892B09F41AC1E3
:104B700020914F03309150034091510350915203C3
:104B800060E074E284EF90E00E946A2B20513109CA
:104B90004109510956954795379527952093B800B7
:104BA000C7CE61E080913E030E94BB0661E0809128
:104BB0003F030E94BB0680913E03082E000C990B18
:104BC000FC01E156F54FE491F0E0EE0FFF1FEE52CD
:104BD000FA4F259134913093460320934503FC010D
:104BE000EF57F54FE491E0934B0380913F03082E7C
:104BF000000C990BFC01E156F54FE491F0E0EE0F4B
:104C0000FF1FEE52FA4FA591B491B0934803A093C1
:104C10004703FC01EF57F54FE491E0934C038C916F
:104C2000E82BEC938091330390913403892B09F4A2
:104C300034C01FB7F89480917602811127C0E9EA49
:104C4000FAE08491EBE8FAE09491E82FF0E0EE0FBF
:104C5000FF1FE455FA4FA591B491EC91E92321F49B
:104C600061E08AE00E945B0661E08AE00E94BB0688
:104C70008CB580618CBD8CB580648CBD61E08DE0AD
:104C80000E94BB0661E08BE00E94BB068091760229
:104C90008F5F809376021FBFEFCE61E080913C036F
:104CA0000E94BB0661E080913D030E94BB0680919B
:104CB0003C03082E000C990BFC01E156F54FE491E2
:104CC000F0E0EE0FFF1FEE52FA4F25913491309332
:104CD000420320934103FC01EF57F54FE491E09329
:104CE000490380913D03082E000C990BFC01E1560D
:104CF000F54FE491F0E0EE0FFF1FEE52FA4FA59151
:104D0000B491B0934403A0934303FC01EF57F54FD4
:104D1000E491E0934A038C91E095E823EC93ACCEC8
:104D20008091330390913403892B31F080914D03AE
:104D300090914E030E942014E0914703F0914803A4
:104D4000908180914C03809589238083C1CE8034EB
:104D5000910509F0F2CE63E08FEB95E00E942013FD
:104D600080913A036FE9813009F06FEC88E193E0BC
:104D70000E94C313E2CE8036910509F0DECE809109
:104D80001E0390911F03409709F0D7CE63E08CEB90
:104D900095E00E94201380913A0360E1813031F365
:104DA0006FEAE4CFE0914703F0914803808190914E
:104DB0004C03892B8083BCCD8981803111F48CE038
:104DC0001ECECE0101960E94B40819CE8B3309F491
:104DD00027CE823409F0C4CD23CE90E080E00E943B
:104DE0008E1D898381E090E00E948E1D8A8302E0FF
:104DF00010E0F12CE12CC8010E948E1DE80EF11C80
:104E00000F5F1F4F03311105B1F789819A81E816B1
:104E1000F90609F0A0C00DE011E082E090E07C010D
:104E20005FEFE51AF50A0E948E1DD8018D938D0162
:104E3000C7018331910599F70E94C8160E94FA169E
:104E40000E94A01A0E94B31A0E94861B0E94CB1CCB
:104E50000E941D1F10922503109224031092270315
:104E60001092260381E090E090932B0380932A0315
:104E7000909329038093280383E080932C038093ED
:104E80002D0385E091E00E94B51D89E791E00E9425
:104E9000B51D0E94231468EE73E080E090E00E944C
:104EA00034070E943D1F84E6282E312C11E003E0D8
:104EB00084E00E94320620910C01892B09F070C316
:104EC000222361F010920C010E9467076093770221
:104ED000709378028093790290937A0280915E03B6
:104EE000823008F041C0F89483E593E00E94C41A30
:104EF00060915A0370915B0380915C0390915D0314
:104F0000789424E030E040E050E00E94402B2901FA
:104F10003A01C0907C02D0907D02E0907E02F09039
:104F20007F024C145D046E047F0409F401C1E0911A
:104F30008C02EA3008F0E6C0F0E0EF55F84D0C9432
:104F4000072EB6276F2820295929CC29012A492A5A
:104F5000702A972AB12A0E949F166ECF10928C0257
:104F60003DC310928C024BC3F894C2CF80901001C5
:104F700090901101A0901201B0901301A0911D0119
:104F8000B0E020EA36E841E050E00E945F2B6D87F8
:104F90007E878F87988BA0911C01B0E00E945F2BC9
:104FA00069877A878B879C87C414D504E604F70445
:104FB0000CF067C02D853E854F8558892815390529
:104FC0004A055B0548F1E0910D01F0E0E95CFE4F18
:104FD000C0803AE0C39E600111240D2C000CEE0845
:104FE000FF08C501B401A70196010E946A2B8C0C31
:104FF0009D1CAE1CBF1C611571058105910521F03A
:10500000861A970AA80AB90A809210019092110193
:10501000A0921201B09213018091100190911101A0
:10502000A0911201B091130129853A854B855C85C9
:1050300082179307A407B50740F42093100130931B
:10504000110140931201509313018091100190912E
:105050001101A0911201B09113012D853E854F855C
:105060005889281739074A075B0740F42093100135
:105070003093110140931201509313010E94FA16CC
:1050800041C04C145D046E047F0434F689859A8512
:10509000AB85BC8588169906AA06BB0608F4BCCF6A
:1050A000E0910D01F0E0E95CFE4FC0809AE0C99EFE
:1050B000600111240D2C000CEE08FF08C501B4019D
:1050C000A70196010E946A2B611571058105910562
:1050D00009F096CF8C189D08AE08BF0895CF809137
:1050E0000D01C414D504E604F7040CF09EC083300F
:1050F00018F48F5F80930D0180910D01843010F0C2
:1051000000930D010E9467076093830270938402ED
:105110008093850290938602109382020E943D1F25
:1051200040927C0250927D0260927E0270927F02D9
:1051300085E00E94320620918B02892B09F468C217
:10514000211108C010938B021092810210928002EC
:105150000E94FA1680918C0281115FC080918B02AF
:10516000882309F416C230921F0120921E010E946A
:105170006707C0908702D0908802E0908902F09083
:105180008A02AB01BC014C195D096E097F0980914F
:105190001E0190911F01092E000CAA0BBB0B841756
:1051A0009507A607B707C8F50E946707C090830256
:1051B000D0908402E0908502F09086026C197D09FF
:1051C0008E099F09613177428105910590F08091A8
:1051D0008202882371F00E946707609383027093B4
:1051E00084028093850290938602109282020E942C
:1051F0009F160E94A01A0E94B31A0E94861B0E944A
:10520000CB1C0E943D1F0E9467076093870270932A
:1052100088028093890290938A0280E090E0892B33
:1052200009F446CE0E94000041CE4C145D046E0489
:105230007F040CF061CF882309F45ECF81505ACFF0
:1052400080911A0190911B01C414D504E604F7045F
:105250002CF5893B3BE093072CF4C29690931B01FD
:1052600080931A0180911A0190911B01893B9B4008
:1052700034F088EB9BE090931B0180931A0180919E
:105280001A0190911B018834944F0CF0F7CEE8E49A
:10529000F4EFF0931B01E0931A01F0CE4C145D047F
:1052A0006E047F04FCF6883444EF9407DCF2C29766
:1052B000D5CF8091140190911501A0911601B09164
:1052C0001701C414D504E604F7040CF04DC081376F
:1052D000F4E69F07F8E0AF07B10590F4E0910D0107
:1052E000F0E0E95CFE4F2081820F911DA11DB11DF0
:1052F0008093140190931501A0931601B0931701A8
:105300008091140190911501A0911601B09117019F
:10531000803D9D4DA640B10560F480ED9DEDA6E079
:10532000B0E08093140190931501A0931601B093FF
:1053300017018091140190911501A0911601B0916F
:10534000170181379446A840B10508F497CE20E7AD
:1053500034E648E050E02093140130931501409367
:105360001601509317018ACE4C145D046E047F041D
:105370003CF6803D2DED920726E0A207B10508F42A
:10538000BFCFE0910D01F0E0E95CFE4F2081821B70
:105390009109A109B109ACCF80910E0190910F0143
:1053A000C414D504E604F70414F58F3F91052CF4DA
:1053B000019690930F0180930E0180910E019091C0
:1053C0000F018F3F910534F04EEF50E050930F01E5
:1053D00040930E0180910E0190910F01843691054A
:1053E0000CF090CE30920F0120920E018BCE4C1417
:1053F0005D046E047F040CF784369105F4F2019786
:10540000D8CF8091180190911901C414D504E604F5
:10541000F7046CF5813355E7950764F4E0910D01CD
:10542000F0E0E95CFE4F2081820F911D90931901FD
:10543000809318018091180190911901813395474B
:1054400034F0E0E3F5E7F0931901E093180180915F
:10545000180190911901803D9A4834F420ED3AE802
:1054600030931901209318010E94C81607CE4C14DE
:105470005D046E047F04F4F6803DAAE89A07D4F236
:10548000E0910D01F0E0E95CFE4F2081821B910963
:10549000CDCF80911C01C414D504E604F704BCF4FC
:1054A0008B3F18F48F5F80931C0180911C018A3020
:1054B00018F48AE080931C0180911D0190911C01D9
:1054C000981708F41FCE815080931C011BCE4C14FA
:1054D0005D046E047F044CF78A3038F38150E3CFCB
:1054E00080911D01C414D504E604F704BCF48B3F7D
:1054F00018F48F5F80931D0180911C0190911D0114
:10550000891718F08F5F80931D0180911D018B3FDB
:1055100008F4F8CD8AEF80931D01F4CD4C145D049E
:105520006E047F044CF78A3038F38150E3CF8091CA
:10553000DC02C414D504E604F70464F48F5F80939E
:10554000DC028091DC02883110F01092DC021093B2
:105550007B02D8CD4C145D046E047F0494F7815017
:10556000EECF8091DB02C414D504E604F70454F4B2
:105570008F5F8093DB028091DB028C3340F31092CB
:10558000DB02E5CF4C145D046E047F04A4F7815068
:10559000F0CF48EE53E050931F0140931E01E7CD3A
:1055A00021119CCC10930C010E946707C0907702D8
:1055B000D0907802E0907902F0907A026C197D091F
:1055C0008E099F09683EB3E07B078105910530F0A5
:1055D00020918C022111C2CC00938C026556710976
:1055E00081099109633873408105910570F48091B8
:1055F0008C028F5F833009F4B4CC80938C0280914D
:105600008C028A3010F000938C020E943D1F66CC01
:10561000222371F010928B0280911A0190911B014C
:1056200090938102809380020E94FA160E943D1F8F
:1056300080918B0281118ECD80911A0190911B0176
:1056400020918002309181028217930709F482CD64
:1056500090938102809380027BCD1D3008F0CDC9EC
:10566000AECB81E591E0909319038093180380916C
:10567000370390913803009711F00C945F2F089531
:10568000052E97FB1EF400940E94572B57FD07D060
:105690000E946A2B07FC03D04EF40C94572B5095B4
:1056A0004095309521953F4F4F4F5F4F089590950E
:1056B0008095709561957F4F8F4F9F4F08950E9401
:1056C0008C2BA59F900DB49F900DA49F800D911DD4
:1056D00011240895A1E21A2EAA1BBB1BFD010DC0C7
:1056E000AA1FBB1FEE1FFF1FA217B307E407F50792
:1056F00020F0A21BB30BE40BF50B661F771F881F6E
:10570000991F1A9469F760957095809590959B0103
:10571000AC01BD01CF010895A29FB001B39FC001AC
:10572000A39F700D811D1124911DB29F700D811DCD
:105730001124911D08955058BB27AA270E94B32B0E
:105740000C94262D0E94182D38F00E941F2D20F059
:1057500039F49F3F19F426F40C94152D0EF4E095BE
:10576000E7FB0C940F2DE92F0E94372D58F3BA1741
:10577000620773078407950720F079F4A6F50C9467
:10578000592D0EF4E0950B2EBA2FA02D0B01B90167
:1057900090010C01CA01A0011124FF27591B99F0A7
:1057A000593F50F4503E68F11A16F040A22F232FB3
:1057B000342F4427585FF3CF469537952795A79503
:1057C000F0405395C9F77EF41F16BA0B620B730BAA
:1057D000840BBAF09150A1F0FF0FBB1F661F771F1B
:1057E000881FC2F70EC0BA0F621F731F841F48F4D0
:1057F000879577956795B795F7959E3F08F0B0CF59
:105800009395880F08F09927EE0F9795879508953F
:105810000E94EB2C08F481E008950E94212C0C9446
:10582000262D0E941F2D58F00E94182D40F029F4BB
:105830005F3F29F00C940F2D51110C945A2D0C94AC
:10584000152D0E94372D68F39923B1F3552391F359
:10585000951B550BBB27AA2762177307840738F0DF
:105860009F5F5F4F220F331F441FAA1FA9F335D03C
:105870000E2E3AF0E0E832D091505040E695001CF0
:10588000CAF72BD0FE2F29D0660F771F881FBB1FAA
:10589000261737074807AB07B0E809F0BB0B802D88
:1058A000BF01FF2793585F4F3AF09E3F510578F0B4
:1058B0000C940F2D0C945A2D5F3FE4F3983ED4F3D3
:1058C000869577956795B795F7959F5FC9F7880F88
:1058D000911D9695879597F90895E1E0660F771FDA
:1058E000881FBB1F621773078407BA0720F0621B6B
:1058F000730B840BBA0BEE1F88F7E09508950E9496
:105900003F2D88F09F5798F0B92F9927B751B0F0E5
:10591000E1F0660F771F881F991F1AF0BA95C9F733
:1059200014C0B13091F00E94592DB1E008950C944B
:10593000592D672F782F8827B85F39F0B93FCCF3FE
:10594000869577956795B395D9F73EF490958095B0
:10595000709561957F4F8F4F9F4F0895E89409C0D0
:1059600097FB3EF490958095709561957F4F8F4F92
:105970009F4F9923A9F0F92F96E9BB279395F695A8
:10598000879577956795B795F111F8CFFAF4BB0F26
:1059900011F460FF1BC06F5F7F4F8F4F9F4F16C08A
:1059A000882311F096E911C0772321F09EE8872F14
:1059B000762F05C0662371F096E8862F70E060E0D0
:1059C0002AF09A95660F771F881FDAF7880F969549
:1059D000879597F90895990F0008550FAA0BE0E8ED
:1059E000FEEF16161706E807F907C0F012161306A1
:1059F000E407F50798F0621B730B840B950B39F4E1
:105A00000A2661F0232B242B252B21F408950A2646
:105A100009F4A140A6958FEF811D811D089597F986
:105A20009F6780E870E060E008959FEF80EC089544
:105A300000240A941616170618060906089500246D
:105A40000A9412161306140605060895092E0394E7
:105A5000000C11F4882352F0BB0F40F4BF2B11F45B
:105A600060FF04C06F5F7F4F8F4F9F4F089557FDBA
:105A70009058440F551F59F05F3F71F04795880FBC
:105A800097FB991F61F09F3F79F087950895121653
:105A900013061406551FF2CF4695F1DF08C01616FF
:105AA00017061806991FF1CF8695710561050894B0
:105AB0000895E894BB2766277727CB0197F90895C7
:105AC0000E94EB2C08F48FEF08950E94782D0C941F
:105AD000262D0E94182D38F00E941F2D20F09523AE
