:1000000009C0ACC0ABC0AAC0A9C0A8C0A7C0A6C048
:10001000A5C0A4C011241FBECFE9CDBF20E0A0E63B
:10002000B0E001C01D92A336B207E1F701D0E6C1EE
:10003000CF93DF93CDB7DD27C850CDBF7894BB9861
:1000400087B1836087B986B1876886B978941ED1F5
:10005000892B49F480916000909161000196909302
:1000600061008093600012D15C0110D1A816B9061E
:1000700009F071C0809162008F5F8093620080916F
:10008000600090916100A816B90669F38091620042
:10009000883148F3B50190E080E022E330E040E0B1
:1000A00050E09CD03A01290180E6480E8DE4581EAC
:1000B0008FE2681E711C59D0CC24CA94E12CF12C1B
:1000C0008701E39420E030E0A90163E18AE1F3D005
:1000D000A30192016FE378E189E99EE1B0D0962E09
:1000E00029833A834B835C8369817A818B819C81EC
:1000F0002AE0660F771F881F991F2A95D1F7A30161
:1001000092019DD06D837E838F8398872D813E8160
:100110004F8158856AE0220F331F441F551F6A958F
:10012000D1F7C12CEE24EA94FE2C0FE010E0692DEB
:100130008AE2C1D06CE480E1AFD060EA81EBACD060
:100140006EEF83E0A9D016D0B0926100A09260005B
:100150001092620088CF1092620091CF51CF2F93FE
:1001600026E12A95F1F72F910895BA98B998C29887
:10017000C1980895BA9A0895BA9AF1DF13D00895F4
:10018000082EBA9AECDF802D0DD0882311F002D012
:10019000F8CF0895B99ABA9AE2DFB998E0DFBA9831
:1001A000DEDF08950894881F01C0880F59F0B99ABE
:1001B00018F40000BA9802C0BA9A00C0D0DFB9980B
:1001C000CEDFF3CFB99ABA98CADFB998B19BFECF08
:1001D0008827B29981E0C3DF992708952F923F9233
:1001E0004F925F926F927F920F934424552466241E
:1001F0007718062E172E282E392E01E237942794D1
:10020000179407940A9551F020F4420E531E641E71
:10021000751E7794679457944794F0CF972D862D49
:10022000752D642D532D422D312D202D0F917F9052
:100230006F905F904F903F902F90112408952F92D0
:100240003F920F93332422241124002401E20894C6
:10025000661F771F881F991F0A9549F4532D422D59
:10026000312D202D0F913F902F9011240895001CC7
:10027000111C221C331C021A130A240A350A38F7EF
:10028000020E131E241E351E8894E2CF369A36992C
:10029000FECF84B195B10895CF93DF93D82FC62FA9
:1002A00080EC6EDF8D2F7EDF8C2F7CDF73DF80E0B4
:1002B000DF91CF9108952F923F924F925F926F926C
:1002C0007F928F929F92AF92BF92CF92DF92EF92E6
:1002D000FF920F931F93CF93DF93CDB7DD27C051CC
:1002E000CDBF282E362E6701780129013A0187E01B
:1002F000440C551C661C771C8A95D1F7A801960101
:10030000C301B2019CDF6D837E838F8398878D80CC
:100310009E80AF80B884A5019401C801B6015EDF5C
:1003200029873A874B875C876D877E878F87988B75
:1003300089859A85AB85BC85481A590A6A0A7B0A61
:10034000B501A401525061097109832D90E0969581
:10035000982F882797958795092E000CAA0BBB0B21
:100360004A015B01880E991EAA1EBB1E99278F2D7C
:100370007E2D6D2D822D90DF6C2D81E0820D8CDF26
:100380006A2D637082E0820D87DF99278B2D7A2D8D
:10039000692D83E0820D80DF682D84E0820D7CDF93
:1003A0005CE0F694E794D794C7945A95D1F79C2DC6
:1003B000907F662D6F70692B85E0820D6DDF992728
:1003C000872D762D652D86E0820D66DF642D87E012
:1003D000820DC05FCDBFDF91CF911F910F91FF9034
:1003E000EF90DF90CF90BF90AF909F908F907F90D5
:1003F0006F905F904F903F902F904ECFF894FFCF2B
:00000001FF
